{
	"Solidity Basics/Crowdfunding.sol": {
		"Crowdfunding": {
			"abi": [
				{
					"inputs": [
						{
							"internalType": "uint256",
							"name": "_goalAmount",
							"type": "uint256"
						},
						{
							"internalType": "uint256",
							"name": "_campaignDurationInDays",
							"type": "uint256"
						}
					],
					"stateMutability": "nonpayable",
					"type": "constructor"
				},
				{
					"inputs": [],
					"name": "checkGoalReached",
					"outputs": [
						{
							"internalType": "bool",
							"name": "",
							"type": "bool"
						}
					],
					"stateMutability": "view",
					"type": "function"
				},
				{
					"inputs": [
						{
							"internalType": "uint256",
							"name": "baseUnits",
							"type": "uint256"
						}
					],
					"name": "contribute",
					"outputs": [],
					"stateMutability": "nonpayable",
					"type": "function"
				},
				{
					"inputs": [
						{
							"internalType": "address",
							"name": "",
							"type": "address"
						}
					],
					"name": "contributions",
					"outputs": [
						{
							"internalType": "uint256",
							"name": "",
							"type": "uint256"
						}
					],
					"stateMutability": "view",
					"type": "function"
				},
				{
					"inputs": [],
					"name": "endTime",
					"outputs": [
						{
							"internalType": "uint256",
							"name": "",
							"type": "uint256"
						}
					],
					"stateMutability": "view",
					"type": "function"
				},
				{
					"inputs": [],
					"name": "goalAmount",
					"outputs": [
						{
							"internalType": "uint256",
							"name": "",
							"type": "uint256"
						}
					],
					"stateMutability": "view",
					"type": "function"
				},
				{
					"inputs": [],
					"name": "goalReached",
					"outputs": [
						{
							"internalType": "bool",
							"name": "",
							"type": "bool"
						}
					],
					"stateMutability": "view",
					"type": "function"
				},
				{
					"inputs": [],
					"name": "totalContributed",
					"outputs": [
						{
							"internalType": "uint256",
							"name": "",
							"type": "uint256"
						}
					],
					"stateMutability": "view",
					"type": "function"
				},
				{
					"inputs": [],
					"name": "withdraw",
					"outputs": [],
					"stateMutability": "nonpayable",
					"type": "function"
				}
			],
			"devdoc": {
				"kind": "dev",
				"methods": {},
				"version": 1
			},
			"evm": {
				"assembly": "    /* \"Solidity Basics/Crowdfunding.sol\":66:1472  contract Crowdfunding {... */\n  mstore(0x40, 0x80)\n    /* \"Solidity Basics/Crowdfunding.sol\":286:663  constructor(uint256 _goalAmount, uint256 _campaignDurationInDays) {... */\n  callvalue\n  dup1\n  iszero\n  tag_1\n  jumpi\n  revert(0x00, 0x00)\ntag_1:\n  pop\n  mload(0x40)\n  sub(codesize, bytecodeSize)\n  dup1\n  bytecodeSize\n  dup4\n  codecopy\n  dup2\n  dup2\n  add\n  0x40\n  mstore\n  dup2\n  add\n  swap1\n  tag_2\n  swap2\n  swap1\n  tag_3\n  jump\t// in\ntag_2:\n    /* \"Solidity Basics/Crowdfunding.sol\":385:386  0 */\n  0x00\n    /* \"Solidity Basics/Crowdfunding.sol\":371:382  _goalAmount */\n  dup3\n    /* \"Solidity Basics/Crowdfunding.sol\":371:386  _goalAmount > 0 */\n  gt\n    /* \"Solidity Basics/Crowdfunding.sol\":363:429  require(_goalAmount > 0, \"Goal amount must be greater than zero.\") */\n  tag_6\n  jumpi\n  mload(0x40)\n  0x08c379a000000000000000000000000000000000000000000000000000000000\n  dup2\n  mstore\n  0x04\n  add\n  tag_7\n  swap1\n  tag_8\n  jump\t// in\ntag_7:\n  mload(0x40)\n  dup1\n  swap2\n  sub\n  swap1\n  revert\ntag_6:\n    /* \"Solidity Basics/Crowdfunding.sol\":474:475  0 */\n  0x00\n    /* \"Solidity Basics/Crowdfunding.sol\":448:471  _campaignDurationInDays */\n  dup2\n    /* \"Solidity Basics/Crowdfunding.sol\":448:475  _campaignDurationInDays > 0 */\n  gt\n    /* \"Solidity Basics/Crowdfunding.sol\":440:515  require(_campaignDurationInDays > 0, \"Campaign duration must be positive.\") */\n  tag_9\n  jumpi\n  mload(0x40)\n  0x08c379a000000000000000000000000000000000000000000000000000000000\n  dup2\n  mstore\n  0x04\n  add\n  tag_10\n  swap1\n  tag_11\n  jump\t// in\ntag_10:\n  mload(0x40)\n  dup1\n  swap2\n  sub\n  swap1\n  revert\ntag_9:\n    /* \"Solidity Basics/Crowdfunding.sol\":541:552  _goalAmount */\n  dup2\n    /* \"Solidity Basics/Crowdfunding.sol\":528:538  goalAmount */\n  0x00\n    /* \"Solidity Basics/Crowdfunding.sol\":528:552  goalAmount = _goalAmount */\n  dup2\n  swap1\n  sstore\n  pop\n    /* \"Solidity Basics/Crowdfunding.sol\":618:624  1 days */\n  0x015180\n    /* \"Solidity Basics/Crowdfunding.sol\":592:615  _campaignDurationInDays */\n  dup2\n    /* \"Solidity Basics/Crowdfunding.sol\":592:624  _campaignDurationInDays * 1 days */\n  tag_12\n  swap2\n  swap1\n  tag_13\n  jump\t// in\ntag_12:\n    /* \"Solidity Basics/Crowdfunding.sol\":573:588  block.timestamp */\n  timestamp\n    /* \"Solidity Basics/Crowdfunding.sol\":573:625  block.timestamp + (_campaignDurationInDays * 1 days) */\n  tag_14\n  swap2\n  swap1\n  tag_15\n  jump\t// in\ntag_14:\n    /* \"Solidity Basics/Crowdfunding.sol\":563:570  endTime */\n  0x01\n    /* \"Solidity Basics/Crowdfunding.sol\":563:625  endTime = block.timestamp + (_campaignDurationInDays * 1 days) */\n  dup2\n  swap1\n  sstore\n  pop\n    /* \"Solidity Basics/Crowdfunding.sol\":650:655  false */\n  0x00\n    /* \"Solidity Basics/Crowdfunding.sol\":636:647  goalReached */\n  0x03\n  0x00\n    /* \"Solidity Basics/Crowdfunding.sol\":636:655  goalReached = false */\n  0x0100\n  exp\n  dup2\n  sload\n  dup2\n  0xff\n  mul\n  not\n  and\n  swap1\n  dup4\n  iszero\n  iszero\n  mul\n  or\n  swap1\n  sstore\n  pop\n    /* \"Solidity Basics/Crowdfunding.sol\":286:663  constructor(uint256 _goalAmount, uint256 _campaignDurationInDays) {... */\n  pop\n  pop\n    /* \"Solidity Basics/Crowdfunding.sol\":66:1472  contract Crowdfunding {... */\n  jump(tag_16)\n    /* \"#utility.yul\":88:205   */\ntag_18:\n    /* \"#utility.yul\":197:198   */\n  0x00\n    /* \"#utility.yul\":194:195   */\n  0x00\n    /* \"#utility.yul\":187:199   */\n  revert\n    /* \"#utility.yul\":334:411   */\ntag_20:\n    /* \"#utility.yul\":371:378   */\n  0x00\n    /* \"#utility.yul\":400:405   */\n  dup2\n    /* \"#utility.yul\":389:405   */\n  swap1\n  pop\n    /* \"#utility.yul\":334:411   */\n  swap2\n  swap1\n  pop\n  jump\t// out\n    /* \"#utility.yul\":417:539   */\ntag_21:\n    /* \"#utility.yul\":490:514   */\n  tag_35\n    /* \"#utility.yul\":508:513   */\n  dup2\n    /* \"#utility.yul\":490:514   */\n  tag_20\n  jump\t// in\ntag_35:\n    /* \"#utility.yul\":483:488   */\n  dup2\n    /* \"#utility.yul\":480:515   */\n  eq\n    /* \"#utility.yul\":470:533   */\n  tag_36\n  jumpi\n    /* \"#utility.yul\":529:530   */\n  0x00\n    /* \"#utility.yul\":526:527   */\n  0x00\n    /* \"#utility.yul\":519:531   */\n  revert\n    /* \"#utility.yul\":470:533   */\ntag_36:\n    /* \"#utility.yul\":417:539   */\n  pop\n  jump\t// out\n    /* \"#utility.yul\":545:688   */\ntag_22:\n    /* \"#utility.yul\":602:607   */\n  0x00\n    /* \"#utility.yul\":633:639   */\n  dup2\n    /* \"#utility.yul\":627:640   */\n  mload\n    /* \"#utility.yul\":618:640   */\n  swap1\n  pop\n    /* \"#utility.yul\":649:682   */\n  tag_38\n    /* \"#utility.yul\":676:681   */\n  dup2\n    /* \"#utility.yul\":649:682   */\n  tag_21\n  jump\t// in\ntag_38:\n    /* \"#utility.yul\":545:688   */\n  swap3\n  swap2\n  pop\n  pop\n  jump\t// out\n    /* \"#utility.yul\":694:1201   */\ntag_3:\n    /* \"#utility.yul\":773:779   */\n  0x00\n    /* \"#utility.yul\":781:787   */\n  0x00\n    /* \"#utility.yul\":830:832   */\n  0x40\n    /* \"#utility.yul\":818:827   */\n  dup4\n    /* \"#utility.yul\":809:816   */\n  dup6\n    /* \"#utility.yul\":805:828   */\n  sub\n    /* \"#utility.yul\":801:833   */\n  slt\n    /* \"#utility.yul\":798:917   */\n  iszero\n  tag_40\n  jumpi\n    /* \"#utility.yul\":836:915   */\n  tag_41\n  tag_18\n  jump\t// in\ntag_41:\n    /* \"#utility.yul\":798:917   */\ntag_40:\n    /* \"#utility.yul\":956:957   */\n  0x00\n    /* \"#utility.yul\":981:1045   */\n  tag_42\n    /* \"#utility.yul\":1037:1044   */\n  dup6\n    /* \"#utility.yul\":1028:1034   */\n  dup3\n    /* \"#utility.yul\":1017:1026   */\n  dup7\n    /* \"#utility.yul\":1013:1035   */\n  add\n    /* \"#utility.yul\":981:1045   */\n  tag_22\n  jump\t// in\ntag_42:\n    /* \"#utility.yul\":971:1045   */\n  swap3\n  pop\n    /* \"#utility.yul\":927:1055   */\n  pop\n    /* \"#utility.yul\":1094:1096   */\n  0x20\n    /* \"#utility.yul\":1120:1184   */\n  tag_43\n    /* \"#utility.yul\":1176:1183   */\n  dup6\n    /* \"#utility.yul\":1167:1173   */\n  dup3\n    /* \"#utility.yul\":1156:1165   */\n  dup7\n    /* \"#utility.yul\":1152:1174   */\n  add\n    /* \"#utility.yul\":1120:1184   */\n  tag_22\n  jump\t// in\ntag_43:\n    /* \"#utility.yul\":1110:1184   */\n  swap2\n  pop\n    /* \"#utility.yul\":1065:1194   */\n  pop\n    /* \"#utility.yul\":694:1201   */\n  swap3\n  pop\n  swap3\n  swap1\n  pop\n  jump\t// out\n    /* \"#utility.yul\":1207:1376   */\ntag_23:\n    /* \"#utility.yul\":1291:1302   */\n  0x00\n    /* \"#utility.yul\":1325:1331   */\n  dup3\n    /* \"#utility.yul\":1320:1323   */\n  dup3\n    /* \"#utility.yul\":1313:1332   */\n  mstore\n    /* \"#utility.yul\":1365:1369   */\n  0x20\n    /* \"#utility.yul\":1360:1363   */\n  dup3\n    /* \"#utility.yul\":1356:1370   */\n  add\n    /* \"#utility.yul\":1341:1370   */\n  swap1\n  pop\n    /* \"#utility.yul\":1207:1376   */\n  swap3\n  swap2\n  pop\n  pop\n  jump\t// out\n    /* \"#utility.yul\":1382:1607   */\ntag_24:\n    /* \"#utility.yul\":1522:1556   */\n  0x476f616c20616d6f756e74206d7573742062652067726561746572207468616e\n    /* \"#utility.yul\":1518:1519   */\n  0x00\n    /* \"#utility.yul\":1510:1516   */\n  dup3\n    /* \"#utility.yul\":1506:1520   */\n  add\n    /* \"#utility.yul\":1499:1557   */\n  mstore\n    /* \"#utility.yul\":1591:1599   */\n  0x207a65726f2e0000000000000000000000000000000000000000000000000000\n    /* \"#utility.yul\":1586:1588   */\n  0x20\n    /* \"#utility.yul\":1578:1584   */\n  dup3\n    /* \"#utility.yul\":1574:1589   */\n  add\n    /* \"#utility.yul\":1567:1600   */\n  mstore\n    /* \"#utility.yul\":1382:1607   */\n  pop\n  jump\t// out\n    /* \"#utility.yul\":1613:1979   */\ntag_25:\n    /* \"#utility.yul\":1755:1758   */\n  0x00\n    /* \"#utility.yul\":1776:1843   */\n  tag_47\n    /* \"#utility.yul\":1840:1842   */\n  0x26\n    /* \"#utility.yul\":1835:1838   */\n  dup4\n    /* \"#utility.yul\":1776:1843   */\n  tag_23\n  jump\t// in\ntag_47:\n    /* \"#utility.yul\":1769:1843   */\n  swap2\n  pop\n    /* \"#utility.yul\":1852:1945   */\n  tag_48\n    /* \"#utility.yul\":1941:1944   */\n  dup3\n    /* \"#utility.yul\":1852:1945   */\n  tag_24\n  jump\t// in\ntag_48:\n    /* \"#utility.yul\":1970:1972   */\n  0x40\n    /* \"#utility.yul\":1965:1968   */\n  dup3\n    /* \"#utility.yul\":1961:1973   */\n  add\n    /* \"#utility.yul\":1954:1973   */\n  swap1\n  pop\n    /* \"#utility.yul\":1613:1979   */\n  swap2\n  swap1\n  pop\n  jump\t// out\n    /* \"#utility.yul\":1985:2404   */\ntag_8:\n    /* \"#utility.yul\":2151:2155   */\n  0x00\n    /* \"#utility.yul\":2189:2191   */\n  0x20\n    /* \"#utility.yul\":2178:2187   */\n  dup3\n    /* \"#utility.yul\":2174:2192   */\n  add\n    /* \"#utility.yul\":2166:2192   */\n  swap1\n  pop\n    /* \"#utility.yul\":2238:2247   */\n  dup2\n    /* \"#utility.yul\":2232:2236   */\n  dup2\n    /* \"#utility.yul\":2228:2248   */\n  sub\n    /* \"#utility.yul\":2224:2225   */\n  0x00\n    /* \"#utility.yul\":2213:2222   */\n  dup4\n    /* \"#utility.yul\":2209:2226   */\n  add\n    /* \"#utility.yul\":2202:2249   */\n  mstore\n    /* \"#utility.yul\":2266:2397   */\n  tag_50\n    /* \"#utility.yul\":2392:2396   */\n  dup2\n    /* \"#utility.yul\":2266:2397   */\n  tag_25\n  jump\t// in\ntag_50:\n    /* \"#utility.yul\":2258:2397   */\n  swap1\n  pop\n    /* \"#utility.yul\":1985:2404   */\n  swap2\n  swap1\n  pop\n  jump\t// out\n    /* \"#utility.yul\":2410:2632   */\ntag_26:\n    /* \"#utility.yul\":2550:2584   */\n  0x43616d706169676e206475726174696f6e206d75737420626520706f73697469\n    /* \"#utility.yul\":2546:2547   */\n  0x00\n    /* \"#utility.yul\":2538:2544   */\n  dup3\n    /* \"#utility.yul\":2534:2548   */\n  add\n    /* \"#utility.yul\":2527:2585   */\n  mstore\n    /* \"#utility.yul\":2619:2624   */\n  0x76652e0000000000000000000000000000000000000000000000000000000000\n    /* \"#utility.yul\":2614:2616   */\n  0x20\n    /* \"#utility.yul\":2606:2612   */\n  dup3\n    /* \"#utility.yul\":2602:2617   */\n  add\n    /* \"#utility.yul\":2595:2625   */\n  mstore\n    /* \"#utility.yul\":2410:2632   */\n  pop\n  jump\t// out\n    /* \"#utility.yul\":2638:3004   */\ntag_27:\n    /* \"#utility.yul\":2780:2783   */\n  0x00\n    /* \"#utility.yul\":2801:2868   */\n  tag_53\n    /* \"#utility.yul\":2865:2867   */\n  0x23\n    /* \"#utility.yul\":2860:2863   */\n  dup4\n    /* \"#utility.yul\":2801:2868   */\n  tag_23\n  jump\t// in\ntag_53:\n    /* \"#utility.yul\":2794:2868   */\n  swap2\n  pop\n    /* \"#utility.yul\":2877:2970   */\n  tag_54\n    /* \"#utility.yul\":2966:2969   */\n  dup3\n    /* \"#utility.yul\":2877:2970   */\n  tag_26\n  jump\t// in\ntag_54:\n    /* \"#utility.yul\":2995:2997   */\n  0x40\n    /* \"#utility.yul\":2990:2993   */\n  dup3\n    /* \"#utility.yul\":2986:2998   */\n  add\n    /* \"#utility.yul\":2979:2998   */\n  swap1\n  pop\n    /* \"#utility.yul\":2638:3004   */\n  swap2\n  swap1\n  pop\n  jump\t// out\n    /* \"#utility.yul\":3010:3429   */\ntag_11:\n    /* \"#utility.yul\":3176:3180   */\n  0x00\n    /* \"#utility.yul\":3214:3216   */\n  0x20\n    /* \"#utility.yul\":3203:3212   */\n  dup3\n    /* \"#utility.yul\":3199:3217   */\n  add\n    /* \"#utility.yul\":3191:3217   */\n  swap1\n  pop\n    /* \"#utility.yul\":3263:3272   */\n  dup2\n    /* \"#utility.yul\":3257:3261   */\n  dup2\n    /* \"#utility.yul\":3253:3273   */\n  sub\n    /* \"#utility.yul\":3249:3250   */\n  0x00\n    /* \"#utility.yul\":3238:3247   */\n  dup4\n    /* \"#utility.yul\":3234:3251   */\n  add\n    /* \"#utility.yul\":3227:3274   */\n  mstore\n    /* \"#utility.yul\":3291:3422   */\n  tag_56\n    /* \"#utility.yul\":3417:3421   */\n  dup2\n    /* \"#utility.yul\":3291:3422   */\n  tag_27\n  jump\t// in\ntag_56:\n    /* \"#utility.yul\":3283:3422   */\n  swap1\n  pop\n    /* \"#utility.yul\":3010:3429   */\n  swap2\n  swap1\n  pop\n  jump\t// out\n    /* \"#utility.yul\":3435:3615   */\ntag_28:\n    /* \"#utility.yul\":3483:3560   */\n  0x4e487b7100000000000000000000000000000000000000000000000000000000\n    /* \"#utility.yul\":3480:3481   */\n  0x00\n    /* \"#utility.yul\":3473:3561   */\n  mstore\n    /* \"#utility.yul\":3580:3584   */\n  0x11\n    /* \"#utility.yul\":3577:3578   */\n  0x04\n    /* \"#utility.yul\":3570:3585   */\n  mstore\n    /* \"#utility.yul\":3604:3608   */\n  0x24\n    /* \"#utility.yul\":3601:3602   */\n  0x00\n    /* \"#utility.yul\":3594:3609   */\n  revert\n    /* \"#utility.yul\":3621:4031   */\ntag_13:\n    /* \"#utility.yul\":3661:3668   */\n  0x00\n    /* \"#utility.yul\":3684:3704   */\n  tag_59\n    /* \"#utility.yul\":3702:3703   */\n  dup3\n    /* \"#utility.yul\":3684:3704   */\n  tag_20\n  jump\t// in\ntag_59:\n    /* \"#utility.yul\":3679:3704   */\n  swap2\n  pop\n    /* \"#utility.yul\":3718:3738   */\n  tag_60\n    /* \"#utility.yul\":3736:3737   */\n  dup4\n    /* \"#utility.yul\":3718:3738   */\n  tag_20\n  jump\t// in\ntag_60:\n    /* \"#utility.yul\":3713:3738   */\n  swap3\n  pop\n    /* \"#utility.yul\":3773:3774   */\n  dup3\n    /* \"#utility.yul\":3770:3771   */\n  dup3\n    /* \"#utility.yul\":3766:3775   */\n  mul\n    /* \"#utility.yul\":3795:3825   */\n  tag_61\n    /* \"#utility.yul\":3813:3824   */\n  dup2\n    /* \"#utility.yul\":3795:3825   */\n  tag_20\n  jump\t// in\ntag_61:\n    /* \"#utility.yul\":3784:3825   */\n  swap2\n  pop\n    /* \"#utility.yul\":3974:3975   */\n  dup3\n    /* \"#utility.yul\":3965:3972   */\n  dup3\n    /* \"#utility.yul\":3961:3976   */\n  div\n    /* \"#utility.yul\":3958:3959   */\n  dup5\n    /* \"#utility.yul\":3955:3977   */\n  eq\n    /* \"#utility.yul\":3935:3936   */\n  dup4\n    /* \"#utility.yul\":3928:3937   */\n  iszero\n    /* \"#utility.yul\":3908:3991   */\n  or\n    /* \"#utility.yul\":3885:4024   */\n  tag_62\n  jumpi\n    /* \"#utility.yul\":4004:4022   */\n  tag_63\n  tag_28\n  jump\t// in\ntag_63:\n    /* \"#utility.yul\":3885:4024   */\ntag_62:\n    /* \"#utility.yul\":3669:4031   */\n  pop\n    /* \"#utility.yul\":3621:4031   */\n  swap3\n  swap2\n  pop\n  pop\n  jump\t// out\n    /* \"#utility.yul\":4037:4228   */\ntag_15:\n    /* \"#utility.yul\":4077:4080   */\n  0x00\n    /* \"#utility.yul\":4096:4116   */\n  tag_65\n    /* \"#utility.yul\":4114:4115   */\n  dup3\n    /* \"#utility.yul\":4096:4116   */\n  tag_20\n  jump\t// in\ntag_65:\n    /* \"#utility.yul\":4091:4116   */\n  swap2\n  pop\n    /* \"#utility.yul\":4130:4150   */\n  tag_66\n    /* \"#utility.yul\":4148:4149   */\n  dup4\n    /* \"#utility.yul\":4130:4150   */\n  tag_20\n  jump\t// in\ntag_66:\n    /* \"#utility.yul\":4125:4150   */\n  swap3\n  pop\n    /* \"#utility.yul\":4173:4174   */\n  dup3\n    /* \"#utility.yul\":4170:4171   */\n  dup3\n    /* \"#utility.yul\":4166:4175   */\n  add\n    /* \"#utility.yul\":4159:4175   */\n  swap1\n  pop\n    /* \"#utility.yul\":4194:4197   */\n  dup1\n    /* \"#utility.yul\":4191:4192   */\n  dup3\n    /* \"#utility.yul\":4188:4198   */\n  gt\n    /* \"#utility.yul\":4185:4221   */\n  iszero\n  tag_67\n  jumpi\n    /* \"#utility.yul\":4201:4219   */\n  tag_68\n  tag_28\n  jump\t// in\ntag_68:\n    /* \"#utility.yul\":4185:4221   */\ntag_67:\n    /* \"#utility.yul\":4037:4228   */\n  swap3\n  swap2\n  pop\n  pop\n  jump\t// out\n    /* \"Solidity Basics/Crowdfunding.sol\":66:1472  contract Crowdfunding {... */\ntag_16:\n  dataSize(sub_0)\n  dup1\n  dataOffset(sub_0)\n  0x00\n  codecopy\n  0x00\n  return\nstop\n\nsub_0: assembly {\n        /* \"Solidity Basics/Crowdfunding.sol\":66:1472  contract Crowdfunding {... */\n      mstore(0x40, 0x80)\n      callvalue\n      dup1\n      iszero\n      tag_1\n      jumpi\n      revert(0x00, 0x00)\n    tag_1:\n      pop\n      jumpi(tag_2, lt(calldatasize, 0x04))\n      shr(0xe0, calldataload(0x00))\n      dup1\n      0x3ccfd60b\n      gt\n      tag_11\n      jumpi\n      dup1\n      0x3ccfd60b\n      eq\n      tag_7\n      jumpi\n      dup1\n      0x42e94c90\n      eq\n      tag_8\n      jumpi\n      dup1\n      0x7d3d6522\n      eq\n      tag_9\n      jumpi\n      dup1\n      0xc1cbbca7\n      eq\n      tag_10\n      jumpi\n      jump(tag_2)\n    tag_11:\n      dup1\n      0x01cb3b20\n      eq\n      tag_3\n      jumpi\n      dup1\n      0x023f4147\n      eq\n      tag_4\n      jumpi\n      dup1\n      0x2636b945\n      eq\n      tag_5\n      jumpi\n      dup1\n      0x3197cbb6\n      eq\n      tag_6\n      jumpi\n    tag_2:\n      revert(0x00, 0x00)\n        /* \"Solidity Basics/Crowdfunding.sol\":1048:1142  function checkGoalReached() external view returns (bool) {... */\n    tag_3:\n      tag_12\n      tag_13\n      jump\t// in\n    tag_12:\n      mload(0x40)\n      tag_14\n      swap2\n      swap1\n      tag_15\n      jump\t// in\n    tag_14:\n      mload(0x40)\n      dup1\n      swap2\n      sub\n      swap1\n      return\n        /* \"Solidity Basics/Crowdfunding.sol\":158:189  uint256 public totalContributed */\n    tag_4:\n      tag_16\n      tag_17\n      jump\t// in\n    tag_16:\n      mload(0x40)\n      tag_18\n      swap2\n      swap1\n      tag_19\n      jump\t// in\n    tag_18:\n      mload(0x40)\n      dup1\n      swap2\n      sub\n      swap1\n      return\n        /* \"Solidity Basics/Crowdfunding.sol\":95:120  uint256 public goalAmount */\n    tag_5:\n      tag_20\n      tag_21\n      jump\t// in\n    tag_20:\n      mload(0x40)\n      tag_22\n      swap2\n      swap1\n      tag_19\n      jump\t// in\n    tag_22:\n      mload(0x40)\n      dup1\n      swap2\n      sub\n      swap1\n      return\n        /* \"Solidity Basics/Crowdfunding.sol\":128:150  uint256 public endTime */\n    tag_6:\n      tag_23\n      tag_24\n      jump\t// in\n    tag_23:\n      mload(0x40)\n      tag_25\n      swap2\n      swap1\n      tag_19\n      jump\t// in\n    tag_25:\n      mload(0x40)\n      dup1\n      swap2\n      sub\n      swap1\n      return\n        /* \"Solidity Basics/Crowdfunding.sol\":1152:1469  function withdraw() external {... */\n    tag_7:\n      tag_26\n      tag_27\n      jump\t// in\n    tag_26:\n      stop\n        /* \"Solidity Basics/Crowdfunding.sol\":228:277  mapping (address => uint256) public contributions */\n    tag_8:\n      tag_28\n      0x04\n      dup1\n      calldatasize\n      sub\n      dup2\n      add\n      swap1\n      tag_29\n      swap2\n      swap1\n      tag_30\n      jump\t// in\n    tag_29:\n      tag_31\n      jump\t// in\n    tag_28:\n      mload(0x40)\n      tag_32\n      swap2\n      swap1\n      tag_19\n      jump\t// in\n    tag_32:\n      mload(0x40)\n      dup1\n      swap2\n      sub\n      swap1\n      return\n        /* \"Solidity Basics/Crowdfunding.sol\":197:220  bool public goalReached */\n    tag_9:\n      tag_33\n      tag_34\n      jump\t// in\n    tag_33:\n      mload(0x40)\n      tag_35\n      swap2\n      swap1\n      tag_15\n      jump\t// in\n    tag_35:\n      mload(0x40)\n      dup1\n      swap2\n      sub\n      swap1\n      return\n        /* \"Solidity Basics/Crowdfunding.sol\":673:1040  function contribute(uint256 baseUnits) external {... */\n    tag_10:\n      tag_36\n      0x04\n      dup1\n      calldatasize\n      sub\n      dup2\n      add\n      swap1\n      tag_37\n      swap2\n      swap1\n      tag_38\n      jump\t// in\n    tag_37:\n      tag_39\n      jump\t// in\n    tag_36:\n      stop\n        /* \"Solidity Basics/Crowdfunding.sol\":1048:1142  function checkGoalReached() external view returns (bool) {... */\n    tag_13:\n        /* \"Solidity Basics/Crowdfunding.sol\":1099:1103  bool */\n      0x00\n        /* \"Solidity Basics/Crowdfunding.sol\":1123:1134  goalReached */\n      0x03\n      0x00\n      swap1\n      sload\n      swap1\n      0x0100\n      exp\n      swap1\n      div\n      0xff\n      and\n        /* \"Solidity Basics/Crowdfunding.sol\":1116:1134  return goalReached */\n      swap1\n      pop\n        /* \"Solidity Basics/Crowdfunding.sol\":1048:1142  function checkGoalReached() external view returns (bool) {... */\n      swap1\n      jump\t// out\n        /* \"Solidity Basics/Crowdfunding.sol\":158:189  uint256 public totalContributed */\n    tag_17:\n      sload(0x02)\n      dup2\n      jump\t// out\n        /* \"Solidity Basics/Crowdfunding.sol\":95:120  uint256 public goalAmount */\n    tag_21:\n      sload(0x00)\n      dup2\n      jump\t// out\n        /* \"Solidity Basics/Crowdfunding.sol\":128:150  uint256 public endTime */\n    tag_24:\n      sload(0x01)\n      dup2\n      jump\t// out\n        /* \"Solidity Basics/Crowdfunding.sol\":1152:1469  function withdraw() external {... */\n    tag_27:\n        /* \"Solidity Basics/Crowdfunding.sol\":1195:1206  goalReached */\n      0x03\n      0x00\n      swap1\n      sload\n      swap1\n      0x0100\n      exp\n      swap1\n      div\n      0xff\n      and\n        /* \"Solidity Basics/Crowdfunding.sol\":1192:1288  if(goalReached) {... */\n      iszero\n      tag_42\n      jumpi\n        /* \"Solidity Basics/Crowdfunding.sol\":1223:1276  revert (\"Cannot withdraw when goal has been reached\") */\n      mload(0x40)\n      0x08c379a000000000000000000000000000000000000000000000000000000000\n      dup2\n      mstore\n      0x04\n      add\n      tag_43\n      swap1\n      tag_44\n      jump\t// in\n    tag_43:\n      mload(0x40)\n      dup1\n      swap2\n      sub\n      swap1\n      revert\n        /* \"Solidity Basics/Crowdfunding.sol\":1192:1288  if(goalReached) {... */\n    tag_42:\n        /* \"Solidity Basics/Crowdfunding.sol\":1319:1326  endTime */\n      sload(0x01)\n        /* \"Solidity Basics/Crowdfunding.sol\":1303:1318  block.timestamp */\n      timestamp\n        /* \"Solidity Basics/Crowdfunding.sol\":1303:1326  block.timestamp<endTime */\n      lt\n        /* \"Solidity Basics/Crowdfunding.sol\":1300:1390  if(block.timestamp<endTime) {... */\n      iszero\n      tag_45\n      jumpi\n        /* \"Solidity Basics/Crowdfunding.sol\":1343:1378  revert (\"Fund has not yet expired\") */\n      mload(0x40)\n      0x08c379a000000000000000000000000000000000000000000000000000000000\n      dup2\n      mstore\n      0x04\n      add\n      tag_46\n      swap1\n      tag_47\n      jump\t// in\n    tag_46:\n      mload(0x40)\n      dup1\n      swap2\n      sub\n      swap1\n      revert\n        /* \"Solidity Basics/Crowdfunding.sol\":1300:1390  if(block.timestamp<endTime) {... */\n    tag_45:\n        /* \"Solidity Basics/Crowdfunding.sol\":1429:1430  0 */\n      0x00\n        /* \"Solidity Basics/Crowdfunding.sol\":1402:1415  contributions */\n      0x04\n        /* \"Solidity Basics/Crowdfunding.sol\":1402:1427  contributions[msg.sender] */\n      0x00\n        /* \"Solidity Basics/Crowdfunding.sol\":1416:1426  msg.sender */\n      caller\n        /* \"Solidity Basics/Crowdfunding.sol\":1402:1427  contributions[msg.sender] */\n      0xffffffffffffffffffffffffffffffffffffffff\n      and\n      0xffffffffffffffffffffffffffffffffffffffff\n      and\n      dup2\n      mstore\n      0x20\n      add\n      swap1\n      dup2\n      mstore\n      0x20\n      add\n      0x00\n      keccak256\n        /* \"Solidity Basics/Crowdfunding.sol\":1402:1430  contributions[msg.sender] =0 */\n      dup2\n      swap1\n      sstore\n      pop\n        /* \"Solidity Basics/Crowdfunding.sol\":1460:1461  0 */\n      0x00\n        /* \"Solidity Basics/Crowdfunding.sol\":1441:1457  totalContributed */\n      0x02\n        /* \"Solidity Basics/Crowdfunding.sol\":1441:1461  totalContributed = 0 */\n      dup2\n      swap1\n      sstore\n      pop\n        /* \"Solidity Basics/Crowdfunding.sol\":1152:1469  function withdraw() external {... */\n      jump\t// out\n        /* \"Solidity Basics/Crowdfunding.sol\":228:277  mapping (address => uint256) public contributions */\n    tag_31:\n      mstore(0x20, 0x04)\n      dup1\n      0x00\n      mstore\n      keccak256(0x00, 0x40)\n      0x00\n      swap2\n      pop\n      swap1\n      pop\n      sload\n      dup2\n      jump\t// out\n        /* \"Solidity Basics/Crowdfunding.sol\":197:220  bool public goalReached */\n    tag_34:\n      0x03\n      0x00\n      swap1\n      sload\n      swap1\n      0x0100\n      exp\n      swap1\n      div\n      0xff\n      and\n      dup2\n      jump\t// out\n        /* \"Solidity Basics/Crowdfunding.sol\":673:1040  function contribute(uint256 baseUnits) external {... */\n    tag_39:\n        /* \"Solidity Basics/Crowdfunding.sol\":754:761  endTime */\n      sload(0x01)\n        /* \"Solidity Basics/Crowdfunding.sol\":736:751  block.timestamp */\n      timestamp\n        /* \"Solidity Basics/Crowdfunding.sol\":736:761  block.timestamp > endTime */\n      gt\n        /* \"Solidity Basics/Crowdfunding.sol\":732:789  if (block.timestamp > endTime) revert (\"Campaign ended.\") */\n      iszero\n      tag_49\n      jumpi\n        /* \"Solidity Basics/Crowdfunding.sol\":763:789  revert (\"Campaign ended.\") */\n      mload(0x40)\n      0x08c379a000000000000000000000000000000000000000000000000000000000\n      dup2\n      mstore\n      0x04\n      add\n      tag_50\n      swap1\n      tag_51\n      jump\t// in\n    tag_50:\n      mload(0x40)\n      dup1\n      swap2\n      sub\n      swap1\n      revert\n        /* \"Solidity Basics/Crowdfunding.sol\":732:789  if (block.timestamp > endTime) revert (\"Campaign ended.\") */\n    tag_49:\n        /* \"Solidity Basics/Crowdfunding.sol\":804:815  goalReached */\n      0x03\n      0x00\n      swap1\n      sload\n      swap1\n      0x0100\n      exp\n      swap1\n      div\n      0xff\n      and\n        /* \"Solidity Basics/Crowdfunding.sol\":800:848  if (goalReached) revert (\"Goal already reached\") */\n      iszero\n      tag_52\n      jumpi\n        /* \"Solidity Basics/Crowdfunding.sol\":817:848  revert (\"Goal already reached\") */\n      mload(0x40)\n      0x08c379a000000000000000000000000000000000000000000000000000000000\n      dup2\n      mstore\n      0x04\n      add\n      tag_53\n      swap1\n      tag_54\n      jump\t// in\n    tag_53:\n      mload(0x40)\n      dup1\n      swap2\n      sub\n      swap1\n      revert\n        /* \"Solidity Basics/Crowdfunding.sol\":800:848  if (goalReached) revert (\"Goal already reached\") */\n    tag_52:\n        /* \"Solidity Basics/Crowdfunding.sol\":890:899  baseUnits */\n      dup1\n        /* \"Solidity Basics/Crowdfunding.sol\":861:874  contributions */\n      0x04\n        /* \"Solidity Basics/Crowdfunding.sol\":861:886  contributions[msg.sender] */\n      0x00\n        /* \"Solidity Basics/Crowdfunding.sol\":875:885  msg.sender */\n      caller\n        /* \"Solidity Basics/Crowdfunding.sol\":861:886  contributions[msg.sender] */\n      0xffffffffffffffffffffffffffffffffffffffff\n      and\n      0xffffffffffffffffffffffffffffffffffffffff\n      and\n      dup2\n      mstore\n      0x20\n      add\n      swap1\n      dup2\n      mstore\n      0x20\n      add\n      0x00\n      keccak256\n      0x00\n        /* \"Solidity Basics/Crowdfunding.sol\":861:899  contributions[msg.sender] += baseUnits */\n      dup3\n      dup3\n      sload\n      tag_55\n      swap2\n      swap1\n      tag_56\n      jump\t// in\n    tag_55:\n      swap3\n      pop\n      pop\n      dup2\n      swap1\n      sstore\n      pop\n        /* \"Solidity Basics/Crowdfunding.sol\":930:939  baseUnits */\n      dup1\n        /* \"Solidity Basics/Crowdfunding.sol\":910:926  totalContributed */\n      0x02\n      0x00\n        /* \"Solidity Basics/Crowdfunding.sol\":910:939  totalContributed += baseUnits */\n      dup3\n      dup3\n      sload\n      tag_57\n      swap2\n      swap1\n      tag_56\n      jump\t// in\n    tag_57:\n      swap3\n      pop\n      pop\n      dup2\n      swap1\n      sstore\n      pop\n        /* \"Solidity Basics/Crowdfunding.sol\":976:986  goalAmount */\n      sload(0x00)\n        /* \"Solidity Basics/Crowdfunding.sol\":956:972  totalContributed */\n      sload(0x02)\n        /* \"Solidity Basics/Crowdfunding.sol\":956:986  totalContributed >= goalAmount */\n      lt\n        /* \"Solidity Basics/Crowdfunding.sol\":952:1033  if (totalContributed >= goalAmount) {... */\n      tag_58\n      jumpi\n        /* \"Solidity Basics/Crowdfunding.sol\":1017:1021  true */\n      0x01\n        /* \"Solidity Basics/Crowdfunding.sol\":1003:1014  goalReached */\n      0x03\n      0x00\n        /* \"Solidity Basics/Crowdfunding.sol\":1003:1021  goalReached = true */\n      0x0100\n      exp\n      dup2\n      sload\n      dup2\n      0xff\n      mul\n      not\n      and\n      swap1\n      dup4\n      iszero\n      iszero\n      mul\n      or\n      swap1\n      sstore\n      pop\n        /* \"Solidity Basics/Crowdfunding.sol\":952:1033  if (totalContributed >= goalAmount) {... */\n    tag_58:\n        /* \"Solidity Basics/Crowdfunding.sol\":673:1040  function contribute(uint256 baseUnits) external {... */\n      pop\n      jump\t// out\n        /* \"#utility.yul\":7:97   */\n    tag_59:\n        /* \"#utility.yul\":41:48   */\n      0x00\n        /* \"#utility.yul\":84:89   */\n      dup2\n        /* \"#utility.yul\":77:90   */\n      iszero\n        /* \"#utility.yul\":70:91   */\n      iszero\n        /* \"#utility.yul\":59:91   */\n      swap1\n      pop\n        /* \"#utility.yul\":7:97   */\n      swap2\n      swap1\n      pop\n      jump\t// out\n        /* \"#utility.yul\":103:212   */\n    tag_60:\n        /* \"#utility.yul\":184:205   */\n      tag_85\n        /* \"#utility.yul\":199:204   */\n      dup2\n        /* \"#utility.yul\":184:205   */\n      tag_59\n      jump\t// in\n    tag_85:\n        /* \"#utility.yul\":179:182   */\n      dup3\n        /* \"#utility.yul\":172:206   */\n      mstore\n        /* \"#utility.yul\":103:212   */\n      pop\n      pop\n      jump\t// out\n        /* \"#utility.yul\":218:428   */\n    tag_15:\n        /* \"#utility.yul\":305:309   */\n      0x00\n        /* \"#utility.yul\":343:345   */\n      0x20\n        /* \"#utility.yul\":332:341   */\n      dup3\n        /* \"#utility.yul\":328:346   */\n      add\n        /* \"#utility.yul\":320:346   */\n      swap1\n      pop\n        /* \"#utility.yul\":356:421   */\n      tag_87\n        /* \"#utility.yul\":418:419   */\n      0x00\n        /* \"#utility.yul\":407:416   */\n      dup4\n        /* \"#utility.yul\":403:420   */\n      add\n        /* \"#utility.yul\":394:400   */\n      dup5\n        /* \"#utility.yul\":356:421   */\n      tag_60\n      jump\t// in\n    tag_87:\n        /* \"#utility.yul\":218:428   */\n      swap3\n      swap2\n      pop\n      pop\n      jump\t// out\n        /* \"#utility.yul\":434:511   */\n    tag_61:\n        /* \"#utility.yul\":471:478   */\n      0x00\n        /* \"#utility.yul\":500:505   */\n      dup2\n        /* \"#utility.yul\":489:505   */\n      swap1\n      pop\n        /* \"#utility.yul\":434:511   */\n      swap2\n      swap1\n      pop\n      jump\t// out\n        /* \"#utility.yul\":517:635   */\n    tag_62:\n        /* \"#utility.yul\":604:628   */\n      tag_90\n        /* \"#utility.yul\":622:627   */\n      dup2\n        /* \"#utility.yul\":604:628   */\n      tag_61\n      jump\t// in\n    tag_90:\n        /* \"#utility.yul\":599:602   */\n      dup3\n        /* \"#utility.yul\":592:629   */\n      mstore\n        /* \"#utility.yul\":517:635   */\n      pop\n      pop\n      jump\t// out\n        /* \"#utility.yul\":641:863   */\n    tag_19:\n        /* \"#utility.yul\":734:738   */\n      0x00\n        /* \"#utility.yul\":772:774   */\n      0x20\n        /* \"#utility.yul\":761:770   */\n      dup3\n        /* \"#utility.yul\":757:775   */\n      add\n        /* \"#utility.yul\":749:775   */\n      swap1\n      pop\n        /* \"#utility.yul\":785:856   */\n      tag_92\n        /* \"#utility.yul\":853:854   */\n      0x00\n        /* \"#utility.yul\":842:851   */\n      dup4\n        /* \"#utility.yul\":838:855   */\n      add\n        /* \"#utility.yul\":829:835   */\n      dup5\n        /* \"#utility.yul\":785:856   */\n      tag_62\n      jump\t// in\n    tag_92:\n        /* \"#utility.yul\":641:863   */\n      swap3\n      swap2\n      pop\n      pop\n      jump\t// out\n        /* \"#utility.yul\":950:1067   */\n    tag_64:\n        /* \"#utility.yul\":1059:1060   */\n      0x00\n        /* \"#utility.yul\":1056:1057   */\n      0x00\n        /* \"#utility.yul\":1049:1061   */\n      revert\n        /* \"#utility.yul\":1196:1322   */\n    tag_66:\n        /* \"#utility.yul\":1233:1240   */\n      0x00\n        /* \"#utility.yul\":1273:1315   */\n      0xffffffffffffffffffffffffffffffffffffffff\n        /* \"#utility.yul\":1266:1271   */\n      dup3\n        /* \"#utility.yul\":1262:1316   */\n      and\n        /* \"#utility.yul\":1251:1316   */\n      swap1\n      pop\n        /* \"#utility.yul\":1196:1322   */\n      swap2\n      swap1\n      pop\n      jump\t// out\n        /* \"#utility.yul\":1328:1424   */\n    tag_67:\n        /* \"#utility.yul\":1365:1372   */\n      0x00\n        /* \"#utility.yul\":1394:1418   */\n      tag_98\n        /* \"#utility.yul\":1412:1417   */\n      dup3\n        /* \"#utility.yul\":1394:1418   */\n      tag_66\n      jump\t// in\n    tag_98:\n        /* \"#utility.yul\":1383:1418   */\n      swap1\n      pop\n        /* \"#utility.yul\":1328:1424   */\n      swap2\n      swap1\n      pop\n      jump\t// out\n        /* \"#utility.yul\":1430:1552   */\n    tag_68:\n        /* \"#utility.yul\":1503:1527   */\n      tag_100\n        /* \"#utility.yul\":1521:1526   */\n      dup2\n        /* \"#utility.yul\":1503:1527   */\n      tag_67\n      jump\t// in\n    tag_100:\n        /* \"#utility.yul\":1496:1501   */\n      dup2\n        /* \"#utility.yul\":1493:1528   */\n      eq\n        /* \"#utility.yul\":1483:1546   */\n      tag_101\n      jumpi\n        /* \"#utility.yul\":1542:1543   */\n      0x00\n        /* \"#utility.yul\":1539:1540   */\n      0x00\n        /* \"#utility.yul\":1532:1544   */\n      revert\n        /* \"#utility.yul\":1483:1546   */\n    tag_101:\n        /* \"#utility.yul\":1430:1552   */\n      pop\n      jump\t// out\n        /* \"#utility.yul\":1558:1697   */\n    tag_69:\n        /* \"#utility.yul\":1604:1609   */\n      0x00\n        /* \"#utility.yul\":1642:1648   */\n      dup2\n        /* \"#utility.yul\":1629:1649   */\n      calldataload\n        /* \"#utility.yul\":1620:1649   */\n      swap1\n      pop\n        /* \"#utility.yul\":1658:1691   */\n      tag_103\n        /* \"#utility.yul\":1685:1690   */\n      dup2\n        /* \"#utility.yul\":1658:1691   */\n      tag_68\n      jump\t// in\n    tag_103:\n        /* \"#utility.yul\":1558:1697   */\n      swap3\n      swap2\n      pop\n      pop\n      jump\t// out\n        /* \"#utility.yul\":1703:2032   */\n    tag_30:\n        /* \"#utility.yul\":1762:1768   */\n      0x00\n        /* \"#utility.yul\":1811:1813   */\n      0x20\n        /* \"#utility.yul\":1799:1808   */\n      dup3\n        /* \"#utility.yul\":1790:1797   */\n      dup5\n        /* \"#utility.yul\":1786:1809   */\n      sub\n        /* \"#utility.yul\":1782:1814   */\n      slt\n        /* \"#utility.yul\":1779:1898   */\n      iszero\n      tag_105\n      jumpi\n        /* \"#utility.yul\":1817:1896   */\n      tag_106\n      tag_64\n      jump\t// in\n    tag_106:\n        /* \"#utility.yul\":1779:1898   */\n    tag_105:\n        /* \"#utility.yul\":1937:1938   */\n      0x00\n        /* \"#utility.yul\":1962:2015   */\n      tag_107\n        /* \"#utility.yul\":2007:2014   */\n      dup5\n        /* \"#utility.yul\":1998:2004   */\n      dup3\n        /* \"#utility.yul\":1987:1996   */\n      dup6\n        /* \"#utility.yul\":1983:2005   */\n      add\n        /* \"#utility.yul\":1962:2015   */\n      tag_69\n      jump\t// in\n    tag_107:\n        /* \"#utility.yul\":1952:2015   */\n      swap2\n      pop\n        /* \"#utility.yul\":1908:2025   */\n      pop\n        /* \"#utility.yul\":1703:2032   */\n      swap3\n      swap2\n      pop\n      pop\n      jump\t// out\n        /* \"#utility.yul\":2038:2160   */\n    tag_70:\n        /* \"#utility.yul\":2111:2135   */\n      tag_109\n        /* \"#utility.yul\":2129:2134   */\n      dup2\n        /* \"#utility.yul\":2111:2135   */\n      tag_61\n      jump\t// in\n    tag_109:\n        /* \"#utility.yul\":2104:2109   */\n      dup2\n        /* \"#utility.yul\":2101:2136   */\n      eq\n        /* \"#utility.yul\":2091:2154   */\n      tag_110\n      jumpi\n        /* \"#utility.yul\":2150:2151   */\n      0x00\n        /* \"#utility.yul\":2147:2148   */\n      0x00\n        /* \"#utility.yul\":2140:2152   */\n      revert\n        /* \"#utility.yul\":2091:2154   */\n    tag_110:\n        /* \"#utility.yul\":2038:2160   */\n      pop\n      jump\t// out\n        /* \"#utility.yul\":2166:2305   */\n    tag_71:\n        /* \"#utility.yul\":2212:2217   */\n      0x00\n        /* \"#utility.yul\":2250:2256   */\n      dup2\n        /* \"#utility.yul\":2237:2257   */\n      calldataload\n        /* \"#utility.yul\":2228:2257   */\n      swap1\n      pop\n        /* \"#utility.yul\":2266:2299   */\n      tag_112\n        /* \"#utility.yul\":2293:2298   */\n      dup2\n        /* \"#utility.yul\":2266:2299   */\n      tag_70\n      jump\t// in\n    tag_112:\n        /* \"#utility.yul\":2166:2305   */\n      swap3\n      swap2\n      pop\n      pop\n      jump\t// out\n        /* \"#utility.yul\":2311:2640   */\n    tag_38:\n        /* \"#utility.yul\":2370:2376   */\n      0x00\n        /* \"#utility.yul\":2419:2421   */\n      0x20\n        /* \"#utility.yul\":2407:2416   */\n      dup3\n        /* \"#utility.yul\":2398:2405   */\n      dup5\n        /* \"#utility.yul\":2394:2417   */\n      sub\n        /* \"#utility.yul\":2390:2422   */\n      slt\n        /* \"#utility.yul\":2387:2506   */\n      iszero\n      tag_114\n      jumpi\n        /* \"#utility.yul\":2425:2504   */\n      tag_115\n      tag_64\n      jump\t// in\n    tag_115:\n        /* \"#utility.yul\":2387:2506   */\n    tag_114:\n        /* \"#utility.yul\":2545:2546   */\n      0x00\n        /* \"#utility.yul\":2570:2623   */\n      tag_116\n        /* \"#utility.yul\":2615:2622   */\n      dup5\n        /* \"#utility.yul\":2606:2612   */\n      dup3\n        /* \"#utility.yul\":2595:2604   */\n      dup6\n        /* \"#utility.yul\":2591:2613   */\n      add\n        /* \"#utility.yul\":2570:2623   */\n      tag_71\n      jump\t// in\n    tag_116:\n        /* \"#utility.yul\":2560:2623   */\n      swap2\n      pop\n        /* \"#utility.yul\":2516:2633   */\n      pop\n        /* \"#utility.yul\":2311:2640   */\n      swap3\n      swap2\n      pop\n      pop\n      jump\t// out\n        /* \"#utility.yul\":2646:2815   */\n    tag_72:\n        /* \"#utility.yul\":2730:2741   */\n      0x00\n        /* \"#utility.yul\":2764:2770   */\n      dup3\n        /* \"#utility.yul\":2759:2762   */\n      dup3\n        /* \"#utility.yul\":2752:2771   */\n      mstore\n        /* \"#utility.yul\":2804:2808   */\n      0x20\n        /* \"#utility.yul\":2799:2802   */\n      dup3\n        /* \"#utility.yul\":2795:2809   */\n      add\n        /* \"#utility.yul\":2780:2809   */\n      swap1\n      pop\n        /* \"#utility.yul\":2646:2815   */\n      swap3\n      swap2\n      pop\n      pop\n      jump\t// out\n        /* \"#utility.yul\":2821:3050   */\n    tag_73:\n        /* \"#utility.yul\":2961:2995   */\n      0x43616e6e6f74207769746864726177207768656e20676f616c20686173206265\n        /* \"#utility.yul\":2957:2958   */\n      0x00\n        /* \"#utility.yul\":2949:2955   */\n      dup3\n        /* \"#utility.yul\":2945:2959   */\n      add\n        /* \"#utility.yul\":2938:2996   */\n      mstore\n        /* \"#utility.yul\":3030:3042   */\n      0x656e207265616368656400000000000000000000000000000000000000000000\n        /* \"#utility.yul\":3025:3027   */\n      0x20\n        /* \"#utility.yul\":3017:3023   */\n      dup3\n        /* \"#utility.yul\":3013:3028   */\n      add\n        /* \"#utility.yul\":3006:3043   */\n      mstore\n        /* \"#utility.yul\":2821:3050   */\n      pop\n      jump\t// out\n        /* \"#utility.yul\":3056:3422   */\n    tag_74:\n        /* \"#utility.yul\":3198:3201   */\n      0x00\n        /* \"#utility.yul\":3219:3286   */\n      tag_120\n        /* \"#utility.yul\":3283:3285   */\n      0x2a\n        /* \"#utility.yul\":3278:3281   */\n      dup4\n        /* \"#utility.yul\":3219:3286   */\n      tag_72\n      jump\t// in\n    tag_120:\n        /* \"#utility.yul\":3212:3286   */\n      swap2\n      pop\n        /* \"#utility.yul\":3295:3388   */\n      tag_121\n        /* \"#utility.yul\":3384:3387   */\n      dup3\n        /* \"#utility.yul\":3295:3388   */\n      tag_73\n      jump\t// in\n    tag_121:\n        /* \"#utility.yul\":3413:3415   */\n      0x40\n        /* \"#utility.yul\":3408:3411   */\n      dup3\n        /* \"#utility.yul\":3404:3416   */\n      add\n        /* \"#utility.yul\":3397:3416   */\n      swap1\n      pop\n        /* \"#utility.yul\":3056:3422   */\n      swap2\n      swap1\n      pop\n      jump\t// out\n        /* \"#utility.yul\":3428:3847   */\n    tag_44:\n        /* \"#utility.yul\":3594:3598   */\n      0x00\n        /* \"#utility.yul\":3632:3634   */\n      0x20\n        /* \"#utility.yul\":3621:3630   */\n      dup3\n        /* \"#utility.yul\":3617:3635   */\n      add\n        /* \"#utility.yul\":3609:3635   */\n      swap1\n      pop\n        /* \"#utility.yul\":3681:3690   */\n      dup2\n        /* \"#utility.yul\":3675:3679   */\n      dup2\n        /* \"#utility.yul\":3671:3691   */\n      sub\n        /* \"#utility.yul\":3667:3668   */\n      0x00\n        /* \"#utility.yul\":3656:3665   */\n      dup4\n        /* \"#utility.yul\":3652:3669   */\n      add\n        /* \"#utility.yul\":3645:3692   */\n      mstore\n        /* \"#utility.yul\":3709:3840   */\n      tag_123\n        /* \"#utility.yul\":3835:3839   */\n      dup2\n        /* \"#utility.yul\":3709:3840   */\n      tag_74\n      jump\t// in\n    tag_123:\n        /* \"#utility.yul\":3701:3840   */\n      swap1\n      pop\n        /* \"#utility.yul\":3428:3847   */\n      swap2\n      swap1\n      pop\n      jump\t// out\n        /* \"#utility.yul\":3853:4027   */\n    tag_75:\n        /* \"#utility.yul\":3993:4019   */\n      0x46756e6420686173206e6f742079657420657870697265640000000000000000\n        /* \"#utility.yul\":3989:3990   */\n      0x00\n        /* \"#utility.yul\":3981:3987   */\n      dup3\n        /* \"#utility.yul\":3977:3991   */\n      add\n        /* \"#utility.yul\":3970:4020   */\n      mstore\n        /* \"#utility.yul\":3853:4027   */\n      pop\n      jump\t// out\n        /* \"#utility.yul\":4033:4399   */\n    tag_76:\n        /* \"#utility.yul\":4175:4178   */\n      0x00\n        /* \"#utility.yul\":4196:4263   */\n      tag_126\n        /* \"#utility.yul\":4260:4262   */\n      0x18\n        /* \"#utility.yul\":4255:4258   */\n      dup4\n        /* \"#utility.yul\":4196:4263   */\n      tag_72\n      jump\t// in\n    tag_126:\n        /* \"#utility.yul\":4189:4263   */\n      swap2\n      pop\n        /* \"#utility.yul\":4272:4365   */\n      tag_127\n        /* \"#utility.yul\":4361:4364   */\n      dup3\n        /* \"#utility.yul\":4272:4365   */\n      tag_75\n      jump\t// in\n    tag_127:\n        /* \"#utility.yul\":4390:4392   */\n      0x20\n        /* \"#utility.yul\":4385:4388   */\n      dup3\n        /* \"#utility.yul\":4381:4393   */\n      add\n        /* \"#utility.yul\":4374:4393   */\n      swap1\n      pop\n        /* \"#utility.yul\":4033:4399   */\n      swap2\n      swap1\n      pop\n      jump\t// out\n        /* \"#utility.yul\":4405:4824   */\n    tag_47:\n        /* \"#utility.yul\":4571:4575   */\n      0x00\n        /* \"#utility.yul\":4609:4611   */\n      0x20\n        /* \"#utility.yul\":4598:4607   */\n      dup3\n        /* \"#utility.yul\":4594:4612   */\n      add\n        /* \"#utility.yul\":4586:4612   */\n      swap1\n      pop\n        /* \"#utility.yul\":4658:4667   */\n      dup2\n        /* \"#utility.yul\":4652:4656   */\n      dup2\n        /* \"#utility.yul\":4648:4668   */\n      sub\n        /* \"#utility.yul\":4644:4645   */\n      0x00\n        /* \"#utility.yul\":4633:4642   */\n      dup4\n        /* \"#utility.yul\":4629:4646   */\n      add\n        /* \"#utility.yul\":4622:4669   */\n      mstore\n        /* \"#utility.yul\":4686:4817   */\n      tag_129\n        /* \"#utility.yul\":4812:4816   */\n      dup2\n        /* \"#utility.yul\":4686:4817   */\n      tag_76\n      jump\t// in\n    tag_129:\n        /* \"#utility.yul\":4678:4817   */\n      swap1\n      pop\n        /* \"#utility.yul\":4405:4824   */\n      swap2\n      swap1\n      pop\n      jump\t// out\n        /* \"#utility.yul\":4830:4995   */\n    tag_77:\n        /* \"#utility.yul\":4970:4987   */\n      0x43616d706169676e20656e6465642e0000000000000000000000000000000000\n        /* \"#utility.yul\":4966:4967   */\n      0x00\n        /* \"#utility.yul\":4958:4964   */\n      dup3\n        /* \"#utility.yul\":4954:4968   */\n      add\n        /* \"#utility.yul\":4947:4988   */\n      mstore\n        /* \"#utility.yul\":4830:4995   */\n      pop\n      jump\t// out\n        /* \"#utility.yul\":5001:5367   */\n    tag_78:\n        /* \"#utility.yul\":5143:5146   */\n      0x00\n        /* \"#utility.yul\":5164:5231   */\n      tag_132\n        /* \"#utility.yul\":5228:5230   */\n      0x0f\n        /* \"#utility.yul\":5223:5226   */\n      dup4\n        /* \"#utility.yul\":5164:5231   */\n      tag_72\n      jump\t// in\n    tag_132:\n        /* \"#utility.yul\":5157:5231   */\n      swap2\n      pop\n        /* \"#utility.yul\":5240:5333   */\n      tag_133\n        /* \"#utility.yul\":5329:5332   */\n      dup3\n        /* \"#utility.yul\":5240:5333   */\n      tag_77\n      jump\t// in\n    tag_133:\n        /* \"#utility.yul\":5358:5360   */\n      0x20\n        /* \"#utility.yul\":5353:5356   */\n      dup3\n        /* \"#utility.yul\":5349:5361   */\n      add\n        /* \"#utility.yul\":5342:5361   */\n      swap1\n      pop\n        /* \"#utility.yul\":5001:5367   */\n      swap2\n      swap1\n      pop\n      jump\t// out\n        /* \"#utility.yul\":5373:5792   */\n    tag_51:\n        /* \"#utility.yul\":5539:5543   */\n      0x00\n        /* \"#utility.yul\":5577:5579   */\n      0x20\n        /* \"#utility.yul\":5566:5575   */\n      dup3\n        /* \"#utility.yul\":5562:5580   */\n      add\n        /* \"#utility.yul\":5554:5580   */\n      swap1\n      pop\n        /* \"#utility.yul\":5626:5635   */\n      dup2\n        /* \"#utility.yul\":5620:5624   */\n      dup2\n        /* \"#utility.yul\":5616:5636   */\n      sub\n        /* \"#utility.yul\":5612:5613   */\n      0x00\n        /* \"#utility.yul\":5601:5610   */\n      dup4\n        /* \"#utility.yul\":5597:5614   */\n      add\n        /* \"#utility.yul\":5590:5637   */\n      mstore\n        /* \"#utility.yul\":5654:5785   */\n      tag_135\n        /* \"#utility.yul\":5780:5784   */\n      dup2\n        /* \"#utility.yul\":5654:5785   */\n      tag_78\n      jump\t// in\n    tag_135:\n        /* \"#utility.yul\":5646:5785   */\n      swap1\n      pop\n        /* \"#utility.yul\":5373:5792   */\n      swap2\n      swap1\n      pop\n      jump\t// out\n        /* \"#utility.yul\":5798:5968   */\n    tag_79:\n        /* \"#utility.yul\":5938:5960   */\n      0x476f616c20616c72656164792072656163686564000000000000000000000000\n        /* \"#utility.yul\":5934:5935   */\n      0x00\n        /* \"#utility.yul\":5926:5932   */\n      dup3\n        /* \"#utility.yul\":5922:5936   */\n      add\n        /* \"#utility.yul\":5915:5961   */\n      mstore\n        /* \"#utility.yul\":5798:5968   */\n      pop\n      jump\t// out\n        /* \"#utility.yul\":5974:6340   */\n    tag_80:\n        /* \"#utility.yul\":6116:6119   */\n      0x00\n        /* \"#utility.yul\":6137:6204   */\n      tag_138\n        /* \"#utility.yul\":6201:6203   */\n      0x14\n        /* \"#utility.yul\":6196:6199   */\n      dup4\n        /* \"#utility.yul\":6137:6204   */\n      tag_72\n      jump\t// in\n    tag_138:\n        /* \"#utility.yul\":6130:6204   */\n      swap2\n      pop\n        /* \"#utility.yul\":6213:6306   */\n      tag_139\n        /* \"#utility.yul\":6302:6305   */\n      dup3\n        /* \"#utility.yul\":6213:6306   */\n      tag_79\n      jump\t// in\n    tag_139:\n        /* \"#utility.yul\":6331:6333   */\n      0x20\n        /* \"#utility.yul\":6326:6329   */\n      dup3\n        /* \"#utility.yul\":6322:6334   */\n      add\n        /* \"#utility.yul\":6315:6334   */\n      swap1\n      pop\n        /* \"#utility.yul\":5974:6340   */\n      swap2\n      swap1\n      pop\n      jump\t// out\n        /* \"#utility.yul\":6346:6765   */\n    tag_54:\n        /* \"#utility.yul\":6512:6516   */\n      0x00\n        /* \"#utility.yul\":6550:6552   */\n      0x20\n        /* \"#utility.yul\":6539:6548   */\n      dup3\n        /* \"#utility.yul\":6535:6553   */\n      add\n        /* \"#utility.yul\":6527:6553   */\n      swap1\n      pop\n        /* \"#utility.yul\":6599:6608   */\n      dup2\n        /* \"#utility.yul\":6593:6597   */\n      dup2\n        /* \"#utility.yul\":6589:6609   */\n      sub\n        /* \"#utility.yul\":6585:6586   */\n      0x00\n        /* \"#utility.yul\":6574:6583   */\n      dup4\n        /* \"#utility.yul\":6570:6587   */\n      add\n        /* \"#utility.yul\":6563:6610   */\n      mstore\n        /* \"#utility.yul\":6627:6758   */\n      tag_141\n        /* \"#utility.yul\":6753:6757   */\n      dup2\n        /* \"#utility.yul\":6627:6758   */\n      tag_80\n      jump\t// in\n    tag_141:\n        /* \"#utility.yul\":6619:6758   */\n      swap1\n      pop\n        /* \"#utility.yul\":6346:6765   */\n      swap2\n      swap1\n      pop\n      jump\t// out\n        /* \"#utility.yul\":6771:6951   */\n    tag_81:\n        /* \"#utility.yul\":6819:6896   */\n      0x4e487b7100000000000000000000000000000000000000000000000000000000\n        /* \"#utility.yul\":6816:6817   */\n      0x00\n        /* \"#utility.yul\":6809:6897   */\n      mstore\n        /* \"#utility.yul\":6916:6920   */\n      0x11\n        /* \"#utility.yul\":6913:6914   */\n      0x04\n        /* \"#utility.yul\":6906:6921   */\n      mstore\n        /* \"#utility.yul\":6940:6944   */\n      0x24\n        /* \"#utility.yul\":6937:6938   */\n      0x00\n        /* \"#utility.yul\":6930:6945   */\n      revert\n        /* \"#utility.yul\":6957:7148   */\n    tag_56:\n        /* \"#utility.yul\":6997:7000   */\n      0x00\n        /* \"#utility.yul\":7016:7036   */\n      tag_144\n        /* \"#utility.yul\":7034:7035   */\n      dup3\n        /* \"#utility.yul\":7016:7036   */\n      tag_61\n      jump\t// in\n    tag_144:\n        /* \"#utility.yul\":7011:7036   */\n      swap2\n      pop\n        /* \"#utility.yul\":7050:7070   */\n      tag_145\n        /* \"#utility.yul\":7068:7069   */\n      dup4\n        /* \"#utility.yul\":7050:7070   */\n      tag_61\n      jump\t// in\n    tag_145:\n        /* \"#utility.yul\":7045:7070   */\n      swap3\n      pop\n        /* \"#utility.yul\":7093:7094   */\n      dup3\n        /* \"#utility.yul\":7090:7091   */\n      dup3\n        /* \"#utility.yul\":7086:7095   */\n      add\n        /* \"#utility.yul\":7079:7095   */\n      swap1\n      pop\n        /* \"#utility.yul\":7114:7117   */\n      dup1\n        /* \"#utility.yul\":7111:7112   */\n      dup3\n        /* \"#utility.yul\":7108:7118   */\n      gt\n        /* \"#utility.yul\":7105:7141   */\n      iszero\n      tag_146\n      jumpi\n        /* \"#utility.yul\":7121:7139   */\n      tag_147\n      tag_81\n      jump\t// in\n    tag_147:\n        /* \"#utility.yul\":7105:7141   */\n    tag_146:\n        /* \"#utility.yul\":6957:7148   */\n      swap3\n      swap2\n      pop\n      pop\n      jump\t// out\n\n    auxdata: 0xa264697066735822122085fc7f42d5ff6ff4f40aa6aa467a66e35d66a92f813285410981f6385e76e63c64736f6c634300081c0033\n}\n",
				"bytecode": {
					"linkReferences": {},
					"object": "608060405234801561000f575f5ffd5b50604051610ac1380380610ac183398181016040528101906100319190610132565b5f8211610073576040517f08c379a000000000000000000000000000000000000000000000000000000000815260040161006a906101f0565b60405180910390fd5b5f81116100b5576040517f08c379a00000000000000000000000000000000000000000000000000000000081526004016100ac9061027e565b60405180910390fd5b815f8190555062015180816100ca91906102c9565b426100d5919061030a565b6001819055505f60035f6101000a81548160ff021916908315150217905550505061033d565b5f5ffd5b5f819050919050565b610111816100ff565b811461011b575f5ffd5b50565b5f8151905061012c81610108565b92915050565b5f5f60408385031215610148576101476100fb565b5b5f6101558582860161011e565b92505060206101668582860161011e565b9150509250929050565b5f82825260208201905092915050565b7f476f616c20616d6f756e74206d7573742062652067726561746572207468616e5f8201527f207a65726f2e0000000000000000000000000000000000000000000000000000602082015250565b5f6101da602683610170565b91506101e582610180565b604082019050919050565b5f6020820190508181035f830152610207816101ce565b9050919050565b7f43616d706169676e206475726174696f6e206d75737420626520706f736974695f8201527f76652e0000000000000000000000000000000000000000000000000000000000602082015250565b5f610268602383610170565b91506102738261020e565b604082019050919050565b5f6020820190508181035f8301526102958161025c565b9050919050565b7f4e487b71000000000000000000000000000000000000000000000000000000005f52601160045260245ffd5b5f6102d3826100ff565b91506102de836100ff565b92508282026102ec816100ff565b915082820484148315176103035761030261029c565b5b5092915050565b5f610314826100ff565b915061031f836100ff565b92508282019050808211156103375761033661029c565b5b92915050565b6107778061034a5f395ff3fe608060405234801561000f575f5ffd5b5060043610610086575f3560e01c80633ccfd60b116100595780633ccfd60b1461010257806342e94c901461010c5780637d3d65221461013c578063c1cbbca71461015a57610086565b806301cb3b201461008a578063023f4147146100a85780632636b945146100c65780633197cbb6146100e4575b5f5ffd5b610092610176565b60405161009f91906103e3565b60405180910390f35b6100b061018b565b6040516100bd9190610414565b60405180910390f35b6100ce610191565b6040516100db9190610414565b60405180910390f35b6100ec610196565b6040516100f99190610414565b60405180910390f35b61010a61019c565b005b6101266004803603810190610121919061048b565b61027b565b6040516101339190610414565b60405180910390f35b610144610290565b60405161015191906103e3565b60405180910390f35b610174600480360381019061016f91906104e0565b6102a2565b005b5f60035f9054906101000a900460ff16905090565b60025481565b5f5481565b60015481565b60035f9054906101000a900460ff16156101eb576040517f08c379a00000000000000000000000000000000000000000000000000000000081526004016101e29061058b565b60405180910390fd5b600154421015610230576040517f08c379a0000000000000000000000000000000000000000000000000000000008152600401610227906105f3565b60405180910390fd5b5f60045f3373ffffffffffffffffffffffffffffffffffffffff1673ffffffffffffffffffffffffffffffffffffffff1681526020019081526020015f20819055505f600281905550565b6004602052805f5260405f205f915090505481565b60035f9054906101000a900460ff1681565b6001544211156102e7576040517f08c379a00000000000000000000000000000000000000000000000000000000081526004016102de9061065b565b60405180910390fd5b60035f9054906101000a900460ff1615610336576040517f08c379a000000000000000000000000000000000000000000000000000000000815260040161032d906106c3565b60405180910390fd5b8060045f3373ffffffffffffffffffffffffffffffffffffffff1673ffffffffffffffffffffffffffffffffffffffff1681526020019081526020015f205f828254610382919061070e565b925050819055508060025f82825461039a919061070e565b925050819055505f54600254106103c657600160035f6101000a81548160ff0219169083151502179055505b50565b5f8115159050919050565b6103dd816103c9565b82525050565b5f6020820190506103f65f8301846103d4565b92915050565b5f819050919050565b61040e816103fc565b82525050565b5f6020820190506104275f830184610405565b92915050565b5f5ffd5b5f73ffffffffffffffffffffffffffffffffffffffff82169050919050565b5f61045a82610431565b9050919050565b61046a81610450565b8114610474575f5ffd5b50565b5f8135905061048581610461565b92915050565b5f602082840312156104a05761049f61042d565b5b5f6104ad84828501610477565b91505092915050565b6104bf816103fc565b81146104c9575f5ffd5b50565b5f813590506104da816104b6565b92915050565b5f602082840312156104f5576104f461042d565b5b5f610502848285016104cc565b91505092915050565b5f82825260208201905092915050565b7f43616e6e6f74207769746864726177207768656e20676f616c206861732062655f8201527f656e207265616368656400000000000000000000000000000000000000000000602082015250565b5f610575602a8361050b565b91506105808261051b565b604082019050919050565b5f6020820190508181035f8301526105a281610569565b9050919050565b7f46756e6420686173206e6f7420796574206578706972656400000000000000005f82015250565b5f6105dd60188361050b565b91506105e8826105a9565b602082019050919050565b5f6020820190508181035f83015261060a816105d1565b9050919050565b7f43616d706169676e20656e6465642e00000000000000000000000000000000005f82015250565b5f610645600f8361050b565b915061065082610611565b602082019050919050565b5f6020820190508181035f83015261067281610639565b9050919050565b7f476f616c20616c726561647920726561636865640000000000000000000000005f82015250565b5f6106ad60148361050b565b91506106b882610679565b602082019050919050565b5f6020820190508181035f8301526106da816106a1565b9050919050565b7f4e487b71000000000000000000000000000000000000000000000000000000005f52601160045260245ffd5b5f610718826103fc565b9150610723836103fc565b925082820190508082111561073b5761073a6106e1565b5b9291505056fea264697066735822122085fc7f42d5ff6ff4f40aa6aa467a66e35d66a92f813285410981f6385e76e63c64736f6c634300081c0033",
					"opcodes": "PUSH1 0x80 PUSH1 0x40 MSTORE CALLVALUE DUP1 ISZERO PUSH2 0xF JUMPI PUSH0 PUSH0 REVERT JUMPDEST POP PUSH1 0x40 MLOAD PUSH2 0xAC1 CODESIZE SUB DUP1 PUSH2 0xAC1 DUP4 CODECOPY DUP2 DUP2 ADD PUSH1 0x40 MSTORE DUP2 ADD SWAP1 PUSH2 0x31 SWAP2 SWAP1 PUSH2 0x132 JUMP JUMPDEST PUSH0 DUP3 GT PUSH2 0x73 JUMPI PUSH1 0x40 MLOAD PUSH32 0x8C379A000000000000000000000000000000000000000000000000000000000 DUP2 MSTORE PUSH1 0x4 ADD PUSH2 0x6A SWAP1 PUSH2 0x1F0 JUMP JUMPDEST PUSH1 0x40 MLOAD DUP1 SWAP2 SUB SWAP1 REVERT JUMPDEST PUSH0 DUP2 GT PUSH2 0xB5 JUMPI PUSH1 0x40 MLOAD PUSH32 0x8C379A000000000000000000000000000000000000000000000000000000000 DUP2 MSTORE PUSH1 0x4 ADD PUSH2 0xAC SWAP1 PUSH2 0x27E JUMP JUMPDEST PUSH1 0x40 MLOAD DUP1 SWAP2 SUB SWAP1 REVERT JUMPDEST DUP2 PUSH0 DUP2 SWAP1 SSTORE POP PUSH3 0x15180 DUP2 PUSH2 0xCA SWAP2 SWAP1 PUSH2 0x2C9 JUMP JUMPDEST TIMESTAMP PUSH2 0xD5 SWAP2 SWAP1 PUSH2 0x30A JUMP JUMPDEST PUSH1 0x1 DUP2 SWAP1 SSTORE POP PUSH0 PUSH1 0x3 PUSH0 PUSH2 0x100 EXP DUP2 SLOAD DUP2 PUSH1 0xFF MUL NOT AND SWAP1 DUP4 ISZERO ISZERO MUL OR SWAP1 SSTORE POP POP POP PUSH2 0x33D JUMP JUMPDEST PUSH0 PUSH0 REVERT JUMPDEST PUSH0 DUP2 SWAP1 POP SWAP2 SWAP1 POP JUMP JUMPDEST PUSH2 0x111 DUP2 PUSH2 0xFF JUMP JUMPDEST DUP2 EQ PUSH2 0x11B JUMPI PUSH0 PUSH0 REVERT JUMPDEST POP JUMP JUMPDEST PUSH0 DUP2 MLOAD SWAP1 POP PUSH2 0x12C DUP2 PUSH2 0x108 JUMP JUMPDEST SWAP3 SWAP2 POP POP JUMP JUMPDEST PUSH0 PUSH0 PUSH1 0x40 DUP4 DUP6 SUB SLT ISZERO PUSH2 0x148 JUMPI PUSH2 0x147 PUSH2 0xFB JUMP JUMPDEST JUMPDEST PUSH0 PUSH2 0x155 DUP6 DUP3 DUP7 ADD PUSH2 0x11E JUMP JUMPDEST SWAP3 POP POP PUSH1 0x20 PUSH2 0x166 DUP6 DUP3 DUP7 ADD PUSH2 0x11E JUMP JUMPDEST SWAP2 POP POP SWAP3 POP SWAP3 SWAP1 POP JUMP JUMPDEST PUSH0 DUP3 DUP3 MSTORE PUSH1 0x20 DUP3 ADD SWAP1 POP SWAP3 SWAP2 POP POP JUMP JUMPDEST PUSH32 0x476F616C20616D6F756E74206D7573742062652067726561746572207468616E PUSH0 DUP3 ADD MSTORE PUSH32 0x207A65726F2E0000000000000000000000000000000000000000000000000000 PUSH1 0x20 DUP3 ADD MSTORE POP JUMP JUMPDEST PUSH0 PUSH2 0x1DA PUSH1 0x26 DUP4 PUSH2 0x170 JUMP JUMPDEST SWAP2 POP PUSH2 0x1E5 DUP3 PUSH2 0x180 JUMP JUMPDEST PUSH1 0x40 DUP3 ADD SWAP1 POP SWAP2 SWAP1 POP JUMP JUMPDEST PUSH0 PUSH1 0x20 DUP3 ADD SWAP1 POP DUP2 DUP2 SUB PUSH0 DUP4 ADD MSTORE PUSH2 0x207 DUP2 PUSH2 0x1CE JUMP JUMPDEST SWAP1 POP SWAP2 SWAP1 POP JUMP JUMPDEST PUSH32 0x43616D706169676E206475726174696F6E206D75737420626520706F73697469 PUSH0 DUP3 ADD MSTORE PUSH32 0x76652E0000000000000000000000000000000000000000000000000000000000 PUSH1 0x20 DUP3 ADD MSTORE POP JUMP JUMPDEST PUSH0 PUSH2 0x268 PUSH1 0x23 DUP4 PUSH2 0x170 JUMP JUMPDEST SWAP2 POP PUSH2 0x273 DUP3 PUSH2 0x20E JUMP JUMPDEST PUSH1 0x40 DUP3 ADD SWAP1 POP SWAP2 SWAP1 POP JUMP JUMPDEST PUSH0 PUSH1 0x20 DUP3 ADD SWAP1 POP DUP2 DUP2 SUB PUSH0 DUP4 ADD MSTORE PUSH2 0x295 DUP2 PUSH2 0x25C JUMP JUMPDEST SWAP1 POP SWAP2 SWAP1 POP JUMP JUMPDEST PUSH32 0x4E487B7100000000000000000000000000000000000000000000000000000000 PUSH0 MSTORE PUSH1 0x11 PUSH1 0x4 MSTORE PUSH1 0x24 PUSH0 REVERT JUMPDEST PUSH0 PUSH2 0x2D3 DUP3 PUSH2 0xFF JUMP JUMPDEST SWAP2 POP PUSH2 0x2DE DUP4 PUSH2 0xFF JUMP JUMPDEST SWAP3 POP DUP3 DUP3 MUL PUSH2 0x2EC DUP2 PUSH2 0xFF JUMP JUMPDEST SWAP2 POP DUP3 DUP3 DIV DUP5 EQ DUP4 ISZERO OR PUSH2 0x303 JUMPI PUSH2 0x302 PUSH2 0x29C JUMP JUMPDEST JUMPDEST POP SWAP3 SWAP2 POP POP JUMP JUMPDEST PUSH0 PUSH2 0x314 DUP3 PUSH2 0xFF JUMP JUMPDEST SWAP2 POP PUSH2 0x31F DUP4 PUSH2 0xFF JUMP JUMPDEST SWAP3 POP DUP3 DUP3 ADD SWAP1 POP DUP1 DUP3 GT ISZERO PUSH2 0x337 JUMPI PUSH2 0x336 PUSH2 0x29C JUMP JUMPDEST JUMPDEST SWAP3 SWAP2 POP POP JUMP JUMPDEST PUSH2 0x777 DUP1 PUSH2 0x34A PUSH0 CODECOPY PUSH0 RETURN INVALID PUSH1 0x80 PUSH1 0x40 MSTORE CALLVALUE DUP1 ISZERO PUSH2 0xF JUMPI PUSH0 PUSH0 REVERT JUMPDEST POP PUSH1 0x4 CALLDATASIZE LT PUSH2 0x86 JUMPI PUSH0 CALLDATALOAD PUSH1 0xE0 SHR DUP1 PUSH4 0x3CCFD60B GT PUSH2 0x59 JUMPI DUP1 PUSH4 0x3CCFD60B EQ PUSH2 0x102 JUMPI DUP1 PUSH4 0x42E94C90 EQ PUSH2 0x10C JUMPI DUP1 PUSH4 0x7D3D6522 EQ PUSH2 0x13C JUMPI DUP1 PUSH4 0xC1CBBCA7 EQ PUSH2 0x15A JUMPI PUSH2 0x86 JUMP JUMPDEST DUP1 PUSH4 0x1CB3B20 EQ PUSH2 0x8A JUMPI DUP1 PUSH4 0x23F4147 EQ PUSH2 0xA8 JUMPI DUP1 PUSH4 0x2636B945 EQ PUSH2 0xC6 JUMPI DUP1 PUSH4 0x3197CBB6 EQ PUSH2 0xE4 JUMPI JUMPDEST PUSH0 PUSH0 REVERT JUMPDEST PUSH2 0x92 PUSH2 0x176 JUMP JUMPDEST PUSH1 0x40 MLOAD PUSH2 0x9F SWAP2 SWAP1 PUSH2 0x3E3 JUMP JUMPDEST PUSH1 0x40 MLOAD DUP1 SWAP2 SUB SWAP1 RETURN JUMPDEST PUSH2 0xB0 PUSH2 0x18B JUMP JUMPDEST PUSH1 0x40 MLOAD PUSH2 0xBD SWAP2 SWAP1 PUSH2 0x414 JUMP JUMPDEST PUSH1 0x40 MLOAD DUP1 SWAP2 SUB SWAP1 RETURN JUMPDEST PUSH2 0xCE PUSH2 0x191 JUMP JUMPDEST PUSH1 0x40 MLOAD PUSH2 0xDB SWAP2 SWAP1 PUSH2 0x414 JUMP JUMPDEST PUSH1 0x40 MLOAD DUP1 SWAP2 SUB SWAP1 RETURN JUMPDEST PUSH2 0xEC PUSH2 0x196 JUMP JUMPDEST PUSH1 0x40 MLOAD PUSH2 0xF9 SWAP2 SWAP1 PUSH2 0x414 JUMP JUMPDEST PUSH1 0x40 MLOAD DUP1 SWAP2 SUB SWAP1 RETURN JUMPDEST PUSH2 0x10A PUSH2 0x19C JUMP JUMPDEST STOP JUMPDEST PUSH2 0x126 PUSH1 0x4 DUP1 CALLDATASIZE SUB DUP2 ADD SWAP1 PUSH2 0x121 SWAP2 SWAP1 PUSH2 0x48B JUMP JUMPDEST PUSH2 0x27B JUMP JUMPDEST PUSH1 0x40 MLOAD PUSH2 0x133 SWAP2 SWAP1 PUSH2 0x414 JUMP JUMPDEST PUSH1 0x40 MLOAD DUP1 SWAP2 SUB SWAP1 RETURN JUMPDEST PUSH2 0x144 PUSH2 0x290 JUMP JUMPDEST PUSH1 0x40 MLOAD PUSH2 0x151 SWAP2 SWAP1 PUSH2 0x3E3 JUMP JUMPDEST PUSH1 0x40 MLOAD DUP1 SWAP2 SUB SWAP1 RETURN JUMPDEST PUSH2 0x174 PUSH1 0x4 DUP1 CALLDATASIZE SUB DUP2 ADD SWAP1 PUSH2 0x16F SWAP2 SWAP1 PUSH2 0x4E0 JUMP JUMPDEST PUSH2 0x2A2 JUMP JUMPDEST STOP JUMPDEST PUSH0 PUSH1 0x3 PUSH0 SWAP1 SLOAD SWAP1 PUSH2 0x100 EXP SWAP1 DIV PUSH1 0xFF AND SWAP1 POP SWAP1 JUMP JUMPDEST PUSH1 0x2 SLOAD DUP2 JUMP JUMPDEST PUSH0 SLOAD DUP2 JUMP JUMPDEST PUSH1 0x1 SLOAD DUP2 JUMP JUMPDEST PUSH1 0x3 PUSH0 SWAP1 SLOAD SWAP1 PUSH2 0x100 EXP SWAP1 DIV PUSH1 0xFF AND ISZERO PUSH2 0x1EB JUMPI PUSH1 0x40 MLOAD PUSH32 0x8C379A000000000000000000000000000000000000000000000000000000000 DUP2 MSTORE PUSH1 0x4 ADD PUSH2 0x1E2 SWAP1 PUSH2 0x58B JUMP JUMPDEST PUSH1 0x40 MLOAD DUP1 SWAP2 SUB SWAP1 REVERT JUMPDEST PUSH1 0x1 SLOAD TIMESTAMP LT ISZERO PUSH2 0x230 JUMPI PUSH1 0x40 MLOAD PUSH32 0x8C379A000000000000000000000000000000000000000000000000000000000 DUP2 MSTORE PUSH1 0x4 ADD PUSH2 0x227 SWAP1 PUSH2 0x5F3 JUMP JUMPDEST PUSH1 0x40 MLOAD DUP1 SWAP2 SUB SWAP1 REVERT JUMPDEST PUSH0 PUSH1 0x4 PUSH0 CALLER PUSH20 0xFFFFFFFFFFFFFFFFFFFFFFFFFFFFFFFFFFFFFFFF AND PUSH20 0xFFFFFFFFFFFFFFFFFFFFFFFFFFFFFFFFFFFFFFFF AND DUP2 MSTORE PUSH1 0x20 ADD SWAP1 DUP2 MSTORE PUSH1 0x20 ADD PUSH0 KECCAK256 DUP2 SWAP1 SSTORE POP PUSH0 PUSH1 0x2 DUP2 SWAP1 SSTORE POP JUMP JUMPDEST PUSH1 0x4 PUSH1 0x20 MSTORE DUP1 PUSH0 MSTORE PUSH1 0x40 PUSH0 KECCAK256 PUSH0 SWAP2 POP SWAP1 POP SLOAD DUP2 JUMP JUMPDEST PUSH1 0x3 PUSH0 SWAP1 SLOAD SWAP1 PUSH2 0x100 EXP SWAP1 DIV PUSH1 0xFF AND DUP2 JUMP JUMPDEST PUSH1 0x1 SLOAD TIMESTAMP GT ISZERO PUSH2 0x2E7 JUMPI PUSH1 0x40 MLOAD PUSH32 0x8C379A000000000000000000000000000000000000000000000000000000000 DUP2 MSTORE PUSH1 0x4 ADD PUSH2 0x2DE SWAP1 PUSH2 0x65B JUMP JUMPDEST PUSH1 0x40 MLOAD DUP1 SWAP2 SUB SWAP1 REVERT JUMPDEST PUSH1 0x3 PUSH0 SWAP1 SLOAD SWAP1 PUSH2 0x100 EXP SWAP1 DIV PUSH1 0xFF AND ISZERO PUSH2 0x336 JUMPI PUSH1 0x40 MLOAD PUSH32 0x8C379A000000000000000000000000000000000000000000000000000000000 DUP2 MSTORE PUSH1 0x4 ADD PUSH2 0x32D SWAP1 PUSH2 0x6C3 JUMP JUMPDEST PUSH1 0x40 MLOAD DUP1 SWAP2 SUB SWAP1 REVERT JUMPDEST DUP1 PUSH1 0x4 PUSH0 CALLER PUSH20 0xFFFFFFFFFFFFFFFFFFFFFFFFFFFFFFFFFFFFFFFF AND PUSH20 0xFFFFFFFFFFFFFFFFFFFFFFFFFFFFFFFFFFFFFFFF AND DUP2 MSTORE PUSH1 0x20 ADD SWAP1 DUP2 MSTORE PUSH1 0x20 ADD PUSH0 KECCAK256 PUSH0 DUP3 DUP3 SLOAD PUSH2 0x382 SWAP2 SWAP1 PUSH2 0x70E JUMP JUMPDEST SWAP3 POP POP DUP2 SWAP1 SSTORE POP DUP1 PUSH1 0x2 PUSH0 DUP3 DUP3 SLOAD PUSH2 0x39A SWAP2 SWAP1 PUSH2 0x70E JUMP JUMPDEST SWAP3 POP POP DUP2 SWAP1 SSTORE POP PUSH0 SLOAD PUSH1 0x2 SLOAD LT PUSH2 0x3C6 JUMPI PUSH1 0x1 PUSH1 0x3 PUSH0 PUSH2 0x100 EXP DUP2 SLOAD DUP2 PUSH1 0xFF MUL NOT AND SWAP1 DUP4 ISZERO ISZERO MUL OR SWAP1 SSTORE POP JUMPDEST POP JUMP JUMPDEST PUSH0 DUP2 ISZERO ISZERO SWAP1 POP SWAP2 SWAP1 POP JUMP JUMPDEST PUSH2 0x3DD DUP2 PUSH2 0x3C9 JUMP JUMPDEST DUP3 MSTORE POP POP JUMP JUMPDEST PUSH0 PUSH1 0x20 DUP3 ADD SWAP1 POP PUSH2 0x3F6 PUSH0 DUP4 ADD DUP5 PUSH2 0x3D4 JUMP JUMPDEST SWAP3 SWAP2 POP POP JUMP JUMPDEST PUSH0 DUP2 SWAP1 POP SWAP2 SWAP1 POP JUMP JUMPDEST PUSH2 0x40E DUP2 PUSH2 0x3FC JUMP JUMPDEST DUP3 MSTORE POP POP JUMP JUMPDEST PUSH0 PUSH1 0x20 DUP3 ADD SWAP1 POP PUSH2 0x427 PUSH0 DUP4 ADD DUP5 PUSH2 0x405 JUMP JUMPDEST SWAP3 SWAP2 POP POP JUMP JUMPDEST PUSH0 PUSH0 REVERT JUMPDEST PUSH0 PUSH20 0xFFFFFFFFFFFFFFFFFFFFFFFFFFFFFFFFFFFFFFFF DUP3 AND SWAP1 POP SWAP2 SWAP1 POP JUMP JUMPDEST PUSH0 PUSH2 0x45A DUP3 PUSH2 0x431 JUMP JUMPDEST SWAP1 POP SWAP2 SWAP1 POP JUMP JUMPDEST PUSH2 0x46A DUP2 PUSH2 0x450 JUMP JUMPDEST DUP2 EQ PUSH2 0x474 JUMPI PUSH0 PUSH0 REVERT JUMPDEST POP JUMP JUMPDEST PUSH0 DUP2 CALLDATALOAD SWAP1 POP PUSH2 0x485 DUP2 PUSH2 0x461 JUMP JUMPDEST SWAP3 SWAP2 POP POP JUMP JUMPDEST PUSH0 PUSH1 0x20 DUP3 DUP5 SUB SLT ISZERO PUSH2 0x4A0 JUMPI PUSH2 0x49F PUSH2 0x42D JUMP JUMPDEST JUMPDEST PUSH0 PUSH2 0x4AD DUP5 DUP3 DUP6 ADD PUSH2 0x477 JUMP JUMPDEST SWAP2 POP POP SWAP3 SWAP2 POP POP JUMP JUMPDEST PUSH2 0x4BF DUP2 PUSH2 0x3FC JUMP JUMPDEST DUP2 EQ PUSH2 0x4C9 JUMPI PUSH0 PUSH0 REVERT JUMPDEST POP JUMP JUMPDEST PUSH0 DUP2 CALLDATALOAD SWAP1 POP PUSH2 0x4DA DUP2 PUSH2 0x4B6 JUMP JUMPDEST SWAP3 SWAP2 POP POP JUMP JUMPDEST PUSH0 PUSH1 0x20 DUP3 DUP5 SUB SLT ISZERO PUSH2 0x4F5 JUMPI PUSH2 0x4F4 PUSH2 0x42D JUMP JUMPDEST JUMPDEST PUSH0 PUSH2 0x502 DUP5 DUP3 DUP6 ADD PUSH2 0x4CC JUMP JUMPDEST SWAP2 POP POP SWAP3 SWAP2 POP POP JUMP JUMPDEST PUSH0 DUP3 DUP3 MSTORE PUSH1 0x20 DUP3 ADD SWAP1 POP SWAP3 SWAP2 POP POP JUMP JUMPDEST PUSH32 0x43616E6E6F74207769746864726177207768656E20676F616C20686173206265 PUSH0 DUP3 ADD MSTORE PUSH32 0x656E207265616368656400000000000000000000000000000000000000000000 PUSH1 0x20 DUP3 ADD MSTORE POP JUMP JUMPDEST PUSH0 PUSH2 0x575 PUSH1 0x2A DUP4 PUSH2 0x50B JUMP JUMPDEST SWAP2 POP PUSH2 0x580 DUP3 PUSH2 0x51B JUMP JUMPDEST PUSH1 0x40 DUP3 ADD SWAP1 POP SWAP2 SWAP1 POP JUMP JUMPDEST PUSH0 PUSH1 0x20 DUP3 ADD SWAP1 POP DUP2 DUP2 SUB PUSH0 DUP4 ADD MSTORE PUSH2 0x5A2 DUP2 PUSH2 0x569 JUMP JUMPDEST SWAP1 POP SWAP2 SWAP1 POP JUMP JUMPDEST PUSH32 0x46756E6420686173206E6F742079657420657870697265640000000000000000 PUSH0 DUP3 ADD MSTORE POP JUMP JUMPDEST PUSH0 PUSH2 0x5DD PUSH1 0x18 DUP4 PUSH2 0x50B JUMP JUMPDEST SWAP2 POP PUSH2 0x5E8 DUP3 PUSH2 0x5A9 JUMP JUMPDEST PUSH1 0x20 DUP3 ADD SWAP1 POP SWAP2 SWAP1 POP JUMP JUMPDEST PUSH0 PUSH1 0x20 DUP3 ADD SWAP1 POP DUP2 DUP2 SUB PUSH0 DUP4 ADD MSTORE PUSH2 0x60A DUP2 PUSH2 0x5D1 JUMP JUMPDEST SWAP1 POP SWAP2 SWAP1 POP JUMP JUMPDEST PUSH32 0x43616D706169676E20656E6465642E0000000000000000000000000000000000 PUSH0 DUP3 ADD MSTORE POP JUMP JUMPDEST PUSH0 PUSH2 0x645 PUSH1 0xF DUP4 PUSH2 0x50B JUMP JUMPDEST SWAP2 POP PUSH2 0x650 DUP3 PUSH2 0x611 JUMP JUMPDEST PUSH1 0x20 DUP3 ADD SWAP1 POP SWAP2 SWAP1 POP JUMP JUMPDEST PUSH0 PUSH1 0x20 DUP3 ADD SWAP1 POP DUP2 DUP2 SUB PUSH0 DUP4 ADD MSTORE PUSH2 0x672 DUP2 PUSH2 0x639 JUMP JUMPDEST SWAP1 POP SWAP2 SWAP1 POP JUMP JUMPDEST PUSH32 0x476F616C20616C72656164792072656163686564000000000000000000000000 PUSH0 DUP3 ADD MSTORE POP JUMP JUMPDEST PUSH0 PUSH2 0x6AD PUSH1 0x14 DUP4 PUSH2 0x50B JUMP JUMPDEST SWAP2 POP PUSH2 0x6B8 DUP3 PUSH2 0x679 JUMP JUMPDEST PUSH1 0x20 DUP3 ADD SWAP1 POP SWAP2 SWAP1 POP JUMP JUMPDEST PUSH0 PUSH1 0x20 DUP3 ADD SWAP1 POP DUP2 DUP2 SUB PUSH0 DUP4 ADD MSTORE PUSH2 0x6DA DUP2 PUSH2 0x6A1 JUMP JUMPDEST SWAP1 POP SWAP2 SWAP1 POP JUMP JUMPDEST PUSH32 0x4E487B7100000000000000000000000000000000000000000000000000000000 PUSH0 MSTORE PUSH1 0x11 PUSH1 0x4 MSTORE PUSH1 0x24 PUSH0 REVERT JUMPDEST PUSH0 PUSH2 0x718 DUP3 PUSH2 0x3FC JUMP JUMPDEST SWAP2 POP PUSH2 0x723 DUP4 PUSH2 0x3FC JUMP JUMPDEST SWAP3 POP DUP3 DUP3 ADD SWAP1 POP DUP1 DUP3 GT ISZERO PUSH2 0x73B JUMPI PUSH2 0x73A PUSH2 0x6E1 JUMP JUMPDEST JUMPDEST SWAP3 SWAP2 POP POP JUMP INVALID LOG2 PUSH5 0x6970667358 0x22 SLT KECCAK256 DUP6 0xFC PUSH32 0x42D5FF6FF4F40AA6AA467A66E35D66A92F813285410981F6385E76E63C64736F PUSH13 0x634300081C0033000000000000 "
				},
				"gasEstimates": {
					"creation": {
						"codeDepositCost": "382200",
						"executionCost": "infinite",
						"totalCost": "infinite"
					},
					"external": {
						"checkGoalReached()": "2474",
						"contribute(uint256)": "infinite",
						"contributions(address)": "2824",
						"endTime()": "2492",
						"goalAmount()": "2469",
						"goalReached()": "2510",
						"totalContributed()": "2448",
						"withdraw()": "14536"
					}
				},
				"methodIdentifiers": {
					"checkGoalReached()": "01cb3b20",
					"contribute(uint256)": "c1cbbca7",
					"contributions(address)": "42e94c90",
					"endTime()": "3197cbb6",
					"goalAmount()": "2636b945",
					"goalReached()": "7d3d6522",
					"totalContributed()": "023f4147",
					"withdraw()": "3ccfd60b"
				}
			},
			"storageLayout": {
				"storage": [
					{
						"astId": 3,
						"contract": "Solidity Basics/Crowdfunding.sol:Crowdfunding",
						"label": "goalAmount",
						"offset": 0,
						"slot": "0",
						"type": "t_uint256"
					},
					{
						"astId": 5,
						"contract": "Solidity Basics/Crowdfunding.sol:Crowdfunding",
						"label": "endTime",
						"offset": 0,
						"slot": "1",
						"type": "t_uint256"
					},
					{
						"astId": 7,
						"contract": "Solidity Basics/Crowdfunding.sol:Crowdfunding",
						"label": "totalContributed",
						"offset": 0,
						"slot": "2",
						"type": "t_uint256"
					},
					{
						"astId": 9,
						"contract": "Solidity Basics/Crowdfunding.sol:Crowdfunding",
						"label": "goalReached",
						"offset": 0,
						"slot": "3",
						"type": "t_bool"
					},
					{
						"astId": 13,
						"contract": "Solidity Basics/Crowdfunding.sol:Crowdfunding",
						"label": "contributions",
						"offset": 0,
						"slot": "4",
						"type": "t_mapping(t_address,t_uint256)"
					}
				],
				"types": {
					"t_address": {
						"encoding": "inplace",
						"label": "address",
						"numberOfBytes": "20"
					},
					"t_bool": {
						"encoding": "inplace",
						"label": "bool",
						"numberOfBytes": "1"
					},
					"t_mapping(t_address,t_uint256)": {
						"encoding": "mapping",
						"key": "t_address",
						"label": "mapping(address => uint256)",
						"numberOfBytes": "32",
						"value": "t_uint256"
					},
					"t_uint256": {
						"encoding": "inplace",
						"label": "uint256",
						"numberOfBytes": "32"
					}
				}
			},
			"userdoc": {
				"kind": "user",
				"methods": {},
				"version": 1
			}
		}
	}
}