{
	"Solidity Basics/Voting.sol": {
		"Voting": {
			"abi": [
				{
					"inputs": [],
					"name": "getVoterStatus",
					"outputs": [
						{
							"internalType": "bool",
							"name": "voteStatus",
							"type": "bool"
						},
						{
							"internalType": "uint256",
							"name": "voterChoice",
							"type": "uint256"
						}
					],
					"stateMutability": "view",
					"type": "function"
				},
				{
					"inputs": [
						{
							"internalType": "uint256",
							"name": "_choice",
							"type": "uint256"
						}
					],
					"name": "registerVote",
					"outputs": [],
					"stateMutability": "nonpayable",
					"type": "function"
				},
				{
					"inputs": [
						{
							"internalType": "address",
							"name": "",
							"type": "address"
						}
					],
					"name": "voters",
					"outputs": [
						{
							"internalType": "bool",
							"name": "hasVoted",
							"type": "bool"
						},
						{
							"internalType": "uint256",
							"name": "choice",
							"type": "uint256"
						}
					],
					"stateMutability": "view",
					"type": "function"
				}
			],
			"devdoc": {
				"kind": "dev",
				"methods": {},
				"version": 1
			},
			"evm": {
				"assembly": "    /* \"Solidity Basics/Voting.sol\":126:642  contract Voting {... */\n  mstore(0x40, 0x80)\n  callvalue\n  dup1\n  iszero\n  tag_1\n  jumpi\n  revert(0x00, 0x00)\ntag_1:\n  pop\n  dataSize(sub_0)\n  dup1\n  dataOffset(sub_0)\n  0x00\n  codecopy\n  0x00\n  return\nstop\n\nsub_0: assembly {\n        /* \"Solidity Basics/Voting.sol\":126:642  contract Voting {... */\n      mstore(0x40, 0x80)\n      callvalue\n      dup1\n      iszero\n      tag_1\n      jumpi\n      revert(0x00, 0x00)\n    tag_1:\n      pop\n      jumpi(tag_2, lt(calldatasize, 0x04))\n      shr(0xe0, calldataload(0x00))\n      dup1\n      0x464d4a92\n      eq\n      tag_3\n      jumpi\n      dup1\n      0xa3ec138d\n      eq\n      tag_4\n      jumpi\n      dup1\n      0xffe172c0\n      eq\n      tag_5\n      jumpi\n    tag_2:\n      revert(0x00, 0x00)\n        /* \"Solidity Basics/Voting.sol\":198:430  function registerVote (uint256 _choice) external {... */\n    tag_3:\n      tag_6\n      0x04\n      dup1\n      calldatasize\n      sub\n      dup2\n      add\n      swap1\n      tag_7\n      swap2\n      swap1\n      tag_8\n      jump\t// in\n    tag_7:\n      tag_9\n      jump\t// in\n    tag_6:\n      stop\n        /* \"Solidity Basics/Voting.sol\":149:189  mapping (address => Voter) public voters */\n    tag_4:\n      tag_10\n      0x04\n      dup1\n      calldatasize\n      sub\n      dup2\n      add\n      swap1\n      tag_11\n      swap2\n      swap1\n      tag_12\n      jump\t// in\n    tag_11:\n      tag_13\n      jump\t// in\n    tag_10:\n      mload(0x40)\n      tag_14\n      swap3\n      swap2\n      swap1\n      tag_15\n      jump\t// in\n    tag_14:\n      mload(0x40)\n      dup1\n      swap2\n      sub\n      swap1\n      return\n        /* \"Solidity Basics/Voting.sol\":438:635  function getVoterStatus () external view returns (bool voteStatus, uint256 voterChoice) {... */\n    tag_5:\n      tag_16\n      tag_17\n      jump\t// in\n    tag_16:\n      mload(0x40)\n      tag_18\n      swap3\n      swap2\n      swap1\n      tag_15\n      jump\t// in\n    tag_18:\n      mload(0x40)\n      dup1\n      swap2\n      sub\n      swap1\n      return\n        /* \"Solidity Basics/Voting.sol\":198:430  function registerVote (uint256 _choice) external {... */\n    tag_9:\n        /* \"Solidity Basics/Voting.sol\":297:301  true */\n      0x01\n        /* \"Solidity Basics/Voting.sol\":266:301  voters[msg.sender].hasVoted != true */\n      iszero\n      iszero\n        /* \"Solidity Basics/Voting.sol\":266:272  voters */\n      0x00\n        /* \"Solidity Basics/Voting.sol\":266:284  voters[msg.sender] */\n      0x00\n        /* \"Solidity Basics/Voting.sol\":273:283  msg.sender */\n      caller\n        /* \"Solidity Basics/Voting.sol\":266:284  voters[msg.sender] */\n      0xffffffffffffffffffffffffffffffffffffffff\n      and\n      0xffffffffffffffffffffffffffffffffffffffff\n      and\n      dup2\n      mstore\n      0x20\n      add\n      swap1\n      dup2\n      mstore\n      0x20\n      add\n      0x00\n      keccak256\n        /* \"Solidity Basics/Voting.sol\":266:293  voters[msg.sender].hasVoted */\n      0x00\n      add\n      0x00\n      swap1\n      sload\n      swap1\n      0x0100\n      exp\n      swap1\n      div\n      0xff\n      and\n        /* \"Solidity Basics/Voting.sol\":266:301  voters[msg.sender].hasVoted != true */\n      iszero\n      iszero\n      sub\n        /* \"Solidity Basics/Voting.sol\":258:329  require(voters[msg.sender].hasVoted != true, \"Voter already gave vote\") */\n      tag_20\n      jumpi\n      mload(0x40)\n      0x08c379a000000000000000000000000000000000000000000000000000000000\n      dup2\n      mstore\n      0x04\n      add\n      tag_21\n      swap1\n      tag_22\n      jump\t// in\n    tag_21:\n      mload(0x40)\n      dup1\n      swap2\n      sub\n      swap1\n      revert\n    tag_20:\n        /* \"Solidity Basics/Voting.sol\":372:376  true */\n      0x01\n        /* \"Solidity Basics/Voting.sol\":342:348  voters */\n      0x00\n        /* \"Solidity Basics/Voting.sol\":342:360  voters[msg.sender] */\n      0x00\n        /* \"Solidity Basics/Voting.sol\":349:359  msg.sender */\n      caller\n        /* \"Solidity Basics/Voting.sol\":342:360  voters[msg.sender] */\n      0xffffffffffffffffffffffffffffffffffffffff\n      and\n      0xffffffffffffffffffffffffffffffffffffffff\n      and\n      dup2\n      mstore\n      0x20\n      add\n      swap1\n      dup2\n      mstore\n      0x20\n      add\n      0x00\n      keccak256\n        /* \"Solidity Basics/Voting.sol\":342:369  voters[msg.sender].hasVoted */\n      0x00\n      add\n      0x00\n        /* \"Solidity Basics/Voting.sol\":342:376  voters[msg.sender].hasVoted = true */\n      0x0100\n      exp\n      dup2\n      sload\n      dup2\n      0xff\n      mul\n      not\n      and\n      swap1\n      dup4\n      iszero\n      iszero\n      mul\n      or\n      swap1\n      sstore\n      pop\n        /* \"Solidity Basics/Voting.sol\":415:422  _choice */\n      dup1\n        /* \"Solidity Basics/Voting.sol\":387:393  voters */\n      0x00\n        /* \"Solidity Basics/Voting.sol\":387:405  voters[msg.sender] */\n      0x00\n        /* \"Solidity Basics/Voting.sol\":394:404  msg.sender */\n      caller\n        /* \"Solidity Basics/Voting.sol\":387:405  voters[msg.sender] */\n      0xffffffffffffffffffffffffffffffffffffffff\n      and\n      0xffffffffffffffffffffffffffffffffffffffff\n      and\n      dup2\n      mstore\n      0x20\n      add\n      swap1\n      dup2\n      mstore\n      0x20\n      add\n      0x00\n      keccak256\n        /* \"Solidity Basics/Voting.sol\":387:412  voters[msg.sender].choice */\n      0x01\n      add\n        /* \"Solidity Basics/Voting.sol\":387:422  voters[msg.sender].choice = _choice */\n      dup2\n      swap1\n      sstore\n      pop\n        /* \"Solidity Basics/Voting.sol\":198:430  function registerVote (uint256 _choice) external {... */\n      pop\n      jump\t// out\n        /* \"Solidity Basics/Voting.sol\":149:189  mapping (address => Voter) public voters */\n    tag_13:\n      mstore(0x20, 0x00)\n      dup1\n      0x00\n      mstore\n      keccak256(0x00, 0x40)\n      0x00\n      swap2\n      pop\n      swap1\n      pop\n      dup1\n      0x00\n      add\n      0x00\n      swap1\n      sload\n      swap1\n      0x0100\n      exp\n      swap1\n      div\n      0xff\n      and\n      swap1\n      dup1\n      0x01\n      add\n      sload\n      swap1\n      pop\n      dup3\n      jump\t// out\n        /* \"Solidity Basics/Voting.sol\":438:635  function getVoterStatus () external view returns (bool voteStatus, uint256 voterChoice) {... */\n    tag_17:\n        /* \"Solidity Basics/Voting.sol\":488:503  bool voteStatus */\n      0x00\n        /* \"Solidity Basics/Voting.sol\":505:524  uint256 voterChoice */\n      0x00\n        /* \"Solidity Basics/Voting.sol\":550:556  voters */\n      0x00\n        /* \"Solidity Basics/Voting.sol\":550:568  voters[msg.sender] */\n      0x00\n        /* \"Solidity Basics/Voting.sol\":557:567  msg.sender */\n      caller\n        /* \"Solidity Basics/Voting.sol\":550:568  voters[msg.sender] */\n      0xffffffffffffffffffffffffffffffffffffffff\n      and\n      0xffffffffffffffffffffffffffffffffffffffff\n      and\n      dup2\n      mstore\n      0x20\n      add\n      swap1\n      dup2\n      mstore\n      0x20\n      add\n      0x00\n      keccak256\n        /* \"Solidity Basics/Voting.sol\":550:577  voters[msg.sender].hasVoted */\n      0x00\n      add\n      0x00\n      swap1\n      sload\n      swap1\n      0x0100\n      exp\n      swap1\n      div\n      0xff\n      and\n        /* \"Solidity Basics/Voting.sol\":537:577  voteStatus = voters[msg.sender].hasVoted */\n      swap2\n      pop\n        /* \"Solidity Basics/Voting.sol\":602:608  voters */\n      0x00\n        /* \"Solidity Basics/Voting.sol\":602:620  voters[msg.sender] */\n      0x00\n        /* \"Solidity Basics/Voting.sol\":609:619  msg.sender */\n      caller\n        /* \"Solidity Basics/Voting.sol\":602:620  voters[msg.sender] */\n      0xffffffffffffffffffffffffffffffffffffffff\n      and\n      0xffffffffffffffffffffffffffffffffffffffff\n      and\n      dup2\n      mstore\n      0x20\n      add\n      swap1\n      dup2\n      mstore\n      0x20\n      add\n      0x00\n      keccak256\n        /* \"Solidity Basics/Voting.sol\":602:627  voters[msg.sender].choice */\n      0x01\n      add\n      sload\n        /* \"Solidity Basics/Voting.sol\":588:627  voterChoice = voters[msg.sender].choice */\n      swap1\n      pop\n        /* \"Solidity Basics/Voting.sol\":438:635  function getVoterStatus () external view returns (bool voteStatus, uint256 voterChoice) {... */\n      swap1\n      swap2\n      jump\t// out\n        /* \"#utility.yul\":88:205   */\n    tag_25:\n        /* \"#utility.yul\":197:198   */\n      0x00\n        /* \"#utility.yul\":194:195   */\n      0x00\n        /* \"#utility.yul\":187:199   */\n      revert\n        /* \"#utility.yul\":334:411   */\n    tag_27:\n        /* \"#utility.yul\":371:378   */\n      0x00\n        /* \"#utility.yul\":400:405   */\n      dup2\n        /* \"#utility.yul\":389:405   */\n      swap1\n      pop\n        /* \"#utility.yul\":334:411   */\n      swap2\n      swap1\n      pop\n      jump\t// out\n        /* \"#utility.yul\":417:539   */\n    tag_28:\n        /* \"#utility.yul\":490:514   */\n      tag_46\n        /* \"#utility.yul\":508:513   */\n      dup2\n        /* \"#utility.yul\":490:514   */\n      tag_27\n      jump\t// in\n    tag_46:\n        /* \"#utility.yul\":483:488   */\n      dup2\n        /* \"#utility.yul\":480:515   */\n      eq\n        /* \"#utility.yul\":470:533   */\n      tag_47\n      jumpi\n        /* \"#utility.yul\":529:530   */\n      0x00\n        /* \"#utility.yul\":526:527   */\n      0x00\n        /* \"#utility.yul\":519:531   */\n      revert\n        /* \"#utility.yul\":470:533   */\n    tag_47:\n        /* \"#utility.yul\":417:539   */\n      pop\n      jump\t// out\n        /* \"#utility.yul\":545:684   */\n    tag_29:\n        /* \"#utility.yul\":591:596   */\n      0x00\n        /* \"#utility.yul\":629:635   */\n      dup2\n        /* \"#utility.yul\":616:636   */\n      calldataload\n        /* \"#utility.yul\":607:636   */\n      swap1\n      pop\n        /* \"#utility.yul\":645:678   */\n      tag_49\n        /* \"#utility.yul\":672:677   */\n      dup2\n        /* \"#utility.yul\":645:678   */\n      tag_28\n      jump\t// in\n    tag_49:\n        /* \"#utility.yul\":545:684   */\n      swap3\n      swap2\n      pop\n      pop\n      jump\t// out\n        /* \"#utility.yul\":690:1019   */\n    tag_8:\n        /* \"#utility.yul\":749:755   */\n      0x00\n        /* \"#utility.yul\":798:800   */\n      0x20\n        /* \"#utility.yul\":786:795   */\n      dup3\n        /* \"#utility.yul\":777:784   */\n      dup5\n        /* \"#utility.yul\":773:796   */\n      sub\n        /* \"#utility.yul\":769:801   */\n      slt\n        /* \"#utility.yul\":766:885   */\n      iszero\n      tag_51\n      jumpi\n        /* \"#utility.yul\":804:883   */\n      tag_52\n      tag_25\n      jump\t// in\n    tag_52:\n        /* \"#utility.yul\":766:885   */\n    tag_51:\n        /* \"#utility.yul\":924:925   */\n      0x00\n        /* \"#utility.yul\":949:1002   */\n      tag_53\n        /* \"#utility.yul\":994:1001   */\n      dup5\n        /* \"#utility.yul\":985:991   */\n      dup3\n        /* \"#utility.yul\":974:983   */\n      dup6\n        /* \"#utility.yul\":970:992   */\n      add\n        /* \"#utility.yul\":949:1002   */\n      tag_29\n      jump\t// in\n    tag_53:\n        /* \"#utility.yul\":939:1002   */\n      swap2\n      pop\n        /* \"#utility.yul\":895:1012   */\n      pop\n        /* \"#utility.yul\":690:1019   */\n      swap3\n      swap2\n      pop\n      pop\n      jump\t// out\n        /* \"#utility.yul\":1025:1151   */\n    tag_30:\n        /* \"#utility.yul\":1062:1069   */\n      0x00\n        /* \"#utility.yul\":1102:1144   */\n      0xffffffffffffffffffffffffffffffffffffffff\n        /* \"#utility.yul\":1095:1100   */\n      dup3\n        /* \"#utility.yul\":1091:1145   */\n      and\n        /* \"#utility.yul\":1080:1145   */\n      swap1\n      pop\n        /* \"#utility.yul\":1025:1151   */\n      swap2\n      swap1\n      pop\n      jump\t// out\n        /* \"#utility.yul\":1157:1253   */\n    tag_31:\n        /* \"#utility.yul\":1194:1201   */\n      0x00\n        /* \"#utility.yul\":1223:1247   */\n      tag_56\n        /* \"#utility.yul\":1241:1246   */\n      dup3\n        /* \"#utility.yul\":1223:1247   */\n      tag_30\n      jump\t// in\n    tag_56:\n        /* \"#utility.yul\":1212:1247   */\n      swap1\n      pop\n        /* \"#utility.yul\":1157:1253   */\n      swap2\n      swap1\n      pop\n      jump\t// out\n        /* \"#utility.yul\":1259:1381   */\n    tag_32:\n        /* \"#utility.yul\":1332:1356   */\n      tag_58\n        /* \"#utility.yul\":1350:1355   */\n      dup2\n        /* \"#utility.yul\":1332:1356   */\n      tag_31\n      jump\t// in\n    tag_58:\n        /* \"#utility.yul\":1325:1330   */\n      dup2\n        /* \"#utility.yul\":1322:1357   */\n      eq\n        /* \"#utility.yul\":1312:1375   */\n      tag_59\n      jumpi\n        /* \"#utility.yul\":1371:1372   */\n      0x00\n        /* \"#utility.yul\":1368:1369   */\n      0x00\n        /* \"#utility.yul\":1361:1373   */\n      revert\n        /* \"#utility.yul\":1312:1375   */\n    tag_59:\n        /* \"#utility.yul\":1259:1381   */\n      pop\n      jump\t// out\n        /* \"#utility.yul\":1387:1526   */\n    tag_33:\n        /* \"#utility.yul\":1433:1438   */\n      0x00\n        /* \"#utility.yul\":1471:1477   */\n      dup2\n        /* \"#utility.yul\":1458:1478   */\n      calldataload\n        /* \"#utility.yul\":1449:1478   */\n      swap1\n      pop\n        /* \"#utility.yul\":1487:1520   */\n      tag_61\n        /* \"#utility.yul\":1514:1519   */\n      dup2\n        /* \"#utility.yul\":1487:1520   */\n      tag_32\n      jump\t// in\n    tag_61:\n        /* \"#utility.yul\":1387:1526   */\n      swap3\n      swap2\n      pop\n      pop\n      jump\t// out\n        /* \"#utility.yul\":1532:1861   */\n    tag_12:\n        /* \"#utility.yul\":1591:1597   */\n      0x00\n        /* \"#utility.yul\":1640:1642   */\n      0x20\n        /* \"#utility.yul\":1628:1637   */\n      dup3\n        /* \"#utility.yul\":1619:1626   */\n      dup5\n        /* \"#utility.yul\":1615:1638   */\n      sub\n        /* \"#utility.yul\":1611:1643   */\n      slt\n        /* \"#utility.yul\":1608:1727   */\n      iszero\n      tag_63\n      jumpi\n        /* \"#utility.yul\":1646:1725   */\n      tag_64\n      tag_25\n      jump\t// in\n    tag_64:\n        /* \"#utility.yul\":1608:1727   */\n    tag_63:\n        /* \"#utility.yul\":1766:1767   */\n      0x00\n        /* \"#utility.yul\":1791:1844   */\n      tag_65\n        /* \"#utility.yul\":1836:1843   */\n      dup5\n        /* \"#utility.yul\":1827:1833   */\n      dup3\n        /* \"#utility.yul\":1816:1825   */\n      dup6\n        /* \"#utility.yul\":1812:1834   */\n      add\n        /* \"#utility.yul\":1791:1844   */\n      tag_33\n      jump\t// in\n    tag_65:\n        /* \"#utility.yul\":1781:1844   */\n      swap2\n      pop\n        /* \"#utility.yul\":1737:1854   */\n      pop\n        /* \"#utility.yul\":1532:1861   */\n      swap3\n      swap2\n      pop\n      pop\n      jump\t// out\n        /* \"#utility.yul\":1867:1957   */\n    tag_34:\n        /* \"#utility.yul\":1901:1908   */\n      0x00\n        /* \"#utility.yul\":1944:1949   */\n      dup2\n        /* \"#utility.yul\":1937:1950   */\n      iszero\n        /* \"#utility.yul\":1930:1951   */\n      iszero\n        /* \"#utility.yul\":1919:1951   */\n      swap1\n      pop\n        /* \"#utility.yul\":1867:1957   */\n      swap2\n      swap1\n      pop\n      jump\t// out\n        /* \"#utility.yul\":1963:2072   */\n    tag_35:\n        /* \"#utility.yul\":2044:2065   */\n      tag_68\n        /* \"#utility.yul\":2059:2064   */\n      dup2\n        /* \"#utility.yul\":2044:2065   */\n      tag_34\n      jump\t// in\n    tag_68:\n        /* \"#utility.yul\":2039:2042   */\n      dup3\n        /* \"#utility.yul\":2032:2066   */\n      mstore\n        /* \"#utility.yul\":1963:2072   */\n      pop\n      pop\n      jump\t// out\n        /* \"#utility.yul\":2078:2196   */\n    tag_36:\n        /* \"#utility.yul\":2165:2189   */\n      tag_70\n        /* \"#utility.yul\":2183:2188   */\n      dup2\n        /* \"#utility.yul\":2165:2189   */\n      tag_27\n      jump\t// in\n    tag_70:\n        /* \"#utility.yul\":2160:2163   */\n      dup3\n        /* \"#utility.yul\":2153:2190   */\n      mstore\n        /* \"#utility.yul\":2078:2196   */\n      pop\n      pop\n      jump\t// out\n        /* \"#utility.yul\":2202:2522   */\n    tag_15:\n        /* \"#utility.yul\":2317:2321   */\n      0x00\n        /* \"#utility.yul\":2355:2357   */\n      0x40\n        /* \"#utility.yul\":2344:2353   */\n      dup3\n        /* \"#utility.yul\":2340:2358   */\n      add\n        /* \"#utility.yul\":2332:2358   */\n      swap1\n      pop\n        /* \"#utility.yul\":2368:2433   */\n      tag_72\n        /* \"#utility.yul\":2430:2431   */\n      0x00\n        /* \"#utility.yul\":2419:2428   */\n      dup4\n        /* \"#utility.yul\":2415:2432   */\n      add\n        /* \"#utility.yul\":2406:2412   */\n      dup6\n        /* \"#utility.yul\":2368:2433   */\n      tag_35\n      jump\t// in\n    tag_72:\n        /* \"#utility.yul\":2443:2515   */\n      tag_73\n        /* \"#utility.yul\":2511:2513   */\n      0x20\n        /* \"#utility.yul\":2500:2509   */\n      dup4\n        /* \"#utility.yul\":2496:2514   */\n      add\n        /* \"#utility.yul\":2487:2493   */\n      dup5\n        /* \"#utility.yul\":2443:2515   */\n      tag_36\n      jump\t// in\n    tag_73:\n        /* \"#utility.yul\":2202:2522   */\n      swap4\n      swap3\n      pop\n      pop\n      pop\n      jump\t// out\n        /* \"#utility.yul\":2528:2697   */\n    tag_37:\n        /* \"#utility.yul\":2612:2623   */\n      0x00\n        /* \"#utility.yul\":2646:2652   */\n      dup3\n        /* \"#utility.yul\":2641:2644   */\n      dup3\n        /* \"#utility.yul\":2634:2653   */\n      mstore\n        /* \"#utility.yul\":2686:2690   */\n      0x20\n        /* \"#utility.yul\":2681:2684   */\n      dup3\n        /* \"#utility.yul\":2677:2691   */\n      add\n        /* \"#utility.yul\":2662:2691   */\n      swap1\n      pop\n        /* \"#utility.yul\":2528:2697   */\n      swap3\n      swap2\n      pop\n      pop\n      jump\t// out\n        /* \"#utility.yul\":2703:2876   */\n    tag_38:\n        /* \"#utility.yul\":2843:2868   */\n      0x566f74657220616c7265616479206761766520766f7465000000000000000000\n        /* \"#utility.yul\":2839:2840   */\n      0x00\n        /* \"#utility.yul\":2831:2837   */\n      dup3\n        /* \"#utility.yul\":2827:2841   */\n      add\n        /* \"#utility.yul\":2820:2869   */\n      mstore\n        /* \"#utility.yul\":2703:2876   */\n      pop\n      jump\t// out\n        /* \"#utility.yul\":2882:3248   */\n    tag_39:\n        /* \"#utility.yul\":3024:3027   */\n      0x00\n        /* \"#utility.yul\":3045:3112   */\n      tag_77\n        /* \"#utility.yul\":3109:3111   */\n      0x17\n        /* \"#utility.yul\":3104:3107   */\n      dup4\n        /* \"#utility.yul\":3045:3112   */\n      tag_37\n      jump\t// in\n    tag_77:\n        /* \"#utility.yul\":3038:3112   */\n      swap2\n      pop\n        /* \"#utility.yul\":3121:3214   */\n      tag_78\n        /* \"#utility.yul\":3210:3213   */\n      dup3\n        /* \"#utility.yul\":3121:3214   */\n      tag_38\n      jump\t// in\n    tag_78:\n        /* \"#utility.yul\":3239:3241   */\n      0x20\n        /* \"#utility.yul\":3234:3237   */\n      dup3\n        /* \"#utility.yul\":3230:3242   */\n      add\n        /* \"#utility.yul\":3223:3242   */\n      swap1\n      pop\n        /* \"#utility.yul\":2882:3248   */\n      swap2\n      swap1\n      pop\n      jump\t// out\n        /* \"#utility.yul\":3254:3673   */\n    tag_22:\n        /* \"#utility.yul\":3420:3424   */\n      0x00\n        /* \"#utility.yul\":3458:3460   */\n      0x20\n        /* \"#utility.yul\":3447:3456   */\n      dup3\n        /* \"#utility.yul\":3443:3461   */\n      add\n        /* \"#utility.yul\":3435:3461   */\n      swap1\n      pop\n        /* \"#utility.yul\":3507:3516   */\n      dup2\n        /* \"#utility.yul\":3501:3505   */\n      dup2\n        /* \"#utility.yul\":3497:3517   */\n      sub\n        /* \"#utility.yul\":3493:3494   */\n      0x00\n        /* \"#utility.yul\":3482:3491   */\n      dup4\n        /* \"#utility.yul\":3478:3495   */\n      add\n        /* \"#utility.yul\":3471:3518   */\n      mstore\n        /* \"#utility.yul\":3535:3666   */\n      tag_80\n        /* \"#utility.yul\":3661:3665   */\n      dup2\n        /* \"#utility.yul\":3535:3666   */\n      tag_39\n      jump\t// in\n    tag_80:\n        /* \"#utility.yul\":3527:3666   */\n      swap1\n      pop\n        /* \"#utility.yul\":3254:3673   */\n      swap2\n      swap1\n      pop\n      jump\t// out\n\n    auxdata: 0xa2646970667358221220d4bd4bc3bd30f8873ac440e0f22c7e1ffd60526aa0ccaa8c4a494191850f5d1f64736f6c634300081c0033\n}\n",
				"bytecode": {
					"linkReferences": {},
					"object": "6080604052348015600e575f5ffd5b506104828061001c5f395ff3fe608060405234801561000f575f5ffd5b506004361061003f575f3560e01c8063464d4a9214610043578063a3ec138d1461005f578063ffe172c014610090575b5f5ffd5b61005d600480360381019061005891906102d4565b6100af565b005b61007960048036038101906100749190610359565b6101dd565b6040516100879291906103ad565b60405180910390f35b610098610208565b6040516100a69291906103ad565b60405180910390f35b600115155f5f3373ffffffffffffffffffffffffffffffffffffffff1673ffffffffffffffffffffffffffffffffffffffff1681526020019081526020015f205f015f9054906101000a900460ff16151503610140576040517f08c379a00000000000000000000000000000000000000000000000000000000081526004016101379061042e565b60405180910390fd5b60015f5f3373ffffffffffffffffffffffffffffffffffffffff1673ffffffffffffffffffffffffffffffffffffffff1681526020019081526020015f205f015f6101000a81548160ff021916908315150217905550805f5f3373ffffffffffffffffffffffffffffffffffffffff1673ffffffffffffffffffffffffffffffffffffffff1681526020019081526020015f206001018190555050565b5f602052805f5260405f205f91509050805f015f9054906101000a900460ff16908060010154905082565b5f5f5f5f3373ffffffffffffffffffffffffffffffffffffffff1673ffffffffffffffffffffffffffffffffffffffff1681526020019081526020015f205f015f9054906101000a900460ff1691505f5f3373ffffffffffffffffffffffffffffffffffffffff1673ffffffffffffffffffffffffffffffffffffffff1681526020019081526020015f206001015490509091565b5f5ffd5b5f819050919050565b6102b3816102a1565b81146102bd575f5ffd5b50565b5f813590506102ce816102aa565b92915050565b5f602082840312156102e9576102e861029d565b5b5f6102f6848285016102c0565b91505092915050565b5f73ffffffffffffffffffffffffffffffffffffffff82169050919050565b5f610328826102ff565b9050919050565b6103388161031e565b8114610342575f5ffd5b50565b5f813590506103538161032f565b92915050565b5f6020828403121561036e5761036d61029d565b5b5f61037b84828501610345565b91505092915050565b5f8115159050919050565b61039881610384565b82525050565b6103a7816102a1565b82525050565b5f6040820190506103c05f83018561038f565b6103cd602083018461039e565b9392505050565b5f82825260208201905092915050565b7f566f74657220616c7265616479206761766520766f74650000000000000000005f82015250565b5f6104186017836103d4565b9150610423826103e4565b602082019050919050565b5f6020820190508181035f8301526104458161040c565b905091905056fea2646970667358221220d4bd4bc3bd30f8873ac440e0f22c7e1ffd60526aa0ccaa8c4a494191850f5d1f64736f6c634300081c0033",
					"opcodes": "PUSH1 0x80 PUSH1 0x40 MSTORE CALLVALUE DUP1 ISZERO PUSH1 0xE JUMPI PUSH0 PUSH0 REVERT JUMPDEST POP PUSH2 0x482 DUP1 PUSH2 0x1C PUSH0 CODECOPY PUSH0 RETURN INVALID PUSH1 0x80 PUSH1 0x40 MSTORE CALLVALUE DUP1 ISZERO PUSH2 0xF JUMPI PUSH0 PUSH0 REVERT JUMPDEST POP PUSH1 0x4 CALLDATASIZE LT PUSH2 0x3F JUMPI PUSH0 CALLDATALOAD PUSH1 0xE0 SHR DUP1 PUSH4 0x464D4A92 EQ PUSH2 0x43 JUMPI DUP1 PUSH4 0xA3EC138D EQ PUSH2 0x5F JUMPI DUP1 PUSH4 0xFFE172C0 EQ PUSH2 0x90 JUMPI JUMPDEST PUSH0 PUSH0 REVERT JUMPDEST PUSH2 0x5D PUSH1 0x4 DUP1 CALLDATASIZE SUB DUP2 ADD SWAP1 PUSH2 0x58 SWAP2 SWAP1 PUSH2 0x2D4 JUMP JUMPDEST PUSH2 0xAF JUMP JUMPDEST STOP JUMPDEST PUSH2 0x79 PUSH1 0x4 DUP1 CALLDATASIZE SUB DUP2 ADD SWAP1 PUSH2 0x74 SWAP2 SWAP1 PUSH2 0x359 JUMP JUMPDEST PUSH2 0x1DD JUMP JUMPDEST PUSH1 0x40 MLOAD PUSH2 0x87 SWAP3 SWAP2 SWAP1 PUSH2 0x3AD JUMP JUMPDEST PUSH1 0x40 MLOAD DUP1 SWAP2 SUB SWAP1 RETURN JUMPDEST PUSH2 0x98 PUSH2 0x208 JUMP JUMPDEST PUSH1 0x40 MLOAD PUSH2 0xA6 SWAP3 SWAP2 SWAP1 PUSH2 0x3AD JUMP JUMPDEST PUSH1 0x40 MLOAD DUP1 SWAP2 SUB SWAP1 RETURN JUMPDEST PUSH1 0x1 ISZERO ISZERO PUSH0 PUSH0 CALLER PUSH20 0xFFFFFFFFFFFFFFFFFFFFFFFFFFFFFFFFFFFFFFFF AND PUSH20 0xFFFFFFFFFFFFFFFFFFFFFFFFFFFFFFFFFFFFFFFF AND DUP2 MSTORE PUSH1 0x20 ADD SWAP1 DUP2 MSTORE PUSH1 0x20 ADD PUSH0 KECCAK256 PUSH0 ADD PUSH0 SWAP1 SLOAD SWAP1 PUSH2 0x100 EXP SWAP1 DIV PUSH1 0xFF AND ISZERO ISZERO SUB PUSH2 0x140 JUMPI PUSH1 0x40 MLOAD PUSH32 0x8C379A000000000000000000000000000000000000000000000000000000000 DUP2 MSTORE PUSH1 0x4 ADD PUSH2 0x137 SWAP1 PUSH2 0x42E JUMP JUMPDEST PUSH1 0x40 MLOAD DUP1 SWAP2 SUB SWAP1 REVERT JUMPDEST PUSH1 0x1 PUSH0 PUSH0 CALLER PUSH20 0xFFFFFFFFFFFFFFFFFFFFFFFFFFFFFFFFFFFFFFFF AND PUSH20 0xFFFFFFFFFFFFFFFFFFFFFFFFFFFFFFFFFFFFFFFF AND DUP2 MSTORE PUSH1 0x20 ADD SWAP1 DUP2 MSTORE PUSH1 0x20 ADD PUSH0 KECCAK256 PUSH0 ADD PUSH0 PUSH2 0x100 EXP DUP2 SLOAD DUP2 PUSH1 0xFF MUL NOT AND SWAP1 DUP4 ISZERO ISZERO MUL OR SWAP1 SSTORE POP DUP1 PUSH0 PUSH0 CALLER PUSH20 0xFFFFFFFFFFFFFFFFFFFFFFFFFFFFFFFFFFFFFFFF AND PUSH20 0xFFFFFFFFFFFFFFFFFFFFFFFFFFFFFFFFFFFFFFFF AND DUP2 MSTORE PUSH1 0x20 ADD SWAP1 DUP2 MSTORE PUSH1 0x20 ADD PUSH0 KECCAK256 PUSH1 0x1 ADD DUP2 SWAP1 SSTORE POP POP JUMP JUMPDEST PUSH0 PUSH1 0x20 MSTORE DUP1 PUSH0 MSTORE PUSH1 0x40 PUSH0 KECCAK256 PUSH0 SWAP2 POP SWAP1 POP DUP1 PUSH0 ADD PUSH0 SWAP1 SLOAD SWAP1 PUSH2 0x100 EXP SWAP1 DIV PUSH1 0xFF AND SWAP1 DUP1 PUSH1 0x1 ADD SLOAD SWAP1 POP DUP3 JUMP JUMPDEST PUSH0 PUSH0 PUSH0 PUSH0 CALLER PUSH20 0xFFFFFFFFFFFFFFFFFFFFFFFFFFFFFFFFFFFFFFFF AND PUSH20 0xFFFFFFFFFFFFFFFFFFFFFFFFFFFFFFFFFFFFFFFF AND DUP2 MSTORE PUSH1 0x20 ADD SWAP1 DUP2 MSTORE PUSH1 0x20 ADD PUSH0 KECCAK256 PUSH0 ADD PUSH0 SWAP1 SLOAD SWAP1 PUSH2 0x100 EXP SWAP1 DIV PUSH1 0xFF AND SWAP2 POP PUSH0 PUSH0 CALLER PUSH20 0xFFFFFFFFFFFFFFFFFFFFFFFFFFFFFFFFFFFFFFFF AND PUSH20 0xFFFFFFFFFFFFFFFFFFFFFFFFFFFFFFFFFFFFFFFF AND DUP2 MSTORE PUSH1 0x20 ADD SWAP1 DUP2 MSTORE PUSH1 0x20 ADD PUSH0 KECCAK256 PUSH1 0x1 ADD SLOAD SWAP1 POP SWAP1 SWAP2 JUMP JUMPDEST PUSH0 PUSH0 REVERT JUMPDEST PUSH0 DUP2 SWAP1 POP SWAP2 SWAP1 POP JUMP JUMPDEST PUSH2 0x2B3 DUP2 PUSH2 0x2A1 JUMP JUMPDEST DUP2 EQ PUSH2 0x2BD JUMPI PUSH0 PUSH0 REVERT JUMPDEST POP JUMP JUMPDEST PUSH0 DUP2 CALLDATALOAD SWAP1 POP PUSH2 0x2CE DUP2 PUSH2 0x2AA JUMP JUMPDEST SWAP3 SWAP2 POP POP JUMP JUMPDEST PUSH0 PUSH1 0x20 DUP3 DUP5 SUB SLT ISZERO PUSH2 0x2E9 JUMPI PUSH2 0x2E8 PUSH2 0x29D JUMP JUMPDEST JUMPDEST PUSH0 PUSH2 0x2F6 DUP5 DUP3 DUP6 ADD PUSH2 0x2C0 JUMP JUMPDEST SWAP2 POP POP SWAP3 SWAP2 POP POP JUMP JUMPDEST PUSH0 PUSH20 0xFFFFFFFFFFFFFFFFFFFFFFFFFFFFFFFFFFFFFFFF DUP3 AND SWAP1 POP SWAP2 SWAP1 POP JUMP JUMPDEST PUSH0 PUSH2 0x328 DUP3 PUSH2 0x2FF JUMP JUMPDEST SWAP1 POP SWAP2 SWAP1 POP JUMP JUMPDEST PUSH2 0x338 DUP2 PUSH2 0x31E JUMP JUMPDEST DUP2 EQ PUSH2 0x342 JUMPI PUSH0 PUSH0 REVERT JUMPDEST POP JUMP JUMPDEST PUSH0 DUP2 CALLDATALOAD SWAP1 POP PUSH2 0x353 DUP2 PUSH2 0x32F JUMP JUMPDEST SWAP3 SWAP2 POP POP JUMP JUMPDEST PUSH0 PUSH1 0x20 DUP3 DUP5 SUB SLT ISZERO PUSH2 0x36E JUMPI PUSH2 0x36D PUSH2 0x29D JUMP JUMPDEST JUMPDEST PUSH0 PUSH2 0x37B DUP5 DUP3 DUP6 ADD PUSH2 0x345 JUMP JUMPDEST SWAP2 POP POP SWAP3 SWAP2 POP POP JUMP JUMPDEST PUSH0 DUP2 ISZERO ISZERO SWAP1 POP SWAP2 SWAP1 POP JUMP JUMPDEST PUSH2 0x398 DUP2 PUSH2 0x384 JUMP JUMPDEST DUP3 MSTORE POP POP JUMP JUMPDEST PUSH2 0x3A7 DUP2 PUSH2 0x2A1 JUMP JUMPDEST DUP3 MSTORE POP POP JUMP JUMPDEST PUSH0 PUSH1 0x40 DUP3 ADD SWAP1 POP PUSH2 0x3C0 PUSH0 DUP4 ADD DUP6 PUSH2 0x38F JUMP JUMPDEST PUSH2 0x3CD PUSH1 0x20 DUP4 ADD DUP5 PUSH2 0x39E JUMP JUMPDEST SWAP4 SWAP3 POP POP POP JUMP JUMPDEST PUSH0 DUP3 DUP3 MSTORE PUSH1 0x20 DUP3 ADD SWAP1 POP SWAP3 SWAP2 POP POP JUMP JUMPDEST PUSH32 0x566F74657220616C7265616479206761766520766F7465000000000000000000 PUSH0 DUP3 ADD MSTORE POP JUMP JUMPDEST PUSH0 PUSH2 0x418 PUSH1 0x17 DUP4 PUSH2 0x3D4 JUMP JUMPDEST SWAP2 POP PUSH2 0x423 DUP3 PUSH2 0x3E4 JUMP JUMPDEST PUSH1 0x20 DUP3 ADD SWAP1 POP SWAP2 SWAP1 POP JUMP JUMPDEST PUSH0 PUSH1 0x20 DUP3 ADD SWAP1 POP DUP2 DUP2 SUB PUSH0 DUP4 ADD MSTORE PUSH2 0x445 DUP2 PUSH2 0x40C JUMP JUMPDEST SWAP1 POP SWAP2 SWAP1 POP JUMP INVALID LOG2 PUSH5 0x6970667358 0x22 SLT KECCAK256 0xD4 0xBD 0x4B 0xC3 0xBD ADDRESS 0xF8 DUP8 GASPRICE 0xC4 BLOCKHASH 0xE0 CALLCODE 0x2C PUSH31 0x1FFD60526AA0CCAA8C4A494191850F5D1F64736F6C634300081C0033000000 "
				},
				"gasEstimates": {
					"creation": {
						"codeDepositCost": "230800",
						"executionCost": "273",
						"totalCost": "231073"
					},
					"external": {
						"getVoterStatus()": "4890",
						"registerVote(uint256)": "49203",
						"voters(address)": "5066"
					}
				},
				"methodIdentifiers": {
					"getVoterStatus()": "ffe172c0",
					"registerVote(uint256)": "464d4a92",
					"voters(address)": "a3ec138d"
				}
			},
			"storageLayout": {
				"storage": [
					{
						"astId": 11,
						"contract": "Solidity Basics/Voting.sol:Voting",
						"label": "voters",
						"offset": 0,
						"slot": "0",
						"type": "t_mapping(t_address,t_struct(Voter)6_storage)"
					}
				],
				"types": {
					"t_address": {
						"encoding": "inplace",
						"label": "address",
						"numberOfBytes": "20"
					},
					"t_bool": {
						"encoding": "inplace",
						"label": "bool",
						"numberOfBytes": "1"
					},
					"t_mapping(t_address,t_struct(Voter)6_storage)": {
						"encoding": "mapping",
						"key": "t_address",
						"label": "mapping(address => struct Voter)",
						"numberOfBytes": "32",
						"value": "t_struct(Voter)6_storage"
					},
					"t_struct(Voter)6_storage": {
						"encoding": "inplace",
						"label": "struct Voter",
						"members": [
							{
								"astId": 3,
								"contract": "Solidity Basics/Voting.sol:Voting",
								"label": "hasVoted",
								"offset": 0,
								"slot": "0",
								"type": "t_bool"
							},
							{
								"astId": 5,
								"contract": "Solidity Basics/Voting.sol:Voting",
								"label": "choice",
								"offset": 0,
								"slot": "1",
								"type": "t_uint256"
							}
						],
						"numberOfBytes": "64"
					},
					"t_uint256": {
						"encoding": "inplace",
						"label": "uint256",
						"numberOfBytes": "32"
					}
				}
			},
			"userdoc": {
				"kind": "user",
				"methods": {},
				"version": 1
			}
		}
	}
}