{
	"Inheritance and Modularity/PaymentProcessor.sol": {
		"Merchant": {
			"abi": [
				{
					"inputs": [],
					"name": "checkBalance",
					"outputs": [
						{
							"internalType": "uint256",
							"name": "",
							"type": "uint256"
						}
					],
					"stateMutability": "view",
					"type": "function"
				},
				{
					"inputs": [],
					"name": "receivePayment",
					"outputs": [],
					"stateMutability": "payable",
					"type": "function"
				},
				{
					"inputs": [],
					"name": "refundPayment",
					"outputs": [],
					"stateMutability": "nonpayable",
					"type": "function"
				},
				{
					"inputs": [
						{
							"internalType": "address",
							"name": "user",
							"type": "address"
						},
						{
							"internalType": "bool",
							"name": "status",
							"type": "bool"
						}
					],
					"name": "setLoyalty",
					"outputs": [],
					"stateMutability": "nonpayable",
					"type": "function"
				}
			],
			"devdoc": {
				"kind": "dev",
				"methods": {},
				"version": 1
			},
			"evm": {
				"assembly": "    /* \"Inheritance and Modularity/PaymentProcessor.sol\":727:1218  contract Merchant is PaymentProcessor {... */\n  mstore(0x40, 0x80)\n  callvalue\n  dup1\n  iszero\n  tag_1\n  jumpi\n  revert(0x00, 0x00)\ntag_1:\n  pop\n  dataSize(sub_0)\n  dup1\n  dataOffset(sub_0)\n  0x00\n  codecopy\n  0x00\n  return\nstop\n\nsub_0: assembly {\n        /* \"Inheritance and Modularity/PaymentProcessor.sol\":727:1218  contract Merchant is PaymentProcessor {... */\n      mstore(0x40, 0x80)\n      jumpi(tag_1, lt(calldatasize, 0x04))\n      shr(0xe0, calldataload(0x00))\n      dup1\n      0x835c19f3\n      eq\n      tag_2\n      jumpi\n      dup1\n      0xb65412b5\n      eq\n      tag_3\n      jumpi\n      dup1\n      0xc71daccb\n      eq\n      tag_4\n      jumpi\n      dup1\n      0xfcc298f2\n      eq\n      tag_5\n      jumpi\n    tag_1:\n      revert(0x00, 0x00)\n        /* \"Inheritance and Modularity/PaymentProcessor.sol\":204:348  function receivePayment() external payable {... */\n    tag_2:\n      tag_6\n      tag_7\n      jump\t// in\n    tag_6:\n      stop\n        /* \"Inheritance and Modularity/PaymentProcessor.sol\":877:1215  function refundPayment() public override {... */\n    tag_3:\n      callvalue\n      dup1\n      iszero\n      tag_8\n      jumpi\n      revert(0x00, 0x00)\n    tag_8:\n      pop\n      tag_9\n      tag_10\n      jump\t// in\n    tag_9:\n      stop\n        /* \"Inheritance and Modularity/PaymentProcessor.sol\":356:456  function checkBalance() external view returns (uint256){... */\n    tag_4:\n      callvalue\n      dup1\n      iszero\n      tag_11\n      jumpi\n      revert(0x00, 0x00)\n    tag_11:\n      pop\n      tag_12\n      tag_13\n      jump\t// in\n    tag_12:\n      mload(0x40)\n      tag_14\n      swap2\n      swap1\n      tag_15\n      jump\t// in\n    tag_14:\n      mload(0x40)\n      dup1\n      swap2\n      sub\n      swap1\n      return\n        /* \"Inheritance and Modularity/PaymentProcessor.sol\":772:869  function setLoyalty(address user, bool status) external {... */\n    tag_5:\n      callvalue\n      dup1\n      iszero\n      tag_16\n      jumpi\n      revert(0x00, 0x00)\n    tag_16:\n      pop\n      tag_17\n      0x04\n      dup1\n      calldatasize\n      sub\n      dup2\n      add\n      swap1\n      tag_18\n      swap2\n      swap1\n      tag_19\n      jump\t// in\n    tag_18:\n      tag_20\n      jump\t// in\n    tag_17:\n      stop\n        /* \"Inheritance and Modularity/PaymentProcessor.sol\":204:348  function receivePayment() external payable {... */\n    tag_7:\n        /* \"Inheritance and Modularity/PaymentProcessor.sol\":278:279  0 */\n      0x00\n        /* \"Inheritance and Modularity/PaymentProcessor.sol\":266:275  msg.value */\n      callvalue\n        /* \"Inheritance and Modularity/PaymentProcessor.sol\":266:279  msg.value > 0 */\n      gt\n        /* \"Inheritance and Modularity/PaymentProcessor.sol\":258:297  require(msg.value > 0, \"No Ether sent\") */\n      tag_22\n      jumpi\n      mload(0x40)\n      0x08c379a000000000000000000000000000000000000000000000000000000000\n      dup2\n      mstore\n      0x04\n      add\n      tag_23\n      swap1\n      tag_24\n      jump\t// in\n    tag_23:\n      mload(0x40)\n      dup1\n      swap2\n      sub\n      swap1\n      revert\n    tag_22:\n        /* \"Inheritance and Modularity/PaymentProcessor.sol\":331:340  msg.value */\n      callvalue\n        /* \"Inheritance and Modularity/PaymentProcessor.sol\":308:315  balance */\n      0x00\n        /* \"Inheritance and Modularity/PaymentProcessor.sol\":308:327  balance[msg.sender] */\n      0x00\n        /* \"Inheritance and Modularity/PaymentProcessor.sol\":316:326  msg.sender */\n      caller\n        /* \"Inheritance and Modularity/PaymentProcessor.sol\":308:327  balance[msg.sender] */\n      0xffffffffffffffffffffffffffffffffffffffff\n      and\n      0xffffffffffffffffffffffffffffffffffffffff\n      and\n      dup2\n      mstore\n      0x20\n      add\n      swap1\n      dup2\n      mstore\n      0x20\n      add\n      0x00\n      keccak256\n      0x00\n        /* \"Inheritance and Modularity/PaymentProcessor.sol\":308:340  balance[msg.sender] += msg.value */\n      dup3\n      dup3\n      sload\n      tag_25\n      swap2\n      swap1\n      tag_26\n      jump\t// in\n    tag_25:\n      swap3\n      pop\n      pop\n      dup2\n      swap1\n      sstore\n      pop\n        /* \"Inheritance and Modularity/PaymentProcessor.sol\":204:348  function receivePayment() external payable {... */\n      jump\t// out\n        /* \"Inheritance and Modularity/PaymentProcessor.sol\":877:1215  function refundPayment() public override {... */\n    tag_10:\n        /* \"Inheritance and Modularity/PaymentProcessor.sol\":929:942  uint256 funds */\n      0x00\n        /* \"Inheritance and Modularity/PaymentProcessor.sol\":945:952  balance */\n      0x00\n        /* \"Inheritance and Modularity/PaymentProcessor.sol\":945:964  balance[msg.sender] */\n      0x00\n        /* \"Inheritance and Modularity/PaymentProcessor.sol\":953:963  msg.sender */\n      caller\n        /* \"Inheritance and Modularity/PaymentProcessor.sol\":945:964  balance[msg.sender] */\n      0xffffffffffffffffffffffffffffffffffffffff\n      and\n      0xffffffffffffffffffffffffffffffffffffffff\n      and\n      dup2\n      mstore\n      0x20\n      add\n      swap1\n      dup2\n      mstore\n      0x20\n      add\n      0x00\n      keccak256\n      sload\n        /* \"Inheritance and Modularity/PaymentProcessor.sol\":929:964  uint256 funds = balance[msg.sender] */\n      swap1\n      pop\n        /* \"Inheritance and Modularity/PaymentProcessor.sol\":997:998  0 */\n      0x00\n        /* \"Inheritance and Modularity/PaymentProcessor.sol\":975:982  balance */\n      0x00\n        /* \"Inheritance and Modularity/PaymentProcessor.sol\":975:994  balance[msg.sender] */\n      0x00\n        /* \"Inheritance and Modularity/PaymentProcessor.sol\":983:993  msg.sender */\n      caller\n        /* \"Inheritance and Modularity/PaymentProcessor.sol\":975:994  balance[msg.sender] */\n      0xffffffffffffffffffffffffffffffffffffffff\n      and\n      0xffffffffffffffffffffffffffffffffffffffff\n      and\n      dup2\n      mstore\n      0x20\n      add\n      swap1\n      dup2\n      mstore\n      0x20\n      add\n      0x00\n      keccak256\n        /* \"Inheritance and Modularity/PaymentProcessor.sol\":975:998  balance[msg.sender] = 0 */\n      dup2\n      swap1\n      sstore\n      pop\n        /* \"Inheritance and Modularity/PaymentProcessor.sol\":1014:1021  isLoyal */\n      0x01\n        /* \"Inheritance and Modularity/PaymentProcessor.sol\":1014:1033  isLoyal[msg.sender] */\n      0x00\n        /* \"Inheritance and Modularity/PaymentProcessor.sol\":1022:1032  msg.sender */\n      caller\n        /* \"Inheritance and Modularity/PaymentProcessor.sol\":1014:1033  isLoyal[msg.sender] */\n      0xffffffffffffffffffffffffffffffffffffffff\n      and\n      0xffffffffffffffffffffffffffffffffffffffff\n      and\n      dup2\n      mstore\n      0x20\n      add\n      swap1\n      dup2\n      mstore\n      0x20\n      add\n      0x00\n      keccak256\n      0x00\n      swap1\n      sload\n      swap1\n      0x0100\n      exp\n      swap1\n      div\n      0xff\n      and\n        /* \"Inheritance and Modularity/PaymentProcessor.sol\":1011:1078  if(isLoyal[msg.sender]) {... */\n      iszero\n      tag_28\n      jumpi\n        /* \"Inheritance and Modularity/PaymentProcessor.sol\":1063:1066  100 */\n      0x64\n        /* \"Inheritance and Modularity/PaymentProcessor.sol\":1057:1062  funds */\n      dup2\n        /* \"Inheritance and Modularity/PaymentProcessor.sol\":1057:1066  funds/100 */\n      tag_29\n      swap2\n      swap1\n      tag_30\n      jump\t// in\n    tag_29:\n        /* \"Inheritance and Modularity/PaymentProcessor.sol\":1050:1066  funds+=funds/100 */\n      dup2\n      tag_31\n      swap2\n      swap1\n      tag_26\n      jump\t// in\n    tag_31:\n      swap1\n      pop\n        /* \"Inheritance and Modularity/PaymentProcessor.sol\":1011:1078  if(isLoyal[msg.sender]) {... */\n    tag_28:\n        /* \"Inheritance and Modularity/PaymentProcessor.sol\":1091:1103  bool success */\n      0x00\n        /* \"Inheritance and Modularity/PaymentProcessor.sol\":1115:1125  msg.sender */\n      caller\n        /* \"Inheritance and Modularity/PaymentProcessor.sol\":1107:1131  payable(msg.sender).call */\n      0xffffffffffffffffffffffffffffffffffffffff\n      and\n        /* \"Inheritance and Modularity/PaymentProcessor.sol\":1138:1143  funds */\n      dup3\n        /* \"Inheritance and Modularity/PaymentProcessor.sol\":1107:1148  payable(msg.sender).call{value:funds}(\"\") */\n      mload(0x40)\n      tag_32\n      swap1\n      tag_33\n      jump\t// in\n    tag_32:\n      0x00\n      mload(0x40)\n      dup1\n      dup4\n      sub\n      dup2\n      dup6\n      dup8\n      gas\n      call\n      swap3\n      pop\n      pop\n      pop\n      returndatasize\n      dup1\n      0x00\n      dup2\n      eq\n      tag_36\n      jumpi\n      mload(0x40)\n      swap2\n      pop\n      and(add(returndatasize, 0x3f), not(0x1f))\n      dup3\n      add\n      0x40\n      mstore\n      returndatasize\n      dup3\n      mstore\n      returndatasize\n      0x00\n      0x20\n      dup5\n      add\n      returndatacopy\n      jump(tag_35)\n    tag_36:\n      0x60\n      swap2\n      pop\n    tag_35:\n      pop\n        /* \"Inheritance and Modularity/PaymentProcessor.sol\":1090:1148  (bool success, )=payable(msg.sender).call{value:funds}(\"\") */\n      pop\n      swap1\n      pop\n        /* \"Inheritance and Modularity/PaymentProcessor.sol\":1171:1178  success */\n      dup1\n        /* \"Inheritance and Modularity/PaymentProcessor.sol\":1163:1207  require(success, \"Unable to perform refund\") */\n      tag_37\n      jumpi\n      mload(0x40)\n      0x08c379a000000000000000000000000000000000000000000000000000000000\n      dup2\n      mstore\n      0x04\n      add\n      tag_38\n      swap1\n      tag_39\n      jump\t// in\n    tag_38:\n      mload(0x40)\n      dup1\n      swap2\n      sub\n      swap1\n      revert\n    tag_37:\n        /* \"Inheritance and Modularity/PaymentProcessor.sol\":918:1215  {... */\n      pop\n      pop\n        /* \"Inheritance and Modularity/PaymentProcessor.sol\":877:1215  function refundPayment() public override {... */\n      jump\t// out\n        /* \"Inheritance and Modularity/PaymentProcessor.sol\":356:456  function checkBalance() external view returns (uint256){... */\n    tag_13:\n        /* \"Inheritance and Modularity/PaymentProcessor.sol\":403:410  uint256 */\n      0x00\n        /* \"Inheritance and Modularity/PaymentProcessor.sol\":429:436  balance */\n      0x00\n        /* \"Inheritance and Modularity/PaymentProcessor.sol\":429:448  balance[msg.sender] */\n      0x00\n        /* \"Inheritance and Modularity/PaymentProcessor.sol\":437:447  msg.sender */\n      caller\n        /* \"Inheritance and Modularity/PaymentProcessor.sol\":429:448  balance[msg.sender] */\n      0xffffffffffffffffffffffffffffffffffffffff\n      and\n      0xffffffffffffffffffffffffffffffffffffffff\n      and\n      dup2\n      mstore\n      0x20\n      add\n      swap1\n      dup2\n      mstore\n      0x20\n      add\n      0x00\n      keccak256\n      sload\n        /* \"Inheritance and Modularity/PaymentProcessor.sol\":422:448  return balance[msg.sender] */\n      swap1\n      pop\n        /* \"Inheritance and Modularity/PaymentProcessor.sol\":356:456  function checkBalance() external view returns (uint256){... */\n      swap1\n      jump\t// out\n        /* \"Inheritance and Modularity/PaymentProcessor.sol\":772:869  function setLoyalty(address user, bool status) external {... */\n    tag_20:\n        /* \"Inheritance and Modularity/PaymentProcessor.sol\":855:861  status */\n      dup1\n        /* \"Inheritance and Modularity/PaymentProcessor.sol\":839:846  isLoyal */\n      0x01\n        /* \"Inheritance and Modularity/PaymentProcessor.sol\":839:852  isLoyal[user] */\n      0x00\n        /* \"Inheritance and Modularity/PaymentProcessor.sol\":847:851  user */\n      dup5\n        /* \"Inheritance and Modularity/PaymentProcessor.sol\":839:852  isLoyal[user] */\n      0xffffffffffffffffffffffffffffffffffffffff\n      and\n      0xffffffffffffffffffffffffffffffffffffffff\n      and\n      dup2\n      mstore\n      0x20\n      add\n      swap1\n      dup2\n      mstore\n      0x20\n      add\n      0x00\n      keccak256\n      0x00\n        /* \"Inheritance and Modularity/PaymentProcessor.sol\":839:861  isLoyal[user] = status */\n      0x0100\n      exp\n      dup2\n      sload\n      dup2\n      0xff\n      mul\n      not\n      and\n      swap1\n      dup4\n      iszero\n      iszero\n      mul\n      or\n      swap1\n      sstore\n      pop\n        /* \"Inheritance and Modularity/PaymentProcessor.sol\":772:869  function setLoyalty(address user, bool status) external {... */\n      pop\n      pop\n      jump\t// out\n        /* \"#utility.yul\":7:84   */\n    tag_42:\n        /* \"#utility.yul\":44:51   */\n      0x00\n        /* \"#utility.yul\":73:78   */\n      dup2\n        /* \"#utility.yul\":62:78   */\n      swap1\n      pop\n        /* \"#utility.yul\":7:84   */\n      swap2\n      swap1\n      pop\n      jump\t// out\n        /* \"#utility.yul\":90:208   */\n    tag_43:\n        /* \"#utility.yul\":177:201   */\n      tag_67\n        /* \"#utility.yul\":195:200   */\n      dup2\n        /* \"#utility.yul\":177:201   */\n      tag_42\n      jump\t// in\n    tag_67:\n        /* \"#utility.yul\":172:175   */\n      dup3\n        /* \"#utility.yul\":165:202   */\n      mstore\n        /* \"#utility.yul\":90:208   */\n      pop\n      pop\n      jump\t// out\n        /* \"#utility.yul\":214:436   */\n    tag_15:\n        /* \"#utility.yul\":307:311   */\n      0x00\n        /* \"#utility.yul\":345:347   */\n      0x20\n        /* \"#utility.yul\":334:343   */\n      dup3\n        /* \"#utility.yul\":330:348   */\n      add\n        /* \"#utility.yul\":322:348   */\n      swap1\n      pop\n        /* \"#utility.yul\":358:429   */\n      tag_69\n        /* \"#utility.yul\":426:427   */\n      0x00\n        /* \"#utility.yul\":415:424   */\n      dup4\n        /* \"#utility.yul\":411:428   */\n      add\n        /* \"#utility.yul\":402:408   */\n      dup5\n        /* \"#utility.yul\":358:429   */\n      tag_43\n      jump\t// in\n    tag_69:\n        /* \"#utility.yul\":214:436   */\n      swap3\n      swap2\n      pop\n      pop\n      jump\t// out\n        /* \"#utility.yul\":523:640   */\n    tag_45:\n        /* \"#utility.yul\":632:633   */\n      0x00\n        /* \"#utility.yul\":629:630   */\n      0x00\n        /* \"#utility.yul\":622:634   */\n      revert\n        /* \"#utility.yul\":769:895   */\n    tag_47:\n        /* \"#utility.yul\":806:813   */\n      0x00\n        /* \"#utility.yul\":846:888   */\n      0xffffffffffffffffffffffffffffffffffffffff\n        /* \"#utility.yul\":839:844   */\n      dup3\n        /* \"#utility.yul\":835:889   */\n      and\n        /* \"#utility.yul\":824:889   */\n      swap1\n      pop\n        /* \"#utility.yul\":769:895   */\n      swap2\n      swap1\n      pop\n      jump\t// out\n        /* \"#utility.yul\":901:997   */\n    tag_48:\n        /* \"#utility.yul\":938:945   */\n      0x00\n        /* \"#utility.yul\":967:991   */\n      tag_75\n        /* \"#utility.yul\":985:990   */\n      dup3\n        /* \"#utility.yul\":967:991   */\n      tag_47\n      jump\t// in\n    tag_75:\n        /* \"#utility.yul\":956:991   */\n      swap1\n      pop\n        /* \"#utility.yul\":901:997   */\n      swap2\n      swap1\n      pop\n      jump\t// out\n        /* \"#utility.yul\":1003:1125   */\n    tag_49:\n        /* \"#utility.yul\":1076:1100   */\n      tag_77\n        /* \"#utility.yul\":1094:1099   */\n      dup2\n        /* \"#utility.yul\":1076:1100   */\n      tag_48\n      jump\t// in\n    tag_77:\n        /* \"#utility.yul\":1069:1074   */\n      dup2\n        /* \"#utility.yul\":1066:1101   */\n      eq\n        /* \"#utility.yul\":1056:1119   */\n      tag_78\n      jumpi\n        /* \"#utility.yul\":1115:1116   */\n      0x00\n        /* \"#utility.yul\":1112:1113   */\n      0x00\n        /* \"#utility.yul\":1105:1117   */\n      revert\n        /* \"#utility.yul\":1056:1119   */\n    tag_78:\n        /* \"#utility.yul\":1003:1125   */\n      pop\n      jump\t// out\n        /* \"#utility.yul\":1131:1270   */\n    tag_50:\n        /* \"#utility.yul\":1177:1182   */\n      0x00\n        /* \"#utility.yul\":1215:1221   */\n      dup2\n        /* \"#utility.yul\":1202:1222   */\n      calldataload\n        /* \"#utility.yul\":1193:1222   */\n      swap1\n      pop\n        /* \"#utility.yul\":1231:1264   */\n      tag_80\n        /* \"#utility.yul\":1258:1263   */\n      dup2\n        /* \"#utility.yul\":1231:1264   */\n      tag_49\n      jump\t// in\n    tag_80:\n        /* \"#utility.yul\":1131:1270   */\n      swap3\n      swap2\n      pop\n      pop\n      jump\t// out\n        /* \"#utility.yul\":1276:1366   */\n    tag_51:\n        /* \"#utility.yul\":1310:1317   */\n      0x00\n        /* \"#utility.yul\":1353:1358   */\n      dup2\n        /* \"#utility.yul\":1346:1359   */\n      iszero\n        /* \"#utility.yul\":1339:1360   */\n      iszero\n        /* \"#utility.yul\":1328:1360   */\n      swap1\n      pop\n        /* \"#utility.yul\":1276:1366   */\n      swap2\n      swap1\n      pop\n      jump\t// out\n        /* \"#utility.yul\":1372:1488   */\n    tag_52:\n        /* \"#utility.yul\":1442:1463   */\n      tag_83\n        /* \"#utility.yul\":1457:1462   */\n      dup2\n        /* \"#utility.yul\":1442:1463   */\n      tag_51\n      jump\t// in\n    tag_83:\n        /* \"#utility.yul\":1435:1440   */\n      dup2\n        /* \"#utility.yul\":1432:1464   */\n      eq\n        /* \"#utility.yul\":1422:1482   */\n      tag_84\n      jumpi\n        /* \"#utility.yul\":1478:1479   */\n      0x00\n        /* \"#utility.yul\":1475:1476   */\n      0x00\n        /* \"#utility.yul\":1468:1480   */\n      revert\n        /* \"#utility.yul\":1422:1482   */\n    tag_84:\n        /* \"#utility.yul\":1372:1488   */\n      pop\n      jump\t// out\n        /* \"#utility.yul\":1494:1627   */\n    tag_53:\n        /* \"#utility.yul\":1537:1542   */\n      0x00\n        /* \"#utility.yul\":1575:1581   */\n      dup2\n        /* \"#utility.yul\":1562:1582   */\n      calldataload\n        /* \"#utility.yul\":1553:1582   */\n      swap1\n      pop\n        /* \"#utility.yul\":1591:1621   */\n      tag_86\n        /* \"#utility.yul\":1615:1620   */\n      dup2\n        /* \"#utility.yul\":1591:1621   */\n      tag_52\n      jump\t// in\n    tag_86:\n        /* \"#utility.yul\":1494:1627   */\n      swap3\n      swap2\n      pop\n      pop\n      jump\t// out\n        /* \"#utility.yul\":1633:2101   */\n    tag_19:\n        /* \"#utility.yul\":1698:1704   */\n      0x00\n        /* \"#utility.yul\":1706:1712   */\n      0x00\n        /* \"#utility.yul\":1755:1757   */\n      0x40\n        /* \"#utility.yul\":1743:1752   */\n      dup4\n        /* \"#utility.yul\":1734:1741   */\n      dup6\n        /* \"#utility.yul\":1730:1753   */\n      sub\n        /* \"#utility.yul\":1726:1758   */\n      slt\n        /* \"#utility.yul\":1723:1842   */\n      iszero\n      tag_88\n      jumpi\n        /* \"#utility.yul\":1761:1840   */\n      tag_89\n      tag_45\n      jump\t// in\n    tag_89:\n        /* \"#utility.yul\":1723:1842   */\n    tag_88:\n        /* \"#utility.yul\":1881:1882   */\n      0x00\n        /* \"#utility.yul\":1906:1959   */\n      tag_90\n        /* \"#utility.yul\":1951:1958   */\n      dup6\n        /* \"#utility.yul\":1942:1948   */\n      dup3\n        /* \"#utility.yul\":1931:1940   */\n      dup7\n        /* \"#utility.yul\":1927:1949   */\n      add\n        /* \"#utility.yul\":1906:1959   */\n      tag_50\n      jump\t// in\n    tag_90:\n        /* \"#utility.yul\":1896:1959   */\n      swap3\n      pop\n        /* \"#utility.yul\":1852:1969   */\n      pop\n        /* \"#utility.yul\":2008:2010   */\n      0x20\n        /* \"#utility.yul\":2034:2084   */\n      tag_91\n        /* \"#utility.yul\":2076:2083   */\n      dup6\n        /* \"#utility.yul\":2067:2073   */\n      dup3\n        /* \"#utility.yul\":2056:2065   */\n      dup7\n        /* \"#utility.yul\":2052:2074   */\n      add\n        /* \"#utility.yul\":2034:2084   */\n      tag_53\n      jump\t// in\n    tag_91:\n        /* \"#utility.yul\":2024:2084   */\n      swap2\n      pop\n        /* \"#utility.yul\":1979:2094   */\n      pop\n        /* \"#utility.yul\":1633:2101   */\n      swap3\n      pop\n      swap3\n      swap1\n      pop\n      jump\t// out\n        /* \"#utility.yul\":2107:2276   */\n    tag_54:\n        /* \"#utility.yul\":2191:2202   */\n      0x00\n        /* \"#utility.yul\":2225:2231   */\n      dup3\n        /* \"#utility.yul\":2220:2223   */\n      dup3\n        /* \"#utility.yul\":2213:2232   */\n      mstore\n        /* \"#utility.yul\":2265:2269   */\n      0x20\n        /* \"#utility.yul\":2260:2263   */\n      dup3\n        /* \"#utility.yul\":2256:2270   */\n      add\n        /* \"#utility.yul\":2241:2270   */\n      swap1\n      pop\n        /* \"#utility.yul\":2107:2276   */\n      swap3\n      swap2\n      pop\n      pop\n      jump\t// out\n        /* \"#utility.yul\":2282:2445   */\n    tag_55:\n        /* \"#utility.yul\":2422:2437   */\n      0x4e6f2045746865722073656e7400000000000000000000000000000000000000\n        /* \"#utility.yul\":2418:2419   */\n      0x00\n        /* \"#utility.yul\":2410:2416   */\n      dup3\n        /* \"#utility.yul\":2406:2420   */\n      add\n        /* \"#utility.yul\":2399:2438   */\n      mstore\n        /* \"#utility.yul\":2282:2445   */\n      pop\n      jump\t// out\n        /* \"#utility.yul\":2451:2817   */\n    tag_56:\n        /* \"#utility.yul\":2593:2596   */\n      0x00\n        /* \"#utility.yul\":2614:2681   */\n      tag_95\n        /* \"#utility.yul\":2678:2680   */\n      0x0d\n        /* \"#utility.yul\":2673:2676   */\n      dup4\n        /* \"#utility.yul\":2614:2681   */\n      tag_54\n      jump\t// in\n    tag_95:\n        /* \"#utility.yul\":2607:2681   */\n      swap2\n      pop\n        /* \"#utility.yul\":2690:2783   */\n      tag_96\n        /* \"#utility.yul\":2779:2782   */\n      dup3\n        /* \"#utility.yul\":2690:2783   */\n      tag_55\n      jump\t// in\n    tag_96:\n        /* \"#utility.yul\":2808:2810   */\n      0x20\n        /* \"#utility.yul\":2803:2806   */\n      dup3\n        /* \"#utility.yul\":2799:2811   */\n      add\n        /* \"#utility.yul\":2792:2811   */\n      swap1\n      pop\n        /* \"#utility.yul\":2451:2817   */\n      swap2\n      swap1\n      pop\n      jump\t// out\n        /* \"#utility.yul\":2823:3242   */\n    tag_24:\n        /* \"#utility.yul\":2989:2993   */\n      0x00\n        /* \"#utility.yul\":3027:3029   */\n      0x20\n        /* \"#utility.yul\":3016:3025   */\n      dup3\n        /* \"#utility.yul\":3012:3030   */\n      add\n        /* \"#utility.yul\":3004:3030   */\n      swap1\n      pop\n        /* \"#utility.yul\":3076:3085   */\n      dup2\n        /* \"#utility.yul\":3070:3074   */\n      dup2\n        /* \"#utility.yul\":3066:3086   */\n      sub\n        /* \"#utility.yul\":3062:3063   */\n      0x00\n        /* \"#utility.yul\":3051:3060   */\n      dup4\n        /* \"#utility.yul\":3047:3064   */\n      add\n        /* \"#utility.yul\":3040:3087   */\n      mstore\n        /* \"#utility.yul\":3104:3235   */\n      tag_98\n        /* \"#utility.yul\":3230:3234   */\n      dup2\n        /* \"#utility.yul\":3104:3235   */\n      tag_56\n      jump\t// in\n    tag_98:\n        /* \"#utility.yul\":3096:3235   */\n      swap1\n      pop\n        /* \"#utility.yul\":2823:3242   */\n      swap2\n      swap1\n      pop\n      jump\t// out\n        /* \"#utility.yul\":3248:3428   */\n    tag_57:\n        /* \"#utility.yul\":3296:3373   */\n      0x4e487b7100000000000000000000000000000000000000000000000000000000\n        /* \"#utility.yul\":3293:3294   */\n      0x00\n        /* \"#utility.yul\":3286:3374   */\n      mstore\n        /* \"#utility.yul\":3393:3397   */\n      0x11\n        /* \"#utility.yul\":3390:3391   */\n      0x04\n        /* \"#utility.yul\":3383:3398   */\n      mstore\n        /* \"#utility.yul\":3417:3421   */\n      0x24\n        /* \"#utility.yul\":3414:3415   */\n      0x00\n        /* \"#utility.yul\":3407:3422   */\n      revert\n        /* \"#utility.yul\":3434:3625   */\n    tag_26:\n        /* \"#utility.yul\":3474:3477   */\n      0x00\n        /* \"#utility.yul\":3493:3513   */\n      tag_101\n        /* \"#utility.yul\":3511:3512   */\n      dup3\n        /* \"#utility.yul\":3493:3513   */\n      tag_42\n      jump\t// in\n    tag_101:\n        /* \"#utility.yul\":3488:3513   */\n      swap2\n      pop\n        /* \"#utility.yul\":3527:3547   */\n      tag_102\n        /* \"#utility.yul\":3545:3546   */\n      dup4\n        /* \"#utility.yul\":3527:3547   */\n      tag_42\n      jump\t// in\n    tag_102:\n        /* \"#utility.yul\":3522:3547   */\n      swap3\n      pop\n        /* \"#utility.yul\":3570:3571   */\n      dup3\n        /* \"#utility.yul\":3567:3568   */\n      dup3\n        /* \"#utility.yul\":3563:3572   */\n      add\n        /* \"#utility.yul\":3556:3572   */\n      swap1\n      pop\n        /* \"#utility.yul\":3591:3594   */\n      dup1\n        /* \"#utility.yul\":3588:3589   */\n      dup3\n        /* \"#utility.yul\":3585:3595   */\n      gt\n        /* \"#utility.yul\":3582:3618   */\n      iszero\n      tag_103\n      jumpi\n        /* \"#utility.yul\":3598:3616   */\n      tag_104\n      tag_57\n      jump\t// in\n    tag_104:\n        /* \"#utility.yul\":3582:3618   */\n    tag_103:\n        /* \"#utility.yul\":3434:3625   */\n      swap3\n      swap2\n      pop\n      pop\n      jump\t// out\n        /* \"#utility.yul\":3631:3811   */\n    tag_58:\n        /* \"#utility.yul\":3679:3756   */\n      0x4e487b7100000000000000000000000000000000000000000000000000000000\n        /* \"#utility.yul\":3676:3677   */\n      0x00\n        /* \"#utility.yul\":3669:3757   */\n      mstore\n        /* \"#utility.yul\":3776:3780   */\n      0x12\n        /* \"#utility.yul\":3773:3774   */\n      0x04\n        /* \"#utility.yul\":3766:3781   */\n      mstore\n        /* \"#utility.yul\":3800:3804   */\n      0x24\n        /* \"#utility.yul\":3797:3798   */\n      0x00\n        /* \"#utility.yul\":3790:3805   */\n      revert\n        /* \"#utility.yul\":3817:4002   */\n    tag_30:\n        /* \"#utility.yul\":3857:3858   */\n      0x00\n        /* \"#utility.yul\":3874:3894   */\n      tag_107\n        /* \"#utility.yul\":3892:3893   */\n      dup3\n        /* \"#utility.yul\":3874:3894   */\n      tag_42\n      jump\t// in\n    tag_107:\n        /* \"#utility.yul\":3869:3894   */\n      swap2\n      pop\n        /* \"#utility.yul\":3908:3928   */\n      tag_108\n        /* \"#utility.yul\":3926:3927   */\n      dup4\n        /* \"#utility.yul\":3908:3928   */\n      tag_42\n      jump\t// in\n    tag_108:\n        /* \"#utility.yul\":3903:3928   */\n      swap3\n      pop\n        /* \"#utility.yul\":3947:3948   */\n      dup3\n        /* \"#utility.yul\":3937:3972   */\n      tag_109\n      jumpi\n        /* \"#utility.yul\":3952:3970   */\n      tag_110\n      tag_58\n      jump\t// in\n    tag_110:\n        /* \"#utility.yul\":3937:3972   */\n    tag_109:\n        /* \"#utility.yul\":3994:3995   */\n      dup3\n        /* \"#utility.yul\":3991:3992   */\n      dup3\n        /* \"#utility.yul\":3987:3996   */\n      div\n        /* \"#utility.yul\":3982:3996   */\n      swap1\n      pop\n        /* \"#utility.yul\":3817:4002   */\n      swap3\n      swap2\n      pop\n      pop\n      jump\t// out\n        /* \"#utility.yul\":4008:4155   */\n    tag_59:\n        /* \"#utility.yul\":4109:4120   */\n      0x00\n        /* \"#utility.yul\":4146:4149   */\n      dup2\n        /* \"#utility.yul\":4131:4149   */\n      swap1\n      pop\n        /* \"#utility.yul\":4008:4155   */\n      swap3\n      swap2\n      pop\n      pop\n      jump\t// out\n        /* \"#utility.yul\":4161:4275   */\n    tag_60:\n      pop\n      jump\t// out\n        /* \"#utility.yul\":4281:4679   */\n    tag_61:\n        /* \"#utility.yul\":4440:4443   */\n      0x00\n        /* \"#utility.yul\":4461:4544   */\n      tag_114\n        /* \"#utility.yul\":4542:4543   */\n      0x00\n        /* \"#utility.yul\":4537:4540   */\n      dup4\n        /* \"#utility.yul\":4461:4544   */\n      tag_59\n      jump\t// in\n    tag_114:\n        /* \"#utility.yul\":4454:4544   */\n      swap2\n      pop\n        /* \"#utility.yul\":4553:4646   */\n      tag_115\n        /* \"#utility.yul\":4642:4645   */\n      dup3\n        /* \"#utility.yul\":4553:4646   */\n      tag_60\n      jump\t// in\n    tag_115:\n        /* \"#utility.yul\":4671:4672   */\n      0x00\n        /* \"#utility.yul\":4666:4669   */\n      dup3\n        /* \"#utility.yul\":4662:4673   */\n      add\n        /* \"#utility.yul\":4655:4673   */\n      swap1\n      pop\n        /* \"#utility.yul\":4281:4679   */\n      swap2\n      swap1\n      pop\n      jump\t// out\n        /* \"#utility.yul\":4685:5064   */\n    tag_33:\n        /* \"#utility.yul\":4869:4872   */\n      0x00\n        /* \"#utility.yul\":4891:5038   */\n      tag_117\n        /* \"#utility.yul\":5034:5037   */\n      dup3\n        /* \"#utility.yul\":4891:5038   */\n      tag_61\n      jump\t// in\n    tag_117:\n        /* \"#utility.yul\":4884:5038   */\n      swap2\n      pop\n        /* \"#utility.yul\":5055:5058   */\n      dup2\n        /* \"#utility.yul\":5048:5058   */\n      swap1\n      pop\n        /* \"#utility.yul\":4685:5064   */\n      swap2\n      swap1\n      pop\n      jump\t// out\n        /* \"#utility.yul\":5070:5244   */\n    tag_62:\n        /* \"#utility.yul\":5210:5236   */\n      0x556e61626c6520746f20706572666f726d20726566756e640000000000000000\n        /* \"#utility.yul\":5206:5207   */\n      0x00\n        /* \"#utility.yul\":5198:5204   */\n      dup3\n        /* \"#utility.yul\":5194:5208   */\n      add\n        /* \"#utility.yul\":5187:5237   */\n      mstore\n        /* \"#utility.yul\":5070:5244   */\n      pop\n      jump\t// out\n        /* \"#utility.yul\":5250:5616   */\n    tag_63:\n        /* \"#utility.yul\":5392:5395   */\n      0x00\n        /* \"#utility.yul\":5413:5480   */\n      tag_120\n        /* \"#utility.yul\":5477:5479   */\n      0x18\n        /* \"#utility.yul\":5472:5475   */\n      dup4\n        /* \"#utility.yul\":5413:5480   */\n      tag_54\n      jump\t// in\n    tag_120:\n        /* \"#utility.yul\":5406:5480   */\n      swap2\n      pop\n        /* \"#utility.yul\":5489:5582   */\n      tag_121\n        /* \"#utility.yul\":5578:5581   */\n      dup3\n        /* \"#utility.yul\":5489:5582   */\n      tag_62\n      jump\t// in\n    tag_121:\n        /* \"#utility.yul\":5607:5609   */\n      0x20\n        /* \"#utility.yul\":5602:5605   */\n      dup3\n        /* \"#utility.yul\":5598:5610   */\n      add\n        /* \"#utility.yul\":5591:5610   */\n      swap1\n      pop\n        /* \"#utility.yul\":5250:5616   */\n      swap2\n      swap1\n      pop\n      jump\t// out\n        /* \"#utility.yul\":5622:6041   */\n    tag_39:\n        /* \"#utility.yul\":5788:5792   */\n      0x00\n        /* \"#utility.yul\":5826:5828   */\n      0x20\n        /* \"#utility.yul\":5815:5824   */\n      dup3\n        /* \"#utility.yul\":5811:5829   */\n      add\n        /* \"#utility.yul\":5803:5829   */\n      swap1\n      pop\n        /* \"#utility.yul\":5875:5884   */\n      dup2\n        /* \"#utility.yul\":5869:5873   */\n      dup2\n        /* \"#utility.yul\":5865:5885   */\n      sub\n        /* \"#utility.yul\":5861:5862   */\n      0x00\n        /* \"#utility.yul\":5850:5859   */\n      dup4\n        /* \"#utility.yul\":5846:5863   */\n      add\n        /* \"#utility.yul\":5839:5886   */\n      mstore\n        /* \"#utility.yul\":5903:6034   */\n      tag_123\n        /* \"#utility.yul\":6029:6033   */\n      dup2\n        /* \"#utility.yul\":5903:6034   */\n      tag_63\n      jump\t// in\n    tag_123:\n        /* \"#utility.yul\":5895:6034   */\n      swap1\n      pop\n        /* \"#utility.yul\":5622:6041   */\n      swap2\n      swap1\n      pop\n      jump\t// out\n\n    auxdata: 0xa2646970667358221220ab07462d82219c4f97ba6f3a1dccb2f5d1848361f5098d5c1bca0b28dbaa096d64736f6c634300081c0033\n}\n",
				"bytecode": {
					"linkReferences": {},
					"object": "6080604052348015600e575f5ffd5b506106928061001c5f395ff3fe60806040526004361061003e575f3560e01c8063835c19f314610042578063b65412b51461004c578063c71daccb14610062578063fcc298f21461008c575b5f5ffd5b61004a6100b4565b005b348015610057575f5ffd5b5061006061014a565b005b34801561006d575f5ffd5b506100766102e1565b6040516100839190610394565b60405180910390f35b348015610097575f5ffd5b506100b260048036038101906100ad9190610440565b610324565b005b5f34116100f6576040517f08c379a00000000000000000000000000000000000000000000000000000000081526004016100ed906104d8565b60405180910390fd5b345f5f3373ffffffffffffffffffffffffffffffffffffffff1673ffffffffffffffffffffffffffffffffffffffff1681526020019081526020015f205f8282546101419190610523565b92505081905550565b5f5f5f3373ffffffffffffffffffffffffffffffffffffffff1673ffffffffffffffffffffffffffffffffffffffff1681526020019081526020015f205490505f5f5f3373ffffffffffffffffffffffffffffffffffffffff1673ffffffffffffffffffffffffffffffffffffffff1681526020019081526020015f208190555060015f3373ffffffffffffffffffffffffffffffffffffffff1673ffffffffffffffffffffffffffffffffffffffff1681526020019081526020015f205f9054906101000a900460ff1615610235576064816102279190610583565b816102329190610523565b90505b5f3373ffffffffffffffffffffffffffffffffffffffff168260405161025a906105e0565b5f6040518083038185875af1925050503d805f8114610294576040519150601f19603f3d011682016040523d82523d5f602084013e610299565b606091505b50509050806102dd576040517f08c379a00000000000000000000000000000000000000000000000000000000081526004016102d49061063e565b60405180910390fd5b5050565b5f5f5f3373ffffffffffffffffffffffffffffffffffffffff1673ffffffffffffffffffffffffffffffffffffffff1681526020019081526020015f2054905090565b8060015f8473ffffffffffffffffffffffffffffffffffffffff1673ffffffffffffffffffffffffffffffffffffffff1681526020019081526020015f205f6101000a81548160ff0219169083151502179055505050565b5f819050919050565b61038e8161037c565b82525050565b5f6020820190506103a75f830184610385565b92915050565b5f5ffd5b5f73ffffffffffffffffffffffffffffffffffffffff82169050919050565b5f6103da826103b1565b9050919050565b6103ea816103d0565b81146103f4575f5ffd5b50565b5f81359050610405816103e1565b92915050565b5f8115159050919050565b61041f8161040b565b8114610429575f5ffd5b50565b5f8135905061043a81610416565b92915050565b5f5f60408385031215610456576104556103ad565b5b5f610463858286016103f7565b92505060206104748582860161042c565b9150509250929050565b5f82825260208201905092915050565b7f4e6f2045746865722073656e74000000000000000000000000000000000000005f82015250565b5f6104c2600d8361047e565b91506104cd8261048e565b602082019050919050565b5f6020820190508181035f8301526104ef816104b6565b9050919050565b7f4e487b71000000000000000000000000000000000000000000000000000000005f52601160045260245ffd5b5f61052d8261037c565b91506105388361037c565b92508282019050808211156105505761054f6104f6565b5b92915050565b7f4e487b71000000000000000000000000000000000000000000000000000000005f52601260045260245ffd5b5f61058d8261037c565b91506105988361037c565b9250826105a8576105a7610556565b5b828204905092915050565b5f81905092915050565b50565b5f6105cb5f836105b3565b91506105d6826105bd565b5f82019050919050565b5f6105ea826105c0565b9150819050919050565b7f556e61626c6520746f20706572666f726d20726566756e6400000000000000005f82015250565b5f61062860188361047e565b9150610633826105f4565b602082019050919050565b5f6020820190508181035f8301526106558161061c565b905091905056fea2646970667358221220ab07462d82219c4f97ba6f3a1dccb2f5d1848361f5098d5c1bca0b28dbaa096d64736f6c634300081c0033",
					"opcodes": "PUSH1 0x80 PUSH1 0x40 MSTORE CALLVALUE DUP1 ISZERO PUSH1 0xE JUMPI PUSH0 PUSH0 REVERT JUMPDEST POP PUSH2 0x692 DUP1 PUSH2 0x1C PUSH0 CODECOPY PUSH0 RETURN INVALID PUSH1 0x80 PUSH1 0x40 MSTORE PUSH1 0x4 CALLDATASIZE LT PUSH2 0x3E JUMPI PUSH0 CALLDATALOAD PUSH1 0xE0 SHR DUP1 PUSH4 0x835C19F3 EQ PUSH2 0x42 JUMPI DUP1 PUSH4 0xB65412B5 EQ PUSH2 0x4C JUMPI DUP1 PUSH4 0xC71DACCB EQ PUSH2 0x62 JUMPI DUP1 PUSH4 0xFCC298F2 EQ PUSH2 0x8C JUMPI JUMPDEST PUSH0 PUSH0 REVERT JUMPDEST PUSH2 0x4A PUSH2 0xB4 JUMP JUMPDEST STOP JUMPDEST CALLVALUE DUP1 ISZERO PUSH2 0x57 JUMPI PUSH0 PUSH0 REVERT JUMPDEST POP PUSH2 0x60 PUSH2 0x14A JUMP JUMPDEST STOP JUMPDEST CALLVALUE DUP1 ISZERO PUSH2 0x6D JUMPI PUSH0 PUSH0 REVERT JUMPDEST POP PUSH2 0x76 PUSH2 0x2E1 JUMP JUMPDEST PUSH1 0x40 MLOAD PUSH2 0x83 SWAP2 SWAP1 PUSH2 0x394 JUMP JUMPDEST PUSH1 0x40 MLOAD DUP1 SWAP2 SUB SWAP1 RETURN JUMPDEST CALLVALUE DUP1 ISZERO PUSH2 0x97 JUMPI PUSH0 PUSH0 REVERT JUMPDEST POP PUSH2 0xB2 PUSH1 0x4 DUP1 CALLDATASIZE SUB DUP2 ADD SWAP1 PUSH2 0xAD SWAP2 SWAP1 PUSH2 0x440 JUMP JUMPDEST PUSH2 0x324 JUMP JUMPDEST STOP JUMPDEST PUSH0 CALLVALUE GT PUSH2 0xF6 JUMPI PUSH1 0x40 MLOAD PUSH32 0x8C379A000000000000000000000000000000000000000000000000000000000 DUP2 MSTORE PUSH1 0x4 ADD PUSH2 0xED SWAP1 PUSH2 0x4D8 JUMP JUMPDEST PUSH1 0x40 MLOAD DUP1 SWAP2 SUB SWAP1 REVERT JUMPDEST CALLVALUE PUSH0 PUSH0 CALLER PUSH20 0xFFFFFFFFFFFFFFFFFFFFFFFFFFFFFFFFFFFFFFFF AND PUSH20 0xFFFFFFFFFFFFFFFFFFFFFFFFFFFFFFFFFFFFFFFF AND DUP2 MSTORE PUSH1 0x20 ADD SWAP1 DUP2 MSTORE PUSH1 0x20 ADD PUSH0 KECCAK256 PUSH0 DUP3 DUP3 SLOAD PUSH2 0x141 SWAP2 SWAP1 PUSH2 0x523 JUMP JUMPDEST SWAP3 POP POP DUP2 SWAP1 SSTORE POP JUMP JUMPDEST PUSH0 PUSH0 PUSH0 CALLER PUSH20 0xFFFFFFFFFFFFFFFFFFFFFFFFFFFFFFFFFFFFFFFF AND PUSH20 0xFFFFFFFFFFFFFFFFFFFFFFFFFFFFFFFFFFFFFFFF AND DUP2 MSTORE PUSH1 0x20 ADD SWAP1 DUP2 MSTORE PUSH1 0x20 ADD PUSH0 KECCAK256 SLOAD SWAP1 POP PUSH0 PUSH0 PUSH0 CALLER PUSH20 0xFFFFFFFFFFFFFFFFFFFFFFFFFFFFFFFFFFFFFFFF AND PUSH20 0xFFFFFFFFFFFFFFFFFFFFFFFFFFFFFFFFFFFFFFFF AND DUP2 MSTORE PUSH1 0x20 ADD SWAP1 DUP2 MSTORE PUSH1 0x20 ADD PUSH0 KECCAK256 DUP2 SWAP1 SSTORE POP PUSH1 0x1 PUSH0 CALLER PUSH20 0xFFFFFFFFFFFFFFFFFFFFFFFFFFFFFFFFFFFFFFFF AND PUSH20 0xFFFFFFFFFFFFFFFFFFFFFFFFFFFFFFFFFFFFFFFF AND DUP2 MSTORE PUSH1 0x20 ADD SWAP1 DUP2 MSTORE PUSH1 0x20 ADD PUSH0 KECCAK256 PUSH0 SWAP1 SLOAD SWAP1 PUSH2 0x100 EXP SWAP1 DIV PUSH1 0xFF AND ISZERO PUSH2 0x235 JUMPI PUSH1 0x64 DUP2 PUSH2 0x227 SWAP2 SWAP1 PUSH2 0x583 JUMP JUMPDEST DUP2 PUSH2 0x232 SWAP2 SWAP1 PUSH2 0x523 JUMP JUMPDEST SWAP1 POP JUMPDEST PUSH0 CALLER PUSH20 0xFFFFFFFFFFFFFFFFFFFFFFFFFFFFFFFFFFFFFFFF AND DUP3 PUSH1 0x40 MLOAD PUSH2 0x25A SWAP1 PUSH2 0x5E0 JUMP JUMPDEST PUSH0 PUSH1 0x40 MLOAD DUP1 DUP4 SUB DUP2 DUP6 DUP8 GAS CALL SWAP3 POP POP POP RETURNDATASIZE DUP1 PUSH0 DUP2 EQ PUSH2 0x294 JUMPI PUSH1 0x40 MLOAD SWAP2 POP PUSH1 0x1F NOT PUSH1 0x3F RETURNDATASIZE ADD AND DUP3 ADD PUSH1 0x40 MSTORE RETURNDATASIZE DUP3 MSTORE RETURNDATASIZE PUSH0 PUSH1 0x20 DUP5 ADD RETURNDATACOPY PUSH2 0x299 JUMP JUMPDEST PUSH1 0x60 SWAP2 POP JUMPDEST POP POP SWAP1 POP DUP1 PUSH2 0x2DD JUMPI PUSH1 0x40 MLOAD PUSH32 0x8C379A000000000000000000000000000000000000000000000000000000000 DUP2 MSTORE PUSH1 0x4 ADD PUSH2 0x2D4 SWAP1 PUSH2 0x63E JUMP JUMPDEST PUSH1 0x40 MLOAD DUP1 SWAP2 SUB SWAP1 REVERT JUMPDEST POP POP JUMP JUMPDEST PUSH0 PUSH0 PUSH0 CALLER PUSH20 0xFFFFFFFFFFFFFFFFFFFFFFFFFFFFFFFFFFFFFFFF AND PUSH20 0xFFFFFFFFFFFFFFFFFFFFFFFFFFFFFFFFFFFFFFFF AND DUP2 MSTORE PUSH1 0x20 ADD SWAP1 DUP2 MSTORE PUSH1 0x20 ADD PUSH0 KECCAK256 SLOAD SWAP1 POP SWAP1 JUMP JUMPDEST DUP1 PUSH1 0x1 PUSH0 DUP5 PUSH20 0xFFFFFFFFFFFFFFFFFFFFFFFFFFFFFFFFFFFFFFFF AND PUSH20 0xFFFFFFFFFFFFFFFFFFFFFFFFFFFFFFFFFFFFFFFF AND DUP2 MSTORE PUSH1 0x20 ADD SWAP1 DUP2 MSTORE PUSH1 0x20 ADD PUSH0 KECCAK256 PUSH0 PUSH2 0x100 EXP DUP2 SLOAD DUP2 PUSH1 0xFF MUL NOT AND SWAP1 DUP4 ISZERO ISZERO MUL OR SWAP1 SSTORE POP POP POP JUMP JUMPDEST PUSH0 DUP2 SWAP1 POP SWAP2 SWAP1 POP JUMP JUMPDEST PUSH2 0x38E DUP2 PUSH2 0x37C JUMP JUMPDEST DUP3 MSTORE POP POP JUMP JUMPDEST PUSH0 PUSH1 0x20 DUP3 ADD SWAP1 POP PUSH2 0x3A7 PUSH0 DUP4 ADD DUP5 PUSH2 0x385 JUMP JUMPDEST SWAP3 SWAP2 POP POP JUMP JUMPDEST PUSH0 PUSH0 REVERT JUMPDEST PUSH0 PUSH20 0xFFFFFFFFFFFFFFFFFFFFFFFFFFFFFFFFFFFFFFFF DUP3 AND SWAP1 POP SWAP2 SWAP1 POP JUMP JUMPDEST PUSH0 PUSH2 0x3DA DUP3 PUSH2 0x3B1 JUMP JUMPDEST SWAP1 POP SWAP2 SWAP1 POP JUMP JUMPDEST PUSH2 0x3EA DUP2 PUSH2 0x3D0 JUMP JUMPDEST DUP2 EQ PUSH2 0x3F4 JUMPI PUSH0 PUSH0 REVERT JUMPDEST POP JUMP JUMPDEST PUSH0 DUP2 CALLDATALOAD SWAP1 POP PUSH2 0x405 DUP2 PUSH2 0x3E1 JUMP JUMPDEST SWAP3 SWAP2 POP POP JUMP JUMPDEST PUSH0 DUP2 ISZERO ISZERO SWAP1 POP SWAP2 SWAP1 POP JUMP JUMPDEST PUSH2 0x41F DUP2 PUSH2 0x40B JUMP JUMPDEST DUP2 EQ PUSH2 0x429 JUMPI PUSH0 PUSH0 REVERT JUMPDEST POP JUMP JUMPDEST PUSH0 DUP2 CALLDATALOAD SWAP1 POP PUSH2 0x43A DUP2 PUSH2 0x416 JUMP JUMPDEST SWAP3 SWAP2 POP POP JUMP JUMPDEST PUSH0 PUSH0 PUSH1 0x40 DUP4 DUP6 SUB SLT ISZERO PUSH2 0x456 JUMPI PUSH2 0x455 PUSH2 0x3AD JUMP JUMPDEST JUMPDEST PUSH0 PUSH2 0x463 DUP6 DUP3 DUP7 ADD PUSH2 0x3F7 JUMP JUMPDEST SWAP3 POP POP PUSH1 0x20 PUSH2 0x474 DUP6 DUP3 DUP7 ADD PUSH2 0x42C JUMP JUMPDEST SWAP2 POP POP SWAP3 POP SWAP3 SWAP1 POP JUMP JUMPDEST PUSH0 DUP3 DUP3 MSTORE PUSH1 0x20 DUP3 ADD SWAP1 POP SWAP3 SWAP2 POP POP JUMP JUMPDEST PUSH32 0x4E6F2045746865722073656E7400000000000000000000000000000000000000 PUSH0 DUP3 ADD MSTORE POP JUMP JUMPDEST PUSH0 PUSH2 0x4C2 PUSH1 0xD DUP4 PUSH2 0x47E JUMP JUMPDEST SWAP2 POP PUSH2 0x4CD DUP3 PUSH2 0x48E JUMP JUMPDEST PUSH1 0x20 DUP3 ADD SWAP1 POP SWAP2 SWAP1 POP JUMP JUMPDEST PUSH0 PUSH1 0x20 DUP3 ADD SWAP1 POP DUP2 DUP2 SUB PUSH0 DUP4 ADD MSTORE PUSH2 0x4EF DUP2 PUSH2 0x4B6 JUMP JUMPDEST SWAP1 POP SWAP2 SWAP1 POP JUMP JUMPDEST PUSH32 0x4E487B7100000000000000000000000000000000000000000000000000000000 PUSH0 MSTORE PUSH1 0x11 PUSH1 0x4 MSTORE PUSH1 0x24 PUSH0 REVERT JUMPDEST PUSH0 PUSH2 0x52D DUP3 PUSH2 0x37C JUMP JUMPDEST SWAP2 POP PUSH2 0x538 DUP4 PUSH2 0x37C JUMP JUMPDEST SWAP3 POP DUP3 DUP3 ADD SWAP1 POP DUP1 DUP3 GT ISZERO PUSH2 0x550 JUMPI PUSH2 0x54F PUSH2 0x4F6 JUMP JUMPDEST JUMPDEST SWAP3 SWAP2 POP POP JUMP JUMPDEST PUSH32 0x4E487B7100000000000000000000000000000000000000000000000000000000 PUSH0 MSTORE PUSH1 0x12 PUSH1 0x4 MSTORE PUSH1 0x24 PUSH0 REVERT JUMPDEST PUSH0 PUSH2 0x58D DUP3 PUSH2 0x37C JUMP JUMPDEST SWAP2 POP PUSH2 0x598 DUP4 PUSH2 0x37C JUMP JUMPDEST SWAP3 POP DUP3 PUSH2 0x5A8 JUMPI PUSH2 0x5A7 PUSH2 0x556 JUMP JUMPDEST JUMPDEST DUP3 DUP3 DIV SWAP1 POP SWAP3 SWAP2 POP POP JUMP JUMPDEST PUSH0 DUP2 SWAP1 POP SWAP3 SWAP2 POP POP JUMP JUMPDEST POP JUMP JUMPDEST PUSH0 PUSH2 0x5CB PUSH0 DUP4 PUSH2 0x5B3 JUMP JUMPDEST SWAP2 POP PUSH2 0x5D6 DUP3 PUSH2 0x5BD JUMP JUMPDEST PUSH0 DUP3 ADD SWAP1 POP SWAP2 SWAP1 POP JUMP JUMPDEST PUSH0 PUSH2 0x5EA DUP3 PUSH2 0x5C0 JUMP JUMPDEST SWAP2 POP DUP2 SWAP1 POP SWAP2 SWAP1 POP JUMP JUMPDEST PUSH32 0x556E61626C6520746F20706572666F726D20726566756E640000000000000000 PUSH0 DUP3 ADD MSTORE POP JUMP JUMPDEST PUSH0 PUSH2 0x628 PUSH1 0x18 DUP4 PUSH2 0x47E JUMP JUMPDEST SWAP2 POP PUSH2 0x633 DUP3 PUSH2 0x5F4 JUMP JUMPDEST PUSH1 0x20 DUP3 ADD SWAP1 POP SWAP2 SWAP1 POP JUMP JUMPDEST PUSH0 PUSH1 0x20 DUP3 ADD SWAP1 POP DUP2 DUP2 SUB PUSH0 DUP4 ADD MSTORE PUSH2 0x655 DUP2 PUSH2 0x61C JUMP JUMPDEST SWAP1 POP SWAP2 SWAP1 POP JUMP INVALID LOG2 PUSH5 0x6970667358 0x22 SLT KECCAK256 0xAB SMOD CHAINID 0x2D DUP3 0x21 SWAP13 0x4F SWAP8 0xBA PUSH16 0x3A1DCCB2F5D1848361F5098D5C1BCA0B 0x28 0xDB 0xAA MULMOD PUSH14 0x64736F6C634300081C0033000000 "
				},
				"gasEstimates": {
					"creation": {
						"codeDepositCost": "336400",
						"executionCost": "372",
						"totalCost": "336772"
					},
					"external": {
						"checkBalance()": "2540",
						"receivePayment()": "infinite",
						"refundPayment()": "infinite",
						"setLoyalty(address,bool)": "25023"
					}
				},
				"methodIdentifiers": {
					"checkBalance()": "c71daccb",
					"receivePayment()": "835c19f3",
					"refundPayment()": "b65412b5",
					"setLoyalty(address,bool)": "fcc298f2"
				}
			},
			"storageLayout": {
				"storage": [
					{
						"astId": 5,
						"contract": "Inheritance and Modularity/PaymentProcessor.sol:Merchant",
						"label": "balance",
						"offset": 0,
						"slot": "0",
						"type": "t_mapping(t_address,t_uint256)"
					},
					{
						"astId": 9,
						"contract": "Inheritance and Modularity/PaymentProcessor.sol:Merchant",
						"label": "isLoyal",
						"offset": 0,
						"slot": "1",
						"type": "t_mapping(t_address,t_bool)"
					}
				],
				"types": {
					"t_address": {
						"encoding": "inplace",
						"label": "address",
						"numberOfBytes": "20"
					},
					"t_bool": {
						"encoding": "inplace",
						"label": "bool",
						"numberOfBytes": "1"
					},
					"t_mapping(t_address,t_bool)": {
						"encoding": "mapping",
						"key": "t_address",
						"label": "mapping(address => bool)",
						"numberOfBytes": "32",
						"value": "t_bool"
					},
					"t_mapping(t_address,t_uint256)": {
						"encoding": "mapping",
						"key": "t_address",
						"label": "mapping(address => uint256)",
						"numberOfBytes": "32",
						"value": "t_uint256"
					},
					"t_uint256": {
						"encoding": "inplace",
						"label": "uint256",
						"numberOfBytes": "32"
					}
				}
			},
			"userdoc": {
				"kind": "user",
				"methods": {},
				"version": 1
			}
		}
	}
}