{
	"Smart ContractStandarts/ERC20.sol": {
		"ERC20": {
			"abi": [
				{
					"inputs": [
						{
							"internalType": "string",
							"name": "newName",
							"type": "string"
						},
						{
							"internalType": "string",
							"name": "newSymbol",
							"type": "string"
						}
					],
					"stateMutability": "nonpayable",
					"type": "constructor"
				},
				{
					"anonymous": false,
					"inputs": [
						{
							"indexed": true,
							"internalType": "address",
							"name": "_owner",
							"type": "address"
						},
						{
							"indexed": true,
							"internalType": "address",
							"name": "_spender",
							"type": "address"
						},
						{
							"indexed": false,
							"internalType": "uint256",
							"name": "_value",
							"type": "uint256"
						}
					],
					"name": "Approval",
					"type": "event"
				},
				{
					"anonymous": false,
					"inputs": [
						{
							"indexed": true,
							"internalType": "address",
							"name": "_from",
							"type": "address"
						},
						{
							"indexed": true,
							"internalType": "address",
							"name": "_to",
							"type": "address"
						},
						{
							"indexed": false,
							"internalType": "uint256",
							"name": "_value",
							"type": "uint256"
						}
					],
					"name": "Transfer",
					"type": "event"
				},
				{
					"inputs": [
						{
							"internalType": "address",
							"name": "",
							"type": "address"
						},
						{
							"internalType": "address",
							"name": "",
							"type": "address"
						}
					],
					"name": "allowances",
					"outputs": [
						{
							"internalType": "uint256",
							"name": "",
							"type": "uint256"
						}
					],
					"stateMutability": "view",
					"type": "function"
				},
				{
					"inputs": [
						{
							"internalType": "address",
							"name": "_spender",
							"type": "address"
						},
						{
							"internalType": "uint256",
							"name": "_value",
							"type": "uint256"
						}
					],
					"name": "approve",
					"outputs": [
						{
							"internalType": "bool",
							"name": "success",
							"type": "bool"
						}
					],
					"stateMutability": "nonpayable",
					"type": "function"
				},
				{
					"inputs": [
						{
							"internalType": "address",
							"name": "",
							"type": "address"
						}
					],
					"name": "balanceOf",
					"outputs": [
						{
							"internalType": "uint256",
							"name": "",
							"type": "uint256"
						}
					],
					"stateMutability": "view",
					"type": "function"
				},
				{
					"inputs": [],
					"name": "decimals",
					"outputs": [
						{
							"internalType": "uint8",
							"name": "",
							"type": "uint8"
						}
					],
					"stateMutability": "view",
					"type": "function"
				},
				{
					"inputs": [],
					"name": "name",
					"outputs": [
						{
							"internalType": "string",
							"name": "",
							"type": "string"
						}
					],
					"stateMutability": "view",
					"type": "function"
				},
				{
					"inputs": [],
					"name": "symbol",
					"outputs": [
						{
							"internalType": "string",
							"name": "",
							"type": "string"
						}
					],
					"stateMutability": "view",
					"type": "function"
				},
				{
					"inputs": [],
					"name": "totalSupply",
					"outputs": [
						{
							"internalType": "uint256",
							"name": "",
							"type": "uint256"
						}
					],
					"stateMutability": "view",
					"type": "function"
				},
				{
					"inputs": [
						{
							"internalType": "address",
							"name": "_to",
							"type": "address"
						},
						{
							"internalType": "uint256",
							"name": "_value",
							"type": "uint256"
						}
					],
					"name": "transfer",
					"outputs": [
						{
							"internalType": "bool",
							"name": "success",
							"type": "bool"
						}
					],
					"stateMutability": "nonpayable",
					"type": "function"
				},
				{
					"inputs": [
						{
							"internalType": "address",
							"name": "_from",
							"type": "address"
						},
						{
							"internalType": "address",
							"name": "_to",
							"type": "address"
						},
						{
							"internalType": "uint256",
							"name": "_value",
							"type": "uint256"
						}
					],
					"name": "transferFrom",
					"outputs": [
						{
							"internalType": "bool",
							"name": "success",
							"type": "bool"
						}
					],
					"stateMutability": "nonpayable",
					"type": "function"
				}
			],
			"devdoc": {
				"kind": "dev",
				"methods": {},
				"version": 1
			},
			"evm": {
				"assembly": "    /* \"Smart ContractStandarts/ERC20.sol\":64:1963  contract ERC20{... */\n  mstore(0x40, 0x80)\n    /* \"Smart ContractStandarts/ERC20.sol\":161:162  3 */\n  0x03\n    /* \"Smart ContractStandarts/ERC20.sol\":137:162  uint8 public decimals = 3 */\n  0x02\n  exp(0x0100, 0x00)\n  dup2\n  sload\n  dup2\n  0xff\n  mul\n  not\n  and\n  swap1\n  dup4\n  0xff\n  and\n  mul\n  or\n  swap1\n  sstore\n  pop\n    /* \"Smart ContractStandarts/ERC20.sol\":378:623  constructor(string memory newName, string memory newSymbol) {... */\n  callvalue\n  dup1\n  iszero\n  tag_1\n  jumpi\n  revert(0x00, 0x00)\ntag_1:\n  pop\n  mload(0x40)\n  sub(codesize, bytecodeSize)\n  dup1\n  bytecodeSize\n  dup4\n  codecopy\n  dup2\n  dup2\n  add\n  0x40\n  mstore\n  dup2\n  add\n  swap1\n  tag_2\n  swap2\n  swap1\n  tag_3\n  jump\t// in\ntag_2:\n    /* \"Smart ContractStandarts/ERC20.sol\":456:463  newName */\n  dup2\n    /* \"Smart ContractStandarts/ERC20.sol\":449:453  name */\n  0x00\n    /* \"Smart ContractStandarts/ERC20.sol\":449:463  name = newName */\n  swap1\n  dup2\n  tag_6\n  swap2\n  swap1\n  tag_7\n  jump\t// in\ntag_6:\n  pop\n    /* \"Smart ContractStandarts/ERC20.sol\":483:492  newSymbol */\n  dup1\n    /* \"Smart ContractStandarts/ERC20.sol\":474:480  symbol */\n  0x01\n    /* \"Smart ContractStandarts/ERC20.sol\":474:492  symbol = newSymbol */\n  swap1\n  dup2\n  tag_8\n  swap2\n  swap1\n  tag_7\n  jump\t// in\ntag_8:\n  pop\n    /* \"Smart ContractStandarts/ERC20.sol\":505:519  uint256 supply */\n  0x00\n    /* \"Smart ContractStandarts/ERC20.sol\":535:543  decimals */\n  0x02\n  0x00\n  swap1\n  sload\n  swap1\n  0x0100\n  exp\n  swap1\n  div\n  0xff\n  and\n    /* \"Smart ContractStandarts/ERC20.sol\":529:531  10 */\n  0x0a\n    /* \"Smart ContractStandarts/ERC20.sol\":529:543  10 ** decimals */\n  tag_9\n  swap2\n  swap1\n  tag_10\n  jump\t// in\ntag_9:\n    /* \"Smart ContractStandarts/ERC20.sol\":522:526  1000 */\n  0x03e8\n    /* \"Smart ContractStandarts/ERC20.sol\":522:543  1000 * 10 ** decimals */\n  tag_11\n  swap2\n  swap1\n  tag_12\n  jump\t// in\ntag_11:\n    /* \"Smart ContractStandarts/ERC20.sol\":505:543  uint256 supply = 1000 * 10 ** decimals */\n  swap1\n  pop\n    /* \"Smart ContractStandarts/ERC20.sol\":578:584  supply */\n  dup1\n    /* \"Smart ContractStandarts/ERC20.sol\":554:563  balanceOf */\n  0x04\n    /* \"Smart ContractStandarts/ERC20.sol\":554:575  balanceOf[msg.sender] */\n  0x00\n    /* \"Smart ContractStandarts/ERC20.sol\":564:574  msg.sender */\n  caller\n    /* \"Smart ContractStandarts/ERC20.sol\":554:575  balanceOf[msg.sender] */\n  0xffffffffffffffffffffffffffffffffffffffff\n  and\n  0xffffffffffffffffffffffffffffffffffffffff\n  and\n  dup2\n  mstore\n  0x20\n  add\n  swap1\n  dup2\n  mstore\n  0x20\n  add\n  0x00\n  keccak256\n    /* \"Smart ContractStandarts/ERC20.sol\":554:584  balanceOf[msg.sender] = supply */\n  dup2\n  swap1\n  sstore\n  pop\n    /* \"Smart ContractStandarts/ERC20.sol\":609:615  supply */\n  dup1\n    /* \"Smart ContractStandarts/ERC20.sol\":595:606  totalSupply */\n  0x03\n    /* \"Smart ContractStandarts/ERC20.sol\":595:615  totalSupply = supply */\n  dup2\n  swap1\n  sstore\n  pop\n    /* \"Smart ContractStandarts/ERC20.sol\":438:623  {... */\n  pop\n    /* \"Smart ContractStandarts/ERC20.sol\":378:623  constructor(string memory newName, string memory newSymbol) {... */\n  pop\n  pop\n    /* \"Smart ContractStandarts/ERC20.sol\":64:1963  contract ERC20{... */\n  jump(tag_13)\n    /* \"#utility.yul\":7:82   */\ntag_14:\n    /* \"#utility.yul\":40:46   */\n  0x00\n    /* \"#utility.yul\":73:75   */\n  0x40\n    /* \"#utility.yul\":67:76   */\n  mload\n    /* \"#utility.yul\":57:76   */\n  swap1\n  pop\n    /* \"#utility.yul\":7:82   */\n  swap1\n  jump\t// out\n    /* \"#utility.yul\":88:205   */\ntag_15:\n    /* \"#utility.yul\":197:198   */\n  0x00\n    /* \"#utility.yul\":194:195   */\n  0x00\n    /* \"#utility.yul\":187:199   */\n  revert\n    /* \"#utility.yul\":211:328   */\ntag_16:\n    /* \"#utility.yul\":320:321   */\n  0x00\n    /* \"#utility.yul\":317:318   */\n  0x00\n    /* \"#utility.yul\":310:322   */\n  revert\n    /* \"#utility.yul\":334:451   */\ntag_17:\n    /* \"#utility.yul\":443:444   */\n  0x00\n    /* \"#utility.yul\":440:441   */\n  0x00\n    /* \"#utility.yul\":433:445   */\n  revert\n    /* \"#utility.yul\":457:574   */\ntag_18:\n    /* \"#utility.yul\":566:567   */\n  0x00\n    /* \"#utility.yul\":563:564   */\n  0x00\n    /* \"#utility.yul\":556:568   */\n  revert\n    /* \"#utility.yul\":580:682   */\ntag_19:\n    /* \"#utility.yul\":621:627   */\n  0x00\n    /* \"#utility.yul\":672:674   */\n  0x1f\n    /* \"#utility.yul\":668:675   */\n  not\n    /* \"#utility.yul\":663:665   */\n  0x1f\n    /* \"#utility.yul\":656:661   */\n  dup4\n    /* \"#utility.yul\":652:666   */\n  add\n    /* \"#utility.yul\":648:676   */\n  and\n    /* \"#utility.yul\":638:676   */\n  swap1\n  pop\n    /* \"#utility.yul\":580:682   */\n  swap2\n  swap1\n  pop\n  jump\t// out\n    /* \"#utility.yul\":688:868   */\ntag_20:\n    /* \"#utility.yul\":736:813   */\n  0x4e487b7100000000000000000000000000000000000000000000000000000000\n    /* \"#utility.yul\":733:734   */\n  0x00\n    /* \"#utility.yul\":726:814   */\n  mstore\n    /* \"#utility.yul\":833:837   */\n  0x41\n    /* \"#utility.yul\":830:831   */\n  0x04\n    /* \"#utility.yul\":823:838   */\n  mstore\n    /* \"#utility.yul\":857:861   */\n  0x24\n    /* \"#utility.yul\":854:855   */\n  0x00\n    /* \"#utility.yul\":847:862   */\n  revert\n    /* \"#utility.yul\":874:1155   */\ntag_21:\n    /* \"#utility.yul\":957:984   */\n  tag_60\n    /* \"#utility.yul\":979:983   */\n  dup3\n    /* \"#utility.yul\":957:984   */\n  tag_19\n  jump\t// in\ntag_60:\n    /* \"#utility.yul\":949:955   */\n  dup2\n    /* \"#utility.yul\":945:985   */\n  add\n    /* \"#utility.yul\":1087:1093   */\n  dup2\n    /* \"#utility.yul\":1075:1085   */\n  dup2\n    /* \"#utility.yul\":1072:1094   */\n  lt\n    /* \"#utility.yul\":1051:1069   */\n  0xffffffffffffffff\n    /* \"#utility.yul\":1039:1049   */\n  dup3\n    /* \"#utility.yul\":1036:1070   */\n  gt\n    /* \"#utility.yul\":1033:1095   */\n  or\n    /* \"#utility.yul\":1030:1118   */\n  iszero\n  tag_61\n  jumpi\n    /* \"#utility.yul\":1098:1116   */\n  tag_62\n  tag_20\n  jump\t// in\ntag_62:\n    /* \"#utility.yul\":1030:1118   */\ntag_61:\n    /* \"#utility.yul\":1138:1148   */\n  dup1\n    /* \"#utility.yul\":1134:1136   */\n  0x40\n    /* \"#utility.yul\":1127:1149   */\n  mstore\n    /* \"#utility.yul\":917:1155   */\n  pop\n    /* \"#utility.yul\":874:1155   */\n  pop\n  pop\n  jump\t// out\n    /* \"#utility.yul\":1161:1290   */\ntag_22:\n    /* \"#utility.yul\":1195:1201   */\n  0x00\n    /* \"#utility.yul\":1222:1242   */\n  tag_64\n  tag_14\n  jump\t// in\ntag_64:\n    /* \"#utility.yul\":1212:1242   */\n  swap1\n  pop\n    /* \"#utility.yul\":1251:1284   */\n  tag_65\n    /* \"#utility.yul\":1279:1283   */\n  dup3\n    /* \"#utility.yul\":1271:1277   */\n  dup3\n    /* \"#utility.yul\":1251:1284   */\n  tag_21\n  jump\t// in\ntag_65:\n    /* \"#utility.yul\":1161:1290   */\n  swap2\n  swap1\n  pop\n  jump\t// out\n    /* \"#utility.yul\":1296:1604   */\ntag_23:\n    /* \"#utility.yul\":1358:1362   */\n  0x00\n    /* \"#utility.yul\":1448:1466   */\n  0xffffffffffffffff\n    /* \"#utility.yul\":1440:1446   */\n  dup3\n    /* \"#utility.yul\":1437:1467   */\n  gt\n    /* \"#utility.yul\":1434:1490   */\n  iszero\n  tag_67\n  jumpi\n    /* \"#utility.yul\":1470:1488   */\n  tag_68\n  tag_20\n  jump\t// in\ntag_68:\n    /* \"#utility.yul\":1434:1490   */\ntag_67:\n    /* \"#utility.yul\":1508:1537   */\n  tag_69\n    /* \"#utility.yul\":1530:1536   */\n  dup3\n    /* \"#utility.yul\":1508:1537   */\n  tag_19\n  jump\t// in\ntag_69:\n    /* \"#utility.yul\":1500:1537   */\n  swap1\n  pop\n    /* \"#utility.yul\":1592:1596   */\n  0x20\n    /* \"#utility.yul\":1586:1590   */\n  dup2\n    /* \"#utility.yul\":1582:1597   */\n  add\n    /* \"#utility.yul\":1574:1597   */\n  swap1\n  pop\n    /* \"#utility.yul\":1296:1604   */\n  swap2\n  swap1\n  pop\n  jump\t// out\n    /* \"#utility.yul\":1610:1749   */\ntag_24:\n    /* \"#utility.yul\":1699:1705   */\n  dup3\n    /* \"#utility.yul\":1694:1697   */\n  dup2\n    /* \"#utility.yul\":1689:1692   */\n  dup4\n    /* \"#utility.yul\":1683:1706   */\n  mcopy\n    /* \"#utility.yul\":1740:1741   */\n  0x00\n    /* \"#utility.yul\":1731:1737   */\n  dup4\n    /* \"#utility.yul\":1726:1729   */\n  dup4\n    /* \"#utility.yul\":1722:1738   */\n  add\n    /* \"#utility.yul\":1715:1742   */\n  mstore\n    /* \"#utility.yul\":1610:1749   */\n  pop\n  pop\n  pop\n  jump\t// out\n    /* \"#utility.yul\":1755:2189   */\ntag_25:\n    /* \"#utility.yul\":1844:1849   */\n  0x00\n    /* \"#utility.yul\":1869:1935   */\n  tag_72\n    /* \"#utility.yul\":1885:1934   */\n  tag_73\n    /* \"#utility.yul\":1927:1933   */\n  dup5\n    /* \"#utility.yul\":1885:1934   */\n  tag_23\n  jump\t// in\ntag_73:\n    /* \"#utility.yul\":1869:1935   */\n  tag_22\n  jump\t// in\ntag_72:\n    /* \"#utility.yul\":1860:1935   */\n  swap1\n  pop\n    /* \"#utility.yul\":1958:1964   */\n  dup3\n    /* \"#utility.yul\":1951:1956   */\n  dup2\n    /* \"#utility.yul\":1944:1965   */\n  mstore\n    /* \"#utility.yul\":1996:2000   */\n  0x20\n    /* \"#utility.yul\":1989:1994   */\n  dup2\n    /* \"#utility.yul\":1985:2001   */\n  add\n    /* \"#utility.yul\":2034:2037   */\n  dup5\n    /* \"#utility.yul\":2025:2031   */\n  dup5\n    /* \"#utility.yul\":2020:2023   */\n  dup5\n    /* \"#utility.yul\":2016:2032   */\n  add\n    /* \"#utility.yul\":2013:2038   */\n  gt\n    /* \"#utility.yul\":2010:2122   */\n  iszero\n  tag_74\n  jumpi\n    /* \"#utility.yul\":2041:2120   */\n  tag_75\n  tag_18\n  jump\t// in\ntag_75:\n    /* \"#utility.yul\":2010:2122   */\ntag_74:\n    /* \"#utility.yul\":2131:2183   */\n  tag_76\n    /* \"#utility.yul\":2176:2182   */\n  dup5\n    /* \"#utility.yul\":2171:2174   */\n  dup3\n    /* \"#utility.yul\":2166:2169   */\n  dup6\n    /* \"#utility.yul\":2131:2183   */\n  tag_24\n  jump\t// in\ntag_76:\n    /* \"#utility.yul\":1850:2189   */\n  pop\n    /* \"#utility.yul\":1755:2189   */\n  swap4\n  swap3\n  pop\n  pop\n  pop\n  jump\t// out\n    /* \"#utility.yul\":2209:2564   */\ntag_26:\n    /* \"#utility.yul\":2276:2281   */\n  0x00\n    /* \"#utility.yul\":2325:2328   */\n  dup3\n    /* \"#utility.yul\":2318:2322   */\n  0x1f\n    /* \"#utility.yul\":2310:2316   */\n  dup4\n    /* \"#utility.yul\":2306:2323   */\n  add\n    /* \"#utility.yul\":2302:2329   */\n  slt\n    /* \"#utility.yul\":2292:2414   */\n  tag_78\n  jumpi\n    /* \"#utility.yul\":2333:2412   */\n  tag_79\n  tag_17\n  jump\t// in\ntag_79:\n    /* \"#utility.yul\":2292:2414   */\ntag_78:\n    /* \"#utility.yul\":2443:2449   */\n  dup2\n    /* \"#utility.yul\":2437:2450   */\n  mload\n    /* \"#utility.yul\":2468:2558   */\n  tag_80\n    /* \"#utility.yul\":2554:2557   */\n  dup5\n    /* \"#utility.yul\":2546:2552   */\n  dup3\n    /* \"#utility.yul\":2539:2543   */\n  0x20\n    /* \"#utility.yul\":2531:2537   */\n  dup7\n    /* \"#utility.yul\":2527:2544   */\n  add\n    /* \"#utility.yul\":2468:2558   */\n  tag_25\n  jump\t// in\ntag_80:\n    /* \"#utility.yul\":2459:2558   */\n  swap2\n  pop\n    /* \"#utility.yul\":2282:2564   */\n  pop\n    /* \"#utility.yul\":2209:2564   */\n  swap3\n  swap2\n  pop\n  pop\n  jump\t// out\n    /* \"#utility.yul\":2570:3423   */\ntag_3:\n    /* \"#utility.yul\":2669:2675   */\n  0x00\n    /* \"#utility.yul\":2677:2683   */\n  0x00\n    /* \"#utility.yul\":2726:2728   */\n  0x40\n    /* \"#utility.yul\":2714:2723   */\n  dup4\n    /* \"#utility.yul\":2705:2712   */\n  dup6\n    /* \"#utility.yul\":2701:2724   */\n  sub\n    /* \"#utility.yul\":2697:2729   */\n  slt\n    /* \"#utility.yul\":2694:2813   */\n  iszero\n  tag_82\n  jumpi\n    /* \"#utility.yul\":2732:2811   */\n  tag_83\n  tag_15\n  jump\t// in\ntag_83:\n    /* \"#utility.yul\":2694:2813   */\ntag_82:\n    /* \"#utility.yul\":2873:2874   */\n  0x00\n    /* \"#utility.yul\":2862:2871   */\n  dup4\n    /* \"#utility.yul\":2858:2875   */\n  add\n    /* \"#utility.yul\":2852:2876   */\n  mload\n    /* \"#utility.yul\":2903:2921   */\n  0xffffffffffffffff\n    /* \"#utility.yul\":2895:2901   */\n  dup2\n    /* \"#utility.yul\":2892:2922   */\n  gt\n    /* \"#utility.yul\":2889:3006   */\n  iszero\n  tag_84\n  jumpi\n    /* \"#utility.yul\":2925:3004   */\n  tag_85\n  tag_16\n  jump\t// in\ntag_85:\n    /* \"#utility.yul\":2889:3006   */\ntag_84:\n    /* \"#utility.yul\":3030:3104   */\n  tag_86\n    /* \"#utility.yul\":3096:3103   */\n  dup6\n    /* \"#utility.yul\":3087:3093   */\n  dup3\n    /* \"#utility.yul\":3076:3085   */\n  dup7\n    /* \"#utility.yul\":3072:3094   */\n  add\n    /* \"#utility.yul\":3030:3104   */\n  tag_26\n  jump\t// in\ntag_86:\n    /* \"#utility.yul\":3020:3104   */\n  swap3\n  pop\n    /* \"#utility.yul\":2823:3114   */\n  pop\n    /* \"#utility.yul\":3174:3176   */\n  0x20\n    /* \"#utility.yul\":3163:3172   */\n  dup4\n    /* \"#utility.yul\":3159:3177   */\n  add\n    /* \"#utility.yul\":3153:3178   */\n  mload\n    /* \"#utility.yul\":3205:3223   */\n  0xffffffffffffffff\n    /* \"#utility.yul\":3197:3203   */\n  dup2\n    /* \"#utility.yul\":3194:3224   */\n  gt\n    /* \"#utility.yul\":3191:3308   */\n  iszero\n  tag_87\n  jumpi\n    /* \"#utility.yul\":3227:3306   */\n  tag_88\n  tag_16\n  jump\t// in\ntag_88:\n    /* \"#utility.yul\":3191:3308   */\ntag_87:\n    /* \"#utility.yul\":3332:3406   */\n  tag_89\n    /* \"#utility.yul\":3398:3405   */\n  dup6\n    /* \"#utility.yul\":3389:3395   */\n  dup3\n    /* \"#utility.yul\":3378:3387   */\n  dup7\n    /* \"#utility.yul\":3374:3396   */\n  add\n    /* \"#utility.yul\":3332:3406   */\n  tag_26\n  jump\t// in\ntag_89:\n    /* \"#utility.yul\":3322:3406   */\n  swap2\n  pop\n    /* \"#utility.yul\":3124:3416   */\n  pop\n    /* \"#utility.yul\":2570:3423   */\n  swap3\n  pop\n  swap3\n  swap1\n  pop\n  jump\t// out\n    /* \"#utility.yul\":3429:3528   */\ntag_27:\n    /* \"#utility.yul\":3481:3487   */\n  0x00\n    /* \"#utility.yul\":3515:3520   */\n  dup2\n    /* \"#utility.yul\":3509:3521   */\n  mload\n    /* \"#utility.yul\":3499:3521   */\n  swap1\n  pop\n    /* \"#utility.yul\":3429:3528   */\n  swap2\n  swap1\n  pop\n  jump\t// out\n    /* \"#utility.yul\":3534:3714   */\ntag_28:\n    /* \"#utility.yul\":3582:3659   */\n  0x4e487b7100000000000000000000000000000000000000000000000000000000\n    /* \"#utility.yul\":3579:3580   */\n  0x00\n    /* \"#utility.yul\":3572:3660   */\n  mstore\n    /* \"#utility.yul\":3679:3683   */\n  0x22\n    /* \"#utility.yul\":3676:3677   */\n  0x04\n    /* \"#utility.yul\":3669:3684   */\n  mstore\n    /* \"#utility.yul\":3703:3707   */\n  0x24\n    /* \"#utility.yul\":3700:3701   */\n  0x00\n    /* \"#utility.yul\":3693:3708   */\n  revert\n    /* \"#utility.yul\":3720:4040   */\ntag_29:\n    /* \"#utility.yul\":3764:3770   */\n  0x00\n    /* \"#utility.yul\":3801:3802   */\n  0x02\n    /* \"#utility.yul\":3795:3799   */\n  dup3\n    /* \"#utility.yul\":3791:3803   */\n  div\n    /* \"#utility.yul\":3781:3803   */\n  swap1\n  pop\n    /* \"#utility.yul\":3848:3849   */\n  0x01\n    /* \"#utility.yul\":3842:3846   */\n  dup3\n    /* \"#utility.yul\":3838:3850   */\n  and\n    /* \"#utility.yul\":3869:3887   */\n  dup1\n    /* \"#utility.yul\":3859:3940   */\n  tag_93\n  jumpi\n    /* \"#utility.yul\":3925:3929   */\n  0x7f\n    /* \"#utility.yul\":3917:3923   */\n  dup3\n    /* \"#utility.yul\":3913:3930   */\n  and\n    /* \"#utility.yul\":3903:3930   */\n  swap2\n  pop\n    /* \"#utility.yul\":3859:3940   */\ntag_93:\n    /* \"#utility.yul\":3987:3989   */\n  0x20\n    /* \"#utility.yul\":3979:3985   */\n  dup3\n    /* \"#utility.yul\":3976:3990   */\n  lt\n    /* \"#utility.yul\":3956:3974   */\n  dup2\n    /* \"#utility.yul\":3953:3991   */\n  sub\n    /* \"#utility.yul\":3950:4034   */\n  tag_94\n  jumpi\n    /* \"#utility.yul\":4006:4024   */\n  tag_95\n  tag_28\n  jump\t// in\ntag_95:\n    /* \"#utility.yul\":3950:4034   */\ntag_94:\n    /* \"#utility.yul\":3771:4040   */\n  pop\n    /* \"#utility.yul\":3720:4040   */\n  swap2\n  swap1\n  pop\n  jump\t// out\n    /* \"#utility.yul\":4046:4187   */\ntag_30:\n    /* \"#utility.yul\":4095:4099   */\n  0x00\n    /* \"#utility.yul\":4118:4121   */\n  dup2\n    /* \"#utility.yul\":4110:4121   */\n  swap1\n  pop\n    /* \"#utility.yul\":4141:4144   */\n  dup2\n    /* \"#utility.yul\":4138:4139   */\n  0x00\n    /* \"#utility.yul\":4131:4145   */\n  mstore\n    /* \"#utility.yul\":4175:4179   */\n  0x20\n    /* \"#utility.yul\":4172:4173   */\n  0x00\n    /* \"#utility.yul\":4162:4180   */\n  keccak256\n    /* \"#utility.yul\":4154:4180   */\n  swap1\n  pop\n    /* \"#utility.yul\":4046:4187   */\n  swap2\n  swap1\n  pop\n  jump\t// out\n    /* \"#utility.yul\":4193:4286   */\ntag_31:\n    /* \"#utility.yul\":4230:4236   */\n  0x00\n    /* \"#utility.yul\":4277:4279   */\n  0x20\n    /* \"#utility.yul\":4272:4274   */\n  0x1f\n    /* \"#utility.yul\":4265:4270   */\n  dup4\n    /* \"#utility.yul\":4261:4275   */\n  add\n    /* \"#utility.yul\":4257:4280   */\n  div\n    /* \"#utility.yul\":4247:4280   */\n  swap1\n  pop\n    /* \"#utility.yul\":4193:4286   */\n  swap2\n  swap1\n  pop\n  jump\t// out\n    /* \"#utility.yul\":4292:4399   */\ntag_32:\n    /* \"#utility.yul\":4336:4344   */\n  0x00\n    /* \"#utility.yul\":4386:4391   */\n  dup3\n    /* \"#utility.yul\":4380:4384   */\n  dup3\n    /* \"#utility.yul\":4376:4392   */\n  shl\n    /* \"#utility.yul\":4355:4392   */\n  swap1\n  pop\n    /* \"#utility.yul\":4292:4399   */\n  swap3\n  swap2\n  pop\n  pop\n  jump\t// out\n    /* \"#utility.yul\":4405:4798   */\ntag_33:\n    /* \"#utility.yul\":4474:4480   */\n  0x00\n    /* \"#utility.yul\":4524:4525   */\n  0x08\n    /* \"#utility.yul\":4512:4522   */\n  dup4\n    /* \"#utility.yul\":4508:4526   */\n  mul\n    /* \"#utility.yul\":4547:4644   */\n  tag_100\n    /* \"#utility.yul\":4577:4643   */\n  0xffffffffffffffffffffffffffffffffffffffffffffffffffffffffffffffff\n    /* \"#utility.yul\":4566:4575   */\n  dup3\n    /* \"#utility.yul\":4547:4644   */\n  tag_32\n  jump\t// in\ntag_100:\n    /* \"#utility.yul\":4665:4704   */\n  tag_101\n    /* \"#utility.yul\":4695:4703   */\n  dup7\n    /* \"#utility.yul\":4684:4693   */\n  dup4\n    /* \"#utility.yul\":4665:4704   */\n  tag_32\n  jump\t// in\ntag_101:\n    /* \"#utility.yul\":4653:4704   */\n  swap6\n  pop\n    /* \"#utility.yul\":4737:4741   */\n  dup1\n    /* \"#utility.yul\":4733:4742   */\n  not\n    /* \"#utility.yul\":4726:4731   */\n  dup5\n    /* \"#utility.yul\":4722:4743   */\n  and\n    /* \"#utility.yul\":4713:4743   */\n  swap4\n  pop\n    /* \"#utility.yul\":4786:4790   */\n  dup1\n    /* \"#utility.yul\":4776:4784   */\n  dup7\n    /* \"#utility.yul\":4772:4791   */\n  and\n    /* \"#utility.yul\":4765:4770   */\n  dup5\n    /* \"#utility.yul\":4762:4792   */\n  or\n    /* \"#utility.yul\":4752:4792   */\n  swap3\n  pop\n    /* \"#utility.yul\":4481:4798   */\n  pop\n  pop\n    /* \"#utility.yul\":4405:4798   */\n  swap4\n  swap3\n  pop\n  pop\n  pop\n  jump\t// out\n    /* \"#utility.yul\":4804:4881   */\ntag_34:\n    /* \"#utility.yul\":4841:4848   */\n  0x00\n    /* \"#utility.yul\":4870:4875   */\n  dup2\n    /* \"#utility.yul\":4859:4875   */\n  swap1\n  pop\n    /* \"#utility.yul\":4804:4881   */\n  swap2\n  swap1\n  pop\n  jump\t// out\n    /* \"#utility.yul\":4887:4947   */\ntag_35:\n    /* \"#utility.yul\":4915:4918   */\n  0x00\n    /* \"#utility.yul\":4936:4941   */\n  dup2\n    /* \"#utility.yul\":4929:4941   */\n  swap1\n  pop\n    /* \"#utility.yul\":4887:4947   */\n  swap2\n  swap1\n  pop\n  jump\t// out\n    /* \"#utility.yul\":4953:5095   */\ntag_36:\n    /* \"#utility.yul\":5003:5012   */\n  0x00\n    /* \"#utility.yul\":5036:5089   */\n  tag_105\n    /* \"#utility.yul\":5054:5088   */\n  tag_106\n    /* \"#utility.yul\":5063:5087   */\n  tag_107\n    /* \"#utility.yul\":5081:5086   */\n  dup5\n    /* \"#utility.yul\":5063:5087   */\n  tag_34\n  jump\t// in\ntag_107:\n    /* \"#utility.yul\":5054:5088   */\n  tag_35\n  jump\t// in\ntag_106:\n    /* \"#utility.yul\":5036:5089   */\n  tag_34\n  jump\t// in\ntag_105:\n    /* \"#utility.yul\":5023:5089   */\n  swap1\n  pop\n    /* \"#utility.yul\":4953:5095   */\n  swap2\n  swap1\n  pop\n  jump\t// out\n    /* \"#utility.yul\":5101:5176   */\ntag_37:\n    /* \"#utility.yul\":5144:5147   */\n  0x00\n    /* \"#utility.yul\":5165:5170   */\n  dup2\n    /* \"#utility.yul\":5158:5170   */\n  swap1\n  pop\n    /* \"#utility.yul\":5101:5176   */\n  swap2\n  swap1\n  pop\n  jump\t// out\n    /* \"#utility.yul\":5182:5451   */\ntag_38:\n    /* \"#utility.yul\":5292:5331   */\n  tag_110\n    /* \"#utility.yul\":5323:5330   */\n  dup4\n    /* \"#utility.yul\":5292:5331   */\n  tag_36\n  jump\t// in\ntag_110:\n    /* \"#utility.yul\":5353:5444   */\n  tag_111\n    /* \"#utility.yul\":5402:5443   */\n  tag_112\n    /* \"#utility.yul\":5426:5442   */\n  dup3\n    /* \"#utility.yul\":5402:5443   */\n  tag_37\n  jump\t// in\ntag_112:\n    /* \"#utility.yul\":5394:5400   */\n  dup5\n    /* \"#utility.yul\":5387:5391   */\n  dup5\n    /* \"#utility.yul\":5381:5392   */\n  sload\n    /* \"#utility.yul\":5353:5444   */\n  tag_33\n  jump\t// in\ntag_111:\n    /* \"#utility.yul\":5347:5351   */\n  dup3\n    /* \"#utility.yul\":5340:5445   */\n  sstore\n    /* \"#utility.yul\":5258:5451   */\n  pop\n    /* \"#utility.yul\":5182:5451   */\n  pop\n  pop\n  pop\n  jump\t// out\n    /* \"#utility.yul\":5457:5530   */\ntag_39:\n    /* \"#utility.yul\":5502:5505   */\n  0x00\n    /* \"#utility.yul\":5523:5524   */\n  0x00\n    /* \"#utility.yul\":5516:5524   */\n  swap1\n  pop\n    /* \"#utility.yul\":5457:5530   */\n  swap1\n  jump\t// out\n    /* \"#utility.yul\":5536:5725   */\ntag_40:\n    /* \"#utility.yul\":5613:5645   */\n  tag_115\n  tag_39\n  jump\t// in\ntag_115:\n    /* \"#utility.yul\":5654:5719   */\n  tag_116\n    /* \"#utility.yul\":5712:5718   */\n  dup2\n    /* \"#utility.yul\":5704:5710   */\n  dup5\n    /* \"#utility.yul\":5698:5702   */\n  dup5\n    /* \"#utility.yul\":5654:5719   */\n  tag_38\n  jump\t// in\ntag_116:\n    /* \"#utility.yul\":5589:5725   */\n  pop\n    /* \"#utility.yul\":5536:5725   */\n  pop\n  pop\n  jump\t// out\n    /* \"#utility.yul\":5731:5917   */\ntag_41:\n    /* \"#utility.yul\":5791:5911   */\ntag_118:\n    /* \"#utility.yul\":5808:5811   */\n  dup2\n    /* \"#utility.yul\":5801:5806   */\n  dup2\n    /* \"#utility.yul\":5798:5812   */\n  lt\n    /* \"#utility.yul\":5791:5911   */\n  iszero\n  tag_120\n  jumpi\n    /* \"#utility.yul\":5862:5901   */\n  tag_121\n    /* \"#utility.yul\":5899:5900   */\n  0x00\n    /* \"#utility.yul\":5892:5897   */\n  dup3\n    /* \"#utility.yul\":5862:5901   */\n  tag_40\n  jump\t// in\ntag_121:\n    /* \"#utility.yul\":5835:5836   */\n  0x01\n    /* \"#utility.yul\":5828:5833   */\n  dup2\n    /* \"#utility.yul\":5824:5837   */\n  add\n    /* \"#utility.yul\":5815:5837   */\n  swap1\n  pop\n    /* \"#utility.yul\":5791:5911   */\n  jump(tag_118)\ntag_120:\n    /* \"#utility.yul\":5731:5917   */\n  pop\n  pop\n  jump\t// out\n    /* \"#utility.yul\":5923:6466   */\ntag_42:\n    /* \"#utility.yul\":6024:6026   */\n  0x1f\n    /* \"#utility.yul\":6019:6022   */\n  dup3\n    /* \"#utility.yul\":6016:6027   */\n  gt\n    /* \"#utility.yul\":6013:6459   */\n  iszero\n  tag_123\n  jumpi\n    /* \"#utility.yul\":6058:6096   */\n  tag_124\n    /* \"#utility.yul\":6090:6095   */\n  dup2\n    /* \"#utility.yul\":6058:6096   */\n  tag_30\n  jump\t// in\ntag_124:\n    /* \"#utility.yul\":6142:6171   */\n  tag_125\n    /* \"#utility.yul\":6160:6170   */\n  dup5\n    /* \"#utility.yul\":6142:6171   */\n  tag_31\n  jump\t// in\ntag_125:\n    /* \"#utility.yul\":6132:6140   */\n  dup2\n    /* \"#utility.yul\":6128:6172   */\n  add\n    /* \"#utility.yul\":6325:6327   */\n  0x20\n    /* \"#utility.yul\":6313:6323   */\n  dup6\n    /* \"#utility.yul\":6310:6328   */\n  lt\n    /* \"#utility.yul\":6307:6356   */\n  iszero\n  tag_126\n  jumpi\n    /* \"#utility.yul\":6346:6354   */\n  dup2\n    /* \"#utility.yul\":6331:6354   */\n  swap1\n  pop\n    /* \"#utility.yul\":6307:6356   */\ntag_126:\n    /* \"#utility.yul\":6369:6449   */\n  tag_127\n    /* \"#utility.yul\":6425:6447   */\n  tag_128\n    /* \"#utility.yul\":6443:6446   */\n  dup6\n    /* \"#utility.yul\":6425:6447   */\n  tag_31\n  jump\t// in\ntag_128:\n    /* \"#utility.yul\":6415:6423   */\n  dup4\n    /* \"#utility.yul\":6411:6448   */\n  add\n    /* \"#utility.yul\":6398:6409   */\n  dup3\n    /* \"#utility.yul\":6369:6449   */\n  tag_41\n  jump\t// in\ntag_127:\n    /* \"#utility.yul\":6028:6459   */\n  pop\n  pop\n    /* \"#utility.yul\":6013:6459   */\ntag_123:\n    /* \"#utility.yul\":5923:6466   */\n  pop\n  pop\n  pop\n  jump\t// out\n    /* \"#utility.yul\":6472:6589   */\ntag_43:\n    /* \"#utility.yul\":6526:6534   */\n  0x00\n    /* \"#utility.yul\":6576:6581   */\n  dup3\n    /* \"#utility.yul\":6570:6574   */\n  dup3\n    /* \"#utility.yul\":6566:6582   */\n  shr\n    /* \"#utility.yul\":6545:6582   */\n  swap1\n  pop\n    /* \"#utility.yul\":6472:6589   */\n  swap3\n  swap2\n  pop\n  pop\n  jump\t// out\n    /* \"#utility.yul\":6595:6764   */\ntag_44:\n    /* \"#utility.yul\":6639:6645   */\n  0x00\n    /* \"#utility.yul\":6672:6723   */\n  tag_131\n    /* \"#utility.yul\":6720:6721   */\n  0x00\n    /* \"#utility.yul\":6716:6722   */\n  not\n    /* \"#utility.yul\":6708:6713   */\n  dup5\n    /* \"#utility.yul\":6705:6706   */\n  0x08\n    /* \"#utility.yul\":6701:6714   */\n  mul\n    /* \"#utility.yul\":6672:6723   */\n  tag_43\n  jump\t// in\ntag_131:\n    /* \"#utility.yul\":6668:6724   */\n  not\n    /* \"#utility.yul\":6753:6757   */\n  dup1\n    /* \"#utility.yul\":6747:6751   */\n  dup4\n    /* \"#utility.yul\":6743:6758   */\n  and\n    /* \"#utility.yul\":6733:6758   */\n  swap2\n  pop\n    /* \"#utility.yul\":6646:6764   */\n  pop\n    /* \"#utility.yul\":6595:6764   */\n  swap3\n  swap2\n  pop\n  pop\n  jump\t// out\n    /* \"#utility.yul\":6769:7064   */\ntag_45:\n    /* \"#utility.yul\":6845:6849   */\n  0x00\n    /* \"#utility.yul\":6991:7020   */\n  tag_133\n    /* \"#utility.yul\":7016:7019   */\n  dup4\n    /* \"#utility.yul\":7010:7014   */\n  dup4\n    /* \"#utility.yul\":6991:7020   */\n  tag_44\n  jump\t// in\ntag_133:\n    /* \"#utility.yul\":6983:7020   */\n  swap2\n  pop\n    /* \"#utility.yul\":7053:7056   */\n  dup3\n    /* \"#utility.yul\":7050:7051   */\n  0x02\n    /* \"#utility.yul\":7046:7057   */\n  mul\n    /* \"#utility.yul\":7040:7044   */\n  dup3\n    /* \"#utility.yul\":7037:7058   */\n  or\n    /* \"#utility.yul\":7029:7058   */\n  swap1\n  pop\n    /* \"#utility.yul\":6769:7064   */\n  swap3\n  swap2\n  pop\n  pop\n  jump\t// out\n    /* \"#utility.yul\":7069:8464   */\ntag_7:\n    /* \"#utility.yul\":7186:7223   */\n  tag_135\n    /* \"#utility.yul\":7219:7222   */\n  dup3\n    /* \"#utility.yul\":7186:7223   */\n  tag_27\n  jump\t// in\ntag_135:\n    /* \"#utility.yul\":7288:7306   */\n  0xffffffffffffffff\n    /* \"#utility.yul\":7280:7286   */\n  dup2\n    /* \"#utility.yul\":7277:7307   */\n  gt\n    /* \"#utility.yul\":7274:7330   */\n  iszero\n  tag_136\n  jumpi\n    /* \"#utility.yul\":7310:7328   */\n  tag_137\n  tag_20\n  jump\t// in\ntag_137:\n    /* \"#utility.yul\":7274:7330   */\ntag_136:\n    /* \"#utility.yul\":7354:7392   */\n  tag_138\n    /* \"#utility.yul\":7386:7390   */\n  dup3\n    /* \"#utility.yul\":7380:7391   */\n  sload\n    /* \"#utility.yul\":7354:7392   */\n  tag_29\n  jump\t// in\ntag_138:\n    /* \"#utility.yul\":7439:7506   */\n  tag_139\n    /* \"#utility.yul\":7499:7505   */\n  dup3\n    /* \"#utility.yul\":7491:7497   */\n  dup3\n    /* \"#utility.yul\":7485:7489   */\n  dup6\n    /* \"#utility.yul\":7439:7506   */\n  tag_42\n  jump\t// in\ntag_139:\n    /* \"#utility.yul\":7533:7534   */\n  0x00\n    /* \"#utility.yul\":7557:7561   */\n  0x20\n    /* \"#utility.yul\":7544:7561   */\n  swap1\n  pop\n    /* \"#utility.yul\":7589:7591   */\n  0x1f\n    /* \"#utility.yul\":7581:7587   */\n  dup4\n    /* \"#utility.yul\":7578:7592   */\n  gt\n    /* \"#utility.yul\":7606:7607   */\n  0x01\n    /* \"#utility.yul\":7601:8219   */\n  dup2\n  eq\n  tag_141\n  jumpi\n    /* \"#utility.yul\":8263:8264   */\n  0x00\n    /* \"#utility.yul\":8280:8286   */\n  dup5\n    /* \"#utility.yul\":8277:8354   */\n  iszero\n  tag_142\n  jumpi\n    /* \"#utility.yul\":8329:8338   */\n  dup3\n    /* \"#utility.yul\":8324:8327   */\n  dup8\n    /* \"#utility.yul\":8320:8339   */\n  add\n    /* \"#utility.yul\":8314:8340   */\n  mload\n    /* \"#utility.yul\":8305:8340   */\n  swap1\n  pop\n    /* \"#utility.yul\":8277:8354   */\ntag_142:\n    /* \"#utility.yul\":8380:8447   */\n  tag_143\n    /* \"#utility.yul\":8440:8446   */\n  dup6\n    /* \"#utility.yul\":8433:8438   */\n  dup3\n    /* \"#utility.yul\":8380:8447   */\n  tag_45\n  jump\t// in\ntag_143:\n    /* \"#utility.yul\":8374:8378   */\n  dup7\n    /* \"#utility.yul\":8367:8448   */\n  sstore\n    /* \"#utility.yul\":8236:8458   */\n  pop\n    /* \"#utility.yul\":7571:8458   */\n  jump(tag_140)\n    /* \"#utility.yul\":7601:8219   */\ntag_141:\n    /* \"#utility.yul\":7653:7657   */\n  0x1f\n    /* \"#utility.yul\":7649:7658   */\n  not\n    /* \"#utility.yul\":7641:7647   */\n  dup5\n    /* \"#utility.yul\":7637:7659   */\n  and\n    /* \"#utility.yul\":7687:7724   */\n  tag_144\n    /* \"#utility.yul\":7719:7723   */\n  dup7\n    /* \"#utility.yul\":7687:7724   */\n  tag_30\n  jump\t// in\ntag_144:\n    /* \"#utility.yul\":7746:7747   */\n  0x00\n    /* \"#utility.yul\":7760:7968   */\ntag_145:\n    /* \"#utility.yul\":7774:7781   */\n  dup3\n    /* \"#utility.yul\":7771:7772   */\n  dup2\n    /* \"#utility.yul\":7768:7782   */\n  lt\n    /* \"#utility.yul\":7760:7968   */\n  iszero\n  tag_147\n  jumpi\n    /* \"#utility.yul\":7853:7862   */\n  dup5\n    /* \"#utility.yul\":7848:7851   */\n  dup10\n    /* \"#utility.yul\":7844:7863   */\n  add\n    /* \"#utility.yul\":7838:7864   */\n  mload\n    /* \"#utility.yul\":7830:7836   */\n  dup3\n    /* \"#utility.yul\":7823:7865   */\n  sstore\n    /* \"#utility.yul\":7904:7905   */\n  0x01\n    /* \"#utility.yul\":7896:7902   */\n  dup3\n    /* \"#utility.yul\":7892:7906   */\n  add\n    /* \"#utility.yul\":7882:7906   */\n  swap2\n  pop\n    /* \"#utility.yul\":7951:7953   */\n  0x20\n    /* \"#utility.yul\":7940:7949   */\n  dup6\n    /* \"#utility.yul\":7936:7954   */\n  add\n    /* \"#utility.yul\":7923:7954   */\n  swap5\n  pop\n    /* \"#utility.yul\":7797:7801   */\n  0x20\n    /* \"#utility.yul\":7794:7795   */\n  dup2\n    /* \"#utility.yul\":7790:7802   */\n  add\n    /* \"#utility.yul\":7785:7802   */\n  swap1\n  pop\n    /* \"#utility.yul\":7760:7968   */\n  jump(tag_145)\ntag_147:\n    /* \"#utility.yul\":7996:8002   */\n  dup7\n    /* \"#utility.yul\":7987:7994   */\n  dup4\n    /* \"#utility.yul\":7984:8003   */\n  lt\n    /* \"#utility.yul\":7981:8160   */\n  iszero\n  tag_148\n  jumpi\n    /* \"#utility.yul\":8054:8063   */\n  dup5\n    /* \"#utility.yul\":8049:8052   */\n  dup10\n    /* \"#utility.yul\":8045:8064   */\n  add\n    /* \"#utility.yul\":8039:8065   */\n  mload\n    /* \"#utility.yul\":8097:8145   */\n  tag_149\n    /* \"#utility.yul\":8139:8143   */\n  0x1f\n    /* \"#utility.yul\":8131:8137   */\n  dup10\n    /* \"#utility.yul\":8127:8144   */\n  and\n    /* \"#utility.yul\":8116:8125   */\n  dup3\n    /* \"#utility.yul\":8097:8145   */\n  tag_44\n  jump\t// in\ntag_149:\n    /* \"#utility.yul\":8089:8095   */\n  dup4\n    /* \"#utility.yul\":8082:8146   */\n  sstore\n    /* \"#utility.yul\":8004:8160   */\n  pop\n    /* \"#utility.yul\":7981:8160   */\ntag_148:\n    /* \"#utility.yul\":8206:8207   */\n  0x01\n    /* \"#utility.yul\":8202:8203   */\n  0x02\n    /* \"#utility.yul\":8194:8200   */\n  dup9\n    /* \"#utility.yul\":8190:8204   */\n  mul\n    /* \"#utility.yul\":8186:8208   */\n  add\n    /* \"#utility.yul\":8180:8184   */\n  dup9\n    /* \"#utility.yul\":8173:8209   */\n  sstore\n    /* \"#utility.yul\":7608:8219   */\n  pop\n  pop\n  pop\n    /* \"#utility.yul\":7571:8458   */\ntag_140:\n  pop\n    /* \"#utility.yul\":7161:8464   */\n  pop\n  pop\n  pop\n    /* \"#utility.yul\":7069:8464   */\n  pop\n  pop\n  jump\t// out\n    /* \"#utility.yul\":8470:8650   */\ntag_46:\n    /* \"#utility.yul\":8518:8595   */\n  0x4e487b7100000000000000000000000000000000000000000000000000000000\n    /* \"#utility.yul\":8515:8516   */\n  0x00\n    /* \"#utility.yul\":8508:8596   */\n  mstore\n    /* \"#utility.yul\":8615:8619   */\n  0x11\n    /* \"#utility.yul\":8612:8613   */\n  0x04\n    /* \"#utility.yul\":8605:8620   */\n  mstore\n    /* \"#utility.yul\":8639:8643   */\n  0x24\n    /* \"#utility.yul\":8636:8637   */\n  0x00\n    /* \"#utility.yul\":8629:8644   */\n  revert\n    /* \"#utility.yul\":8656:8758   */\ntag_47:\n    /* \"#utility.yul\":8698:8706   */\n  0x00\n    /* \"#utility.yul\":8745:8750   */\n  dup2\n    /* \"#utility.yul\":8742:8743   */\n  0x01\n    /* \"#utility.yul\":8738:8751   */\n  shr\n    /* \"#utility.yul\":8717:8751   */\n  swap1\n  pop\n    /* \"#utility.yul\":8656:8758   */\n  swap2\n  swap1\n  pop\n  jump\t// out\n    /* \"#utility.yul\":8764:9612   */\ntag_48:\n    /* \"#utility.yul\":8825:8830   */\n  0x00\n    /* \"#utility.yul\":8832:8836   */\n  0x00\n    /* \"#utility.yul\":8856:8862   */\n  dup3\n    /* \"#utility.yul\":8847:8862   */\n  swap2\n  pop\n    /* \"#utility.yul\":8880:8885   */\n  dup4\n    /* \"#utility.yul\":8871:8885   */\n  swap1\n  pop\n    /* \"#utility.yul\":8894:9606   */\ntag_153:\n    /* \"#utility.yul\":8915:8916   */\n  0x01\n    /* \"#utility.yul\":8905:8913   */\n  dup6\n    /* \"#utility.yul\":8902:8917   */\n  gt\n    /* \"#utility.yul\":8894:9606   */\n  iszero\n  tag_155\n  jumpi\n    /* \"#utility.yul\":9010:9014   */\n  dup1\n    /* \"#utility.yul\":9005:9008   */\n  dup7\n    /* \"#utility.yul\":9001:9015   */\n  div\n    /* \"#utility.yul\":8995:8999   */\n  dup2\n    /* \"#utility.yul\":8992:9016   */\n  gt\n    /* \"#utility.yul\":8989:9039   */\n  iszero\n  tag_156\n  jumpi\n    /* \"#utility.yul\":9019:9037   */\n  tag_157\n  tag_46\n  jump\t// in\ntag_157:\n    /* \"#utility.yul\":8989:9039   */\ntag_156:\n    /* \"#utility.yul\":9069:9070   */\n  0x01\n    /* \"#utility.yul\":9059:9067   */\n  dup6\n    /* \"#utility.yul\":9055:9071   */\n  and\n    /* \"#utility.yul\":9052:9503   */\n  iszero\n  tag_158\n  jumpi\n    /* \"#utility.yul\":9484:9488   */\n  dup1\n    /* \"#utility.yul\":9477:9482   */\n  dup3\n    /* \"#utility.yul\":9473:9489   */\n  mul\n    /* \"#utility.yul\":9464:9489   */\n  swap2\n  pop\n    /* \"#utility.yul\":9052:9503   */\ntag_158:\n    /* \"#utility.yul\":9534:9538   */\n  dup1\n    /* \"#utility.yul\":9528:9532   */\n  dup2\n    /* \"#utility.yul\":9524:9539   */\n  mul\n    /* \"#utility.yul\":9516:9539   */\n  swap1\n  pop\n    /* \"#utility.yul\":9564:9596   */\n  tag_159\n    /* \"#utility.yul\":9587:9595   */\n  dup6\n    /* \"#utility.yul\":9564:9596   */\n  tag_47\n  jump\t// in\ntag_159:\n    /* \"#utility.yul\":9552:9596   */\n  swap5\n  pop\n    /* \"#utility.yul\":8894:9606   */\n  jump(tag_153)\ntag_155:\n    /* \"#utility.yul\":8764:9612   */\n  swap5\n  pop\n  swap5\n  swap3\n  pop\n  pop\n  pop\n  jump\t// out\n    /* \"#utility.yul\":9618:10691   */\ntag_49:\n    /* \"#utility.yul\":9672:9677   */\n  0x00\n    /* \"#utility.yul\":9863:9871   */\n  dup3\n    /* \"#utility.yul\":9853:9893   */\n  tag_161\n  jumpi\n    /* \"#utility.yul\":9884:9885   */\n  0x01\n    /* \"#utility.yul\":9875:9885   */\n  swap1\n  pop\n    /* \"#utility.yul\":9886:9891   */\n  jump(tag_160)\n    /* \"#utility.yul\":9853:9893   */\ntag_161:\n    /* \"#utility.yul\":9912:9916   */\n  dup2\n    /* \"#utility.yul\":9902:9938   */\n  tag_162\n  jumpi\n    /* \"#utility.yul\":9929:9930   */\n  0x00\n    /* \"#utility.yul\":9920:9930   */\n  swap1\n  pop\n    /* \"#utility.yul\":9931:9936   */\n  jump(tag_160)\n    /* \"#utility.yul\":9902:9938   */\ntag_162:\n    /* \"#utility.yul\":9998:10002   */\n  dup2\n    /* \"#utility.yul\":10046:10047   */\n  0x01\n    /* \"#utility.yul\":10041:10068   */\n  dup2\n  eq\n  tag_164\n  jumpi\n    /* \"#utility.yul\":10082:10083   */\n  0x02\n    /* \"#utility.yul\":10077:10268   */\n  dup2\n  eq\n  tag_165\n  jumpi\n    /* \"#utility.yul\":9991:10268   */\n  jump(tag_163)\n    /* \"#utility.yul\":10041:10068   */\ntag_164:\n    /* \"#utility.yul\":10059:10060   */\n  0x01\n    /* \"#utility.yul\":10050:10060   */\n  swap2\n  pop\n    /* \"#utility.yul\":10061:10066   */\n  pop\n  jump(tag_160)\n    /* \"#utility.yul\":10077:10268   */\ntag_165:\n    /* \"#utility.yul\":10122:10125   */\n  0xff\n    /* \"#utility.yul\":10112:10120   */\n  dup5\n    /* \"#utility.yul\":10109:10126   */\n  gt\n    /* \"#utility.yul\":10106:10149   */\n  iszero\n  tag_166\n  jumpi\n    /* \"#utility.yul\":10129:10147   */\n  tag_167\n  tag_46\n  jump\t// in\ntag_167:\n    /* \"#utility.yul\":10106:10149   */\ntag_166:\n    /* \"#utility.yul\":10178:10186   */\n  dup4\n    /* \"#utility.yul\":10175:10176   */\n  0x02\n    /* \"#utility.yul\":10171:10187   */\n  exp\n    /* \"#utility.yul\":10162:10187   */\n  swap2\n  pop\n    /* \"#utility.yul\":10213:10216   */\n  dup5\n    /* \"#utility.yul\":10206:10211   */\n  dup3\n    /* \"#utility.yul\":10203:10217   */\n  gt\n    /* \"#utility.yul\":10200:10240   */\n  iszero\n  tag_168\n  jumpi\n    /* \"#utility.yul\":10220:10238   */\n  tag_169\n  tag_46\n  jump\t// in\ntag_169:\n    /* \"#utility.yul\":10200:10240   */\ntag_168:\n    /* \"#utility.yul\":10253:10258   */\n  pop\n  jump(tag_160)\n    /* \"#utility.yul\":9991:10268   */\ntag_163:\n  pop\n    /* \"#utility.yul\":10377:10379   */\n  0x20\n    /* \"#utility.yul\":10367:10375   */\n  dup4\n    /* \"#utility.yul\":10364:10380   */\n  lt\n    /* \"#utility.yul\":10358:10361   */\n  0x0133\n    /* \"#utility.yul\":10352:10356   */\n  dup4\n    /* \"#utility.yul\":10349:10362   */\n  lt\n    /* \"#utility.yul\":10345:10381   */\n  and\n    /* \"#utility.yul\":10327:10329   */\n  0x4e\n    /* \"#utility.yul\":10317:10325   */\n  dup5\n    /* \"#utility.yul\":10314:10330   */\n  lt\n    /* \"#utility.yul\":10309:10311   */\n  0x0b\n    /* \"#utility.yul\":10303:10307   */\n  dup5\n    /* \"#utility.yul\":10300:10312   */\n  lt\n    /* \"#utility.yul\":10296:10331   */\n  and\n    /* \"#utility.yul\":10280:10391   */\n  or\n    /* \"#utility.yul\":10277:10523   */\n  iszero\n  tag_170\n  jumpi\n    /* \"#utility.yul\":10433:10441   */\n  dup3\n    /* \"#utility.yul\":10427:10431   */\n  dup3\n    /* \"#utility.yul\":10423:10442   */\n  exp\n    /* \"#utility.yul\":10414:10442   */\n  swap1\n  pop\n    /* \"#utility.yul\":10468:10471   */\n  dup4\n    /* \"#utility.yul\":10461:10466   */\n  dup2\n    /* \"#utility.yul\":10458:10472   */\n  gt\n    /* \"#utility.yul\":10455:10495   */\n  iszero\n  tag_171\n  jumpi\n    /* \"#utility.yul\":10475:10493   */\n  tag_172\n  tag_46\n  jump\t// in\ntag_172:\n    /* \"#utility.yul\":10455:10495   */\ntag_171:\n    /* \"#utility.yul\":10508:10513   */\n  jump(tag_160)\n    /* \"#utility.yul\":10277:10523   */\ntag_170:\n    /* \"#utility.yul\":10548:10590   */\n  tag_173\n    /* \"#utility.yul\":10586:10589   */\n  dup5\n    /* \"#utility.yul\":10576:10584   */\n  dup5\n    /* \"#utility.yul\":10570:10574   */\n  dup5\n    /* \"#utility.yul\":10567:10568   */\n  0x01\n    /* \"#utility.yul\":10548:10590   */\n  tag_48\n  jump\t// in\ntag_173:\n    /* \"#utility.yul\":10533:10590   */\n  swap3\n  pop\n  swap1\n  pop\n    /* \"#utility.yul\":10622:10626   */\n  dup2\n    /* \"#utility.yul\":10617:10620   */\n  dup5\n    /* \"#utility.yul\":10613:10627   */\n  div\n    /* \"#utility.yul\":10606:10611   */\n  dup2\n    /* \"#utility.yul\":10603:10628   */\n  gt\n    /* \"#utility.yul\":10600:10651   */\n  iszero\n  tag_174\n  jumpi\n    /* \"#utility.yul\":10631:10649   */\n  tag_175\n  tag_46\n  jump\t// in\ntag_175:\n    /* \"#utility.yul\":10600:10651   */\ntag_174:\n    /* \"#utility.yul\":10680:10684   */\n  dup2\n    /* \"#utility.yul\":10673:10678   */\n  dup2\n    /* \"#utility.yul\":10669:10685   */\n  mul\n    /* \"#utility.yul\":10660:10685   */\n  swap1\n  pop\n    /* \"#utility.yul\":9618:10691   */\ntag_160:\n  swap4\n  swap3\n  pop\n  pop\n  pop\n  jump\t// out\n    /* \"#utility.yul\":10697:10783   */\ntag_50:\n    /* \"#utility.yul\":10732:10739   */\n  0x00\n    /* \"#utility.yul\":10772:10776   */\n  0xff\n    /* \"#utility.yul\":10765:10770   */\n  dup3\n    /* \"#utility.yul\":10761:10777   */\n  and\n    /* \"#utility.yul\":10750:10777   */\n  swap1\n  pop\n    /* \"#utility.yul\":10697:10783   */\n  swap2\n  swap1\n  pop\n  jump\t// out\n    /* \"#utility.yul\":10789:11070   */\ntag_10:\n    /* \"#utility.yul\":10847:10852   */\n  0x00\n    /* \"#utility.yul\":10871:10894   */\n  tag_178\n    /* \"#utility.yul\":10889:10893   */\n  dup3\n    /* \"#utility.yul\":10871:10894   */\n  tag_34\n  jump\t// in\ntag_178:\n    /* \"#utility.yul\":10863:10894   */\n  swap2\n  pop\n    /* \"#utility.yul\":10915:10940   */\n  tag_179\n    /* \"#utility.yul\":10931:10939   */\n  dup4\n    /* \"#utility.yul\":10915:10940   */\n  tag_50\n  jump\t// in\ntag_179:\n    /* \"#utility.yul\":10903:10940   */\n  swap3\n  pop\n    /* \"#utility.yul\":10959:11063   */\n  tag_180\n    /* \"#utility.yul\":10996:11062   */\n  0xffffffffffffffffffffffffffffffffffffffffffffffffffffffffffffffff\n    /* \"#utility.yul\":10986:10994   */\n  dup5\n    /* \"#utility.yul\":10980:10984   */\n  dup5\n    /* \"#utility.yul\":10959:11063   */\n  tag_49\n  jump\t// in\ntag_180:\n    /* \"#utility.yul\":10950:11063   */\n  swap1\n  pop\n    /* \"#utility.yul\":10789:11070   */\n  swap3\n  swap2\n  pop\n  pop\n  jump\t// out\n    /* \"#utility.yul\":11076:11486   */\ntag_12:\n    /* \"#utility.yul\":11116:11123   */\n  0x00\n    /* \"#utility.yul\":11139:11159   */\n  tag_182\n    /* \"#utility.yul\":11157:11158   */\n  dup3\n    /* \"#utility.yul\":11139:11159   */\n  tag_34\n  jump\t// in\ntag_182:\n    /* \"#utility.yul\":11134:11159   */\n  swap2\n  pop\n    /* \"#utility.yul\":11173:11193   */\n  tag_183\n    /* \"#utility.yul\":11191:11192   */\n  dup4\n    /* \"#utility.yul\":11173:11193   */\n  tag_34\n  jump\t// in\ntag_183:\n    /* \"#utility.yul\":11168:11193   */\n  swap3\n  pop\n    /* \"#utility.yul\":11228:11229   */\n  dup3\n    /* \"#utility.yul\":11225:11226   */\n  dup3\n    /* \"#utility.yul\":11221:11230   */\n  mul\n    /* \"#utility.yul\":11250:11280   */\n  tag_184\n    /* \"#utility.yul\":11268:11279   */\n  dup2\n    /* \"#utility.yul\":11250:11280   */\n  tag_34\n  jump\t// in\ntag_184:\n    /* \"#utility.yul\":11239:11280   */\n  swap2\n  pop\n    /* \"#utility.yul\":11429:11430   */\n  dup3\n    /* \"#utility.yul\":11420:11427   */\n  dup3\n    /* \"#utility.yul\":11416:11431   */\n  div\n    /* \"#utility.yul\":11413:11414   */\n  dup5\n    /* \"#utility.yul\":11410:11432   */\n  eq\n    /* \"#utility.yul\":11390:11391   */\n  dup4\n    /* \"#utility.yul\":11383:11392   */\n  iszero\n    /* \"#utility.yul\":11363:11446   */\n  or\n    /* \"#utility.yul\":11340:11479   */\n  tag_185\n  jumpi\n    /* \"#utility.yul\":11459:11477   */\n  tag_186\n  tag_46\n  jump\t// in\ntag_186:\n    /* \"#utility.yul\":11340:11479   */\ntag_185:\n    /* \"#utility.yul\":11124:11486   */\n  pop\n    /* \"#utility.yul\":11076:11486   */\n  swap3\n  swap2\n  pop\n  pop\n  jump\t// out\n    /* \"Smart ContractStandarts/ERC20.sol\":64:1963  contract ERC20{... */\ntag_13:\n  dataSize(sub_0)\n  dup1\n  dataOffset(sub_0)\n  0x00\n  codecopy\n  0x00\n  return\nstop\n\nsub_0: assembly {\n        /* \"Smart ContractStandarts/ERC20.sol\":64:1963  contract ERC20{... */\n      mstore(0x40, 0x80)\n      callvalue\n      dup1\n      iszero\n      tag_1\n      jumpi\n      revert(0x00, 0x00)\n    tag_1:\n      pop\n      jumpi(tag_2, lt(calldatasize, 0x04))\n      shr(0xe0, calldataload(0x00))\n      dup1\n      0x313ce567\n      gt\n      tag_12\n      jumpi\n      dup1\n      0x313ce567\n      eq\n      tag_7\n      jumpi\n      dup1\n      0x55b6ed5c\n      eq\n      tag_8\n      jumpi\n      dup1\n      0x70a08231\n      eq\n      tag_9\n      jumpi\n      dup1\n      0x95d89b41\n      eq\n      tag_10\n      jumpi\n      dup1\n      0xa9059cbb\n      eq\n      tag_11\n      jumpi\n      jump(tag_2)\n    tag_12:\n      dup1\n      0x06fdde03\n      eq\n      tag_3\n      jumpi\n      dup1\n      0x095ea7b3\n      eq\n      tag_4\n      jumpi\n      dup1\n      0x18160ddd\n      eq\n      tag_5\n      jumpi\n      dup1\n      0x23b872dd\n      eq\n      tag_6\n      jumpi\n    tag_2:\n      revert(0x00, 0x00)\n        /* \"Smart ContractStandarts/ERC20.sol\":85:103  string public name */\n    tag_3:\n      tag_13\n      tag_14\n      jump\t// in\n    tag_13:\n      mload(0x40)\n      tag_15\n      swap2\n      swap1\n      tag_16\n      jump\t// in\n    tag_15:\n      mload(0x40)\n      dup1\n      swap2\n      sub\n      swap1\n      return\n        /* \"Smart ContractStandarts/ERC20.sol\":1716:1958  function approve(... */\n    tag_4:\n      tag_17\n      0x04\n      dup1\n      calldatasize\n      sub\n      dup2\n      add\n      swap1\n      tag_18\n      swap2\n      swap1\n      tag_19\n      jump\t// in\n    tag_18:\n      tag_20\n      jump\t// in\n    tag_17:\n      mload(0x40)\n      tag_21\n      swap2\n      swap1\n      tag_22\n      jump\t// in\n    tag_21:\n      mload(0x40)\n      dup1\n      swap2\n      sub\n      swap1\n      return\n        /* \"Smart ContractStandarts/ERC20.sol\":223:249  uint256 public totalSupply */\n    tag_5:\n      tag_23\n      tag_24\n      jump\t// in\n    tag_23:\n      mload(0x40)\n      tag_25\n      swap2\n      swap1\n      tag_26\n      jump\t// in\n    tag_25:\n      mload(0x40)\n      dup1\n      swap2\n      sub\n      swap1\n      return\n        /* \"Smart ContractStandarts/ERC20.sol\":1172:1708  function transferFrom(... */\n    tag_6:\n      tag_27\n      0x04\n      dup1\n      calldatasize\n      sub\n      dup2\n      add\n      swap1\n      tag_28\n      swap2\n      swap1\n      tag_29\n      jump\t// in\n    tag_28:\n      tag_30\n      jump\t// in\n    tag_27:\n      mload(0x40)\n      tag_31\n      swap2\n      swap1\n      tag_22\n      jump\t// in\n    tag_31:\n      mload(0x40)\n      dup1\n      swap2\n      sub\n      swap1\n      return\n        /* \"Smart ContractStandarts/ERC20.sol\":137:162  uint8 public decimals = 3 */\n    tag_7:\n      tag_32\n      tag_33\n      jump\t// in\n    tag_32:\n      mload(0x40)\n      tag_34\n      swap2\n      swap1\n      tag_35\n      jump\t// in\n    tag_34:\n      mload(0x40)\n      dup1\n      swap2\n      sub\n      swap1\n      return\n        /* \"Smart ContractStandarts/ERC20.sol\":307:369  mapping(address=> mapping(address=>uint256)) public allowances */\n    tag_8:\n      tag_36\n      0x04\n      dup1\n      calldatasize\n      sub\n      dup2\n      add\n      swap1\n      tag_37\n      swap2\n      swap1\n      tag_38\n      jump\t// in\n    tag_37:\n      tag_39\n      jump\t// in\n    tag_36:\n      mload(0x40)\n      tag_40\n      swap2\n      swap1\n      tag_26\n      jump\t// in\n    tag_40:\n      mload(0x40)\n      dup1\n      swap2\n      sub\n      swap1\n      return\n        /* \"Smart ContractStandarts/ERC20.sol\":256:300  mapping(address => uint256) public balanceOf */\n    tag_9:\n      tag_41\n      0x04\n      dup1\n      calldatasize\n      sub\n      dup2\n      add\n      swap1\n      tag_42\n      swap2\n      swap1\n      tag_43\n      jump\t// in\n    tag_42:\n      tag_44\n      jump\t// in\n    tag_41:\n      mload(0x40)\n      tag_45\n      swap2\n      swap1\n      tag_26\n      jump\t// in\n    tag_45:\n      mload(0x40)\n      dup1\n      swap2\n      sub\n      swap1\n      return\n        /* \"Smart ContractStandarts/ERC20.sol\":110:130  string public symbol */\n    tag_10:\n      tag_46\n      tag_47\n      jump\t// in\n    tag_46:\n      mload(0x40)\n      tag_48\n      swap2\n      swap1\n      tag_16\n      jump\t// in\n    tag_48:\n      mload(0x40)\n      dup1\n      swap2\n      sub\n      swap1\n      return\n        /* \"Smart ContractStandarts/ERC20.sol\":802:1162  function transfer(... */\n    tag_11:\n      tag_49\n      0x04\n      dup1\n      calldatasize\n      sub\n      dup2\n      add\n      swap1\n      tag_50\n      swap2\n      swap1\n      tag_19\n      jump\t// in\n    tag_50:\n      tag_51\n      jump\t// in\n    tag_49:\n      mload(0x40)\n      tag_52\n      swap2\n      swap1\n      tag_22\n      jump\t// in\n    tag_52:\n      mload(0x40)\n      dup1\n      swap2\n      sub\n      swap1\n      return\n        /* \"Smart ContractStandarts/ERC20.sol\":85:103  string public name */\n    tag_14:\n      0x00\n      dup1\n      sload\n      tag_53\n      swap1\n      tag_54\n      jump\t// in\n    tag_53:\n      dup1\n      0x1f\n      add\n      0x20\n      dup1\n      swap2\n      div\n      mul\n      0x20\n      add\n      mload(0x40)\n      swap1\n      dup2\n      add\n      0x40\n      mstore\n      dup1\n      swap3\n      swap2\n      swap1\n      dup2\n      dup2\n      mstore\n      0x20\n      add\n      dup3\n      dup1\n      sload\n      tag_55\n      swap1\n      tag_54\n      jump\t// in\n    tag_55:\n      dup1\n      iszero\n      tag_56\n      jumpi\n      dup1\n      0x1f\n      lt\n      tag_57\n      jumpi\n      0x0100\n      dup1\n      dup4\n      sload\n      div\n      mul\n      dup4\n      mstore\n      swap2\n      0x20\n      add\n      swap2\n      jump(tag_56)\n    tag_57:\n      dup3\n      add\n      swap2\n      swap1\n      0x00\n      mstore\n      keccak256(0x00, 0x20)\n      swap1\n    tag_58:\n      dup2\n      sload\n      dup2\n      mstore\n      swap1\n      0x01\n      add\n      swap1\n      0x20\n      add\n      dup1\n      dup4\n      gt\n      tag_58\n      jumpi\n      dup3\n      swap1\n      sub\n      0x1f\n      and\n      dup3\n      add\n      swap2\n    tag_56:\n      pop\n      pop\n      pop\n      pop\n      pop\n      dup2\n      jump\t// out\n        /* \"Smart ContractStandarts/ERC20.sol\":1716:1958  function approve(... */\n    tag_20:\n        /* \"Smart ContractStandarts/ERC20.sol\":1808:1820  bool success */\n      0x00\n        /* \"Smart ContractStandarts/ERC20.sol\":1868:1874  _value */\n      dup2\n        /* \"Smart ContractStandarts/ERC20.sol\":1833:1843  allowances */\n      0x05\n        /* \"Smart ContractStandarts/ERC20.sol\":1833:1855  allowances[msg.sender] */\n      0x00\n        /* \"Smart ContractStandarts/ERC20.sol\":1844:1854  msg.sender */\n      caller\n        /* \"Smart ContractStandarts/ERC20.sol\":1833:1855  allowances[msg.sender] */\n      0xffffffffffffffffffffffffffffffffffffffff\n      and\n      0xffffffffffffffffffffffffffffffffffffffff\n      and\n      dup2\n      mstore\n      0x20\n      add\n      swap1\n      dup2\n      mstore\n      0x20\n      add\n      0x00\n      keccak256\n        /* \"Smart ContractStandarts/ERC20.sol\":1833:1865  allowances[msg.sender][_spender] */\n      0x00\n        /* \"Smart ContractStandarts/ERC20.sol\":1856:1864  _spender */\n      dup6\n        /* \"Smart ContractStandarts/ERC20.sol\":1833:1865  allowances[msg.sender][_spender] */\n      0xffffffffffffffffffffffffffffffffffffffff\n      and\n      0xffffffffffffffffffffffffffffffffffffffff\n      and\n      dup2\n      mstore\n      0x20\n      add\n      swap1\n      dup2\n      mstore\n      0x20\n      add\n      0x00\n      keccak256\n        /* \"Smart ContractStandarts/ERC20.sol\":1833:1874  allowances[msg.sender][_spender] = _value */\n      dup2\n      swap1\n      sstore\n      pop\n        /* \"Smart ContractStandarts/ERC20.sol\":1911:1919  _spender */\n      dup3\n        /* \"Smart ContractStandarts/ERC20.sol\":1890:1928  Approval(msg.sender, _spender, _value) */\n      0xffffffffffffffffffffffffffffffffffffffff\n      and\n        /* \"Smart ContractStandarts/ERC20.sol\":1899:1909  msg.sender */\n      caller\n        /* \"Smart ContractStandarts/ERC20.sol\":1890:1928  Approval(msg.sender, _spender, _value) */\n      0xffffffffffffffffffffffffffffffffffffffff\n      and\n      0x8c5be1e5ebec7d5bd14f71427d1e84f3dd0314c0f7b2291e5b200ac8c7c3b925\n        /* \"Smart ContractStandarts/ERC20.sol\":1921:1927  _value */\n      dup5\n        /* \"Smart ContractStandarts/ERC20.sol\":1890:1928  Approval(msg.sender, _spender, _value) */\n      mload(0x40)\n      tag_60\n      swap2\n      swap1\n      tag_26\n      jump\t// in\n    tag_60:\n      mload(0x40)\n      dup1\n      swap2\n      sub\n      swap1\n      log3\n        /* \"Smart ContractStandarts/ERC20.sol\":1946:1950  true */\n      0x01\n        /* \"Smart ContractStandarts/ERC20.sol\":1939:1950  return true */\n      swap1\n      pop\n        /* \"Smart ContractStandarts/ERC20.sol\":1716:1958  function approve(... */\n      swap3\n      swap2\n      pop\n      pop\n      jump\t// out\n        /* \"Smart ContractStandarts/ERC20.sol\":223:249  uint256 public totalSupply */\n    tag_24:\n      sload(0x03)\n      dup2\n      jump\t// out\n        /* \"Smart ContractStandarts/ERC20.sol\":1172:1708  function transferFrom(... */\n    tag_30:\n        /* \"Smart ContractStandarts/ERC20.sol\":1288:1300  bool success */\n      0x00\n        /* \"Smart ContractStandarts/ERC20.sol\":1347:1353  _value */\n      dup2\n        /* \"Smart ContractStandarts/ERC20.sol\":1316:1326  allowances */\n      0x05\n        /* \"Smart ContractStandarts/ERC20.sol\":1316:1333  allowances[_from] */\n      0x00\n        /* \"Smart ContractStandarts/ERC20.sol\":1327:1332  _from */\n      dup7\n        /* \"Smart ContractStandarts/ERC20.sol\":1316:1333  allowances[_from] */\n      0xffffffffffffffffffffffffffffffffffffffff\n      and\n      0xffffffffffffffffffffffffffffffffffffffff\n      and\n      dup2\n      mstore\n      0x20\n      add\n      swap1\n      dup2\n      mstore\n      0x20\n      add\n      0x00\n      keccak256\n        /* \"Smart ContractStandarts/ERC20.sol\":1316:1345  allowances[_from][msg.sender] */\n      0x00\n        /* \"Smart ContractStandarts/ERC20.sol\":1334:1344  msg.sender */\n      caller\n        /* \"Smart ContractStandarts/ERC20.sol\":1316:1345  allowances[_from][msg.sender] */\n      0xffffffffffffffffffffffffffffffffffffffff\n      and\n      0xffffffffffffffffffffffffffffffffffffffff\n      and\n      dup2\n      mstore\n      0x20\n      add\n      swap1\n      dup2\n      mstore\n      0x20\n      add\n      0x00\n      keccak256\n      sload\n        /* \"Smart ContractStandarts/ERC20.sol\":1316:1353  allowances[_from][msg.sender] <_value */\n      lt\n        /* \"Smart ContractStandarts/ERC20.sol\":1313:1414  if(allowances[_from][msg.sender] <_value) {... */\n      iszero\n      tag_62\n      jumpi\n        /* \"Smart ContractStandarts/ERC20.sol\":1370:1402  revert (\"Insufficient approval\") */\n      mload(0x40)\n      0x08c379a000000000000000000000000000000000000000000000000000000000\n      dup2\n      mstore\n      0x04\n      add\n      tag_63\n      swap1\n      tag_64\n      jump\t// in\n    tag_63:\n      mload(0x40)\n      dup1\n      swap2\n      sub\n      swap1\n      revert\n        /* \"Smart ContractStandarts/ERC20.sol\":1313:1414  if(allowances[_from][msg.sender] <_value) {... */\n    tag_62:\n        /* \"Smart ContractStandarts/ERC20.sol\":1456:1462  _value */\n      dup2\n        /* \"Smart ContractStandarts/ERC20.sol\":1424:1434  allowances */\n      0x05\n        /* \"Smart ContractStandarts/ERC20.sol\":1424:1441  allowances[_from] */\n      0x00\n        /* \"Smart ContractStandarts/ERC20.sol\":1435:1440  _from */\n      dup7\n        /* \"Smart ContractStandarts/ERC20.sol\":1424:1441  allowances[_from] */\n      0xffffffffffffffffffffffffffffffffffffffff\n      and\n      0xffffffffffffffffffffffffffffffffffffffff\n      and\n      dup2\n      mstore\n      0x20\n      add\n      swap1\n      dup2\n      mstore\n      0x20\n      add\n      0x00\n      keccak256\n        /* \"Smart ContractStandarts/ERC20.sol\":1424:1453  allowances[_from][msg.sender] */\n      0x00\n        /* \"Smart ContractStandarts/ERC20.sol\":1442:1452  msg.sender */\n      caller\n        /* \"Smart ContractStandarts/ERC20.sol\":1424:1453  allowances[_from][msg.sender] */\n      0xffffffffffffffffffffffffffffffffffffffff\n      and\n      0xffffffffffffffffffffffffffffffffffffffff\n      and\n      dup2\n      mstore\n      0x20\n      add\n      swap1\n      dup2\n      mstore\n      0x20\n      add\n      0x00\n      keccak256\n      0x00\n        /* \"Smart ContractStandarts/ERC20.sol\":1424:1462  allowances[_from][msg.sender] -=_value */\n      dup3\n      dup3\n      sload\n      tag_65\n      swap2\n      swap1\n      tag_66\n      jump\t// in\n    tag_65:\n      swap3\n      pop\n      pop\n      dup2\n      swap1\n      sstore\n      pop\n        /* \"Smart ContractStandarts/ERC20.sol\":1495:1501  _value */\n      dup2\n        /* \"Smart ContractStandarts/ERC20.sol\":1478:1487  balanceOf */\n      0x04\n        /* \"Smart ContractStandarts/ERC20.sol\":1478:1494  balanceOf[_from] */\n      0x00\n        /* \"Smart ContractStandarts/ERC20.sol\":1488:1493  _from */\n      dup7\n        /* \"Smart ContractStandarts/ERC20.sol\":1478:1494  balanceOf[_from] */\n      0xffffffffffffffffffffffffffffffffffffffff\n      and\n      0xffffffffffffffffffffffffffffffffffffffff\n      and\n      dup2\n      mstore\n      0x20\n      add\n      swap1\n      dup2\n      mstore\n      0x20\n      add\n      0x00\n      keccak256\n      sload\n        /* \"Smart ContractStandarts/ERC20.sol\":1478:1501  balanceOf[_from]<_value */\n      lt\n        /* \"Smart ContractStandarts/ERC20.sol\":1475:1559  if(balanceOf[_from]<_value) {... */\n      iszero\n      tag_67\n      jumpi\n        /* \"Smart ContractStandarts/ERC20.sol\":1518:1547  revert(\"Unsufficient amount\") */\n      mload(0x40)\n      0x08c379a000000000000000000000000000000000000000000000000000000000\n      dup2\n      mstore\n      0x04\n      add\n      tag_68\n      swap1\n      tag_69\n      jump\t// in\n    tag_68:\n      mload(0x40)\n      dup1\n      swap2\n      sub\n      swap1\n      revert\n        /* \"Smart ContractStandarts/ERC20.sol\":1475:1559  if(balanceOf[_from]<_value) {... */\n    tag_67:\n        /* \"Smart ContractStandarts/ERC20.sol\":1590:1596  _value */\n      dup2\n        /* \"Smart ContractStandarts/ERC20.sol\":1571:1580  balanceOf */\n      0x04\n        /* \"Smart ContractStandarts/ERC20.sol\":1571:1587  balanceOf[_from] */\n      0x00\n        /* \"Smart ContractStandarts/ERC20.sol\":1581:1586  _from */\n      dup7\n        /* \"Smart ContractStandarts/ERC20.sol\":1571:1587  balanceOf[_from] */\n      0xffffffffffffffffffffffffffffffffffffffff\n      and\n      0xffffffffffffffffffffffffffffffffffffffff\n      and\n      dup2\n      mstore\n      0x20\n      add\n      swap1\n      dup2\n      mstore\n      0x20\n      add\n      0x00\n      keccak256\n      0x00\n        /* \"Smart ContractStandarts/ERC20.sol\":1571:1596  balanceOf[_from] -=_value */\n      dup3\n      dup3\n      sload\n      tag_70\n      swap2\n      swap1\n      tag_66\n      jump\t// in\n    tag_70:\n      swap3\n      pop\n      pop\n      dup2\n      swap1\n      sstore\n      pop\n        /* \"Smart ContractStandarts/ERC20.sol\":1624:1630  _value */\n      dup2\n        /* \"Smart ContractStandarts/ERC20.sol\":1607:1616  balanceOf */\n      0x04\n        /* \"Smart ContractStandarts/ERC20.sol\":1607:1621  balanceOf[_to] */\n      0x00\n        /* \"Smart ContractStandarts/ERC20.sol\":1617:1620  _to */\n      dup6\n        /* \"Smart ContractStandarts/ERC20.sol\":1607:1621  balanceOf[_to] */\n      0xffffffffffffffffffffffffffffffffffffffff\n      and\n      0xffffffffffffffffffffffffffffffffffffffff\n      and\n      dup2\n      mstore\n      0x20\n      add\n      swap1\n      dup2\n      mstore\n      0x20\n      add\n      0x00\n      keccak256\n      0x00\n        /* \"Smart ContractStandarts/ERC20.sol\":1607:1630  balanceOf[_to] +=_value */\n      dup3\n      dup3\n      sload\n      tag_71\n      swap2\n      swap1\n      tag_72\n      jump\t// in\n    tag_71:\n      swap3\n      pop\n      pop\n      dup2\n      swap1\n      sstore\n      pop\n        /* \"Smart ContractStandarts/ERC20.sol\":1664:1667  _to */\n      dup3\n        /* \"Smart ContractStandarts/ERC20.sol\":1648:1676  Transfer(_from, _to, _value) */\n      0xffffffffffffffffffffffffffffffffffffffff\n      and\n        /* \"Smart ContractStandarts/ERC20.sol\":1657:1662  _from */\n      dup5\n        /* \"Smart ContractStandarts/ERC20.sol\":1648:1676  Transfer(_from, _to, _value) */\n      0xffffffffffffffffffffffffffffffffffffffff\n      and\n      0xddf252ad1be2c89b69c2b068fc378daa952ba7f163c4a11628f55a4df523b3ef\n        /* \"Smart ContractStandarts/ERC20.sol\":1669:1675  _value */\n      dup5\n        /* \"Smart ContractStandarts/ERC20.sol\":1648:1676  Transfer(_from, _to, _value) */\n      mload(0x40)\n      tag_73\n      swap2\n      swap1\n      tag_26\n      jump\t// in\n    tag_73:\n      mload(0x40)\n      dup1\n      swap2\n      sub\n      swap1\n      log3\n        /* \"Smart ContractStandarts/ERC20.sol\":1696:1700  true */\n      0x01\n        /* \"Smart ContractStandarts/ERC20.sol\":1689:1700  return true */\n      swap1\n      pop\n        /* \"Smart ContractStandarts/ERC20.sol\":1172:1708  function transferFrom(... */\n      swap4\n      swap3\n      pop\n      pop\n      pop\n      jump\t// out\n        /* \"Smart ContractStandarts/ERC20.sol\":137:162  uint8 public decimals = 3 */\n    tag_33:\n      0x02\n      0x00\n      swap1\n      sload\n      swap1\n      0x0100\n      exp\n      swap1\n      div\n      0xff\n      and\n      dup2\n      jump\t// out\n        /* \"Smart ContractStandarts/ERC20.sol\":307:369  mapping(address=> mapping(address=>uint256)) public allowances */\n    tag_39:\n      mstore(0x20, 0x05)\n      dup2\n      0x00\n      mstore\n      mstore(0x20, keccak256(0x00, 0x40))\n      dup1\n      0x00\n      mstore\n      keccak256(0x00, 0x40)\n      0x00\n      swap2\n      pop\n      swap2\n      pop\n      pop\n      sload\n      dup2\n      jump\t// out\n        /* \"Smart ContractStandarts/ERC20.sol\":256:300  mapping(address => uint256) public balanceOf */\n    tag_44:\n      mstore(0x20, 0x04)\n      dup1\n      0x00\n      mstore\n      keccak256(0x00, 0x40)\n      0x00\n      swap2\n      pop\n      swap1\n      pop\n      sload\n      dup2\n      jump\t// out\n        /* \"Smart ContractStandarts/ERC20.sol\":110:130  string public symbol */\n    tag_47:\n      0x01\n      dup1\n      sload\n      tag_74\n      swap1\n      tag_54\n      jump\t// in\n    tag_74:\n      dup1\n      0x1f\n      add\n      0x20\n      dup1\n      swap2\n      div\n      mul\n      0x20\n      add\n      mload(0x40)\n      swap1\n      dup2\n      add\n      0x40\n      mstore\n      dup1\n      swap3\n      swap2\n      swap1\n      dup2\n      dup2\n      mstore\n      0x20\n      add\n      dup3\n      dup1\n      sload\n      tag_75\n      swap1\n      tag_54\n      jump\t// in\n    tag_75:\n      dup1\n      iszero\n      tag_76\n      jumpi\n      dup1\n      0x1f\n      lt\n      tag_77\n      jumpi\n      0x0100\n      dup1\n      dup4\n      sload\n      div\n      mul\n      dup4\n      mstore\n      swap2\n      0x20\n      add\n      swap2\n      jump(tag_76)\n    tag_77:\n      dup3\n      add\n      swap2\n      swap1\n      0x00\n      mstore\n      keccak256(0x00, 0x20)\n      swap1\n    tag_78:\n      dup2\n      sload\n      dup2\n      mstore\n      swap1\n      0x01\n      add\n      swap1\n      0x20\n      add\n      dup1\n      dup4\n      gt\n      tag_78\n      jumpi\n      dup3\n      swap1\n      sub\n      0x1f\n      and\n      dup3\n      add\n      swap2\n    tag_76:\n      pop\n      pop\n      pop\n      pop\n      pop\n      dup2\n      jump\t// out\n        /* \"Smart ContractStandarts/ERC20.sol\":802:1162  function transfer(... */\n    tag_51:\n        /* \"Smart ContractStandarts/ERC20.sol\":890:902  bool success */\n      0x00\n        /* \"Smart ContractStandarts/ERC20.sol\":940:946  _value */\n      dup2\n        /* \"Smart ContractStandarts/ERC20.sol\":918:927  balanceOf */\n      0x04\n        /* \"Smart ContractStandarts/ERC20.sol\":918:939  balanceOf[msg.sender] */\n      0x00\n        /* \"Smart ContractStandarts/ERC20.sol\":928:938  msg.sender */\n      caller\n        /* \"Smart ContractStandarts/ERC20.sol\":918:939  balanceOf[msg.sender] */\n      0xffffffffffffffffffffffffffffffffffffffff\n      and\n      0xffffffffffffffffffffffffffffffffffffffff\n      and\n      dup2\n      mstore\n      0x20\n      add\n      swap1\n      dup2\n      mstore\n      0x20\n      add\n      0x00\n      keccak256\n      sload\n        /* \"Smart ContractStandarts/ERC20.sol\":918:946  balanceOf[msg.sender]<_value */\n      lt\n        /* \"Smart ContractStandarts/ERC20.sol\":915:1004  if(balanceOf[msg.sender]<_value) {... */\n      iszero\n      tag_80\n      jumpi\n        /* \"Smart ContractStandarts/ERC20.sol\":963:992  revert(\"Unsufficient amount\") */\n      mload(0x40)\n      0x08c379a000000000000000000000000000000000000000000000000000000000\n      dup2\n      mstore\n      0x04\n      add\n      tag_81\n      swap1\n      tag_69\n      jump\t// in\n    tag_81:\n      mload(0x40)\n      dup1\n      swap2\n      sub\n      swap1\n      revert\n        /* \"Smart ContractStandarts/ERC20.sol\":915:1004  if(balanceOf[msg.sender]<_value) {... */\n    tag_80:\n        /* \"Smart ContractStandarts/ERC20.sol\":1040:1046  _value */\n      dup2\n        /* \"Smart ContractStandarts/ERC20.sol\":1016:1025  balanceOf */\n      0x04\n        /* \"Smart ContractStandarts/ERC20.sol\":1016:1037  balanceOf[msg.sender] */\n      0x00\n        /* \"Smart ContractStandarts/ERC20.sol\":1026:1036  msg.sender */\n      caller\n        /* \"Smart ContractStandarts/ERC20.sol\":1016:1037  balanceOf[msg.sender] */\n      0xffffffffffffffffffffffffffffffffffffffff\n      and\n      0xffffffffffffffffffffffffffffffffffffffff\n      and\n      dup2\n      mstore\n      0x20\n      add\n      swap1\n      dup2\n      mstore\n      0x20\n      add\n      0x00\n      keccak256\n      0x00\n        /* \"Smart ContractStandarts/ERC20.sol\":1016:1046  balanceOf[msg.sender] -=_value */\n      dup3\n      dup3\n      sload\n      tag_82\n      swap2\n      swap1\n      tag_66\n      jump\t// in\n    tag_82:\n      swap3\n      pop\n      pop\n      dup2\n      swap1\n      sstore\n      pop\n        /* \"Smart ContractStandarts/ERC20.sol\":1074:1080  _value */\n      dup2\n        /* \"Smart ContractStandarts/ERC20.sol\":1057:1066  balanceOf */\n      0x04\n        /* \"Smart ContractStandarts/ERC20.sol\":1057:1071  balanceOf[_to] */\n      0x00\n        /* \"Smart ContractStandarts/ERC20.sol\":1067:1070  _to */\n      dup6\n        /* \"Smart ContractStandarts/ERC20.sol\":1057:1071  balanceOf[_to] */\n      0xffffffffffffffffffffffffffffffffffffffff\n      and\n      0xffffffffffffffffffffffffffffffffffffffff\n      and\n      dup2\n      mstore\n      0x20\n      add\n      swap1\n      dup2\n      mstore\n      0x20\n      add\n      0x00\n      keccak256\n      0x00\n        /* \"Smart ContractStandarts/ERC20.sol\":1057:1080  balanceOf[_to] +=_value */\n      dup3\n      dup3\n      sload\n      tag_83\n      swap2\n      swap1\n      tag_72\n      jump\t// in\n    tag_83:\n      swap3\n      pop\n      pop\n      dup2\n      swap1\n      sstore\n      pop\n        /* \"Smart ContractStandarts/ERC20.sol\":1119:1122  _to */\n      dup3\n        /* \"Smart ContractStandarts/ERC20.sol\":1098:1131  Transfer(msg.sender, _to, _value) */\n      0xffffffffffffffffffffffffffffffffffffffff\n      and\n        /* \"Smart ContractStandarts/ERC20.sol\":1107:1117  msg.sender */\n      caller\n        /* \"Smart ContractStandarts/ERC20.sol\":1098:1131  Transfer(msg.sender, _to, _value) */\n      0xffffffffffffffffffffffffffffffffffffffff\n      and\n      0xddf252ad1be2c89b69c2b068fc378daa952ba7f163c4a11628f55a4df523b3ef\n        /* \"Smart ContractStandarts/ERC20.sol\":1124:1130  _value */\n      dup5\n        /* \"Smart ContractStandarts/ERC20.sol\":1098:1131  Transfer(msg.sender, _to, _value) */\n      mload(0x40)\n      tag_84\n      swap2\n      swap1\n      tag_26\n      jump\t// in\n    tag_84:\n      mload(0x40)\n      dup1\n      swap2\n      sub\n      swap1\n      log3\n        /* \"Smart ContractStandarts/ERC20.sol\":1150:1154  true */\n      0x01\n        /* \"Smart ContractStandarts/ERC20.sol\":1142:1154  return  true */\n      swap1\n      pop\n        /* \"Smart ContractStandarts/ERC20.sol\":802:1162  function transfer(... */\n      swap3\n      swap2\n      pop\n      pop\n      jump\t// out\n        /* \"#utility.yul\":7:106   */\n    tag_85:\n        /* \"#utility.yul\":59:65   */\n      0x00\n        /* \"#utility.yul\":93:98   */\n      dup2\n        /* \"#utility.yul\":87:99   */\n      mload\n        /* \"#utility.yul\":77:99   */\n      swap1\n      pop\n        /* \"#utility.yul\":7:106   */\n      swap2\n      swap1\n      pop\n      jump\t// out\n        /* \"#utility.yul\":112:281   */\n    tag_86:\n        /* \"#utility.yul\":196:207   */\n      0x00\n        /* \"#utility.yul\":230:236   */\n      dup3\n        /* \"#utility.yul\":225:228   */\n      dup3\n        /* \"#utility.yul\":218:237   */\n      mstore\n        /* \"#utility.yul\":270:274   */\n      0x20\n        /* \"#utility.yul\":265:268   */\n      dup3\n        /* \"#utility.yul\":261:275   */\n      add\n        /* \"#utility.yul\":246:275   */\n      swap1\n      pop\n        /* \"#utility.yul\":112:281   */\n      swap3\n      swap2\n      pop\n      pop\n      jump\t// out\n        /* \"#utility.yul\":287:426   */\n    tag_87:\n        /* \"#utility.yul\":376:382   */\n      dup3\n        /* \"#utility.yul\":371:374   */\n      dup2\n        /* \"#utility.yul\":366:369   */\n      dup4\n        /* \"#utility.yul\":360:383   */\n      mcopy\n        /* \"#utility.yul\":417:418   */\n      0x00\n        /* \"#utility.yul\":408:414   */\n      dup4\n        /* \"#utility.yul\":403:406   */\n      dup4\n        /* \"#utility.yul\":399:415   */\n      add\n        /* \"#utility.yul\":392:419   */\n      mstore\n        /* \"#utility.yul\":287:426   */\n      pop\n      pop\n      pop\n      jump\t// out\n        /* \"#utility.yul\":432:534   */\n    tag_88:\n        /* \"#utility.yul\":473:479   */\n      0x00\n        /* \"#utility.yul\":524:526   */\n      0x1f\n        /* \"#utility.yul\":520:527   */\n      not\n        /* \"#utility.yul\":515:517   */\n      0x1f\n        /* \"#utility.yul\":508:513   */\n      dup4\n        /* \"#utility.yul\":504:518   */\n      add\n        /* \"#utility.yul\":500:528   */\n      and\n        /* \"#utility.yul\":490:528   */\n      swap1\n      pop\n        /* \"#utility.yul\":432:534   */\n      swap2\n      swap1\n      pop\n      jump\t// out\n        /* \"#utility.yul\":540:917   */\n    tag_89:\n        /* \"#utility.yul\":628:631   */\n      0x00\n        /* \"#utility.yul\":656:695   */\n      tag_117\n        /* \"#utility.yul\":689:694   */\n      dup3\n        /* \"#utility.yul\":656:695   */\n      tag_85\n      jump\t// in\n    tag_117:\n        /* \"#utility.yul\":711:782   */\n      tag_118\n        /* \"#utility.yul\":775:781   */\n      dup2\n        /* \"#utility.yul\":770:773   */\n      dup6\n        /* \"#utility.yul\":711:782   */\n      tag_86\n      jump\t// in\n    tag_118:\n        /* \"#utility.yul\":704:782   */\n      swap4\n      pop\n        /* \"#utility.yul\":791:856   */\n      tag_119\n        /* \"#utility.yul\":849:855   */\n      dup2\n        /* \"#utility.yul\":844:847   */\n      dup6\n        /* \"#utility.yul\":837:841   */\n      0x20\n        /* \"#utility.yul\":830:835   */\n      dup7\n        /* \"#utility.yul\":826:842   */\n      add\n        /* \"#utility.yul\":791:856   */\n      tag_87\n      jump\t// in\n    tag_119:\n        /* \"#utility.yul\":881:910   */\n      tag_120\n        /* \"#utility.yul\":903:909   */\n      dup2\n        /* \"#utility.yul\":881:910   */\n      tag_88\n      jump\t// in\n    tag_120:\n        /* \"#utility.yul\":876:879   */\n      dup5\n        /* \"#utility.yul\":872:911   */\n      add\n        /* \"#utility.yul\":865:911   */\n      swap2\n      pop\n        /* \"#utility.yul\":632:917   */\n      pop\n        /* \"#utility.yul\":540:917   */\n      swap3\n      swap2\n      pop\n      pop\n      jump\t// out\n        /* \"#utility.yul\":923:1236   */\n    tag_16:\n        /* \"#utility.yul\":1036:1040   */\n      0x00\n        /* \"#utility.yul\":1074:1076   */\n      0x20\n        /* \"#utility.yul\":1063:1072   */\n      dup3\n        /* \"#utility.yul\":1059:1077   */\n      add\n        /* \"#utility.yul\":1051:1077   */\n      swap1\n      pop\n        /* \"#utility.yul\":1123:1132   */\n      dup2\n        /* \"#utility.yul\":1117:1121   */\n      dup2\n        /* \"#utility.yul\":1113:1133   */\n      sub\n        /* \"#utility.yul\":1109:1110   */\n      0x00\n        /* \"#utility.yul\":1098:1107   */\n      dup4\n        /* \"#utility.yul\":1094:1111   */\n      add\n        /* \"#utility.yul\":1087:1134   */\n      mstore\n        /* \"#utility.yul\":1151:1229   */\n      tag_122\n        /* \"#utility.yul\":1224:1228   */\n      dup2\n        /* \"#utility.yul\":1215:1221   */\n      dup5\n        /* \"#utility.yul\":1151:1229   */\n      tag_89\n      jump\t// in\n    tag_122:\n        /* \"#utility.yul\":1143:1229   */\n      swap1\n      pop\n        /* \"#utility.yul\":923:1236   */\n      swap3\n      swap2\n      pop\n      pop\n      jump\t// out\n        /* \"#utility.yul\":1323:1440   */\n    tag_91:\n        /* \"#utility.yul\":1432:1433   */\n      0x00\n        /* \"#utility.yul\":1429:1430   */\n      0x00\n        /* \"#utility.yul\":1422:1434   */\n      revert\n        /* \"#utility.yul\":1569:1695   */\n    tag_93:\n        /* \"#utility.yul\":1606:1613   */\n      0x00\n        /* \"#utility.yul\":1646:1688   */\n      0xffffffffffffffffffffffffffffffffffffffff\n        /* \"#utility.yul\":1639:1644   */\n      dup3\n        /* \"#utility.yul\":1635:1689   */\n      and\n        /* \"#utility.yul\":1624:1689   */\n      swap1\n      pop\n        /* \"#utility.yul\":1569:1695   */\n      swap2\n      swap1\n      pop\n      jump\t// out\n        /* \"#utility.yul\":1701:1797   */\n    tag_94:\n        /* \"#utility.yul\":1738:1745   */\n      0x00\n        /* \"#utility.yul\":1767:1791   */\n      tag_128\n        /* \"#utility.yul\":1785:1790   */\n      dup3\n        /* \"#utility.yul\":1767:1791   */\n      tag_93\n      jump\t// in\n    tag_128:\n        /* \"#utility.yul\":1756:1791   */\n      swap1\n      pop\n        /* \"#utility.yul\":1701:1797   */\n      swap2\n      swap1\n      pop\n      jump\t// out\n        /* \"#utility.yul\":1803:1925   */\n    tag_95:\n        /* \"#utility.yul\":1876:1900   */\n      tag_130\n        /* \"#utility.yul\":1894:1899   */\n      dup2\n        /* \"#utility.yul\":1876:1900   */\n      tag_94\n      jump\t// in\n    tag_130:\n        /* \"#utility.yul\":1869:1874   */\n      dup2\n        /* \"#utility.yul\":1866:1901   */\n      eq\n        /* \"#utility.yul\":1856:1919   */\n      tag_131\n      jumpi\n        /* \"#utility.yul\":1915:1916   */\n      0x00\n        /* \"#utility.yul\":1912:1913   */\n      0x00\n        /* \"#utility.yul\":1905:1917   */\n      revert\n        /* \"#utility.yul\":1856:1919   */\n    tag_131:\n        /* \"#utility.yul\":1803:1925   */\n      pop\n      jump\t// out\n        /* \"#utility.yul\":1931:2070   */\n    tag_96:\n        /* \"#utility.yul\":1977:1982   */\n      0x00\n        /* \"#utility.yul\":2015:2021   */\n      dup2\n        /* \"#utility.yul\":2002:2022   */\n      calldataload\n        /* \"#utility.yul\":1993:2022   */\n      swap1\n      pop\n        /* \"#utility.yul\":2031:2064   */\n      tag_133\n        /* \"#utility.yul\":2058:2063   */\n      dup2\n        /* \"#utility.yul\":2031:2064   */\n      tag_95\n      jump\t// in\n    tag_133:\n        /* \"#utility.yul\":1931:2070   */\n      swap3\n      swap2\n      pop\n      pop\n      jump\t// out\n        /* \"#utility.yul\":2076:2153   */\n    tag_97:\n        /* \"#utility.yul\":2113:2120   */\n      0x00\n        /* \"#utility.yul\":2142:2147   */\n      dup2\n        /* \"#utility.yul\":2131:2147   */\n      swap1\n      pop\n        /* \"#utility.yul\":2076:2153   */\n      swap2\n      swap1\n      pop\n      jump\t// out\n        /* \"#utility.yul\":2159:2281   */\n    tag_98:\n        /* \"#utility.yul\":2232:2256   */\n      tag_136\n        /* \"#utility.yul\":2250:2255   */\n      dup2\n        /* \"#utility.yul\":2232:2256   */\n      tag_97\n      jump\t// in\n    tag_136:\n        /* \"#utility.yul\":2225:2230   */\n      dup2\n        /* \"#utility.yul\":2222:2257   */\n      eq\n        /* \"#utility.yul\":2212:2275   */\n      tag_137\n      jumpi\n        /* \"#utility.yul\":2271:2272   */\n      0x00\n        /* \"#utility.yul\":2268:2269   */\n      0x00\n        /* \"#utility.yul\":2261:2273   */\n      revert\n        /* \"#utility.yul\":2212:2275   */\n    tag_137:\n        /* \"#utility.yul\":2159:2281   */\n      pop\n      jump\t// out\n        /* \"#utility.yul\":2287:2426   */\n    tag_99:\n        /* \"#utility.yul\":2333:2338   */\n      0x00\n        /* \"#utility.yul\":2371:2377   */\n      dup2\n        /* \"#utility.yul\":2358:2378   */\n      calldataload\n        /* \"#utility.yul\":2349:2378   */\n      swap1\n      pop\n        /* \"#utility.yul\":2387:2420   */\n      tag_139\n        /* \"#utility.yul\":2414:2419   */\n      dup2\n        /* \"#utility.yul\":2387:2420   */\n      tag_98\n      jump\t// in\n    tag_139:\n        /* \"#utility.yul\":2287:2426   */\n      swap3\n      swap2\n      pop\n      pop\n      jump\t// out\n        /* \"#utility.yul\":2432:2906   */\n    tag_19:\n        /* \"#utility.yul\":2500:2506   */\n      0x00\n        /* \"#utility.yul\":2508:2514   */\n      0x00\n        /* \"#utility.yul\":2557:2559   */\n      0x40\n        /* \"#utility.yul\":2545:2554   */\n      dup4\n        /* \"#utility.yul\":2536:2543   */\n      dup6\n        /* \"#utility.yul\":2532:2555   */\n      sub\n        /* \"#utility.yul\":2528:2560   */\n      slt\n        /* \"#utility.yul\":2525:2644   */\n      iszero\n      tag_141\n      jumpi\n        /* \"#utility.yul\":2563:2642   */\n      tag_142\n      tag_91\n      jump\t// in\n    tag_142:\n        /* \"#utility.yul\":2525:2644   */\n    tag_141:\n        /* \"#utility.yul\":2683:2684   */\n      0x00\n        /* \"#utility.yul\":2708:2761   */\n      tag_143\n        /* \"#utility.yul\":2753:2760   */\n      dup6\n        /* \"#utility.yul\":2744:2750   */\n      dup3\n        /* \"#utility.yul\":2733:2742   */\n      dup7\n        /* \"#utility.yul\":2729:2751   */\n      add\n        /* \"#utility.yul\":2708:2761   */\n      tag_96\n      jump\t// in\n    tag_143:\n        /* \"#utility.yul\":2698:2761   */\n      swap3\n      pop\n        /* \"#utility.yul\":2654:2771   */\n      pop\n        /* \"#utility.yul\":2810:2812   */\n      0x20\n        /* \"#utility.yul\":2836:2889   */\n      tag_144\n        /* \"#utility.yul\":2881:2888   */\n      dup6\n        /* \"#utility.yul\":2872:2878   */\n      dup3\n        /* \"#utility.yul\":2861:2870   */\n      dup7\n        /* \"#utility.yul\":2857:2879   */\n      add\n        /* \"#utility.yul\":2836:2889   */\n      tag_99\n      jump\t// in\n    tag_144:\n        /* \"#utility.yul\":2826:2889   */\n      swap2\n      pop\n        /* \"#utility.yul\":2781:2899   */\n      pop\n        /* \"#utility.yul\":2432:2906   */\n      swap3\n      pop\n      swap3\n      swap1\n      pop\n      jump\t// out\n        /* \"#utility.yul\":2912:3002   */\n    tag_100:\n        /* \"#utility.yul\":2946:2953   */\n      0x00\n        /* \"#utility.yul\":2989:2994   */\n      dup2\n        /* \"#utility.yul\":2982:2995   */\n      iszero\n        /* \"#utility.yul\":2975:2996   */\n      iszero\n        /* \"#utility.yul\":2964:2996   */\n      swap1\n      pop\n        /* \"#utility.yul\":2912:3002   */\n      swap2\n      swap1\n      pop\n      jump\t// out\n        /* \"#utility.yul\":3008:3117   */\n    tag_101:\n        /* \"#utility.yul\":3089:3110   */\n      tag_147\n        /* \"#utility.yul\":3104:3109   */\n      dup2\n        /* \"#utility.yul\":3089:3110   */\n      tag_100\n      jump\t// in\n    tag_147:\n        /* \"#utility.yul\":3084:3087   */\n      dup3\n        /* \"#utility.yul\":3077:3111   */\n      mstore\n        /* \"#utility.yul\":3008:3117   */\n      pop\n      pop\n      jump\t// out\n        /* \"#utility.yul\":3123:3333   */\n    tag_22:\n        /* \"#utility.yul\":3210:3214   */\n      0x00\n        /* \"#utility.yul\":3248:3250   */\n      0x20\n        /* \"#utility.yul\":3237:3246   */\n      dup3\n        /* \"#utility.yul\":3233:3251   */\n      add\n        /* \"#utility.yul\":3225:3251   */\n      swap1\n      pop\n        /* \"#utility.yul\":3261:3326   */\n      tag_149\n        /* \"#utility.yul\":3323:3324   */\n      0x00\n        /* \"#utility.yul\":3312:3321   */\n      dup4\n        /* \"#utility.yul\":3308:3325   */\n      add\n        /* \"#utility.yul\":3299:3305   */\n      dup5\n        /* \"#utility.yul\":3261:3326   */\n      tag_101\n      jump\t// in\n    tag_149:\n        /* \"#utility.yul\":3123:3333   */\n      swap3\n      swap2\n      pop\n      pop\n      jump\t// out\n        /* \"#utility.yul\":3339:3457   */\n    tag_102:\n        /* \"#utility.yul\":3426:3450   */\n      tag_151\n        /* \"#utility.yul\":3444:3449   */\n      dup2\n        /* \"#utility.yul\":3426:3450   */\n      tag_97\n      jump\t// in\n    tag_151:\n        /* \"#utility.yul\":3421:3424   */\n      dup3\n        /* \"#utility.yul\":3414:3451   */\n      mstore\n        /* \"#utility.yul\":3339:3457   */\n      pop\n      pop\n      jump\t// out\n        /* \"#utility.yul\":3463:3685   */\n    tag_26:\n        /* \"#utility.yul\":3556:3560   */\n      0x00\n        /* \"#utility.yul\":3594:3596   */\n      0x20\n        /* \"#utility.yul\":3583:3592   */\n      dup3\n        /* \"#utility.yul\":3579:3597   */\n      add\n        /* \"#utility.yul\":3571:3597   */\n      swap1\n      pop\n        /* \"#utility.yul\":3607:3678   */\n      tag_153\n        /* \"#utility.yul\":3675:3676   */\n      0x00\n        /* \"#utility.yul\":3664:3673   */\n      dup4\n        /* \"#utility.yul\":3660:3677   */\n      add\n        /* \"#utility.yul\":3651:3657   */\n      dup5\n        /* \"#utility.yul\":3607:3678   */\n      tag_102\n      jump\t// in\n    tag_153:\n        /* \"#utility.yul\":3463:3685   */\n      swap3\n      swap2\n      pop\n      pop\n      jump\t// out\n        /* \"#utility.yul\":3691:4310   */\n    tag_29:\n        /* \"#utility.yul\":3768:3774   */\n      0x00\n        /* \"#utility.yul\":3776:3782   */\n      0x00\n        /* \"#utility.yul\":3784:3790   */\n      0x00\n        /* \"#utility.yul\":3833:3835   */\n      0x60\n        /* \"#utility.yul\":3821:3830   */\n      dup5\n        /* \"#utility.yul\":3812:3819   */\n      dup7\n        /* \"#utility.yul\":3808:3831   */\n      sub\n        /* \"#utility.yul\":3804:3836   */\n      slt\n        /* \"#utility.yul\":3801:3920   */\n      iszero\n      tag_155\n      jumpi\n        /* \"#utility.yul\":3839:3918   */\n      tag_156\n      tag_91\n      jump\t// in\n    tag_156:\n        /* \"#utility.yul\":3801:3920   */\n    tag_155:\n        /* \"#utility.yul\":3959:3960   */\n      0x00\n        /* \"#utility.yul\":3984:4037   */\n      tag_157\n        /* \"#utility.yul\":4029:4036   */\n      dup7\n        /* \"#utility.yul\":4020:4026   */\n      dup3\n        /* \"#utility.yul\":4009:4018   */\n      dup8\n        /* \"#utility.yul\":4005:4027   */\n      add\n        /* \"#utility.yul\":3984:4037   */\n      tag_96\n      jump\t// in\n    tag_157:\n        /* \"#utility.yul\":3974:4037   */\n      swap4\n      pop\n        /* \"#utility.yul\":3930:4047   */\n      pop\n        /* \"#utility.yul\":4086:4088   */\n      0x20\n        /* \"#utility.yul\":4112:4165   */\n      tag_158\n        /* \"#utility.yul\":4157:4164   */\n      dup7\n        /* \"#utility.yul\":4148:4154   */\n      dup3\n        /* \"#utility.yul\":4137:4146   */\n      dup8\n        /* \"#utility.yul\":4133:4155   */\n      add\n        /* \"#utility.yul\":4112:4165   */\n      tag_96\n      jump\t// in\n    tag_158:\n        /* \"#utility.yul\":4102:4165   */\n      swap3\n      pop\n        /* \"#utility.yul\":4057:4175   */\n      pop\n        /* \"#utility.yul\":4214:4216   */\n      0x40\n        /* \"#utility.yul\":4240:4293   */\n      tag_159\n        /* \"#utility.yul\":4285:4292   */\n      dup7\n        /* \"#utility.yul\":4276:4282   */\n      dup3\n        /* \"#utility.yul\":4265:4274   */\n      dup8\n        /* \"#utility.yul\":4261:4283   */\n      add\n        /* \"#utility.yul\":4240:4293   */\n      tag_99\n      jump\t// in\n    tag_159:\n        /* \"#utility.yul\":4230:4293   */\n      swap2\n      pop\n        /* \"#utility.yul\":4185:4303   */\n      pop\n        /* \"#utility.yul\":3691:4310   */\n      swap3\n      pop\n      swap3\n      pop\n      swap3\n      jump\t// out\n        /* \"#utility.yul\":4316:4402   */\n    tag_103:\n        /* \"#utility.yul\":4351:4358   */\n      0x00\n        /* \"#utility.yul\":4391:4395   */\n      0xff\n        /* \"#utility.yul\":4384:4389   */\n      dup3\n        /* \"#utility.yul\":4380:4396   */\n      and\n        /* \"#utility.yul\":4369:4396   */\n      swap1\n      pop\n        /* \"#utility.yul\":4316:4402   */\n      swap2\n      swap1\n      pop\n      jump\t// out\n        /* \"#utility.yul\":4408:4520   */\n    tag_104:\n        /* \"#utility.yul\":4491:4513   */\n      tag_162\n        /* \"#utility.yul\":4507:4512   */\n      dup2\n        /* \"#utility.yul\":4491:4513   */\n      tag_103\n      jump\t// in\n    tag_162:\n        /* \"#utility.yul\":4486:4489   */\n      dup3\n        /* \"#utility.yul\":4479:4514   */\n      mstore\n        /* \"#utility.yul\":4408:4520   */\n      pop\n      pop\n      jump\t// out\n        /* \"#utility.yul\":4526:4740   */\n    tag_35:\n        /* \"#utility.yul\":4615:4619   */\n      0x00\n        /* \"#utility.yul\":4653:4655   */\n      0x20\n        /* \"#utility.yul\":4642:4651   */\n      dup3\n        /* \"#utility.yul\":4638:4656   */\n      add\n        /* \"#utility.yul\":4630:4656   */\n      swap1\n      pop\n        /* \"#utility.yul\":4666:4733   */\n      tag_164\n        /* \"#utility.yul\":4730:4731   */\n      0x00\n        /* \"#utility.yul\":4719:4728   */\n      dup4\n        /* \"#utility.yul\":4715:4732   */\n      add\n        /* \"#utility.yul\":4706:4712   */\n      dup5\n        /* \"#utility.yul\":4666:4733   */\n      tag_104\n      jump\t// in\n    tag_164:\n        /* \"#utility.yul\":4526:4740   */\n      swap3\n      swap2\n      pop\n      pop\n      jump\t// out\n        /* \"#utility.yul\":4746:5220   */\n    tag_38:\n        /* \"#utility.yul\":4814:4820   */\n      0x00\n        /* \"#utility.yul\":4822:4828   */\n      0x00\n        /* \"#utility.yul\":4871:4873   */\n      0x40\n        /* \"#utility.yul\":4859:4868   */\n      dup4\n        /* \"#utility.yul\":4850:4857   */\n      dup6\n        /* \"#utility.yul\":4846:4869   */\n      sub\n        /* \"#utility.yul\":4842:4874   */\n      slt\n        /* \"#utility.yul\":4839:4958   */\n      iszero\n      tag_166\n      jumpi\n        /* \"#utility.yul\":4877:4956   */\n      tag_167\n      tag_91\n      jump\t// in\n    tag_167:\n        /* \"#utility.yul\":4839:4958   */\n    tag_166:\n        /* \"#utility.yul\":4997:4998   */\n      0x00\n        /* \"#utility.yul\":5022:5075   */\n      tag_168\n        /* \"#utility.yul\":5067:5074   */\n      dup6\n        /* \"#utility.yul\":5058:5064   */\n      dup3\n        /* \"#utility.yul\":5047:5056   */\n      dup7\n        /* \"#utility.yul\":5043:5065   */\n      add\n        /* \"#utility.yul\":5022:5075   */\n      tag_96\n      jump\t// in\n    tag_168:\n        /* \"#utility.yul\":5012:5075   */\n      swap3\n      pop\n        /* \"#utility.yul\":4968:5085   */\n      pop\n        /* \"#utility.yul\":5124:5126   */\n      0x20\n        /* \"#utility.yul\":5150:5203   */\n      tag_169\n        /* \"#utility.yul\":5195:5202   */\n      dup6\n        /* \"#utility.yul\":5186:5192   */\n      dup3\n        /* \"#utility.yul\":5175:5184   */\n      dup7\n        /* \"#utility.yul\":5171:5193   */\n      add\n        /* \"#utility.yul\":5150:5203   */\n      tag_96\n      jump\t// in\n    tag_169:\n        /* \"#utility.yul\":5140:5203   */\n      swap2\n      pop\n        /* \"#utility.yul\":5095:5213   */\n      pop\n        /* \"#utility.yul\":4746:5220   */\n      swap3\n      pop\n      swap3\n      swap1\n      pop\n      jump\t// out\n        /* \"#utility.yul\":5226:5555   */\n    tag_43:\n        /* \"#utility.yul\":5285:5291   */\n      0x00\n        /* \"#utility.yul\":5334:5336   */\n      0x20\n        /* \"#utility.yul\":5322:5331   */\n      dup3\n        /* \"#utility.yul\":5313:5320   */\n      dup5\n        /* \"#utility.yul\":5309:5332   */\n      sub\n        /* \"#utility.yul\":5305:5337   */\n      slt\n        /* \"#utility.yul\":5302:5421   */\n      iszero\n      tag_171\n      jumpi\n        /* \"#utility.yul\":5340:5419   */\n      tag_172\n      tag_91\n      jump\t// in\n    tag_172:\n        /* \"#utility.yul\":5302:5421   */\n    tag_171:\n        /* \"#utility.yul\":5460:5461   */\n      0x00\n        /* \"#utility.yul\":5485:5538   */\n      tag_173\n        /* \"#utility.yul\":5530:5537   */\n      dup5\n        /* \"#utility.yul\":5521:5527   */\n      dup3\n        /* \"#utility.yul\":5510:5519   */\n      dup6\n        /* \"#utility.yul\":5506:5528   */\n      add\n        /* \"#utility.yul\":5485:5538   */\n      tag_96\n      jump\t// in\n    tag_173:\n        /* \"#utility.yul\":5475:5538   */\n      swap2\n      pop\n        /* \"#utility.yul\":5431:5548   */\n      pop\n        /* \"#utility.yul\":5226:5555   */\n      swap3\n      swap2\n      pop\n      pop\n      jump\t// out\n        /* \"#utility.yul\":5561:5741   */\n    tag_105:\n        /* \"#utility.yul\":5609:5686   */\n      0x4e487b7100000000000000000000000000000000000000000000000000000000\n        /* \"#utility.yul\":5606:5607   */\n      0x00\n        /* \"#utility.yul\":5599:5687   */\n      mstore\n        /* \"#utility.yul\":5706:5710   */\n      0x22\n        /* \"#utility.yul\":5703:5704   */\n      0x04\n        /* \"#utility.yul\":5696:5711   */\n      mstore\n        /* \"#utility.yul\":5730:5734   */\n      0x24\n        /* \"#utility.yul\":5727:5728   */\n      0x00\n        /* \"#utility.yul\":5720:5735   */\n      revert\n        /* \"#utility.yul\":5747:6067   */\n    tag_54:\n        /* \"#utility.yul\":5791:5797   */\n      0x00\n        /* \"#utility.yul\":5828:5829   */\n      0x02\n        /* \"#utility.yul\":5822:5826   */\n      dup3\n        /* \"#utility.yul\":5818:5830   */\n      div\n        /* \"#utility.yul\":5808:5830   */\n      swap1\n      pop\n        /* \"#utility.yul\":5875:5876   */\n      0x01\n        /* \"#utility.yul\":5869:5873   */\n      dup3\n        /* \"#utility.yul\":5865:5877   */\n      and\n        /* \"#utility.yul\":5896:5914   */\n      dup1\n        /* \"#utility.yul\":5886:5967   */\n      tag_176\n      jumpi\n        /* \"#utility.yul\":5952:5956   */\n      0x7f\n        /* \"#utility.yul\":5944:5950   */\n      dup3\n        /* \"#utility.yul\":5940:5957   */\n      and\n        /* \"#utility.yul\":5930:5957   */\n      swap2\n      pop\n        /* \"#utility.yul\":5886:5967   */\n    tag_176:\n        /* \"#utility.yul\":6014:6016   */\n      0x20\n        /* \"#utility.yul\":6006:6012   */\n      dup3\n        /* \"#utility.yul\":6003:6017   */\n      lt\n        /* \"#utility.yul\":5983:6001   */\n      dup2\n        /* \"#utility.yul\":5980:6018   */\n      sub\n        /* \"#utility.yul\":5977:6061   */\n      tag_177\n      jumpi\n        /* \"#utility.yul\":6033:6051   */\n      tag_178\n      tag_105\n      jump\t// in\n    tag_178:\n        /* \"#utility.yul\":5977:6061   */\n    tag_177:\n        /* \"#utility.yul\":5798:6067   */\n      pop\n        /* \"#utility.yul\":5747:6067   */\n      swap2\n      swap1\n      pop\n      jump\t// out\n        /* \"#utility.yul\":6073:6244   */\n    tag_106:\n        /* \"#utility.yul\":6213:6236   */\n      0x496e73756666696369656e7420617070726f76616c0000000000000000000000\n        /* \"#utility.yul\":6209:6210   */\n      0x00\n        /* \"#utility.yul\":6201:6207   */\n      dup3\n        /* \"#utility.yul\":6197:6211   */\n      add\n        /* \"#utility.yul\":6190:6237   */\n      mstore\n        /* \"#utility.yul\":6073:6244   */\n      pop\n      jump\t// out\n        /* \"#utility.yul\":6250:6616   */\n    tag_107:\n        /* \"#utility.yul\":6392:6395   */\n      0x00\n        /* \"#utility.yul\":6413:6480   */\n      tag_181\n        /* \"#utility.yul\":6477:6479   */\n      0x15\n        /* \"#utility.yul\":6472:6475   */\n      dup4\n        /* \"#utility.yul\":6413:6480   */\n      tag_86\n      jump\t// in\n    tag_181:\n        /* \"#utility.yul\":6406:6480   */\n      swap2\n      pop\n        /* \"#utility.yul\":6489:6582   */\n      tag_182\n        /* \"#utility.yul\":6578:6581   */\n      dup3\n        /* \"#utility.yul\":6489:6582   */\n      tag_106\n      jump\t// in\n    tag_182:\n        /* \"#utility.yul\":6607:6609   */\n      0x20\n        /* \"#utility.yul\":6602:6605   */\n      dup3\n        /* \"#utility.yul\":6598:6610   */\n      add\n        /* \"#utility.yul\":6591:6610   */\n      swap1\n      pop\n        /* \"#utility.yul\":6250:6616   */\n      swap2\n      swap1\n      pop\n      jump\t// out\n        /* \"#utility.yul\":6622:7041   */\n    tag_64:\n        /* \"#utility.yul\":6788:6792   */\n      0x00\n        /* \"#utility.yul\":6826:6828   */\n      0x20\n        /* \"#utility.yul\":6815:6824   */\n      dup3\n        /* \"#utility.yul\":6811:6829   */\n      add\n        /* \"#utility.yul\":6803:6829   */\n      swap1\n      pop\n        /* \"#utility.yul\":6875:6884   */\n      dup2\n        /* \"#utility.yul\":6869:6873   */\n      dup2\n        /* \"#utility.yul\":6865:6885   */\n      sub\n        /* \"#utility.yul\":6861:6862   */\n      0x00\n        /* \"#utility.yul\":6850:6859   */\n      dup4\n        /* \"#utility.yul\":6846:6863   */\n      add\n        /* \"#utility.yul\":6839:6886   */\n      mstore\n        /* \"#utility.yul\":6903:7034   */\n      tag_184\n        /* \"#utility.yul\":7029:7033   */\n      dup2\n        /* \"#utility.yul\":6903:7034   */\n      tag_107\n      jump\t// in\n    tag_184:\n        /* \"#utility.yul\":6895:7034   */\n      swap1\n      pop\n        /* \"#utility.yul\":6622:7041   */\n      swap2\n      swap1\n      pop\n      jump\t// out\n        /* \"#utility.yul\":7047:7227   */\n    tag_108:\n        /* \"#utility.yul\":7095:7172   */\n      0x4e487b7100000000000000000000000000000000000000000000000000000000\n        /* \"#utility.yul\":7092:7093   */\n      0x00\n        /* \"#utility.yul\":7085:7173   */\n      mstore\n        /* \"#utility.yul\":7192:7196   */\n      0x11\n        /* \"#utility.yul\":7189:7190   */\n      0x04\n        /* \"#utility.yul\":7182:7197   */\n      mstore\n        /* \"#utility.yul\":7216:7220   */\n      0x24\n        /* \"#utility.yul\":7213:7214   */\n      0x00\n        /* \"#utility.yul\":7206:7221   */\n      revert\n        /* \"#utility.yul\":7233:7427   */\n    tag_66:\n        /* \"#utility.yul\":7273:7277   */\n      0x00\n        /* \"#utility.yul\":7293:7313   */\n      tag_187\n        /* \"#utility.yul\":7311:7312   */\n      dup3\n        /* \"#utility.yul\":7293:7313   */\n      tag_97\n      jump\t// in\n    tag_187:\n        /* \"#utility.yul\":7288:7313   */\n      swap2\n      pop\n        /* \"#utility.yul\":7327:7347   */\n      tag_188\n        /* \"#utility.yul\":7345:7346   */\n      dup4\n        /* \"#utility.yul\":7327:7347   */\n      tag_97\n      jump\t// in\n    tag_188:\n        /* \"#utility.yul\":7322:7347   */\n      swap3\n      pop\n        /* \"#utility.yul\":7371:7372   */\n      dup3\n        /* \"#utility.yul\":7368:7369   */\n      dup3\n        /* \"#utility.yul\":7364:7373   */\n      sub\n        /* \"#utility.yul\":7356:7373   */\n      swap1\n      pop\n        /* \"#utility.yul\":7395:7396   */\n      dup2\n        /* \"#utility.yul\":7389:7393   */\n      dup2\n        /* \"#utility.yul\":7386:7397   */\n      gt\n        /* \"#utility.yul\":7383:7420   */\n      iszero\n      tag_189\n      jumpi\n        /* \"#utility.yul\":7400:7418   */\n      tag_190\n      tag_108\n      jump\t// in\n    tag_190:\n        /* \"#utility.yul\":7383:7420   */\n    tag_189:\n        /* \"#utility.yul\":7233:7427   */\n      swap3\n      swap2\n      pop\n      pop\n      jump\t// out\n        /* \"#utility.yul\":7433:7602   */\n    tag_109:\n        /* \"#utility.yul\":7573:7594   */\n      0x556e73756666696369656e7420616d6f756e7400000000000000000000000000\n        /* \"#utility.yul\":7569:7570   */\n      0x00\n        /* \"#utility.yul\":7561:7567   */\n      dup3\n        /* \"#utility.yul\":7557:7571   */\n      add\n        /* \"#utility.yul\":7550:7595   */\n      mstore\n        /* \"#utility.yul\":7433:7602   */\n      pop\n      jump\t// out\n        /* \"#utility.yul\":7608:7974   */\n    tag_110:\n        /* \"#utility.yul\":7750:7753   */\n      0x00\n        /* \"#utility.yul\":7771:7838   */\n      tag_193\n        /* \"#utility.yul\":7835:7837   */\n      0x13\n        /* \"#utility.yul\":7830:7833   */\n      dup4\n        /* \"#utility.yul\":7771:7838   */\n      tag_86\n      jump\t// in\n    tag_193:\n        /* \"#utility.yul\":7764:7838   */\n      swap2\n      pop\n        /* \"#utility.yul\":7847:7940   */\n      tag_194\n        /* \"#utility.yul\":7936:7939   */\n      dup3\n        /* \"#utility.yul\":7847:7940   */\n      tag_109\n      jump\t// in\n    tag_194:\n        /* \"#utility.yul\":7965:7967   */\n      0x20\n        /* \"#utility.yul\":7960:7963   */\n      dup3\n        /* \"#utility.yul\":7956:7968   */\n      add\n        /* \"#utility.yul\":7949:7968   */\n      swap1\n      pop\n        /* \"#utility.yul\":7608:7974   */\n      swap2\n      swap1\n      pop\n      jump\t// out\n        /* \"#utility.yul\":7980:8399   */\n    tag_69:\n        /* \"#utility.yul\":8146:8150   */\n      0x00\n        /* \"#utility.yul\":8184:8186   */\n      0x20\n        /* \"#utility.yul\":8173:8182   */\n      dup3\n        /* \"#utility.yul\":8169:8187   */\n      add\n        /* \"#utility.yul\":8161:8187   */\n      swap1\n      pop\n        /* \"#utility.yul\":8233:8242   */\n      dup2\n        /* \"#utility.yul\":8227:8231   */\n      dup2\n        /* \"#utility.yul\":8223:8243   */\n      sub\n        /* \"#utility.yul\":8219:8220   */\n      0x00\n        /* \"#utility.yul\":8208:8217   */\n      dup4\n        /* \"#utility.yul\":8204:8221   */\n      add\n        /* \"#utility.yul\":8197:8244   */\n      mstore\n        /* \"#utility.yul\":8261:8392   */\n      tag_196\n        /* \"#utility.yul\":8387:8391   */\n      dup2\n        /* \"#utility.yul\":8261:8392   */\n      tag_110\n      jump\t// in\n    tag_196:\n        /* \"#utility.yul\":8253:8392   */\n      swap1\n      pop\n        /* \"#utility.yul\":7980:8399   */\n      swap2\n      swap1\n      pop\n      jump\t// out\n        /* \"#utility.yul\":8405:8596   */\n    tag_72:\n        /* \"#utility.yul\":8445:8448   */\n      0x00\n        /* \"#utility.yul\":8464:8484   */\n      tag_198\n        /* \"#utility.yul\":8482:8483   */\n      dup3\n        /* \"#utility.yul\":8464:8484   */\n      tag_97\n      jump\t// in\n    tag_198:\n        /* \"#utility.yul\":8459:8484   */\n      swap2\n      pop\n        /* \"#utility.yul\":8498:8518   */\n      tag_199\n        /* \"#utility.yul\":8516:8517   */\n      dup4\n        /* \"#utility.yul\":8498:8518   */\n      tag_97\n      jump\t// in\n    tag_199:\n        /* \"#utility.yul\":8493:8518   */\n      swap3\n      pop\n        /* \"#utility.yul\":8541:8542   */\n      dup3\n        /* \"#utility.yul\":8538:8539   */\n      dup3\n        /* \"#utility.yul\":8534:8543   */\n      add\n        /* \"#utility.yul\":8527:8543   */\n      swap1\n      pop\n        /* \"#utility.yul\":8562:8565   */\n      dup1\n        /* \"#utility.yul\":8559:8560   */\n      dup3\n        /* \"#utility.yul\":8556:8566   */\n      gt\n        /* \"#utility.yul\":8553:8589   */\n      iszero\n      tag_200\n      jumpi\n        /* \"#utility.yul\":8569:8587   */\n      tag_201\n      tag_108\n      jump\t// in\n    tag_201:\n        /* \"#utility.yul\":8553:8589   */\n    tag_200:\n        /* \"#utility.yul\":8405:8596   */\n      swap3\n      swap2\n      pop\n      pop\n      jump\t// out\n\n    auxdata: 0xa26469706673582212200435e1b87efad0d69f891349445ba5d55dad4af96e6841214e0354bd7fc1d5f764736f6c634300081c0033\n}\n",
				"bytecode": {
					"linkReferences": {},
					"object": "6080604052600360025f6101000a81548160ff021916908360ff16021790555034801561002a575f5ffd5b506040516114ea3803806114ea833981810160405281019061004c9190610234565b815f908161005a91906104ba565b50806001908161006a91906104ba565b505f60025f9054906101000a900460ff16600a61008791906106f1565b6103e8610094919061073b565b90508060045f3373ffffffffffffffffffffffffffffffffffffffff1673ffffffffffffffffffffffffffffffffffffffff1681526020019081526020015f20819055508060038190555050505061077c565b5f604051905090565b5f5ffd5b5f5ffd5b5f5ffd5b5f5ffd5b5f601f19601f8301169050919050565b7f4e487b71000000000000000000000000000000000000000000000000000000005f52604160045260245ffd5b61014682610100565b810181811067ffffffffffffffff8211171561016557610164610110565b5b80604052505050565b5f6101776100e7565b9050610183828261013d565b919050565b5f67ffffffffffffffff8211156101a2576101a1610110565b5b6101ab82610100565b9050602081019050919050565b8281835e5f83830152505050565b5f6101d86101d384610188565b61016e565b9050828152602081018484840111156101f4576101f36100fc565b5b6101ff8482856101b8565b509392505050565b5f82601f83011261021b5761021a6100f8565b5b815161022b8482602086016101c6565b91505092915050565b5f5f6040838503121561024a576102496100f0565b5b5f83015167ffffffffffffffff811115610267576102666100f4565b5b61027385828601610207565b925050602083015167ffffffffffffffff811115610294576102936100f4565b5b6102a085828601610207565b9150509250929050565b5f81519050919050565b7f4e487b71000000000000000000000000000000000000000000000000000000005f52602260045260245ffd5b5f60028204905060018216806102f857607f821691505b60208210810361030b5761030a6102b4565b5b50919050565b5f819050815f5260205f209050919050565b5f6020601f8301049050919050565b5f82821b905092915050565b5f6008830261036d7fffffffffffffffffffffffffffffffffffffffffffffffffffffffffffffffff82610332565b6103778683610332565b95508019841693508086168417925050509392505050565b5f819050919050565b5f819050919050565b5f6103bb6103b66103b18461038f565b610398565b61038f565b9050919050565b5f819050919050565b6103d4836103a1565b6103e86103e0826103c2565b84845461033e565b825550505050565b5f5f905090565b6103ff6103f0565b61040a8184846103cb565b505050565b5b8181101561042d576104225f826103f7565b600181019050610410565b5050565b601f8211156104725761044381610311565b61044c84610323565b8101602085101561045b578190505b61046f61046785610323565b83018261040f565b50505b505050565b5f82821c905092915050565b5f6104925f1984600802610477565b1980831691505092915050565b5f6104aa8383610483565b9150826002028217905092915050565b6104c3826102aa565b67ffffffffffffffff8111156104dc576104db610110565b5b6104e682546102e1565b6104f1828285610431565b5f60209050601f831160018114610522575f8415610510578287015190505b61051a858261049f565b865550610581565b601f19841661053086610311565b5f5b8281101561055757848901518255600182019150602085019450602081019050610532565b868310156105745784890151610570601f891682610483565b8355505b6001600288020188555050505b505050505050565b7f4e487b71000000000000000000000000000000000000000000000000000000005f52601160045260245ffd5b5f8160011c9050919050565b5f5f8291508390505b600185111561060b578086048111156105e7576105e6610589565b5b60018516156105f65780820291505b8081029050610604856105b6565b94506105cb565b94509492505050565b5f8261062357600190506106de565b81610630575f90506106de565b816001811461064657600281146106505761067f565b60019150506106de565b60ff84111561066257610661610589565b5b8360020a91508482111561067957610678610589565b5b506106de565b5060208310610133831016604e8410600b84101617156106b45782820a9050838111156106af576106ae610589565b5b6106de565b6106c184848460016105c2565b925090508184048111156106d8576106d7610589565b5b81810290505b9392505050565b5f60ff82169050919050565b5f6106fb8261038f565b9150610706836106e5565b92506107337fffffffffffffffffffffffffffffffffffffffffffffffffffffffffffffffff8484610614565b905092915050565b5f6107458261038f565b91506107508361038f565b925082820261075e8161038f565b9150828204841483151761077557610774610589565b5b5092915050565b610d61806107895f395ff3fe608060405234801561000f575f5ffd5b5060043610610091575f3560e01c8063313ce56711610064578063313ce5671461013157806355b6ed5c1461014f57806370a082311461017f57806395d89b41146101af578063a9059cbb146101cd57610091565b806306fdde0314610095578063095ea7b3146100b357806318160ddd146100e357806323b872dd14610101575b5f5ffd5b61009d6101fd565b6040516100aa9190610934565b60405180910390f35b6100cd60048036038101906100c891906109e5565b610288565b6040516100da9190610a3d565b60405180910390f35b6100eb610375565b6040516100f89190610a65565b60405180910390f35b61011b60048036038101906101169190610a7e565b61037b565b6040516101289190610a3d565b60405180910390f35b61013961065b565b6040516101469190610ae9565b60405180910390f35b61016960048036038101906101649190610b02565b61066d565b6040516101769190610a65565b60405180910390f35b61019960048036038101906101949190610b40565b61068d565b6040516101a69190610a65565b60405180910390f35b6101b76106a2565b6040516101c49190610934565b60405180910390f35b6101e760048036038101906101e291906109e5565b61072e565b6040516101f49190610a3d565b60405180910390f35b5f805461020990610b98565b80601f016020809104026020016040519081016040528092919081815260200182805461023590610b98565b80156102805780601f1061025757610100808354040283529160200191610280565b820191905f5260205f20905b81548152906001019060200180831161026357829003601f168201915b505050505081565b5f8160055f3373ffffffffffffffffffffffffffffffffffffffff1673ffffffffffffffffffffffffffffffffffffffff1681526020019081526020015f205f8573ffffffffffffffffffffffffffffffffffffffff1673ffffffffffffffffffffffffffffffffffffffff1681526020019081526020015f20819055508273ffffffffffffffffffffffffffffffffffffffff163373ffffffffffffffffffffffffffffffffffffffff167f8c5be1e5ebec7d5bd14f71427d1e84f3dd0314c0f7b2291e5b200ac8c7c3b925846040516103639190610a65565b60405180910390a36001905092915050565b60035481565b5f8160055f8673ffffffffffffffffffffffffffffffffffffffff1673ffffffffffffffffffffffffffffffffffffffff1681526020019081526020015f205f3373ffffffffffffffffffffffffffffffffffffffff1673ffffffffffffffffffffffffffffffffffffffff1681526020019081526020015f20541015610437576040517f08c379a000000000000000000000000000000000000000000000000000000000815260040161042e90610c12565b60405180910390fd5b8160055f8673ffffffffffffffffffffffffffffffffffffffff1673ffffffffffffffffffffffffffffffffffffffff1681526020019081526020015f205f3373ffffffffffffffffffffffffffffffffffffffff1673ffffffffffffffffffffffffffffffffffffffff1681526020019081526020015f205f8282546104be9190610c5d565b925050819055508160045f8673ffffffffffffffffffffffffffffffffffffffff1673ffffffffffffffffffffffffffffffffffffffff1681526020019081526020015f20541015610545576040517f08c379a000000000000000000000000000000000000000000000000000000000815260040161053c90610cda565b60405180910390fd5b8160045f8673ffffffffffffffffffffffffffffffffffffffff1673ffffffffffffffffffffffffffffffffffffffff1681526020019081526020015f205f8282546105919190610c5d565b925050819055508160045f8573ffffffffffffffffffffffffffffffffffffffff1673ffffffffffffffffffffffffffffffffffffffff1681526020019081526020015f205f8282546105e49190610cf8565b925050819055508273ffffffffffffffffffffffffffffffffffffffff168473ffffffffffffffffffffffffffffffffffffffff167fddf252ad1be2c89b69c2b068fc378daa952ba7f163c4a11628f55a4df523b3ef846040516106489190610a65565b60405180910390a3600190509392505050565b60025f9054906101000a900460ff1681565b6005602052815f5260405f20602052805f5260405f205f91509150505481565b6004602052805f5260405f205f915090505481565b600180546106af90610b98565b80601f01602080910402602001604051908101604052809291908181526020018280546106db90610b98565b80156107265780601f106106fd57610100808354040283529160200191610726565b820191905f5260205f20905b81548152906001019060200180831161070957829003601f168201915b505050505081565b5f8160045f3373ffffffffffffffffffffffffffffffffffffffff1673ffffffffffffffffffffffffffffffffffffffff1681526020019081526020015f205410156107af576040517f08c379a00000000000000000000000000000000000000000000000000000000081526004016107a690610cda565b60405180910390fd5b8160045f3373ffffffffffffffffffffffffffffffffffffffff1673ffffffffffffffffffffffffffffffffffffffff1681526020019081526020015f205f8282546107fb9190610c5d565b925050819055508160045f8573ffffffffffffffffffffffffffffffffffffffff1673ffffffffffffffffffffffffffffffffffffffff1681526020019081526020015f205f82825461084e9190610cf8565b925050819055508273ffffffffffffffffffffffffffffffffffffffff163373ffffffffffffffffffffffffffffffffffffffff167fddf252ad1be2c89b69c2b068fc378daa952ba7f163c4a11628f55a4df523b3ef846040516108b29190610a65565b60405180910390a36001905092915050565b5f81519050919050565b5f82825260208201905092915050565b8281835e5f83830152505050565b5f601f19601f8301169050919050565b5f610906826108c4565b61091081856108ce565b93506109208185602086016108de565b610929816108ec565b840191505092915050565b5f6020820190508181035f83015261094c81846108fc565b905092915050565b5f5ffd5b5f73ffffffffffffffffffffffffffffffffffffffff82169050919050565b5f61098182610958565b9050919050565b61099181610977565b811461099b575f5ffd5b50565b5f813590506109ac81610988565b92915050565b5f819050919050565b6109c4816109b2565b81146109ce575f5ffd5b50565b5f813590506109df816109bb565b92915050565b5f5f604083850312156109fb576109fa610954565b5b5f610a088582860161099e565b9250506020610a19858286016109d1565b9150509250929050565b5f8115159050919050565b610a3781610a23565b82525050565b5f602082019050610a505f830184610a2e565b92915050565b610a5f816109b2565b82525050565b5f602082019050610a785f830184610a56565b92915050565b5f5f5f60608486031215610a9557610a94610954565b5b5f610aa28682870161099e565b9350506020610ab38682870161099e565b9250506040610ac4868287016109d1565b9150509250925092565b5f60ff82169050919050565b610ae381610ace565b82525050565b5f602082019050610afc5f830184610ada565b92915050565b5f5f60408385031215610b1857610b17610954565b5b5f610b258582860161099e565b9250506020610b368582860161099e565b9150509250929050565b5f60208284031215610b5557610b54610954565b5b5f610b628482850161099e565b91505092915050565b7f4e487b71000000000000000000000000000000000000000000000000000000005f52602260045260245ffd5b5f6002820490506001821680610baf57607f821691505b602082108103610bc257610bc1610b6b565b5b50919050565b7f496e73756666696369656e7420617070726f76616c00000000000000000000005f82015250565b5f610bfc6015836108ce565b9150610c0782610bc8565b602082019050919050565b5f6020820190508181035f830152610c2981610bf0565b9050919050565b7f4e487b71000000000000000000000000000000000000000000000000000000005f52601160045260245ffd5b5f610c67826109b2565b9150610c72836109b2565b9250828203905081811115610c8a57610c89610c30565b5b92915050565b7f556e73756666696369656e7420616d6f756e74000000000000000000000000005f82015250565b5f610cc46013836108ce565b9150610ccf82610c90565b602082019050919050565b5f6020820190508181035f830152610cf181610cb8565b9050919050565b5f610d02826109b2565b9150610d0d836109b2565b9250828201905080821115610d2557610d24610c30565b5b9291505056fea26469706673582212200435e1b87efad0d69f891349445ba5d55dad4af96e6841214e0354bd7fc1d5f764736f6c634300081c0033",
					"opcodes": "PUSH1 0x80 PUSH1 0x40 MSTORE PUSH1 0x3 PUSH1 0x2 PUSH0 PUSH2 0x100 EXP DUP2 SLOAD DUP2 PUSH1 0xFF MUL NOT AND SWAP1 DUP4 PUSH1 0xFF AND MUL OR SWAP1 SSTORE POP CALLVALUE DUP1 ISZERO PUSH2 0x2A JUMPI PUSH0 PUSH0 REVERT JUMPDEST POP PUSH1 0x40 MLOAD PUSH2 0x14EA CODESIZE SUB DUP1 PUSH2 0x14EA DUP4 CODECOPY DUP2 DUP2 ADD PUSH1 0x40 MSTORE DUP2 ADD SWAP1 PUSH2 0x4C SWAP2 SWAP1 PUSH2 0x234 JUMP JUMPDEST DUP2 PUSH0 SWAP1 DUP2 PUSH2 0x5A SWAP2 SWAP1 PUSH2 0x4BA JUMP JUMPDEST POP DUP1 PUSH1 0x1 SWAP1 DUP2 PUSH2 0x6A SWAP2 SWAP1 PUSH2 0x4BA JUMP JUMPDEST POP PUSH0 PUSH1 0x2 PUSH0 SWAP1 SLOAD SWAP1 PUSH2 0x100 EXP SWAP1 DIV PUSH1 0xFF AND PUSH1 0xA PUSH2 0x87 SWAP2 SWAP1 PUSH2 0x6F1 JUMP JUMPDEST PUSH2 0x3E8 PUSH2 0x94 SWAP2 SWAP1 PUSH2 0x73B JUMP JUMPDEST SWAP1 POP DUP1 PUSH1 0x4 PUSH0 CALLER PUSH20 0xFFFFFFFFFFFFFFFFFFFFFFFFFFFFFFFFFFFFFFFF AND PUSH20 0xFFFFFFFFFFFFFFFFFFFFFFFFFFFFFFFFFFFFFFFF AND DUP2 MSTORE PUSH1 0x20 ADD SWAP1 DUP2 MSTORE PUSH1 0x20 ADD PUSH0 KECCAK256 DUP2 SWAP1 SSTORE POP DUP1 PUSH1 0x3 DUP2 SWAP1 SSTORE POP POP POP POP PUSH2 0x77C JUMP JUMPDEST PUSH0 PUSH1 0x40 MLOAD SWAP1 POP SWAP1 JUMP JUMPDEST PUSH0 PUSH0 REVERT JUMPDEST PUSH0 PUSH0 REVERT JUMPDEST PUSH0 PUSH0 REVERT JUMPDEST PUSH0 PUSH0 REVERT JUMPDEST PUSH0 PUSH1 0x1F NOT PUSH1 0x1F DUP4 ADD AND SWAP1 POP SWAP2 SWAP1 POP JUMP JUMPDEST PUSH32 0x4E487B7100000000000000000000000000000000000000000000000000000000 PUSH0 MSTORE PUSH1 0x41 PUSH1 0x4 MSTORE PUSH1 0x24 PUSH0 REVERT JUMPDEST PUSH2 0x146 DUP3 PUSH2 0x100 JUMP JUMPDEST DUP2 ADD DUP2 DUP2 LT PUSH8 0xFFFFFFFFFFFFFFFF DUP3 GT OR ISZERO PUSH2 0x165 JUMPI PUSH2 0x164 PUSH2 0x110 JUMP JUMPDEST JUMPDEST DUP1 PUSH1 0x40 MSTORE POP POP POP JUMP JUMPDEST PUSH0 PUSH2 0x177 PUSH2 0xE7 JUMP JUMPDEST SWAP1 POP PUSH2 0x183 DUP3 DUP3 PUSH2 0x13D JUMP JUMPDEST SWAP2 SWAP1 POP JUMP JUMPDEST PUSH0 PUSH8 0xFFFFFFFFFFFFFFFF DUP3 GT ISZERO PUSH2 0x1A2 JUMPI PUSH2 0x1A1 PUSH2 0x110 JUMP JUMPDEST JUMPDEST PUSH2 0x1AB DUP3 PUSH2 0x100 JUMP JUMPDEST SWAP1 POP PUSH1 0x20 DUP2 ADD SWAP1 POP SWAP2 SWAP1 POP JUMP JUMPDEST DUP3 DUP2 DUP4 MCOPY PUSH0 DUP4 DUP4 ADD MSTORE POP POP POP JUMP JUMPDEST PUSH0 PUSH2 0x1D8 PUSH2 0x1D3 DUP5 PUSH2 0x188 JUMP JUMPDEST PUSH2 0x16E JUMP JUMPDEST SWAP1 POP DUP3 DUP2 MSTORE PUSH1 0x20 DUP2 ADD DUP5 DUP5 DUP5 ADD GT ISZERO PUSH2 0x1F4 JUMPI PUSH2 0x1F3 PUSH2 0xFC JUMP JUMPDEST JUMPDEST PUSH2 0x1FF DUP5 DUP3 DUP6 PUSH2 0x1B8 JUMP JUMPDEST POP SWAP4 SWAP3 POP POP POP JUMP JUMPDEST PUSH0 DUP3 PUSH1 0x1F DUP4 ADD SLT PUSH2 0x21B JUMPI PUSH2 0x21A PUSH2 0xF8 JUMP JUMPDEST JUMPDEST DUP2 MLOAD PUSH2 0x22B DUP5 DUP3 PUSH1 0x20 DUP7 ADD PUSH2 0x1C6 JUMP JUMPDEST SWAP2 POP POP SWAP3 SWAP2 POP POP JUMP JUMPDEST PUSH0 PUSH0 PUSH1 0x40 DUP4 DUP6 SUB SLT ISZERO PUSH2 0x24A JUMPI PUSH2 0x249 PUSH2 0xF0 JUMP JUMPDEST JUMPDEST PUSH0 DUP4 ADD MLOAD PUSH8 0xFFFFFFFFFFFFFFFF DUP2 GT ISZERO PUSH2 0x267 JUMPI PUSH2 0x266 PUSH2 0xF4 JUMP JUMPDEST JUMPDEST PUSH2 0x273 DUP6 DUP3 DUP7 ADD PUSH2 0x207 JUMP JUMPDEST SWAP3 POP POP PUSH1 0x20 DUP4 ADD MLOAD PUSH8 0xFFFFFFFFFFFFFFFF DUP2 GT ISZERO PUSH2 0x294 JUMPI PUSH2 0x293 PUSH2 0xF4 JUMP JUMPDEST JUMPDEST PUSH2 0x2A0 DUP6 DUP3 DUP7 ADD PUSH2 0x207 JUMP JUMPDEST SWAP2 POP POP SWAP3 POP SWAP3 SWAP1 POP JUMP JUMPDEST PUSH0 DUP2 MLOAD SWAP1 POP SWAP2 SWAP1 POP JUMP JUMPDEST PUSH32 0x4E487B7100000000000000000000000000000000000000000000000000000000 PUSH0 MSTORE PUSH1 0x22 PUSH1 0x4 MSTORE PUSH1 0x24 PUSH0 REVERT JUMPDEST PUSH0 PUSH1 0x2 DUP3 DIV SWAP1 POP PUSH1 0x1 DUP3 AND DUP1 PUSH2 0x2F8 JUMPI PUSH1 0x7F DUP3 AND SWAP2 POP JUMPDEST PUSH1 0x20 DUP3 LT DUP2 SUB PUSH2 0x30B JUMPI PUSH2 0x30A PUSH2 0x2B4 JUMP JUMPDEST JUMPDEST POP SWAP2 SWAP1 POP JUMP JUMPDEST PUSH0 DUP2 SWAP1 POP DUP2 PUSH0 MSTORE PUSH1 0x20 PUSH0 KECCAK256 SWAP1 POP SWAP2 SWAP1 POP JUMP JUMPDEST PUSH0 PUSH1 0x20 PUSH1 0x1F DUP4 ADD DIV SWAP1 POP SWAP2 SWAP1 POP JUMP JUMPDEST PUSH0 DUP3 DUP3 SHL SWAP1 POP SWAP3 SWAP2 POP POP JUMP JUMPDEST PUSH0 PUSH1 0x8 DUP4 MUL PUSH2 0x36D PUSH32 0xFFFFFFFFFFFFFFFFFFFFFFFFFFFFFFFFFFFFFFFFFFFFFFFFFFFFFFFFFFFFFFFF DUP3 PUSH2 0x332 JUMP JUMPDEST PUSH2 0x377 DUP7 DUP4 PUSH2 0x332 JUMP JUMPDEST SWAP6 POP DUP1 NOT DUP5 AND SWAP4 POP DUP1 DUP7 AND DUP5 OR SWAP3 POP POP POP SWAP4 SWAP3 POP POP POP JUMP JUMPDEST PUSH0 DUP2 SWAP1 POP SWAP2 SWAP1 POP JUMP JUMPDEST PUSH0 DUP2 SWAP1 POP SWAP2 SWAP1 POP JUMP JUMPDEST PUSH0 PUSH2 0x3BB PUSH2 0x3B6 PUSH2 0x3B1 DUP5 PUSH2 0x38F JUMP JUMPDEST PUSH2 0x398 JUMP JUMPDEST PUSH2 0x38F JUMP JUMPDEST SWAP1 POP SWAP2 SWAP1 POP JUMP JUMPDEST PUSH0 DUP2 SWAP1 POP SWAP2 SWAP1 POP JUMP JUMPDEST PUSH2 0x3D4 DUP4 PUSH2 0x3A1 JUMP JUMPDEST PUSH2 0x3E8 PUSH2 0x3E0 DUP3 PUSH2 0x3C2 JUMP JUMPDEST DUP5 DUP5 SLOAD PUSH2 0x33E JUMP JUMPDEST DUP3 SSTORE POP POP POP POP JUMP JUMPDEST PUSH0 PUSH0 SWAP1 POP SWAP1 JUMP JUMPDEST PUSH2 0x3FF PUSH2 0x3F0 JUMP JUMPDEST PUSH2 0x40A DUP2 DUP5 DUP5 PUSH2 0x3CB JUMP JUMPDEST POP POP POP JUMP JUMPDEST JUMPDEST DUP2 DUP2 LT ISZERO PUSH2 0x42D JUMPI PUSH2 0x422 PUSH0 DUP3 PUSH2 0x3F7 JUMP JUMPDEST PUSH1 0x1 DUP2 ADD SWAP1 POP PUSH2 0x410 JUMP JUMPDEST POP POP JUMP JUMPDEST PUSH1 0x1F DUP3 GT ISZERO PUSH2 0x472 JUMPI PUSH2 0x443 DUP2 PUSH2 0x311 JUMP JUMPDEST PUSH2 0x44C DUP5 PUSH2 0x323 JUMP JUMPDEST DUP2 ADD PUSH1 0x20 DUP6 LT ISZERO PUSH2 0x45B JUMPI DUP2 SWAP1 POP JUMPDEST PUSH2 0x46F PUSH2 0x467 DUP6 PUSH2 0x323 JUMP JUMPDEST DUP4 ADD DUP3 PUSH2 0x40F JUMP JUMPDEST POP POP JUMPDEST POP POP POP JUMP JUMPDEST PUSH0 DUP3 DUP3 SHR SWAP1 POP SWAP3 SWAP2 POP POP JUMP JUMPDEST PUSH0 PUSH2 0x492 PUSH0 NOT DUP5 PUSH1 0x8 MUL PUSH2 0x477 JUMP JUMPDEST NOT DUP1 DUP4 AND SWAP2 POP POP SWAP3 SWAP2 POP POP JUMP JUMPDEST PUSH0 PUSH2 0x4AA DUP4 DUP4 PUSH2 0x483 JUMP JUMPDEST SWAP2 POP DUP3 PUSH1 0x2 MUL DUP3 OR SWAP1 POP SWAP3 SWAP2 POP POP JUMP JUMPDEST PUSH2 0x4C3 DUP3 PUSH2 0x2AA JUMP JUMPDEST PUSH8 0xFFFFFFFFFFFFFFFF DUP2 GT ISZERO PUSH2 0x4DC JUMPI PUSH2 0x4DB PUSH2 0x110 JUMP JUMPDEST JUMPDEST PUSH2 0x4E6 DUP3 SLOAD PUSH2 0x2E1 JUMP JUMPDEST PUSH2 0x4F1 DUP3 DUP3 DUP6 PUSH2 0x431 JUMP JUMPDEST PUSH0 PUSH1 0x20 SWAP1 POP PUSH1 0x1F DUP4 GT PUSH1 0x1 DUP2 EQ PUSH2 0x522 JUMPI PUSH0 DUP5 ISZERO PUSH2 0x510 JUMPI DUP3 DUP8 ADD MLOAD SWAP1 POP JUMPDEST PUSH2 0x51A DUP6 DUP3 PUSH2 0x49F JUMP JUMPDEST DUP7 SSTORE POP PUSH2 0x581 JUMP JUMPDEST PUSH1 0x1F NOT DUP5 AND PUSH2 0x530 DUP7 PUSH2 0x311 JUMP JUMPDEST PUSH0 JUMPDEST DUP3 DUP2 LT ISZERO PUSH2 0x557 JUMPI DUP5 DUP10 ADD MLOAD DUP3 SSTORE PUSH1 0x1 DUP3 ADD SWAP2 POP PUSH1 0x20 DUP6 ADD SWAP5 POP PUSH1 0x20 DUP2 ADD SWAP1 POP PUSH2 0x532 JUMP JUMPDEST DUP7 DUP4 LT ISZERO PUSH2 0x574 JUMPI DUP5 DUP10 ADD MLOAD PUSH2 0x570 PUSH1 0x1F DUP10 AND DUP3 PUSH2 0x483 JUMP JUMPDEST DUP4 SSTORE POP JUMPDEST PUSH1 0x1 PUSH1 0x2 DUP9 MUL ADD DUP9 SSTORE POP POP POP JUMPDEST POP POP POP POP POP POP JUMP JUMPDEST PUSH32 0x4E487B7100000000000000000000000000000000000000000000000000000000 PUSH0 MSTORE PUSH1 0x11 PUSH1 0x4 MSTORE PUSH1 0x24 PUSH0 REVERT JUMPDEST PUSH0 DUP2 PUSH1 0x1 SHR SWAP1 POP SWAP2 SWAP1 POP JUMP JUMPDEST PUSH0 PUSH0 DUP3 SWAP2 POP DUP4 SWAP1 POP JUMPDEST PUSH1 0x1 DUP6 GT ISZERO PUSH2 0x60B JUMPI DUP1 DUP7 DIV DUP2 GT ISZERO PUSH2 0x5E7 JUMPI PUSH2 0x5E6 PUSH2 0x589 JUMP JUMPDEST JUMPDEST PUSH1 0x1 DUP6 AND ISZERO PUSH2 0x5F6 JUMPI DUP1 DUP3 MUL SWAP2 POP JUMPDEST DUP1 DUP2 MUL SWAP1 POP PUSH2 0x604 DUP6 PUSH2 0x5B6 JUMP JUMPDEST SWAP5 POP PUSH2 0x5CB JUMP JUMPDEST SWAP5 POP SWAP5 SWAP3 POP POP POP JUMP JUMPDEST PUSH0 DUP3 PUSH2 0x623 JUMPI PUSH1 0x1 SWAP1 POP PUSH2 0x6DE JUMP JUMPDEST DUP2 PUSH2 0x630 JUMPI PUSH0 SWAP1 POP PUSH2 0x6DE JUMP JUMPDEST DUP2 PUSH1 0x1 DUP2 EQ PUSH2 0x646 JUMPI PUSH1 0x2 DUP2 EQ PUSH2 0x650 JUMPI PUSH2 0x67F JUMP JUMPDEST PUSH1 0x1 SWAP2 POP POP PUSH2 0x6DE JUMP JUMPDEST PUSH1 0xFF DUP5 GT ISZERO PUSH2 0x662 JUMPI PUSH2 0x661 PUSH2 0x589 JUMP JUMPDEST JUMPDEST DUP4 PUSH1 0x2 EXP SWAP2 POP DUP5 DUP3 GT ISZERO PUSH2 0x679 JUMPI PUSH2 0x678 PUSH2 0x589 JUMP JUMPDEST JUMPDEST POP PUSH2 0x6DE JUMP JUMPDEST POP PUSH1 0x20 DUP4 LT PUSH2 0x133 DUP4 LT AND PUSH1 0x4E DUP5 LT PUSH1 0xB DUP5 LT AND OR ISZERO PUSH2 0x6B4 JUMPI DUP3 DUP3 EXP SWAP1 POP DUP4 DUP2 GT ISZERO PUSH2 0x6AF JUMPI PUSH2 0x6AE PUSH2 0x589 JUMP JUMPDEST JUMPDEST PUSH2 0x6DE JUMP JUMPDEST PUSH2 0x6C1 DUP5 DUP5 DUP5 PUSH1 0x1 PUSH2 0x5C2 JUMP JUMPDEST SWAP3 POP SWAP1 POP DUP2 DUP5 DIV DUP2 GT ISZERO PUSH2 0x6D8 JUMPI PUSH2 0x6D7 PUSH2 0x589 JUMP JUMPDEST JUMPDEST DUP2 DUP2 MUL SWAP1 POP JUMPDEST SWAP4 SWAP3 POP POP POP JUMP JUMPDEST PUSH0 PUSH1 0xFF DUP3 AND SWAP1 POP SWAP2 SWAP1 POP JUMP JUMPDEST PUSH0 PUSH2 0x6FB DUP3 PUSH2 0x38F JUMP JUMPDEST SWAP2 POP PUSH2 0x706 DUP4 PUSH2 0x6E5 JUMP JUMPDEST SWAP3 POP PUSH2 0x733 PUSH32 0xFFFFFFFFFFFFFFFFFFFFFFFFFFFFFFFFFFFFFFFFFFFFFFFFFFFFFFFFFFFFFFFF DUP5 DUP5 PUSH2 0x614 JUMP JUMPDEST SWAP1 POP SWAP3 SWAP2 POP POP JUMP JUMPDEST PUSH0 PUSH2 0x745 DUP3 PUSH2 0x38F JUMP JUMPDEST SWAP2 POP PUSH2 0x750 DUP4 PUSH2 0x38F JUMP JUMPDEST SWAP3 POP DUP3 DUP3 MUL PUSH2 0x75E DUP2 PUSH2 0x38F JUMP JUMPDEST SWAP2 POP DUP3 DUP3 DIV DUP5 EQ DUP4 ISZERO OR PUSH2 0x775 JUMPI PUSH2 0x774 PUSH2 0x589 JUMP JUMPDEST JUMPDEST POP SWAP3 SWAP2 POP POP JUMP JUMPDEST PUSH2 0xD61 DUP1 PUSH2 0x789 PUSH0 CODECOPY PUSH0 RETURN INVALID PUSH1 0x80 PUSH1 0x40 MSTORE CALLVALUE DUP1 ISZERO PUSH2 0xF JUMPI PUSH0 PUSH0 REVERT JUMPDEST POP PUSH1 0x4 CALLDATASIZE LT PUSH2 0x91 JUMPI PUSH0 CALLDATALOAD PUSH1 0xE0 SHR DUP1 PUSH4 0x313CE567 GT PUSH2 0x64 JUMPI DUP1 PUSH4 0x313CE567 EQ PUSH2 0x131 JUMPI DUP1 PUSH4 0x55B6ED5C EQ PUSH2 0x14F JUMPI DUP1 PUSH4 0x70A08231 EQ PUSH2 0x17F JUMPI DUP1 PUSH4 0x95D89B41 EQ PUSH2 0x1AF JUMPI DUP1 PUSH4 0xA9059CBB EQ PUSH2 0x1CD JUMPI PUSH2 0x91 JUMP JUMPDEST DUP1 PUSH4 0x6FDDE03 EQ PUSH2 0x95 JUMPI DUP1 PUSH4 0x95EA7B3 EQ PUSH2 0xB3 JUMPI DUP1 PUSH4 0x18160DDD EQ PUSH2 0xE3 JUMPI DUP1 PUSH4 0x23B872DD EQ PUSH2 0x101 JUMPI JUMPDEST PUSH0 PUSH0 REVERT JUMPDEST PUSH2 0x9D PUSH2 0x1FD JUMP JUMPDEST PUSH1 0x40 MLOAD PUSH2 0xAA SWAP2 SWAP1 PUSH2 0x934 JUMP JUMPDEST PUSH1 0x40 MLOAD DUP1 SWAP2 SUB SWAP1 RETURN JUMPDEST PUSH2 0xCD PUSH1 0x4 DUP1 CALLDATASIZE SUB DUP2 ADD SWAP1 PUSH2 0xC8 SWAP2 SWAP1 PUSH2 0x9E5 JUMP JUMPDEST PUSH2 0x288 JUMP JUMPDEST PUSH1 0x40 MLOAD PUSH2 0xDA SWAP2 SWAP1 PUSH2 0xA3D JUMP JUMPDEST PUSH1 0x40 MLOAD DUP1 SWAP2 SUB SWAP1 RETURN JUMPDEST PUSH2 0xEB PUSH2 0x375 JUMP JUMPDEST PUSH1 0x40 MLOAD PUSH2 0xF8 SWAP2 SWAP1 PUSH2 0xA65 JUMP JUMPDEST PUSH1 0x40 MLOAD DUP1 SWAP2 SUB SWAP1 RETURN JUMPDEST PUSH2 0x11B PUSH1 0x4 DUP1 CALLDATASIZE SUB DUP2 ADD SWAP1 PUSH2 0x116 SWAP2 SWAP1 PUSH2 0xA7E JUMP JUMPDEST PUSH2 0x37B JUMP JUMPDEST PUSH1 0x40 MLOAD PUSH2 0x128 SWAP2 SWAP1 PUSH2 0xA3D JUMP JUMPDEST PUSH1 0x40 MLOAD DUP1 SWAP2 SUB SWAP1 RETURN JUMPDEST PUSH2 0x139 PUSH2 0x65B JUMP JUMPDEST PUSH1 0x40 MLOAD PUSH2 0x146 SWAP2 SWAP1 PUSH2 0xAE9 JUMP JUMPDEST PUSH1 0x40 MLOAD DUP1 SWAP2 SUB SWAP1 RETURN JUMPDEST PUSH2 0x169 PUSH1 0x4 DUP1 CALLDATASIZE SUB DUP2 ADD SWAP1 PUSH2 0x164 SWAP2 SWAP1 PUSH2 0xB02 JUMP JUMPDEST PUSH2 0x66D JUMP JUMPDEST PUSH1 0x40 MLOAD PUSH2 0x176 SWAP2 SWAP1 PUSH2 0xA65 JUMP JUMPDEST PUSH1 0x40 MLOAD DUP1 SWAP2 SUB SWAP1 RETURN JUMPDEST PUSH2 0x199 PUSH1 0x4 DUP1 CALLDATASIZE SUB DUP2 ADD SWAP1 PUSH2 0x194 SWAP2 SWAP1 PUSH2 0xB40 JUMP JUMPDEST PUSH2 0x68D JUMP JUMPDEST PUSH1 0x40 MLOAD PUSH2 0x1A6 SWAP2 SWAP1 PUSH2 0xA65 JUMP JUMPDEST PUSH1 0x40 MLOAD DUP1 SWAP2 SUB SWAP1 RETURN JUMPDEST PUSH2 0x1B7 PUSH2 0x6A2 JUMP JUMPDEST PUSH1 0x40 MLOAD PUSH2 0x1C4 SWAP2 SWAP1 PUSH2 0x934 JUMP JUMPDEST PUSH1 0x40 MLOAD DUP1 SWAP2 SUB SWAP1 RETURN JUMPDEST PUSH2 0x1E7 PUSH1 0x4 DUP1 CALLDATASIZE SUB DUP2 ADD SWAP1 PUSH2 0x1E2 SWAP2 SWAP1 PUSH2 0x9E5 JUMP JUMPDEST PUSH2 0x72E JUMP JUMPDEST PUSH1 0x40 MLOAD PUSH2 0x1F4 SWAP2 SWAP1 PUSH2 0xA3D JUMP JUMPDEST PUSH1 0x40 MLOAD DUP1 SWAP2 SUB SWAP1 RETURN JUMPDEST PUSH0 DUP1 SLOAD PUSH2 0x209 SWAP1 PUSH2 0xB98 JUMP JUMPDEST DUP1 PUSH1 0x1F ADD PUSH1 0x20 DUP1 SWAP2 DIV MUL PUSH1 0x20 ADD PUSH1 0x40 MLOAD SWAP1 DUP2 ADD PUSH1 0x40 MSTORE DUP1 SWAP3 SWAP2 SWAP1 DUP2 DUP2 MSTORE PUSH1 0x20 ADD DUP3 DUP1 SLOAD PUSH2 0x235 SWAP1 PUSH2 0xB98 JUMP JUMPDEST DUP1 ISZERO PUSH2 0x280 JUMPI DUP1 PUSH1 0x1F LT PUSH2 0x257 JUMPI PUSH2 0x100 DUP1 DUP4 SLOAD DIV MUL DUP4 MSTORE SWAP2 PUSH1 0x20 ADD SWAP2 PUSH2 0x280 JUMP JUMPDEST DUP3 ADD SWAP2 SWAP1 PUSH0 MSTORE PUSH1 0x20 PUSH0 KECCAK256 SWAP1 JUMPDEST DUP2 SLOAD DUP2 MSTORE SWAP1 PUSH1 0x1 ADD SWAP1 PUSH1 0x20 ADD DUP1 DUP4 GT PUSH2 0x263 JUMPI DUP3 SWAP1 SUB PUSH1 0x1F AND DUP3 ADD SWAP2 JUMPDEST POP POP POP POP POP DUP2 JUMP JUMPDEST PUSH0 DUP2 PUSH1 0x5 PUSH0 CALLER PUSH20 0xFFFFFFFFFFFFFFFFFFFFFFFFFFFFFFFFFFFFFFFF AND PUSH20 0xFFFFFFFFFFFFFFFFFFFFFFFFFFFFFFFFFFFFFFFF AND DUP2 MSTORE PUSH1 0x20 ADD SWAP1 DUP2 MSTORE PUSH1 0x20 ADD PUSH0 KECCAK256 PUSH0 DUP6 PUSH20 0xFFFFFFFFFFFFFFFFFFFFFFFFFFFFFFFFFFFFFFFF AND PUSH20 0xFFFFFFFFFFFFFFFFFFFFFFFFFFFFFFFFFFFFFFFF AND DUP2 MSTORE PUSH1 0x20 ADD SWAP1 DUP2 MSTORE PUSH1 0x20 ADD PUSH0 KECCAK256 DUP2 SWAP1 SSTORE POP DUP3 PUSH20 0xFFFFFFFFFFFFFFFFFFFFFFFFFFFFFFFFFFFFFFFF AND CALLER PUSH20 0xFFFFFFFFFFFFFFFFFFFFFFFFFFFFFFFFFFFFFFFF AND PUSH32 0x8C5BE1E5EBEC7D5BD14F71427D1E84F3DD0314C0F7B2291E5B200AC8C7C3B925 DUP5 PUSH1 0x40 MLOAD PUSH2 0x363 SWAP2 SWAP1 PUSH2 0xA65 JUMP JUMPDEST PUSH1 0x40 MLOAD DUP1 SWAP2 SUB SWAP1 LOG3 PUSH1 0x1 SWAP1 POP SWAP3 SWAP2 POP POP JUMP JUMPDEST PUSH1 0x3 SLOAD DUP2 JUMP JUMPDEST PUSH0 DUP2 PUSH1 0x5 PUSH0 DUP7 PUSH20 0xFFFFFFFFFFFFFFFFFFFFFFFFFFFFFFFFFFFFFFFF AND PUSH20 0xFFFFFFFFFFFFFFFFFFFFFFFFFFFFFFFFFFFFFFFF AND DUP2 MSTORE PUSH1 0x20 ADD SWAP1 DUP2 MSTORE PUSH1 0x20 ADD PUSH0 KECCAK256 PUSH0 CALLER PUSH20 0xFFFFFFFFFFFFFFFFFFFFFFFFFFFFFFFFFFFFFFFF AND PUSH20 0xFFFFFFFFFFFFFFFFFFFFFFFFFFFFFFFFFFFFFFFF AND DUP2 MSTORE PUSH1 0x20 ADD SWAP1 DUP2 MSTORE PUSH1 0x20 ADD PUSH0 KECCAK256 SLOAD LT ISZERO PUSH2 0x437 JUMPI PUSH1 0x40 MLOAD PUSH32 0x8C379A000000000000000000000000000000000000000000000000000000000 DUP2 MSTORE PUSH1 0x4 ADD PUSH2 0x42E SWAP1 PUSH2 0xC12 JUMP JUMPDEST PUSH1 0x40 MLOAD DUP1 SWAP2 SUB SWAP1 REVERT JUMPDEST DUP2 PUSH1 0x5 PUSH0 DUP7 PUSH20 0xFFFFFFFFFFFFFFFFFFFFFFFFFFFFFFFFFFFFFFFF AND PUSH20 0xFFFFFFFFFFFFFFFFFFFFFFFFFFFFFFFFFFFFFFFF AND DUP2 MSTORE PUSH1 0x20 ADD SWAP1 DUP2 MSTORE PUSH1 0x20 ADD PUSH0 KECCAK256 PUSH0 CALLER PUSH20 0xFFFFFFFFFFFFFFFFFFFFFFFFFFFFFFFFFFFFFFFF AND PUSH20 0xFFFFFFFFFFFFFFFFFFFFFFFFFFFFFFFFFFFFFFFF AND DUP2 MSTORE PUSH1 0x20 ADD SWAP1 DUP2 MSTORE PUSH1 0x20 ADD PUSH0 KECCAK256 PUSH0 DUP3 DUP3 SLOAD PUSH2 0x4BE SWAP2 SWAP1 PUSH2 0xC5D JUMP JUMPDEST SWAP3 POP POP DUP2 SWAP1 SSTORE POP DUP2 PUSH1 0x4 PUSH0 DUP7 PUSH20 0xFFFFFFFFFFFFFFFFFFFFFFFFFFFFFFFFFFFFFFFF AND PUSH20 0xFFFFFFFFFFFFFFFFFFFFFFFFFFFFFFFFFFFFFFFF AND DUP2 MSTORE PUSH1 0x20 ADD SWAP1 DUP2 MSTORE PUSH1 0x20 ADD PUSH0 KECCAK256 SLOAD LT ISZERO PUSH2 0x545 JUMPI PUSH1 0x40 MLOAD PUSH32 0x8C379A000000000000000000000000000000000000000000000000000000000 DUP2 MSTORE PUSH1 0x4 ADD PUSH2 0x53C SWAP1 PUSH2 0xCDA JUMP JUMPDEST PUSH1 0x40 MLOAD DUP1 SWAP2 SUB SWAP1 REVERT JUMPDEST DUP2 PUSH1 0x4 PUSH0 DUP7 PUSH20 0xFFFFFFFFFFFFFFFFFFFFFFFFFFFFFFFFFFFFFFFF AND PUSH20 0xFFFFFFFFFFFFFFFFFFFFFFFFFFFFFFFFFFFFFFFF AND DUP2 MSTORE PUSH1 0x20 ADD SWAP1 DUP2 MSTORE PUSH1 0x20 ADD PUSH0 KECCAK256 PUSH0 DUP3 DUP3 SLOAD PUSH2 0x591 SWAP2 SWAP1 PUSH2 0xC5D JUMP JUMPDEST SWAP3 POP POP DUP2 SWAP1 SSTORE POP DUP2 PUSH1 0x4 PUSH0 DUP6 PUSH20 0xFFFFFFFFFFFFFFFFFFFFFFFFFFFFFFFFFFFFFFFF AND PUSH20 0xFFFFFFFFFFFFFFFFFFFFFFFFFFFFFFFFFFFFFFFF AND DUP2 MSTORE PUSH1 0x20 ADD SWAP1 DUP2 MSTORE PUSH1 0x20 ADD PUSH0 KECCAK256 PUSH0 DUP3 DUP3 SLOAD PUSH2 0x5E4 SWAP2 SWAP1 PUSH2 0xCF8 JUMP JUMPDEST SWAP3 POP POP DUP2 SWAP1 SSTORE POP DUP3 PUSH20 0xFFFFFFFFFFFFFFFFFFFFFFFFFFFFFFFFFFFFFFFF AND DUP5 PUSH20 0xFFFFFFFFFFFFFFFFFFFFFFFFFFFFFFFFFFFFFFFF AND PUSH32 0xDDF252AD1BE2C89B69C2B068FC378DAA952BA7F163C4A11628F55A4DF523B3EF DUP5 PUSH1 0x40 MLOAD PUSH2 0x648 SWAP2 SWAP1 PUSH2 0xA65 JUMP JUMPDEST PUSH1 0x40 MLOAD DUP1 SWAP2 SUB SWAP1 LOG3 PUSH1 0x1 SWAP1 POP SWAP4 SWAP3 POP POP POP JUMP JUMPDEST PUSH1 0x2 PUSH0 SWAP1 SLOAD SWAP1 PUSH2 0x100 EXP SWAP1 DIV PUSH1 0xFF AND DUP2 JUMP JUMPDEST PUSH1 0x5 PUSH1 0x20 MSTORE DUP2 PUSH0 MSTORE PUSH1 0x40 PUSH0 KECCAK256 PUSH1 0x20 MSTORE DUP1 PUSH0 MSTORE PUSH1 0x40 PUSH0 KECCAK256 PUSH0 SWAP2 POP SWAP2 POP POP SLOAD DUP2 JUMP JUMPDEST PUSH1 0x4 PUSH1 0x20 MSTORE DUP1 PUSH0 MSTORE PUSH1 0x40 PUSH0 KECCAK256 PUSH0 SWAP2 POP SWAP1 POP SLOAD DUP2 JUMP JUMPDEST PUSH1 0x1 DUP1 SLOAD PUSH2 0x6AF SWAP1 PUSH2 0xB98 JUMP JUMPDEST DUP1 PUSH1 0x1F ADD PUSH1 0x20 DUP1 SWAP2 DIV MUL PUSH1 0x20 ADD PUSH1 0x40 MLOAD SWAP1 DUP2 ADD PUSH1 0x40 MSTORE DUP1 SWAP3 SWAP2 SWAP1 DUP2 DUP2 MSTORE PUSH1 0x20 ADD DUP3 DUP1 SLOAD PUSH2 0x6DB SWAP1 PUSH2 0xB98 JUMP JUMPDEST DUP1 ISZERO PUSH2 0x726 JUMPI DUP1 PUSH1 0x1F LT PUSH2 0x6FD JUMPI PUSH2 0x100 DUP1 DUP4 SLOAD DIV MUL DUP4 MSTORE SWAP2 PUSH1 0x20 ADD SWAP2 PUSH2 0x726 JUMP JUMPDEST DUP3 ADD SWAP2 SWAP1 PUSH0 MSTORE PUSH1 0x20 PUSH0 KECCAK256 SWAP1 JUMPDEST DUP2 SLOAD DUP2 MSTORE SWAP1 PUSH1 0x1 ADD SWAP1 PUSH1 0x20 ADD DUP1 DUP4 GT PUSH2 0x709 JUMPI DUP3 SWAP1 SUB PUSH1 0x1F AND DUP3 ADD SWAP2 JUMPDEST POP POP POP POP POP DUP2 JUMP JUMPDEST PUSH0 DUP2 PUSH1 0x4 PUSH0 CALLER PUSH20 0xFFFFFFFFFFFFFFFFFFFFFFFFFFFFFFFFFFFFFFFF AND PUSH20 0xFFFFFFFFFFFFFFFFFFFFFFFFFFFFFFFFFFFFFFFF AND DUP2 MSTORE PUSH1 0x20 ADD SWAP1 DUP2 MSTORE PUSH1 0x20 ADD PUSH0 KECCAK256 SLOAD LT ISZERO PUSH2 0x7AF JUMPI PUSH1 0x40 MLOAD PUSH32 0x8C379A000000000000000000000000000000000000000000000000000000000 DUP2 MSTORE PUSH1 0x4 ADD PUSH2 0x7A6 SWAP1 PUSH2 0xCDA JUMP JUMPDEST PUSH1 0x40 MLOAD DUP1 SWAP2 SUB SWAP1 REVERT JUMPDEST DUP2 PUSH1 0x4 PUSH0 CALLER PUSH20 0xFFFFFFFFFFFFFFFFFFFFFFFFFFFFFFFFFFFFFFFF AND PUSH20 0xFFFFFFFFFFFFFFFFFFFFFFFFFFFFFFFFFFFFFFFF AND DUP2 MSTORE PUSH1 0x20 ADD SWAP1 DUP2 MSTORE PUSH1 0x20 ADD PUSH0 KECCAK256 PUSH0 DUP3 DUP3 SLOAD PUSH2 0x7FB SWAP2 SWAP1 PUSH2 0xC5D JUMP JUMPDEST SWAP3 POP POP DUP2 SWAP1 SSTORE POP DUP2 PUSH1 0x4 PUSH0 DUP6 PUSH20 0xFFFFFFFFFFFFFFFFFFFFFFFFFFFFFFFFFFFFFFFF AND PUSH20 0xFFFFFFFFFFFFFFFFFFFFFFFFFFFFFFFFFFFFFFFF AND DUP2 MSTORE PUSH1 0x20 ADD SWAP1 DUP2 MSTORE PUSH1 0x20 ADD PUSH0 KECCAK256 PUSH0 DUP3 DUP3 SLOAD PUSH2 0x84E SWAP2 SWAP1 PUSH2 0xCF8 JUMP JUMPDEST SWAP3 POP POP DUP2 SWAP1 SSTORE POP DUP3 PUSH20 0xFFFFFFFFFFFFFFFFFFFFFFFFFFFFFFFFFFFFFFFF AND CALLER PUSH20 0xFFFFFFFFFFFFFFFFFFFFFFFFFFFFFFFFFFFFFFFF AND PUSH32 0xDDF252AD1BE2C89B69C2B068FC378DAA952BA7F163C4A11628F55A4DF523B3EF DUP5 PUSH1 0x40 MLOAD PUSH2 0x8B2 SWAP2 SWAP1 PUSH2 0xA65 JUMP JUMPDEST PUSH1 0x40 MLOAD DUP1 SWAP2 SUB SWAP1 LOG3 PUSH1 0x1 SWAP1 POP SWAP3 SWAP2 POP POP JUMP JUMPDEST PUSH0 DUP2 MLOAD SWAP1 POP SWAP2 SWAP1 POP JUMP JUMPDEST PUSH0 DUP3 DUP3 MSTORE PUSH1 0x20 DUP3 ADD SWAP1 POP SWAP3 SWAP2 POP POP JUMP JUMPDEST DUP3 DUP2 DUP4 MCOPY PUSH0 DUP4 DUP4 ADD MSTORE POP POP POP JUMP JUMPDEST PUSH0 PUSH1 0x1F NOT PUSH1 0x1F DUP4 ADD AND SWAP1 POP SWAP2 SWAP1 POP JUMP JUMPDEST PUSH0 PUSH2 0x906 DUP3 PUSH2 0x8C4 JUMP JUMPDEST PUSH2 0x910 DUP2 DUP6 PUSH2 0x8CE JUMP JUMPDEST SWAP4 POP PUSH2 0x920 DUP2 DUP6 PUSH1 0x20 DUP7 ADD PUSH2 0x8DE JUMP JUMPDEST PUSH2 0x929 DUP2 PUSH2 0x8EC JUMP JUMPDEST DUP5 ADD SWAP2 POP POP SWAP3 SWAP2 POP POP JUMP JUMPDEST PUSH0 PUSH1 0x20 DUP3 ADD SWAP1 POP DUP2 DUP2 SUB PUSH0 DUP4 ADD MSTORE PUSH2 0x94C DUP2 DUP5 PUSH2 0x8FC JUMP JUMPDEST SWAP1 POP SWAP3 SWAP2 POP POP JUMP JUMPDEST PUSH0 PUSH0 REVERT JUMPDEST PUSH0 PUSH20 0xFFFFFFFFFFFFFFFFFFFFFFFFFFFFFFFFFFFFFFFF DUP3 AND SWAP1 POP SWAP2 SWAP1 POP JUMP JUMPDEST PUSH0 PUSH2 0x981 DUP3 PUSH2 0x958 JUMP JUMPDEST SWAP1 POP SWAP2 SWAP1 POP JUMP JUMPDEST PUSH2 0x991 DUP2 PUSH2 0x977 JUMP JUMPDEST DUP2 EQ PUSH2 0x99B JUMPI PUSH0 PUSH0 REVERT JUMPDEST POP JUMP JUMPDEST PUSH0 DUP2 CALLDATALOAD SWAP1 POP PUSH2 0x9AC DUP2 PUSH2 0x988 JUMP JUMPDEST SWAP3 SWAP2 POP POP JUMP JUMPDEST PUSH0 DUP2 SWAP1 POP SWAP2 SWAP1 POP JUMP JUMPDEST PUSH2 0x9C4 DUP2 PUSH2 0x9B2 JUMP JUMPDEST DUP2 EQ PUSH2 0x9CE JUMPI PUSH0 PUSH0 REVERT JUMPDEST POP JUMP JUMPDEST PUSH0 DUP2 CALLDATALOAD SWAP1 POP PUSH2 0x9DF DUP2 PUSH2 0x9BB JUMP JUMPDEST SWAP3 SWAP2 POP POP JUMP JUMPDEST PUSH0 PUSH0 PUSH1 0x40 DUP4 DUP6 SUB SLT ISZERO PUSH2 0x9FB JUMPI PUSH2 0x9FA PUSH2 0x954 JUMP JUMPDEST JUMPDEST PUSH0 PUSH2 0xA08 DUP6 DUP3 DUP7 ADD PUSH2 0x99E JUMP JUMPDEST SWAP3 POP POP PUSH1 0x20 PUSH2 0xA19 DUP6 DUP3 DUP7 ADD PUSH2 0x9D1 JUMP JUMPDEST SWAP2 POP POP SWAP3 POP SWAP3 SWAP1 POP JUMP JUMPDEST PUSH0 DUP2 ISZERO ISZERO SWAP1 POP SWAP2 SWAP1 POP JUMP JUMPDEST PUSH2 0xA37 DUP2 PUSH2 0xA23 JUMP JUMPDEST DUP3 MSTORE POP POP JUMP JUMPDEST PUSH0 PUSH1 0x20 DUP3 ADD SWAP1 POP PUSH2 0xA50 PUSH0 DUP4 ADD DUP5 PUSH2 0xA2E JUMP JUMPDEST SWAP3 SWAP2 POP POP JUMP JUMPDEST PUSH2 0xA5F DUP2 PUSH2 0x9B2 JUMP JUMPDEST DUP3 MSTORE POP POP JUMP JUMPDEST PUSH0 PUSH1 0x20 DUP3 ADD SWAP1 POP PUSH2 0xA78 PUSH0 DUP4 ADD DUP5 PUSH2 0xA56 JUMP JUMPDEST SWAP3 SWAP2 POP POP JUMP JUMPDEST PUSH0 PUSH0 PUSH0 PUSH1 0x60 DUP5 DUP7 SUB SLT ISZERO PUSH2 0xA95 JUMPI PUSH2 0xA94 PUSH2 0x954 JUMP JUMPDEST JUMPDEST PUSH0 PUSH2 0xAA2 DUP7 DUP3 DUP8 ADD PUSH2 0x99E JUMP JUMPDEST SWAP4 POP POP PUSH1 0x20 PUSH2 0xAB3 DUP7 DUP3 DUP8 ADD PUSH2 0x99E JUMP JUMPDEST SWAP3 POP POP PUSH1 0x40 PUSH2 0xAC4 DUP7 DUP3 DUP8 ADD PUSH2 0x9D1 JUMP JUMPDEST SWAP2 POP POP SWAP3 POP SWAP3 POP SWAP3 JUMP JUMPDEST PUSH0 PUSH1 0xFF DUP3 AND SWAP1 POP SWAP2 SWAP1 POP JUMP JUMPDEST PUSH2 0xAE3 DUP2 PUSH2 0xACE JUMP JUMPDEST DUP3 MSTORE POP POP JUMP JUMPDEST PUSH0 PUSH1 0x20 DUP3 ADD SWAP1 POP PUSH2 0xAFC PUSH0 DUP4 ADD DUP5 PUSH2 0xADA JUMP JUMPDEST SWAP3 SWAP2 POP POP JUMP JUMPDEST PUSH0 PUSH0 PUSH1 0x40 DUP4 DUP6 SUB SLT ISZERO PUSH2 0xB18 JUMPI PUSH2 0xB17 PUSH2 0x954 JUMP JUMPDEST JUMPDEST PUSH0 PUSH2 0xB25 DUP6 DUP3 DUP7 ADD PUSH2 0x99E JUMP JUMPDEST SWAP3 POP POP PUSH1 0x20 PUSH2 0xB36 DUP6 DUP3 DUP7 ADD PUSH2 0x99E JUMP JUMPDEST SWAP2 POP POP SWAP3 POP SWAP3 SWAP1 POP JUMP JUMPDEST PUSH0 PUSH1 0x20 DUP3 DUP5 SUB SLT ISZERO PUSH2 0xB55 JUMPI PUSH2 0xB54 PUSH2 0x954 JUMP JUMPDEST JUMPDEST PUSH0 PUSH2 0xB62 DUP5 DUP3 DUP6 ADD PUSH2 0x99E JUMP JUMPDEST SWAP2 POP POP SWAP3 SWAP2 POP POP JUMP JUMPDEST PUSH32 0x4E487B7100000000000000000000000000000000000000000000000000000000 PUSH0 MSTORE PUSH1 0x22 PUSH1 0x4 MSTORE PUSH1 0x24 PUSH0 REVERT JUMPDEST PUSH0 PUSH1 0x2 DUP3 DIV SWAP1 POP PUSH1 0x1 DUP3 AND DUP1 PUSH2 0xBAF JUMPI PUSH1 0x7F DUP3 AND SWAP2 POP JUMPDEST PUSH1 0x20 DUP3 LT DUP2 SUB PUSH2 0xBC2 JUMPI PUSH2 0xBC1 PUSH2 0xB6B JUMP JUMPDEST JUMPDEST POP SWAP2 SWAP1 POP JUMP JUMPDEST PUSH32 0x496E73756666696369656E7420617070726F76616C0000000000000000000000 PUSH0 DUP3 ADD MSTORE POP JUMP JUMPDEST PUSH0 PUSH2 0xBFC PUSH1 0x15 DUP4 PUSH2 0x8CE JUMP JUMPDEST SWAP2 POP PUSH2 0xC07 DUP3 PUSH2 0xBC8 JUMP JUMPDEST PUSH1 0x20 DUP3 ADD SWAP1 POP SWAP2 SWAP1 POP JUMP JUMPDEST PUSH0 PUSH1 0x20 DUP3 ADD SWAP1 POP DUP2 DUP2 SUB PUSH0 DUP4 ADD MSTORE PUSH2 0xC29 DUP2 PUSH2 0xBF0 JUMP JUMPDEST SWAP1 POP SWAP2 SWAP1 POP JUMP JUMPDEST PUSH32 0x4E487B7100000000000000000000000000000000000000000000000000000000 PUSH0 MSTORE PUSH1 0x11 PUSH1 0x4 MSTORE PUSH1 0x24 PUSH0 REVERT JUMPDEST PUSH0 PUSH2 0xC67 DUP3 PUSH2 0x9B2 JUMP JUMPDEST SWAP2 POP PUSH2 0xC72 DUP4 PUSH2 0x9B2 JUMP JUMPDEST SWAP3 POP DUP3 DUP3 SUB SWAP1 POP DUP2 DUP2 GT ISZERO PUSH2 0xC8A JUMPI PUSH2 0xC89 PUSH2 0xC30 JUMP JUMPDEST JUMPDEST SWAP3 SWAP2 POP POP JUMP JUMPDEST PUSH32 0x556E73756666696369656E7420616D6F756E7400000000000000000000000000 PUSH0 DUP3 ADD MSTORE POP JUMP JUMPDEST PUSH0 PUSH2 0xCC4 PUSH1 0x13 DUP4 PUSH2 0x8CE JUMP JUMPDEST SWAP2 POP PUSH2 0xCCF DUP3 PUSH2 0xC90 JUMP JUMPDEST PUSH1 0x20 DUP3 ADD SWAP1 POP SWAP2 SWAP1 POP JUMP JUMPDEST PUSH0 PUSH1 0x20 DUP3 ADD SWAP1 POP DUP2 DUP2 SUB PUSH0 DUP4 ADD MSTORE PUSH2 0xCF1 DUP2 PUSH2 0xCB8 JUMP JUMPDEST SWAP1 POP SWAP2 SWAP1 POP JUMP JUMPDEST PUSH0 PUSH2 0xD02 DUP3 PUSH2 0x9B2 JUMP JUMPDEST SWAP2 POP PUSH2 0xD0D DUP4 PUSH2 0x9B2 JUMP JUMPDEST SWAP3 POP DUP3 DUP3 ADD SWAP1 POP DUP1 DUP3 GT ISZERO PUSH2 0xD25 JUMPI PUSH2 0xD24 PUSH2 0xC30 JUMP JUMPDEST JUMPDEST SWAP3 SWAP2 POP POP JUMP INVALID LOG2 PUSH5 0x6970667358 0x22 SLT KECCAK256 DIV CALLDATALOAD 0xE1 0xB8 PUSH31 0xFAD0D69F891349445BA5D55DAD4AF96E6841214E0354BD7FC1D5F764736F6C PUSH4 0x4300081C STOP CALLER "
				},
				"gasEstimates": {
					"creation": {
						"codeDepositCost": "685000",
						"executionCost": "infinite",
						"totalCost": "infinite"
					},
					"external": {
						"allowances(address,address)": "infinite",
						"approve(address,uint256)": "infinite",
						"balanceOf(address)": "2846",
						"decimals()": "2466",
						"name()": "infinite",
						"symbol()": "infinite",
						"totalSupply()": "2470",
						"transfer(address,uint256)": "infinite",
						"transferFrom(address,address,uint256)": "infinite"
					}
				},
				"methodIdentifiers": {
					"allowances(address,address)": "55b6ed5c",
					"approve(address,uint256)": "095ea7b3",
					"balanceOf(address)": "70a08231",
					"decimals()": "313ce567",
					"name()": "06fdde03",
					"symbol()": "95d89b41",
					"totalSupply()": "18160ddd",
					"transfer(address,uint256)": "a9059cbb",
					"transferFrom(address,address,uint256)": "23b872dd"
				}
			},
			"storageLayout": {
				"storage": [
					{
						"astId": 3,
						"contract": "Smart ContractStandarts/ERC20.sol:ERC20",
						"label": "name",
						"offset": 0,
						"slot": "0",
						"type": "t_string_storage"
					},
					{
						"astId": 5,
						"contract": "Smart ContractStandarts/ERC20.sol:ERC20",
						"label": "symbol",
						"offset": 0,
						"slot": "1",
						"type": "t_string_storage"
					},
					{
						"astId": 8,
						"contract": "Smart ContractStandarts/ERC20.sol:ERC20",
						"label": "decimals",
						"offset": 0,
						"slot": "2",
						"type": "t_uint8"
					},
					{
						"astId": 10,
						"contract": "Smart ContractStandarts/ERC20.sol:ERC20",
						"label": "totalSupply",
						"offset": 0,
						"slot": "3",
						"type": "t_uint256"
					},
					{
						"astId": 14,
						"contract": "Smart ContractStandarts/ERC20.sol:ERC20",
						"label": "balanceOf",
						"offset": 0,
						"slot": "4",
						"type": "t_mapping(t_address,t_uint256)"
					},
					{
						"astId": 20,
						"contract": "Smart ContractStandarts/ERC20.sol:ERC20",
						"label": "allowances",
						"offset": 0,
						"slot": "5",
						"type": "t_mapping(t_address,t_mapping(t_address,t_uint256))"
					}
				],
				"types": {
					"t_address": {
						"encoding": "inplace",
						"label": "address",
						"numberOfBytes": "20"
					},
					"t_mapping(t_address,t_mapping(t_address,t_uint256))": {
						"encoding": "mapping",
						"key": "t_address",
						"label": "mapping(address => mapping(address => uint256))",
						"numberOfBytes": "32",
						"value": "t_mapping(t_address,t_uint256)"
					},
					"t_mapping(t_address,t_uint256)": {
						"encoding": "mapping",
						"key": "t_address",
						"label": "mapping(address => uint256)",
						"numberOfBytes": "32",
						"value": "t_uint256"
					},
					"t_string_storage": {
						"encoding": "bytes",
						"label": "string",
						"numberOfBytes": "32"
					},
					"t_uint256": {
						"encoding": "inplace",
						"label": "uint256",
						"numberOfBytes": "32"
					},
					"t_uint8": {
						"encoding": "inplace",
						"label": "uint8",
						"numberOfBytes": "1"
					}
				}
			},
			"userdoc": {
				"kind": "user",
				"methods": {},
				"version": 1
			}
		}
	}
}