{
	"data": {
		"bytecode": {
			"linkReferences": {},
			"object": "608060405260286002553480156013575f5ffd5b5061145b806100215f395ff3fe608060405234801561000f575f5ffd5b506004361061007b575f3560e01c80636d1b88de116100595780636d1b88de146100ed5780638f9276ff1461010b57806397e3e9c414610127578063ee590c4e146101435761007b565b8063186f98041461007f57806328d1f35e1461009b5780632b9dfe80146100b7575b5f5ffd5b61009960048036038101906100949190610a22565b61015f565b005b6100b560048036038101906100b09190610ad6565b610342565b005b6100d160048036038101906100cc9190610c6b565b610437565b6040516100e49796959493929190610dd3565b60405180910390f35b6100f56105c4565b6040516101029190610e4e565b60405180910390f35b61012560048036038101906101209190610e91565b6105ca565b005b610141600480360381019061013c9190610eee565b6106f4565b005b61015d60048036038101906101589190610f39565b6107f8565b005b6040518060e0016040528086868080601f0160208091040260200160405190810160405280939291908181526020018383808284375f81840152601f19601f82011690508083019250505050505050815260200184848080601f0160208091040260200160405190810160405280939291908181526020018383808284375f81840152601f19601f820116905080830192505050505050508152602001828152602001620151806002546102139190610fc3565b8361021e9190611004565b81526020015f600281111561023657610235610d21565b5b81526020013373ffffffffffffffffffffffffffffffffffffffff1681526020015f8152505f868660405161026c929190611065565b90815260200160405180910390205f820151815f01908161028d919061127a565b5060208201518160010190816102a3919061127a565b5060408201518160020155606082015181600301556080820151816004015f6101000a81548160ff021916908360028111156102e2576102e1610d21565b5b021790555060a08201518160040160016101000a81548173ffffffffffffffffffffffffffffffffffffffff021916908373ffffffffffffffffffffffffffffffffffffffff16021790555060c082015181600501559050505050505050565b5f8383604051610353929190611065565b908152602001604051809103902060040160019054906101000a900473ffffffffffffffffffffffffffffffffffffffff1673ffffffffffffffffffffffffffffffffffffffff163373ffffffffffffffffffffffffffffffffffffffff16146103e9576040517f65e6d29e00000000000000000000000000000000000000000000000000000000815260040160405180910390fd5b805f84846040516103fb929190611065565b90815260200160405180910390206004015f6101000a81548160ff0219169083600281111561042d5761042c610d21565b5b0217905550505050565b5f818051602081018201805184825260208301602085012081835280955050505050505f91509050805f01805461046d906110aa565b80601f0160208091040260200160405190810160405280929190818152602001828054610499906110aa565b80156104e45780601f106104bb576101008083540402835291602001916104e4565b820191905f5260205f20905b8154815290600101906020018083116104c757829003601f168201915b5050505050908060010180546104f9906110aa565b80601f0160208091040260200160405190810160405280929190818152602001828054610525906110aa565b80156105705780601f1061054757610100808354040283529160200191610570565b820191905f5260205f20905b81548152906001019060200180831161055357829003601f168201915b505050505090806002015490806003015490806004015f9054906101000a900460ff16908060040160019054906101000a900473ffffffffffffffffffffffffffffffffffffffff16908060050154905087565b60025481565b3373ffffffffffffffffffffffffffffffffffffffff165f83836040516105f2929190611065565b908152602001604051809103902060040160019054906101000a900473ffffffffffffffffffffffffffffffffffffffff1673ffffffffffffffffffffffffffffffffffffffff1614610671576040517f65e6d29e00000000000000000000000000000000000000000000000000000000815260040160405180910390fd5b60018282604051610683929190611065565b908152602001604051809103902083908060018154018082558091505060019003905f5260205f20015f9091909190916101000a81548173ffffffffffffffffffffffffffffffffffffffff021916908373ffffffffffffffffffffffffffffffffffffffff160217905550505050565b5f5f8383604051610706929190611065565b90815260200160405180910390206004015f9054906101000a900460ff1690505f600281111561073957610738610d21565b5b81600281111561074c5761074b610d21565b5b14158061077a5750425f8484604051610766929190611065565b908152602001604051809103902060030154105b156107ba576040517f08c379a00000000000000000000000000000000000000000000000000000000081526004016107b190611393565b60405180910390fd5b60015f84846040516107cd929190611065565b90815260200160405180910390206005015f8282546107ec9190611004565b92505081905550505050565b5f6001848460405161080b929190611065565b908152602001604051809103902080548060200260200160405190810160405280929190818152602001828054801561089657602002820191905f5260205f20905b815f9054906101000a900473ffffffffffffffffffffffffffffffffffffffff1673ffffffffffffffffffffffffffffffffffffffff168152602001906001019080831161084d575b505050505090505f5f90505f5f90505b8251811080156108b4575081155b15610917578281815181106108cc576108cb6113b1565b5b602002602001015173ffffffffffffffffffffffffffffffffffffffff163373ffffffffffffffffffffffffffffffffffffffff16149150808061090f906113de565b9150506108a6565b508061094f576040517f65e6d29e00000000000000000000000000000000000000000000000000000000815260040160405180910390fd5b825f8686604051610961929190611065565b9081526020016040518091039020600301819055505050505050565b5f604051905090565b5f5ffd5b5f5ffd5b5f5ffd5b5f5ffd5b5f5ffd5b5f5f83601f8401126109af576109ae61098e565b5b8235905067ffffffffffffffff8111156109cc576109cb610992565b5b6020830191508360018202830111156109e8576109e7610996565b5b9250929050565b5f819050919050565b610a01816109ef565b8114610a0b575f5ffd5b50565b5f81359050610a1c816109f8565b92915050565b5f5f5f5f5f60608688031215610a3b57610a3a610986565b5b5f86013567ffffffffffffffff811115610a5857610a5761098a565b5b610a648882890161099a565b9550955050602086013567ffffffffffffffff811115610a8757610a8661098a565b5b610a938882890161099a565b93509350506040610aa688828901610a0e565b9150509295509295909350565b60038110610abf575f5ffd5b50565b5f81359050610ad081610ab3565b92915050565b5f5f5f60408486031215610aed57610aec610986565b5b5f84013567ffffffffffffffff811115610b0a57610b0961098a565b5b610b168682870161099a565b93509350506020610b2986828701610ac2565b9150509250925092565b5f5ffd5b5f601f19601f8301169050919050565b7f4e487b71000000000000000000000000000000000000000000000000000000005f52604160045260245ffd5b610b7d82610b37565b810181811067ffffffffffffffff82111715610b9c57610b9b610b47565b5b80604052505050565b5f610bae61097d565b9050610bba8282610b74565b919050565b5f67ffffffffffffffff821115610bd957610bd8610b47565b5b610be282610b37565b9050602081019050919050565b828183375f83830152505050565b5f610c0f610c0a84610bbf565b610ba5565b905082815260208101848484011115610c2b57610c2a610b33565b5b610c36848285610bef565b509392505050565b5f82601f830112610c5257610c5161098e565b5b8135610c62848260208601610bfd565b91505092915050565b5f60208284031215610c8057610c7f610986565b5b5f82013567ffffffffffffffff811115610c9d57610c9c61098a565b5b610ca984828501610c3e565b91505092915050565b5f81519050919050565b5f82825260208201905092915050565b8281835e5f83830152505050565b5f610ce482610cb2565b610cee8185610cbc565b9350610cfe818560208601610ccc565b610d0781610b37565b840191505092915050565b610d1b816109ef565b82525050565b7f4e487b71000000000000000000000000000000000000000000000000000000005f52602160045260245ffd5b60038110610d5f57610d5e610d21565b5b50565b5f819050610d6f82610d4e565b919050565b5f610d7e82610d62565b9050919050565b610d8e81610d74565b82525050565b5f73ffffffffffffffffffffffffffffffffffffffff82169050919050565b5f610dbd82610d94565b9050919050565b610dcd81610db3565b82525050565b5f60e0820190508181035f830152610deb818a610cda565b90508181036020830152610dff8189610cda565b9050610e0e6040830188610d12565b610e1b6060830187610d12565b610e286080830186610d85565b610e3560a0830185610dc4565b610e4260c0830184610d12565b98975050505050505050565b5f602082019050610e615f830184610d12565b92915050565b610e7081610db3565b8114610e7a575f5ffd5b50565b5f81359050610e8b81610e67565b92915050565b5f5f5f60408486031215610ea857610ea7610986565b5b5f610eb586828701610e7d565b935050602084013567ffffffffffffffff811115610ed657610ed561098a565b5b610ee28682870161099a565b92509250509250925092565b5f5f60208385031215610f0457610f03610986565b5b5f83013567ffffffffffffffff811115610f2157610f2061098a565b5b610f2d8582860161099a565b92509250509250929050565b5f5f5f60408486031215610f5057610f4f610986565b5b5f84013567ffffffffffffffff811115610f6d57610f6c61098a565b5b610f798682870161099a565b93509350506020610f8c86828701610a0e565b9150509250925092565b7f4e487b71000000000000000000000000000000000000000000000000000000005f52601160045260245ffd5b5f610fcd826109ef565b9150610fd8836109ef565b9250828202610fe6816109ef565b91508282048414831517610ffd57610ffc610f96565b5b5092915050565b5f61100e826109ef565b9150611019836109ef565b925082820190508082111561103157611030610f96565b5b92915050565b5f81905092915050565b5f61104c8385611037565b9350611059838584610bef565b82840190509392505050565b5f611071828486611041565b91508190509392505050565b7f4e487b71000000000000000000000000000000000000000000000000000000005f52602260045260245ffd5b5f60028204905060018216806110c157607f821691505b6020821081036110d4576110d361107d565b5b50919050565b5f819050815f5260205f209050919050565b5f6020601f8301049050919050565b5f82821b905092915050565b5f600883026111367fffffffffffffffffffffffffffffffffffffffffffffffffffffffffffffffff826110fb565b61114086836110fb565b95508019841693508086168417925050509392505050565b5f819050919050565b5f61117b611176611171846109ef565b611158565b6109ef565b9050919050565b5f819050919050565b61119483611161565b6111a86111a082611182565b848454611107565b825550505050565b5f5f905090565b6111bf6111b0565b6111ca81848461118b565b505050565b5b818110156111ed576111e25f826111b7565b6001810190506111d0565b5050565b601f82111561123257611203816110da565b61120c846110ec565b8101602085101561121b578190505b61122f611227856110ec565b8301826111cf565b50505b505050565b5f82821c905092915050565b5f6112525f1984600802611237565b1980831691505092915050565b5f61126a8383611243565b9150826002028217905092915050565b61128382610cb2565b67ffffffffffffffff81111561129c5761129b610b47565b5b6112a682546110aa565b6112b18282856111f1565b5f60209050601f8311600181146112e2575f84156112d0578287015190505b6112da858261125f565b865550611341565b601f1984166112f0866110da565b5f5b82811015611317578489015182556001820191506020850194506020810190506112f2565b868310156113345784890151611330601f891682611243565b8355505b6001600288020188555050505b505050505050565b7f426f6f6b206973206f75746461746564000000000000000000000000000000005f82015250565b5f61137d601083610cbc565b915061138882611349565b602082019050919050565b5f6020820190508181035f8301526113aa81611371565b9050919050565b7f4e487b71000000000000000000000000000000000000000000000000000000005f52603260045260245ffd5b5f6113e8826109ef565b91507fffffffffffffffffffffffffffffffffffffffffffffffffffffffffffffffff820361141a57611419610f96565b5b60018201905091905056fea2646970667358221220ab7a0b7f0b9523122f2fd01a00975aea6e985597ad7777c8375978dab50f7d9764736f6c634300081c0033",
			"opcodes": "PUSH1 0x80 PUSH1 0x40 MSTORE PUSH1 0x28 PUSH1 0x2 SSTORE CALLVALUE DUP1 ISZERO PUSH1 0x13 JUMPI PUSH0 PUSH0 REVERT JUMPDEST POP PUSH2 0x145B DUP1 PUSH2 0x21 PUSH0 CODECOPY PUSH0 RETURN INVALID PUSH1 0x80 PUSH1 0x40 MSTORE CALLVALUE DUP1 ISZERO PUSH2 0xF JUMPI PUSH0 PUSH0 REVERT JUMPDEST POP PUSH1 0x4 CALLDATASIZE LT PUSH2 0x7B JUMPI PUSH0 CALLDATALOAD PUSH1 0xE0 SHR DUP1 PUSH4 0x6D1B88DE GT PUSH2 0x59 JUMPI DUP1 PUSH4 0x6D1B88DE EQ PUSH2 0xED JUMPI DUP1 PUSH4 0x8F9276FF EQ PUSH2 0x10B JUMPI DUP1 PUSH4 0x97E3E9C4 EQ PUSH2 0x127 JUMPI DUP1 PUSH4 0xEE590C4E EQ PUSH2 0x143 JUMPI PUSH2 0x7B JUMP JUMPDEST DUP1 PUSH4 0x186F9804 EQ PUSH2 0x7F JUMPI DUP1 PUSH4 0x28D1F35E EQ PUSH2 0x9B JUMPI DUP1 PUSH4 0x2B9DFE80 EQ PUSH2 0xB7 JUMPI JUMPDEST PUSH0 PUSH0 REVERT JUMPDEST PUSH2 0x99 PUSH1 0x4 DUP1 CALLDATASIZE SUB DUP2 ADD SWAP1 PUSH2 0x94 SWAP2 SWAP1 PUSH2 0xA22 JUMP JUMPDEST PUSH2 0x15F JUMP JUMPDEST STOP JUMPDEST PUSH2 0xB5 PUSH1 0x4 DUP1 CALLDATASIZE SUB DUP2 ADD SWAP1 PUSH2 0xB0 SWAP2 SWAP1 PUSH2 0xAD6 JUMP JUMPDEST PUSH2 0x342 JUMP JUMPDEST STOP JUMPDEST PUSH2 0xD1 PUSH1 0x4 DUP1 CALLDATASIZE SUB DUP2 ADD SWAP1 PUSH2 0xCC SWAP2 SWAP1 PUSH2 0xC6B JUMP JUMPDEST PUSH2 0x437 JUMP JUMPDEST PUSH1 0x40 MLOAD PUSH2 0xE4 SWAP8 SWAP7 SWAP6 SWAP5 SWAP4 SWAP3 SWAP2 SWAP1 PUSH2 0xDD3 JUMP JUMPDEST PUSH1 0x40 MLOAD DUP1 SWAP2 SUB SWAP1 RETURN JUMPDEST PUSH2 0xF5 PUSH2 0x5C4 JUMP JUMPDEST PUSH1 0x40 MLOAD PUSH2 0x102 SWAP2 SWAP1 PUSH2 0xE4E JUMP JUMPDEST PUSH1 0x40 MLOAD DUP1 SWAP2 SUB SWAP1 RETURN JUMPDEST PUSH2 0x125 PUSH1 0x4 DUP1 CALLDATASIZE SUB DUP2 ADD SWAP1 PUSH2 0x120 SWAP2 SWAP1 PUSH2 0xE91 JUMP JUMPDEST PUSH2 0x5CA JUMP JUMPDEST STOP JUMPDEST PUSH2 0x141 PUSH1 0x4 DUP1 CALLDATASIZE SUB DUP2 ADD SWAP1 PUSH2 0x13C SWAP2 SWAP1 PUSH2 0xEEE JUMP JUMPDEST PUSH2 0x6F4 JUMP JUMPDEST STOP JUMPDEST PUSH2 0x15D PUSH1 0x4 DUP1 CALLDATASIZE SUB DUP2 ADD SWAP1 PUSH2 0x158 SWAP2 SWAP1 PUSH2 0xF39 JUMP JUMPDEST PUSH2 0x7F8 JUMP JUMPDEST STOP JUMPDEST PUSH1 0x40 MLOAD DUP1 PUSH1 0xE0 ADD PUSH1 0x40 MSTORE DUP1 DUP7 DUP7 DUP1 DUP1 PUSH1 0x1F ADD PUSH1 0x20 DUP1 SWAP2 DIV MUL PUSH1 0x20 ADD PUSH1 0x40 MLOAD SWAP1 DUP2 ADD PUSH1 0x40 MSTORE DUP1 SWAP4 SWAP3 SWAP2 SWAP1 DUP2 DUP2 MSTORE PUSH1 0x20 ADD DUP4 DUP4 DUP1 DUP3 DUP5 CALLDATACOPY PUSH0 DUP2 DUP5 ADD MSTORE PUSH1 0x1F NOT PUSH1 0x1F DUP3 ADD AND SWAP1 POP DUP1 DUP4 ADD SWAP3 POP POP POP POP POP POP POP DUP2 MSTORE PUSH1 0x20 ADD DUP5 DUP5 DUP1 DUP1 PUSH1 0x1F ADD PUSH1 0x20 DUP1 SWAP2 DIV MUL PUSH1 0x20 ADD PUSH1 0x40 MLOAD SWAP1 DUP2 ADD PUSH1 0x40 MSTORE DUP1 SWAP4 SWAP3 SWAP2 SWAP1 DUP2 DUP2 MSTORE PUSH1 0x20 ADD DUP4 DUP4 DUP1 DUP3 DUP5 CALLDATACOPY PUSH0 DUP2 DUP5 ADD MSTORE PUSH1 0x1F NOT PUSH1 0x1F DUP3 ADD AND SWAP1 POP DUP1 DUP4 ADD SWAP3 POP POP POP POP POP POP POP DUP2 MSTORE PUSH1 0x20 ADD DUP3 DUP2 MSTORE PUSH1 0x20 ADD PUSH3 0x15180 PUSH1 0x2 SLOAD PUSH2 0x213 SWAP2 SWAP1 PUSH2 0xFC3 JUMP JUMPDEST DUP4 PUSH2 0x21E SWAP2 SWAP1 PUSH2 0x1004 JUMP JUMPDEST DUP2 MSTORE PUSH1 0x20 ADD PUSH0 PUSH1 0x2 DUP2 GT ISZERO PUSH2 0x236 JUMPI PUSH2 0x235 PUSH2 0xD21 JUMP JUMPDEST JUMPDEST DUP2 MSTORE PUSH1 0x20 ADD CALLER PUSH20 0xFFFFFFFFFFFFFFFFFFFFFFFFFFFFFFFFFFFFFFFF AND DUP2 MSTORE PUSH1 0x20 ADD PUSH0 DUP2 MSTORE POP PUSH0 DUP7 DUP7 PUSH1 0x40 MLOAD PUSH2 0x26C SWAP3 SWAP2 SWAP1 PUSH2 0x1065 JUMP JUMPDEST SWAP1 DUP2 MSTORE PUSH1 0x20 ADD PUSH1 0x40 MLOAD DUP1 SWAP2 SUB SWAP1 KECCAK256 PUSH0 DUP3 ADD MLOAD DUP2 PUSH0 ADD SWAP1 DUP2 PUSH2 0x28D SWAP2 SWAP1 PUSH2 0x127A JUMP JUMPDEST POP PUSH1 0x20 DUP3 ADD MLOAD DUP2 PUSH1 0x1 ADD SWAP1 DUP2 PUSH2 0x2A3 SWAP2 SWAP1 PUSH2 0x127A JUMP JUMPDEST POP PUSH1 0x40 DUP3 ADD MLOAD DUP2 PUSH1 0x2 ADD SSTORE PUSH1 0x60 DUP3 ADD MLOAD DUP2 PUSH1 0x3 ADD SSTORE PUSH1 0x80 DUP3 ADD MLOAD DUP2 PUSH1 0x4 ADD PUSH0 PUSH2 0x100 EXP DUP2 SLOAD DUP2 PUSH1 0xFF MUL NOT AND SWAP1 DUP4 PUSH1 0x2 DUP2 GT ISZERO PUSH2 0x2E2 JUMPI PUSH2 0x2E1 PUSH2 0xD21 JUMP JUMPDEST JUMPDEST MUL OR SWAP1 SSTORE POP PUSH1 0xA0 DUP3 ADD MLOAD DUP2 PUSH1 0x4 ADD PUSH1 0x1 PUSH2 0x100 EXP DUP2 SLOAD DUP2 PUSH20 0xFFFFFFFFFFFFFFFFFFFFFFFFFFFFFFFFFFFFFFFF MUL NOT AND SWAP1 DUP4 PUSH20 0xFFFFFFFFFFFFFFFFFFFFFFFFFFFFFFFFFFFFFFFF AND MUL OR SWAP1 SSTORE POP PUSH1 0xC0 DUP3 ADD MLOAD DUP2 PUSH1 0x5 ADD SSTORE SWAP1 POP POP POP POP POP POP POP JUMP JUMPDEST PUSH0 DUP4 DUP4 PUSH1 0x40 MLOAD PUSH2 0x353 SWAP3 SWAP2 SWAP1 PUSH2 0x1065 JUMP JUMPDEST SWAP1 DUP2 MSTORE PUSH1 0x20 ADD PUSH1 0x40 MLOAD DUP1 SWAP2 SUB SWAP1 KECCAK256 PUSH1 0x4 ADD PUSH1 0x1 SWAP1 SLOAD SWAP1 PUSH2 0x100 EXP SWAP1 DIV PUSH20 0xFFFFFFFFFFFFFFFFFFFFFFFFFFFFFFFFFFFFFFFF AND PUSH20 0xFFFFFFFFFFFFFFFFFFFFFFFFFFFFFFFFFFFFFFFF AND CALLER PUSH20 0xFFFFFFFFFFFFFFFFFFFFFFFFFFFFFFFFFFFFFFFF AND EQ PUSH2 0x3E9 JUMPI PUSH1 0x40 MLOAD PUSH32 0x65E6D29E00000000000000000000000000000000000000000000000000000000 DUP2 MSTORE PUSH1 0x4 ADD PUSH1 0x40 MLOAD DUP1 SWAP2 SUB SWAP1 REVERT JUMPDEST DUP1 PUSH0 DUP5 DUP5 PUSH1 0x40 MLOAD PUSH2 0x3FB SWAP3 SWAP2 SWAP1 PUSH2 0x1065 JUMP JUMPDEST SWAP1 DUP2 MSTORE PUSH1 0x20 ADD PUSH1 0x40 MLOAD DUP1 SWAP2 SUB SWAP1 KECCAK256 PUSH1 0x4 ADD PUSH0 PUSH2 0x100 EXP DUP2 SLOAD DUP2 PUSH1 0xFF MUL NOT AND SWAP1 DUP4 PUSH1 0x2 DUP2 GT ISZERO PUSH2 0x42D JUMPI PUSH2 0x42C PUSH2 0xD21 JUMP JUMPDEST JUMPDEST MUL OR SWAP1 SSTORE POP POP POP POP JUMP JUMPDEST PUSH0 DUP2 DUP1 MLOAD PUSH1 0x20 DUP2 ADD DUP3 ADD DUP1 MLOAD DUP5 DUP3 MSTORE PUSH1 0x20 DUP4 ADD PUSH1 0x20 DUP6 ADD KECCAK256 DUP2 DUP4 MSTORE DUP1 SWAP6 POP POP POP POP POP POP PUSH0 SWAP2 POP SWAP1 POP DUP1 PUSH0 ADD DUP1 SLOAD PUSH2 0x46D SWAP1 PUSH2 0x10AA JUMP JUMPDEST DUP1 PUSH1 0x1F ADD PUSH1 0x20 DUP1 SWAP2 DIV MUL PUSH1 0x20 ADD PUSH1 0x40 MLOAD SWAP1 DUP2 ADD PUSH1 0x40 MSTORE DUP1 SWAP3 SWAP2 SWAP1 DUP2 DUP2 MSTORE PUSH1 0x20 ADD DUP3 DUP1 SLOAD PUSH2 0x499 SWAP1 PUSH2 0x10AA JUMP JUMPDEST DUP1 ISZERO PUSH2 0x4E4 JUMPI DUP1 PUSH1 0x1F LT PUSH2 0x4BB JUMPI PUSH2 0x100 DUP1 DUP4 SLOAD DIV MUL DUP4 MSTORE SWAP2 PUSH1 0x20 ADD SWAP2 PUSH2 0x4E4 JUMP JUMPDEST DUP3 ADD SWAP2 SWAP1 PUSH0 MSTORE PUSH1 0x20 PUSH0 KECCAK256 SWAP1 JUMPDEST DUP2 SLOAD DUP2 MSTORE SWAP1 PUSH1 0x1 ADD SWAP1 PUSH1 0x20 ADD DUP1 DUP4 GT PUSH2 0x4C7 JUMPI DUP3 SWAP1 SUB PUSH1 0x1F AND DUP3 ADD SWAP2 JUMPDEST POP POP POP POP POP SWAP1 DUP1 PUSH1 0x1 ADD DUP1 SLOAD PUSH2 0x4F9 SWAP1 PUSH2 0x10AA JUMP JUMPDEST DUP1 PUSH1 0x1F ADD PUSH1 0x20 DUP1 SWAP2 DIV MUL PUSH1 0x20 ADD PUSH1 0x40 MLOAD SWAP1 DUP2 ADD PUSH1 0x40 MSTORE DUP1 SWAP3 SWAP2 SWAP1 DUP2 DUP2 MSTORE PUSH1 0x20 ADD DUP3 DUP1 SLOAD PUSH2 0x525 SWAP1 PUSH2 0x10AA JUMP JUMPDEST DUP1 ISZERO PUSH2 0x570 JUMPI DUP1 PUSH1 0x1F LT PUSH2 0x547 JUMPI PUSH2 0x100 DUP1 DUP4 SLOAD DIV MUL DUP4 MSTORE SWAP2 PUSH1 0x20 ADD SWAP2 PUSH2 0x570 JUMP JUMPDEST DUP3 ADD SWAP2 SWAP1 PUSH0 MSTORE PUSH1 0x20 PUSH0 KECCAK256 SWAP1 JUMPDEST DUP2 SLOAD DUP2 MSTORE SWAP1 PUSH1 0x1 ADD SWAP1 PUSH1 0x20 ADD DUP1 DUP4 GT PUSH2 0x553 JUMPI DUP3 SWAP1 SUB PUSH1 0x1F AND DUP3 ADD SWAP2 JUMPDEST POP POP POP POP POP SWAP1 DUP1 PUSH1 0x2 ADD SLOAD SWAP1 DUP1 PUSH1 0x3 ADD SLOAD SWAP1 DUP1 PUSH1 0x4 ADD PUSH0 SWAP1 SLOAD SWAP1 PUSH2 0x100 EXP SWAP1 DIV PUSH1 0xFF AND SWAP1 DUP1 PUSH1 0x4 ADD PUSH1 0x1 SWAP1 SLOAD SWAP1 PUSH2 0x100 EXP SWAP1 DIV PUSH20 0xFFFFFFFFFFFFFFFFFFFFFFFFFFFFFFFFFFFFFFFF AND SWAP1 DUP1 PUSH1 0x5 ADD SLOAD SWAP1 POP DUP8 JUMP JUMPDEST PUSH1 0x2 SLOAD DUP2 JUMP JUMPDEST CALLER PUSH20 0xFFFFFFFFFFFFFFFFFFFFFFFFFFFFFFFFFFFFFFFF AND PUSH0 DUP4 DUP4 PUSH1 0x40 MLOAD PUSH2 0x5F2 SWAP3 SWAP2 SWAP1 PUSH2 0x1065 JUMP JUMPDEST SWAP1 DUP2 MSTORE PUSH1 0x20 ADD PUSH1 0x40 MLOAD DUP1 SWAP2 SUB SWAP1 KECCAK256 PUSH1 0x4 ADD PUSH1 0x1 SWAP1 SLOAD SWAP1 PUSH2 0x100 EXP SWAP1 DIV PUSH20 0xFFFFFFFFFFFFFFFFFFFFFFFFFFFFFFFFFFFFFFFF AND PUSH20 0xFFFFFFFFFFFFFFFFFFFFFFFFFFFFFFFFFFFFFFFF AND EQ PUSH2 0x671 JUMPI PUSH1 0x40 MLOAD PUSH32 0x65E6D29E00000000000000000000000000000000000000000000000000000000 DUP2 MSTORE PUSH1 0x4 ADD PUSH1 0x40 MLOAD DUP1 SWAP2 SUB SWAP1 REVERT JUMPDEST PUSH1 0x1 DUP3 DUP3 PUSH1 0x40 MLOAD PUSH2 0x683 SWAP3 SWAP2 SWAP1 PUSH2 0x1065 JUMP JUMPDEST SWAP1 DUP2 MSTORE PUSH1 0x20 ADD PUSH1 0x40 MLOAD DUP1 SWAP2 SUB SWAP1 KECCAK256 DUP4 SWAP1 DUP1 PUSH1 0x1 DUP2 SLOAD ADD DUP1 DUP3 SSTORE DUP1 SWAP2 POP POP PUSH1 0x1 SWAP1 SUB SWAP1 PUSH0 MSTORE PUSH1 0x20 PUSH0 KECCAK256 ADD PUSH0 SWAP1 SWAP2 SWAP1 SWAP2 SWAP1 SWAP2 PUSH2 0x100 EXP DUP2 SLOAD DUP2 PUSH20 0xFFFFFFFFFFFFFFFFFFFFFFFFFFFFFFFFFFFFFFFF MUL NOT AND SWAP1 DUP4 PUSH20 0xFFFFFFFFFFFFFFFFFFFFFFFFFFFFFFFFFFFFFFFF AND MUL OR SWAP1 SSTORE POP POP POP POP JUMP JUMPDEST PUSH0 PUSH0 DUP4 DUP4 PUSH1 0x40 MLOAD PUSH2 0x706 SWAP3 SWAP2 SWAP1 PUSH2 0x1065 JUMP JUMPDEST SWAP1 DUP2 MSTORE PUSH1 0x20 ADD PUSH1 0x40 MLOAD DUP1 SWAP2 SUB SWAP1 KECCAK256 PUSH1 0x4 ADD PUSH0 SWAP1 SLOAD SWAP1 PUSH2 0x100 EXP SWAP1 DIV PUSH1 0xFF AND SWAP1 POP PUSH0 PUSH1 0x2 DUP2 GT ISZERO PUSH2 0x739 JUMPI PUSH2 0x738 PUSH2 0xD21 JUMP JUMPDEST JUMPDEST DUP2 PUSH1 0x2 DUP2 GT ISZERO PUSH2 0x74C JUMPI PUSH2 0x74B PUSH2 0xD21 JUMP JUMPDEST JUMPDEST EQ ISZERO DUP1 PUSH2 0x77A JUMPI POP TIMESTAMP PUSH0 DUP5 DUP5 PUSH1 0x40 MLOAD PUSH2 0x766 SWAP3 SWAP2 SWAP1 PUSH2 0x1065 JUMP JUMPDEST SWAP1 DUP2 MSTORE PUSH1 0x20 ADD PUSH1 0x40 MLOAD DUP1 SWAP2 SUB SWAP1 KECCAK256 PUSH1 0x3 ADD SLOAD LT JUMPDEST ISZERO PUSH2 0x7BA JUMPI PUSH1 0x40 MLOAD PUSH32 0x8C379A000000000000000000000000000000000000000000000000000000000 DUP2 MSTORE PUSH1 0x4 ADD PUSH2 0x7B1 SWAP1 PUSH2 0x1393 JUMP JUMPDEST PUSH1 0x40 MLOAD DUP1 SWAP2 SUB SWAP1 REVERT JUMPDEST PUSH1 0x1 PUSH0 DUP5 DUP5 PUSH1 0x40 MLOAD PUSH2 0x7CD SWAP3 SWAP2 SWAP1 PUSH2 0x1065 JUMP JUMPDEST SWAP1 DUP2 MSTORE PUSH1 0x20 ADD PUSH1 0x40 MLOAD DUP1 SWAP2 SUB SWAP1 KECCAK256 PUSH1 0x5 ADD PUSH0 DUP3 DUP3 SLOAD PUSH2 0x7EC SWAP2 SWAP1 PUSH2 0x1004 JUMP JUMPDEST SWAP3 POP POP DUP2 SWAP1 SSTORE POP POP POP POP JUMP JUMPDEST PUSH0 PUSH1 0x1 DUP5 DUP5 PUSH1 0x40 MLOAD PUSH2 0x80B SWAP3 SWAP2 SWAP1 PUSH2 0x1065 JUMP JUMPDEST SWAP1 DUP2 MSTORE PUSH1 0x20 ADD PUSH1 0x40 MLOAD DUP1 SWAP2 SUB SWAP1 KECCAK256 DUP1 SLOAD DUP1 PUSH1 0x20 MUL PUSH1 0x20 ADD PUSH1 0x40 MLOAD SWAP1 DUP2 ADD PUSH1 0x40 MSTORE DUP1 SWAP3 SWAP2 SWAP1 DUP2 DUP2 MSTORE PUSH1 0x20 ADD DUP3 DUP1 SLOAD DUP1 ISZERO PUSH2 0x896 JUMPI PUSH1 0x20 MUL DUP3 ADD SWAP2 SWAP1 PUSH0 MSTORE PUSH1 0x20 PUSH0 KECCAK256 SWAP1 JUMPDEST DUP2 PUSH0 SWAP1 SLOAD SWAP1 PUSH2 0x100 EXP SWAP1 DIV PUSH20 0xFFFFFFFFFFFFFFFFFFFFFFFFFFFFFFFFFFFFFFFF AND PUSH20 0xFFFFFFFFFFFFFFFFFFFFFFFFFFFFFFFFFFFFFFFF AND DUP2 MSTORE PUSH1 0x20 ADD SWAP1 PUSH1 0x1 ADD SWAP1 DUP1 DUP4 GT PUSH2 0x84D JUMPI JUMPDEST POP POP POP POP POP SWAP1 POP PUSH0 PUSH0 SWAP1 POP PUSH0 PUSH0 SWAP1 POP JUMPDEST DUP3 MLOAD DUP2 LT DUP1 ISZERO PUSH2 0x8B4 JUMPI POP DUP2 ISZERO JUMPDEST ISZERO PUSH2 0x917 JUMPI DUP3 DUP2 DUP2 MLOAD DUP2 LT PUSH2 0x8CC JUMPI PUSH2 0x8CB PUSH2 0x13B1 JUMP JUMPDEST JUMPDEST PUSH1 0x20 MUL PUSH1 0x20 ADD ADD MLOAD PUSH20 0xFFFFFFFFFFFFFFFFFFFFFFFFFFFFFFFFFFFFFFFF AND CALLER PUSH20 0xFFFFFFFFFFFFFFFFFFFFFFFFFFFFFFFFFFFFFFFF AND EQ SWAP2 POP DUP1 DUP1 PUSH2 0x90F SWAP1 PUSH2 0x13DE JUMP JUMPDEST SWAP2 POP POP PUSH2 0x8A6 JUMP JUMPDEST POP DUP1 PUSH2 0x94F JUMPI PUSH1 0x40 MLOAD PUSH32 0x65E6D29E00000000000000000000000000000000000000000000000000000000 DUP2 MSTORE PUSH1 0x4 ADD PUSH1 0x40 MLOAD DUP1 SWAP2 SUB SWAP1 REVERT JUMPDEST DUP3 PUSH0 DUP7 DUP7 PUSH1 0x40 MLOAD PUSH2 0x961 SWAP3 SWAP2 SWAP1 PUSH2 0x1065 JUMP JUMPDEST SWAP1 DUP2 MSTORE PUSH1 0x20 ADD PUSH1 0x40 MLOAD DUP1 SWAP2 SUB SWAP1 KECCAK256 PUSH1 0x3 ADD DUP2 SWAP1 SSTORE POP POP POP POP POP POP JUMP JUMPDEST PUSH0 PUSH1 0x40 MLOAD SWAP1 POP SWAP1 JUMP JUMPDEST PUSH0 PUSH0 REVERT JUMPDEST PUSH0 PUSH0 REVERT JUMPDEST PUSH0 PUSH0 REVERT JUMPDEST PUSH0 PUSH0 REVERT JUMPDEST PUSH0 PUSH0 REVERT JUMPDEST PUSH0 PUSH0 DUP4 PUSH1 0x1F DUP5 ADD SLT PUSH2 0x9AF JUMPI PUSH2 0x9AE PUSH2 0x98E JUMP JUMPDEST JUMPDEST DUP3 CALLDATALOAD SWAP1 POP PUSH8 0xFFFFFFFFFFFFFFFF DUP2 GT ISZERO PUSH2 0x9CC JUMPI PUSH2 0x9CB PUSH2 0x992 JUMP JUMPDEST JUMPDEST PUSH1 0x20 DUP4 ADD SWAP2 POP DUP4 PUSH1 0x1 DUP3 MUL DUP4 ADD GT ISZERO PUSH2 0x9E8 JUMPI PUSH2 0x9E7 PUSH2 0x996 JUMP JUMPDEST JUMPDEST SWAP3 POP SWAP3 SWAP1 POP JUMP JUMPDEST PUSH0 DUP2 SWAP1 POP SWAP2 SWAP1 POP JUMP JUMPDEST PUSH2 0xA01 DUP2 PUSH2 0x9EF JUMP JUMPDEST DUP2 EQ PUSH2 0xA0B JUMPI PUSH0 PUSH0 REVERT JUMPDEST POP JUMP JUMPDEST PUSH0 DUP2 CALLDATALOAD SWAP1 POP PUSH2 0xA1C DUP2 PUSH2 0x9F8 JUMP JUMPDEST SWAP3 SWAP2 POP POP JUMP JUMPDEST PUSH0 PUSH0 PUSH0 PUSH0 PUSH0 PUSH1 0x60 DUP7 DUP9 SUB SLT ISZERO PUSH2 0xA3B JUMPI PUSH2 0xA3A PUSH2 0x986 JUMP JUMPDEST JUMPDEST PUSH0 DUP7 ADD CALLDATALOAD PUSH8 0xFFFFFFFFFFFFFFFF DUP2 GT ISZERO PUSH2 0xA58 JUMPI PUSH2 0xA57 PUSH2 0x98A JUMP JUMPDEST JUMPDEST PUSH2 0xA64 DUP9 DUP3 DUP10 ADD PUSH2 0x99A JUMP JUMPDEST SWAP6 POP SWAP6 POP POP PUSH1 0x20 DUP7 ADD CALLDATALOAD PUSH8 0xFFFFFFFFFFFFFFFF DUP2 GT ISZERO PUSH2 0xA87 JUMPI PUSH2 0xA86 PUSH2 0x98A JUMP JUMPDEST JUMPDEST PUSH2 0xA93 DUP9 DUP3 DUP10 ADD PUSH2 0x99A JUMP JUMPDEST SWAP4 POP SWAP4 POP POP PUSH1 0x40 PUSH2 0xAA6 DUP9 DUP3 DUP10 ADD PUSH2 0xA0E JUMP JUMPDEST SWAP2 POP POP SWAP3 SWAP6 POP SWAP3 SWAP6 SWAP1 SWAP4 POP JUMP JUMPDEST PUSH1 0x3 DUP2 LT PUSH2 0xABF JUMPI PUSH0 PUSH0 REVERT JUMPDEST POP JUMP JUMPDEST PUSH0 DUP2 CALLDATALOAD SWAP1 POP PUSH2 0xAD0 DUP2 PUSH2 0xAB3 JUMP JUMPDEST SWAP3 SWAP2 POP POP JUMP JUMPDEST PUSH0 PUSH0 PUSH0 PUSH1 0x40 DUP5 DUP7 SUB SLT ISZERO PUSH2 0xAED JUMPI PUSH2 0xAEC PUSH2 0x986 JUMP JUMPDEST JUMPDEST PUSH0 DUP5 ADD CALLDATALOAD PUSH8 0xFFFFFFFFFFFFFFFF DUP2 GT ISZERO PUSH2 0xB0A JUMPI PUSH2 0xB09 PUSH2 0x98A JUMP JUMPDEST JUMPDEST PUSH2 0xB16 DUP7 DUP3 DUP8 ADD PUSH2 0x99A JUMP JUMPDEST SWAP4 POP SWAP4 POP POP PUSH1 0x20 PUSH2 0xB29 DUP7 DUP3 DUP8 ADD PUSH2 0xAC2 JUMP JUMPDEST SWAP2 POP POP SWAP3 POP SWAP3 POP SWAP3 JUMP JUMPDEST PUSH0 PUSH0 REVERT JUMPDEST PUSH0 PUSH1 0x1F NOT PUSH1 0x1F DUP4 ADD AND SWAP1 POP SWAP2 SWAP1 POP JUMP JUMPDEST PUSH32 0x4E487B7100000000000000000000000000000000000000000000000000000000 PUSH0 MSTORE PUSH1 0x41 PUSH1 0x4 MSTORE PUSH1 0x24 PUSH0 REVERT JUMPDEST PUSH2 0xB7D DUP3 PUSH2 0xB37 JUMP JUMPDEST DUP2 ADD DUP2 DUP2 LT PUSH8 0xFFFFFFFFFFFFFFFF DUP3 GT OR ISZERO PUSH2 0xB9C JUMPI PUSH2 0xB9B PUSH2 0xB47 JUMP JUMPDEST JUMPDEST DUP1 PUSH1 0x40 MSTORE POP POP POP JUMP JUMPDEST PUSH0 PUSH2 0xBAE PUSH2 0x97D JUMP JUMPDEST SWAP1 POP PUSH2 0xBBA DUP3 DUP3 PUSH2 0xB74 JUMP JUMPDEST SWAP2 SWAP1 POP JUMP JUMPDEST PUSH0 PUSH8 0xFFFFFFFFFFFFFFFF DUP3 GT ISZERO PUSH2 0xBD9 JUMPI PUSH2 0xBD8 PUSH2 0xB47 JUMP JUMPDEST JUMPDEST PUSH2 0xBE2 DUP3 PUSH2 0xB37 JUMP JUMPDEST SWAP1 POP PUSH1 0x20 DUP2 ADD SWAP1 POP SWAP2 SWAP1 POP JUMP JUMPDEST DUP3 DUP2 DUP4 CALLDATACOPY PUSH0 DUP4 DUP4 ADD MSTORE POP POP POP JUMP JUMPDEST PUSH0 PUSH2 0xC0F PUSH2 0xC0A DUP5 PUSH2 0xBBF JUMP JUMPDEST PUSH2 0xBA5 JUMP JUMPDEST SWAP1 POP DUP3 DUP2 MSTORE PUSH1 0x20 DUP2 ADD DUP5 DUP5 DUP5 ADD GT ISZERO PUSH2 0xC2B JUMPI PUSH2 0xC2A PUSH2 0xB33 JUMP JUMPDEST JUMPDEST PUSH2 0xC36 DUP5 DUP3 DUP6 PUSH2 0xBEF JUMP JUMPDEST POP SWAP4 SWAP3 POP POP POP JUMP JUMPDEST PUSH0 DUP3 PUSH1 0x1F DUP4 ADD SLT PUSH2 0xC52 JUMPI PUSH2 0xC51 PUSH2 0x98E JUMP JUMPDEST JUMPDEST DUP2 CALLDATALOAD PUSH2 0xC62 DUP5 DUP3 PUSH1 0x20 DUP7 ADD PUSH2 0xBFD JUMP JUMPDEST SWAP2 POP POP SWAP3 SWAP2 POP POP JUMP JUMPDEST PUSH0 PUSH1 0x20 DUP3 DUP5 SUB SLT ISZERO PUSH2 0xC80 JUMPI PUSH2 0xC7F PUSH2 0x986 JUMP JUMPDEST JUMPDEST PUSH0 DUP3 ADD CALLDATALOAD PUSH8 0xFFFFFFFFFFFFFFFF DUP2 GT ISZERO PUSH2 0xC9D JUMPI PUSH2 0xC9C PUSH2 0x98A JUMP JUMPDEST JUMPDEST PUSH2 0xCA9 DUP5 DUP3 DUP6 ADD PUSH2 0xC3E JUMP JUMPDEST SWAP2 POP POP SWAP3 SWAP2 POP POP JUMP JUMPDEST PUSH0 DUP2 MLOAD SWAP1 POP SWAP2 SWAP1 POP JUMP JUMPDEST PUSH0 DUP3 DUP3 MSTORE PUSH1 0x20 DUP3 ADD SWAP1 POP SWAP3 SWAP2 POP POP JUMP JUMPDEST DUP3 DUP2 DUP4 MCOPY PUSH0 DUP4 DUP4 ADD MSTORE POP POP POP JUMP JUMPDEST PUSH0 PUSH2 0xCE4 DUP3 PUSH2 0xCB2 JUMP JUMPDEST PUSH2 0xCEE DUP2 DUP6 PUSH2 0xCBC JUMP JUMPDEST SWAP4 POP PUSH2 0xCFE DUP2 DUP6 PUSH1 0x20 DUP7 ADD PUSH2 0xCCC JUMP JUMPDEST PUSH2 0xD07 DUP2 PUSH2 0xB37 JUMP JUMPDEST DUP5 ADD SWAP2 POP POP SWAP3 SWAP2 POP POP JUMP JUMPDEST PUSH2 0xD1B DUP2 PUSH2 0x9EF JUMP JUMPDEST DUP3 MSTORE POP POP JUMP JUMPDEST PUSH32 0x4E487B7100000000000000000000000000000000000000000000000000000000 PUSH0 MSTORE PUSH1 0x21 PUSH1 0x4 MSTORE PUSH1 0x24 PUSH0 REVERT JUMPDEST PUSH1 0x3 DUP2 LT PUSH2 0xD5F JUMPI PUSH2 0xD5E PUSH2 0xD21 JUMP JUMPDEST JUMPDEST POP JUMP JUMPDEST PUSH0 DUP2 SWAP1 POP PUSH2 0xD6F DUP3 PUSH2 0xD4E JUMP JUMPDEST SWAP2 SWAP1 POP JUMP JUMPDEST PUSH0 PUSH2 0xD7E DUP3 PUSH2 0xD62 JUMP JUMPDEST SWAP1 POP SWAP2 SWAP1 POP JUMP JUMPDEST PUSH2 0xD8E DUP2 PUSH2 0xD74 JUMP JUMPDEST DUP3 MSTORE POP POP JUMP JUMPDEST PUSH0 PUSH20 0xFFFFFFFFFFFFFFFFFFFFFFFFFFFFFFFFFFFFFFFF DUP3 AND SWAP1 POP SWAP2 SWAP1 POP JUMP JUMPDEST PUSH0 PUSH2 0xDBD DUP3 PUSH2 0xD94 JUMP JUMPDEST SWAP1 POP SWAP2 SWAP1 POP JUMP JUMPDEST PUSH2 0xDCD DUP2 PUSH2 0xDB3 JUMP JUMPDEST DUP3 MSTORE POP POP JUMP JUMPDEST PUSH0 PUSH1 0xE0 DUP3 ADD SWAP1 POP DUP2 DUP2 SUB PUSH0 DUP4 ADD MSTORE PUSH2 0xDEB DUP2 DUP11 PUSH2 0xCDA JUMP JUMPDEST SWAP1 POP DUP2 DUP2 SUB PUSH1 0x20 DUP4 ADD MSTORE PUSH2 0xDFF DUP2 DUP10 PUSH2 0xCDA JUMP JUMPDEST SWAP1 POP PUSH2 0xE0E PUSH1 0x40 DUP4 ADD DUP9 PUSH2 0xD12 JUMP JUMPDEST PUSH2 0xE1B PUSH1 0x60 DUP4 ADD DUP8 PUSH2 0xD12 JUMP JUMPDEST PUSH2 0xE28 PUSH1 0x80 DUP4 ADD DUP7 PUSH2 0xD85 JUMP JUMPDEST PUSH2 0xE35 PUSH1 0xA0 DUP4 ADD DUP6 PUSH2 0xDC4 JUMP JUMPDEST PUSH2 0xE42 PUSH1 0xC0 DUP4 ADD DUP5 PUSH2 0xD12 JUMP JUMPDEST SWAP9 SWAP8 POP POP POP POP POP POP POP POP JUMP JUMPDEST PUSH0 PUSH1 0x20 DUP3 ADD SWAP1 POP PUSH2 0xE61 PUSH0 DUP4 ADD DUP5 PUSH2 0xD12 JUMP JUMPDEST SWAP3 SWAP2 POP POP JUMP JUMPDEST PUSH2 0xE70 DUP2 PUSH2 0xDB3 JUMP JUMPDEST DUP2 EQ PUSH2 0xE7A JUMPI PUSH0 PUSH0 REVERT JUMPDEST POP JUMP JUMPDEST PUSH0 DUP2 CALLDATALOAD SWAP1 POP PUSH2 0xE8B DUP2 PUSH2 0xE67 JUMP JUMPDEST SWAP3 SWAP2 POP POP JUMP JUMPDEST PUSH0 PUSH0 PUSH0 PUSH1 0x40 DUP5 DUP7 SUB SLT ISZERO PUSH2 0xEA8 JUMPI PUSH2 0xEA7 PUSH2 0x986 JUMP JUMPDEST JUMPDEST PUSH0 PUSH2 0xEB5 DUP7 DUP3 DUP8 ADD PUSH2 0xE7D JUMP JUMPDEST SWAP4 POP POP PUSH1 0x20 DUP5 ADD CALLDATALOAD PUSH8 0xFFFFFFFFFFFFFFFF DUP2 GT ISZERO PUSH2 0xED6 JUMPI PUSH2 0xED5 PUSH2 0x98A JUMP JUMPDEST JUMPDEST PUSH2 0xEE2 DUP7 DUP3 DUP8 ADD PUSH2 0x99A JUMP JUMPDEST SWAP3 POP SWAP3 POP POP SWAP3 POP SWAP3 POP SWAP3 JUMP JUMPDEST PUSH0 PUSH0 PUSH1 0x20 DUP4 DUP6 SUB SLT ISZERO PUSH2 0xF04 JUMPI PUSH2 0xF03 PUSH2 0x986 JUMP JUMPDEST JUMPDEST PUSH0 DUP4 ADD CALLDATALOAD PUSH8 0xFFFFFFFFFFFFFFFF DUP2 GT ISZERO PUSH2 0xF21 JUMPI PUSH2 0xF20 PUSH2 0x98A JUMP JUMPDEST JUMPDEST PUSH2 0xF2D DUP6 DUP3 DUP7 ADD PUSH2 0x99A JUMP JUMPDEST SWAP3 POP SWAP3 POP POP SWAP3 POP SWAP3 SWAP1 POP JUMP JUMPDEST PUSH0 PUSH0 PUSH0 PUSH1 0x40 DUP5 DUP7 SUB SLT ISZERO PUSH2 0xF50 JUMPI PUSH2 0xF4F PUSH2 0x986 JUMP JUMPDEST JUMPDEST PUSH0 DUP5 ADD CALLDATALOAD PUSH8 0xFFFFFFFFFFFFFFFF DUP2 GT ISZERO PUSH2 0xF6D JUMPI PUSH2 0xF6C PUSH2 0x98A JUMP JUMPDEST JUMPDEST PUSH2 0xF79 DUP7 DUP3 DUP8 ADD PUSH2 0x99A JUMP JUMPDEST SWAP4 POP SWAP4 POP POP PUSH1 0x20 PUSH2 0xF8C DUP7 DUP3 DUP8 ADD PUSH2 0xA0E JUMP JUMPDEST SWAP2 POP POP SWAP3 POP SWAP3 POP SWAP3 JUMP JUMPDEST PUSH32 0x4E487B7100000000000000000000000000000000000000000000000000000000 PUSH0 MSTORE PUSH1 0x11 PUSH1 0x4 MSTORE PUSH1 0x24 PUSH0 REVERT JUMPDEST PUSH0 PUSH2 0xFCD DUP3 PUSH2 0x9EF JUMP JUMPDEST SWAP2 POP PUSH2 0xFD8 DUP4 PUSH2 0x9EF JUMP JUMPDEST SWAP3 POP DUP3 DUP3 MUL PUSH2 0xFE6 DUP2 PUSH2 0x9EF JUMP JUMPDEST SWAP2 POP DUP3 DUP3 DIV DUP5 EQ DUP4 ISZERO OR PUSH2 0xFFD JUMPI PUSH2 0xFFC PUSH2 0xF96 JUMP JUMPDEST JUMPDEST POP SWAP3 SWAP2 POP POP JUMP JUMPDEST PUSH0 PUSH2 0x100E DUP3 PUSH2 0x9EF JUMP JUMPDEST SWAP2 POP PUSH2 0x1019 DUP4 PUSH2 0x9EF JUMP JUMPDEST SWAP3 POP DUP3 DUP3 ADD SWAP1 POP DUP1 DUP3 GT ISZERO PUSH2 0x1031 JUMPI PUSH2 0x1030 PUSH2 0xF96 JUMP JUMPDEST JUMPDEST SWAP3 SWAP2 POP POP JUMP JUMPDEST PUSH0 DUP2 SWAP1 POP SWAP3 SWAP2 POP POP JUMP JUMPDEST PUSH0 PUSH2 0x104C DUP4 DUP6 PUSH2 0x1037 JUMP JUMPDEST SWAP4 POP PUSH2 0x1059 DUP4 DUP6 DUP5 PUSH2 0xBEF JUMP JUMPDEST DUP3 DUP5 ADD SWAP1 POP SWAP4 SWAP3 POP POP POP JUMP JUMPDEST PUSH0 PUSH2 0x1071 DUP3 DUP5 DUP7 PUSH2 0x1041 JUMP JUMPDEST SWAP2 POP DUP2 SWAP1 POP SWAP4 SWAP3 POP POP POP JUMP JUMPDEST PUSH32 0x4E487B7100000000000000000000000000000000000000000000000000000000 PUSH0 MSTORE PUSH1 0x22 PUSH1 0x4 MSTORE PUSH1 0x24 PUSH0 REVERT JUMPDEST PUSH0 PUSH1 0x2 DUP3 DIV SWAP1 POP PUSH1 0x1 DUP3 AND DUP1 PUSH2 0x10C1 JUMPI PUSH1 0x7F DUP3 AND SWAP2 POP JUMPDEST PUSH1 0x20 DUP3 LT DUP2 SUB PUSH2 0x10D4 JUMPI PUSH2 0x10D3 PUSH2 0x107D JUMP JUMPDEST JUMPDEST POP SWAP2 SWAP1 POP JUMP JUMPDEST PUSH0 DUP2 SWAP1 POP DUP2 PUSH0 MSTORE PUSH1 0x20 PUSH0 KECCAK256 SWAP1 POP SWAP2 SWAP1 POP JUMP JUMPDEST PUSH0 PUSH1 0x20 PUSH1 0x1F DUP4 ADD DIV SWAP1 POP SWAP2 SWAP1 POP JUMP JUMPDEST PUSH0 DUP3 DUP3 SHL SWAP1 POP SWAP3 SWAP2 POP POP JUMP JUMPDEST PUSH0 PUSH1 0x8 DUP4 MUL PUSH2 0x1136 PUSH32 0xFFFFFFFFFFFFFFFFFFFFFFFFFFFFFFFFFFFFFFFFFFFFFFFFFFFFFFFFFFFFFFFF DUP3 PUSH2 0x10FB JUMP JUMPDEST PUSH2 0x1140 DUP7 DUP4 PUSH2 0x10FB JUMP JUMPDEST SWAP6 POP DUP1 NOT DUP5 AND SWAP4 POP DUP1 DUP7 AND DUP5 OR SWAP3 POP POP POP SWAP4 SWAP3 POP POP POP JUMP JUMPDEST PUSH0 DUP2 SWAP1 POP SWAP2 SWAP1 POP JUMP JUMPDEST PUSH0 PUSH2 0x117B PUSH2 0x1176 PUSH2 0x1171 DUP5 PUSH2 0x9EF JUMP JUMPDEST PUSH2 0x1158 JUMP JUMPDEST PUSH2 0x9EF JUMP JUMPDEST SWAP1 POP SWAP2 SWAP1 POP JUMP JUMPDEST PUSH0 DUP2 SWAP1 POP SWAP2 SWAP1 POP JUMP JUMPDEST PUSH2 0x1194 DUP4 PUSH2 0x1161 JUMP JUMPDEST PUSH2 0x11A8 PUSH2 0x11A0 DUP3 PUSH2 0x1182 JUMP JUMPDEST DUP5 DUP5 SLOAD PUSH2 0x1107 JUMP JUMPDEST DUP3 SSTORE POP POP POP POP JUMP JUMPDEST PUSH0 PUSH0 SWAP1 POP SWAP1 JUMP JUMPDEST PUSH2 0x11BF PUSH2 0x11B0 JUMP JUMPDEST PUSH2 0x11CA DUP2 DUP5 DUP5 PUSH2 0x118B JUMP JUMPDEST POP POP POP JUMP JUMPDEST JUMPDEST DUP2 DUP2 LT ISZERO PUSH2 0x11ED JUMPI PUSH2 0x11E2 PUSH0 DUP3 PUSH2 0x11B7 JUMP JUMPDEST PUSH1 0x1 DUP2 ADD SWAP1 POP PUSH2 0x11D0 JUMP JUMPDEST POP POP JUMP JUMPDEST PUSH1 0x1F DUP3 GT ISZERO PUSH2 0x1232 JUMPI PUSH2 0x1203 DUP2 PUSH2 0x10DA JUMP JUMPDEST PUSH2 0x120C DUP5 PUSH2 0x10EC JUMP JUMPDEST DUP2 ADD PUSH1 0x20 DUP6 LT ISZERO PUSH2 0x121B JUMPI DUP2 SWAP1 POP JUMPDEST PUSH2 0x122F PUSH2 0x1227 DUP6 PUSH2 0x10EC JUMP JUMPDEST DUP4 ADD DUP3 PUSH2 0x11CF JUMP JUMPDEST POP POP JUMPDEST POP POP POP JUMP JUMPDEST PUSH0 DUP3 DUP3 SHR SWAP1 POP SWAP3 SWAP2 POP POP JUMP JUMPDEST PUSH0 PUSH2 0x1252 PUSH0 NOT DUP5 PUSH1 0x8 MUL PUSH2 0x1237 JUMP JUMPDEST NOT DUP1 DUP4 AND SWAP2 POP POP SWAP3 SWAP2 POP POP JUMP JUMPDEST PUSH0 PUSH2 0x126A DUP4 DUP4 PUSH2 0x1243 JUMP JUMPDEST SWAP2 POP DUP3 PUSH1 0x2 MUL DUP3 OR SWAP1 POP SWAP3 SWAP2 POP POP JUMP JUMPDEST PUSH2 0x1283 DUP3 PUSH2 0xCB2 JUMP JUMPDEST PUSH8 0xFFFFFFFFFFFFFFFF DUP2 GT ISZERO PUSH2 0x129C JUMPI PUSH2 0x129B PUSH2 0xB47 JUMP JUMPDEST JUMPDEST PUSH2 0x12A6 DUP3 SLOAD PUSH2 0x10AA JUMP JUMPDEST PUSH2 0x12B1 DUP3 DUP3 DUP6 PUSH2 0x11F1 JUMP JUMPDEST PUSH0 PUSH1 0x20 SWAP1 POP PUSH1 0x1F DUP4 GT PUSH1 0x1 DUP2 EQ PUSH2 0x12E2 JUMPI PUSH0 DUP5 ISZERO PUSH2 0x12D0 JUMPI DUP3 DUP8 ADD MLOAD SWAP1 POP JUMPDEST PUSH2 0x12DA DUP6 DUP3 PUSH2 0x125F JUMP JUMPDEST DUP7 SSTORE POP PUSH2 0x1341 JUMP JUMPDEST PUSH1 0x1F NOT DUP5 AND PUSH2 0x12F0 DUP7 PUSH2 0x10DA JUMP JUMPDEST PUSH0 JUMPDEST DUP3 DUP2 LT ISZERO PUSH2 0x1317 JUMPI DUP5 DUP10 ADD MLOAD DUP3 SSTORE PUSH1 0x1 DUP3 ADD SWAP2 POP PUSH1 0x20 DUP6 ADD SWAP5 POP PUSH1 0x20 DUP2 ADD SWAP1 POP PUSH2 0x12F2 JUMP JUMPDEST DUP7 DUP4 LT ISZERO PUSH2 0x1334 JUMPI DUP5 DUP10 ADD MLOAD PUSH2 0x1330 PUSH1 0x1F DUP10 AND DUP3 PUSH2 0x1243 JUMP JUMPDEST DUP4 SSTORE POP JUMPDEST PUSH1 0x1 PUSH1 0x2 DUP9 MUL ADD DUP9 SSTORE POP POP POP JUMPDEST POP POP POP POP POP POP JUMP JUMPDEST PUSH32 0x426F6F6B206973206F7574646174656400000000000000000000000000000000 PUSH0 DUP3 ADD MSTORE POP JUMP JUMPDEST PUSH0 PUSH2 0x137D PUSH1 0x10 DUP4 PUSH2 0xCBC JUMP JUMPDEST SWAP2 POP PUSH2 0x1388 DUP3 PUSH2 0x1349 JUMP JUMPDEST PUSH1 0x20 DUP3 ADD SWAP1 POP SWAP2 SWAP1 POP JUMP JUMPDEST PUSH0 PUSH1 0x20 DUP3 ADD SWAP1 POP DUP2 DUP2 SUB PUSH0 DUP4 ADD MSTORE PUSH2 0x13AA DUP2 PUSH2 0x1371 JUMP JUMPDEST SWAP1 POP SWAP2 SWAP1 POP JUMP JUMPDEST PUSH32 0x4E487B7100000000000000000000000000000000000000000000000000000000 PUSH0 MSTORE PUSH1 0x32 PUSH1 0x4 MSTORE PUSH1 0x24 PUSH0 REVERT JUMPDEST PUSH0 PUSH2 0x13E8 DUP3 PUSH2 0x9EF JUMP JUMPDEST SWAP2 POP PUSH32 0xFFFFFFFFFFFFFFFFFFFFFFFFFFFFFFFFFFFFFFFFFFFFFFFFFFFFFFFFFFFFFFFF DUP3 SUB PUSH2 0x141A JUMPI PUSH2 0x1419 PUSH2 0xF96 JUMP JUMPDEST JUMPDEST PUSH1 0x1 DUP3 ADD SWAP1 POP SWAP2 SWAP1 POP JUMP INVALID LOG2 PUSH5 0x6970667358 0x22 SLT KECCAK256 0xAB PUSH27 0xB7F0B9523122F2FD01A00975AEA6E985597AD7777C8375978DAB5 0xF PUSH30 0x9764736F6C634300081C0033000000000000000000000000000000000000 "
		},
		"gasEstimates": {
			"creation": {
				"codeDepositCost": "1042200",
				"executionCost": "23184",
				"totalCost": "1065384"
			},
			"external": {
				"addLibrarian(address,string)": "infinite",
				"books(string)": "infinite",
				"changeStatus(string,uint8)": "infinite",
				"checkExpiration(string)": "infinite",
				"createEbook(string,string,uint256)": "infinite",
				"defaultExpirationTime()": "2425",
				"extendExpirationDate(string,uint256)": "infinite"
			}
		},
		"methodIdentifiers": {
			"addLibrarian(address,string)": "8f9276ff",
			"books(string)": "2b9dfe80",
			"changeStatus(string,uint8)": "28d1f35e",
			"checkExpiration(string)": "97e3e9c4",
			"createEbook(string,string,uint256)": "186f9804",
			"defaultExpirationTime()": "6d1b88de",
			"extendExpirationDate(string,uint256)": "ee590c4e"
		}
	},
	"abi": [
		{
			"inputs": [],
			"name": "UnauthorizedLibrarian",
			"type": "error"
		},
		{
			"inputs": [
				{
					"internalType": "address",
					"name": "librarian",
					"type": "address"
				},
				{
					"internalType": "string",
					"name": "title",
					"type": "string"
				}
			],
			"name": "addLibrarian",
			"outputs": [],
			"stateMutability": "nonpayable",
			"type": "function"
		},
		{
			"inputs": [
				{
					"internalType": "string",
					"name": "",
					"type": "string"
				}
			],
			"name": "books",
			"outputs": [
				{
					"internalType": "string",
					"name": "title",
					"type": "string"
				},
				{
					"internalType": "string",
					"name": "author",
					"type": "string"
				},
				{
					"internalType": "uint256",
					"name": "publicationDate",
					"type": "uint256"
				},
				{
					"internalType": "uint256",
					"name": "expirationDate",
					"type": "uint256"
				},
				{
					"internalType": "enum Status",
					"name": "status",
					"type": "uint8"
				},
				{
					"internalType": "address",
					"name": "primaryLibrarian",
					"type": "address"
				},
				{
					"internalType": "uint256",
					"name": "readCount",
					"type": "uint256"
				}
			],
			"stateMutability": "view",
			"type": "function"
		},
		{
			"inputs": [
				{
					"internalType": "string",
					"name": "title",
					"type": "string"
				},
				{
					"internalType": "enum Status",
					"name": "newStatus",
					"type": "uint8"
				}
			],
			"name": "changeStatus",
			"outputs": [],
			"stateMutability": "nonpayable",
			"type": "function"
		},
		{
			"inputs": [
				{
					"internalType": "string",
					"name": "title",
					"type": "string"
				}
			],
			"name": "checkExpiration",
			"outputs": [],
			"stateMutability": "nonpayable",
			"type": "function"
		},
		{
			"inputs": [
				{
					"internalType": "string",
					"name": "_title",
					"type": "string"
				},
				{
					"internalType": "string",
					"name": "_author",
					"type": "string"
				},
				{
					"internalType": "uint256",
					"name": "_publicationDate",
					"type": "uint256"
				}
			],
			"name": "createEbook",
			"outputs": [],
			"stateMutability": "nonpayable",
			"type": "function"
		},
		{
			"inputs": [],
			"name": "defaultExpirationTime",
			"outputs": [
				{
					"internalType": "uint256",
					"name": "",
					"type": "uint256"
				}
			],
			"stateMutability": "view",
			"type": "function"
		},
		{
			"inputs": [
				{
					"internalType": "string",
					"name": "title",
					"type": "string"
				},
				{
					"internalType": "uint256",
					"name": "newExpirationDate",
					"type": "uint256"
				}
			],
			"name": "extendExpirationDate",
			"outputs": [],
			"stateMutability": "nonpayable",
			"type": "function"
		}
	]
}